{
  "contractName": "TicketContract",
  "abi": [
    {
      "inputs": [],
      "stateMutability": "nonpayable",
      "type": "constructor"
    },
    {
      "anonymous": false,
      "inputs": [
        {
          "indexed": true,
          "internalType": "address",
          "name": "account",
          "type": "address"
        },
        {
          "indexed": true,
          "internalType": "address",
          "name": "operator",
          "type": "address"
        },
        {
          "indexed": false,
          "internalType": "bool",
          "name": "approved",
          "type": "bool"
        }
      ],
      "name": "ApprovalForAll",
      "type": "event"
    },
    {
      "anonymous": false,
      "inputs": [
        {
          "indexed": true,
          "internalType": "address",
          "name": "previousOwner",
          "type": "address"
        },
        {
          "indexed": true,
          "internalType": "address",
          "name": "newOwner",
          "type": "address"
        }
      ],
      "name": "OwnershipTransferred",
      "type": "event"
    },
    {
      "anonymous": false,
      "inputs": [
        {
          "indexed": false,
          "internalType": "address",
          "name": "account",
          "type": "address"
        }
      ],
      "name": "Paused",
      "type": "event"
    },
    {
      "anonymous": false,
      "inputs": [
        {
          "indexed": true,
          "internalType": "uint256",
          "name": "id",
          "type": "uint256"
        },
        {
          "indexed": true,
          "internalType": "address",
          "name": "minter",
          "type": "address"
        },
        {
          "indexed": true,
          "internalType": "string",
          "name": "name",
          "type": "string"
        },
        {
          "indexed": false,
          "internalType": "uint256",
          "name": "price",
          "type": "uint256"
        },
        {
          "indexed": false,
          "internalType": "uint256",
          "name": "amount",
          "type": "uint256"
        },
        {
          "indexed": false,
          "internalType": "uint256",
          "name": "maxSellPerPerson",
          "type": "uint256"
        }
      ],
      "name": "TicketCreated",
      "type": "event"
    },
    {
      "anonymous": false,
      "inputs": [
        {
          "indexed": true,
          "internalType": "uint256",
          "name": "id",
          "type": "uint256"
        },
        {
          "indexed": true,
          "internalType": "address",
          "name": "seller",
          "type": "address"
        },
        {
          "indexed": true,
          "internalType": "address",
          "name": "buyer",
          "type": "address"
        },
        {
          "indexed": false,
          "internalType": "uint256",
          "name": "amount",
          "type": "uint256"
        }
      ],
      "name": "TicketSold",
      "type": "event"
    },
    {
      "anonymous": false,
      "inputs": [
        {
          "indexed": true,
          "internalType": "address",
          "name": "operator",
          "type": "address"
        },
        {
          "indexed": true,
          "internalType": "address",
          "name": "from",
          "type": "address"
        },
        {
          "indexed": true,
          "internalType": "address",
          "name": "to",
          "type": "address"
        },
        {
          "indexed": false,
          "internalType": "uint256[]",
          "name": "ids",
          "type": "uint256[]"
        },
        {
          "indexed": false,
          "internalType": "uint256[]",
          "name": "values",
          "type": "uint256[]"
        }
      ],
      "name": "TransferBatch",
      "type": "event"
    },
    {
      "anonymous": false,
      "inputs": [
        {
          "indexed": true,
          "internalType": "address",
          "name": "operator",
          "type": "address"
        },
        {
          "indexed": true,
          "internalType": "address",
          "name": "from",
          "type": "address"
        },
        {
          "indexed": true,
          "internalType": "address",
          "name": "to",
          "type": "address"
        },
        {
          "indexed": false,
          "internalType": "uint256",
          "name": "id",
          "type": "uint256"
        },
        {
          "indexed": false,
          "internalType": "uint256",
          "name": "value",
          "type": "uint256"
        }
      ],
      "name": "TransferSingle",
      "type": "event"
    },
    {
      "anonymous": false,
      "inputs": [
        {
          "indexed": false,
          "internalType": "string",
          "name": "value",
          "type": "string"
        },
        {
          "indexed": true,
          "internalType": "uint256",
          "name": "id",
          "type": "uint256"
        }
      ],
      "name": "URI",
      "type": "event"
    },
    {
      "anonymous": false,
      "inputs": [
        {
          "indexed": false,
          "internalType": "address",
          "name": "account",
          "type": "address"
        }
      ],
      "name": "Unpaused",
      "type": "event"
    },
    {
      "inputs": [
        {
          "internalType": "address",
          "name": "account",
          "type": "address"
        },
        {
          "internalType": "uint256",
          "name": "id",
          "type": "uint256"
        }
      ],
      "name": "balanceOf",
      "outputs": [
        {
          "internalType": "uint256",
          "name": "",
          "type": "uint256"
        }
      ],
      "stateMutability": "view",
      "type": "function",
      "constant": true
    },
    {
      "inputs": [
        {
          "internalType": "address[]",
          "name": "accounts",
          "type": "address[]"
        },
        {
          "internalType": "uint256[]",
          "name": "ids",
          "type": "uint256[]"
        }
      ],
      "name": "balanceOfBatch",
      "outputs": [
        {
          "internalType": "uint256[]",
          "name": "",
          "type": "uint256[]"
        }
      ],
      "stateMutability": "view",
      "type": "function",
      "constant": true
    },
    {
      "inputs": [
        {
          "internalType": "address",
          "name": "account",
          "type": "address"
        },
        {
          "internalType": "uint256[]",
          "name": "ids",
          "type": "uint256[]"
        },
        {
          "internalType": "uint256[]",
          "name": "values",
          "type": "uint256[]"
        }
      ],
      "name": "burnBatch",
      "outputs": [],
      "stateMutability": "nonpayable",
      "type": "function"
    },
    {
      "inputs": [
        {
          "internalType": "address",
          "name": "account",
          "type": "address"
        },
        {
          "internalType": "address",
          "name": "operator",
          "type": "address"
        }
      ],
      "name": "isApprovedForAll",
      "outputs": [
        {
          "internalType": "bool",
          "name": "",
          "type": "bool"
        }
      ],
      "stateMutability": "view",
      "type": "function",
      "constant": true
    },
    {
      "inputs": [],
      "name": "nonce",
      "outputs": [
        {
          "internalType": "uint256",
          "name": "",
          "type": "uint256"
        }
      ],
      "stateMutability": "view",
      "type": "function",
      "constant": true
    },
    {
      "inputs": [],
      "name": "owner",
      "outputs": [
        {
          "internalType": "address",
          "name": "",
          "type": "address"
        }
      ],
      "stateMutability": "view",
      "type": "function",
      "constant": true
    },
    {
      "inputs": [],
      "name": "paused",
      "outputs": [
        {
          "internalType": "bool",
          "name": "",
          "type": "bool"
        }
      ],
      "stateMutability": "view",
      "type": "function",
      "constant": true
    },
    {
      "inputs": [],
      "name": "renounceOwnership",
      "outputs": [],
      "stateMutability": "nonpayable",
      "type": "function"
    },
    {
      "inputs": [
        {
          "internalType": "address",
          "name": "from",
          "type": "address"
        },
        {
          "internalType": "address",
          "name": "to",
          "type": "address"
        },
        {
          "internalType": "uint256[]",
          "name": "ids",
          "type": "uint256[]"
        },
        {
          "internalType": "uint256[]",
          "name": "amounts",
          "type": "uint256[]"
        },
        {
          "internalType": "bytes",
          "name": "data",
          "type": "bytes"
        }
      ],
      "name": "safeBatchTransferFrom",
      "outputs": [],
      "stateMutability": "nonpayable",
      "type": "function"
    },
    {
      "inputs": [
        {
          "internalType": "address",
          "name": "from",
          "type": "address"
        },
        {
          "internalType": "address",
          "name": "to",
          "type": "address"
        },
        {
          "internalType": "uint256",
          "name": "id",
          "type": "uint256"
        },
        {
          "internalType": "uint256",
          "name": "amount",
          "type": "uint256"
        },
        {
          "internalType": "bytes",
          "name": "data",
          "type": "bytes"
        }
      ],
      "name": "safeTransferFrom",
      "outputs": [],
      "stateMutability": "nonpayable",
      "type": "function"
    },
    {
      "inputs": [
        {
          "internalType": "address",
          "name": "operator",
          "type": "address"
        },
        {
          "internalType": "bool",
          "name": "approved",
          "type": "bool"
        }
      ],
      "name": "setApprovalForAll",
      "outputs": [],
      "stateMutability": "nonpayable",
      "type": "function"
    },
    {
      "inputs": [
        {
          "internalType": "bytes4",
          "name": "interfaceId",
          "type": "bytes4"
        }
      ],
      "name": "supportsInterface",
      "outputs": [
        {
          "internalType": "bool",
          "name": "",
          "type": "bool"
        }
      ],
      "stateMutability": "view",
      "type": "function",
      "constant": true
    },
    {
      "inputs": [
        {
          "internalType": "uint256",
          "name": "",
          "type": "uint256"
        }
      ],
      "name": "tickets",
      "outputs": [
        {
          "internalType": "uint256",
          "name": "id",
          "type": "uint256"
        },
        {
          "internalType": "string",
          "name": "name",
          "type": "string"
        },
        {
          "internalType": "uint256",
          "name": "price",
          "type": "uint256"
        },
        {
          "internalType": "uint256",
          "name": "maxSellPerPerson",
          "type": "uint256"
        },
        {
          "internalType": "string",
          "name": "infoUrl",
          "type": "string"
        }
      ],
      "stateMutability": "view",
      "type": "function",
      "constant": true
    },
    {
      "inputs": [
        {
          "internalType": "uint256",
          "name": "",
          "type": "uint256"
        }
      ],
      "name": "tokenIds",
      "outputs": [
        {
          "internalType": "uint256",
          "name": "",
          "type": "uint256"
        }
      ],
      "stateMutability": "view",
      "type": "function",
      "constant": true
    },
    {
      "inputs": [],
      "name": "tokenIdsLength",
      "outputs": [
        {
          "internalType": "uint256",
          "name": "",
          "type": "uint256"
        }
      ],
      "stateMutability": "view",
      "type": "function",
      "constant": true
    },
    {
      "inputs": [
        {
          "internalType": "address",
          "name": "newOwner",
          "type": "address"
        }
      ],
      "name": "transferOwnership",
      "outputs": [],
      "stateMutability": "nonpayable",
      "type": "function"
    },
    {
      "inputs": [
        {
          "internalType": "uint256",
          "name": "",
          "type": "uint256"
        }
      ],
      "name": "uri",
      "outputs": [
        {
          "internalType": "string",
          "name": "",
          "type": "string"
        }
      ],
      "stateMutability": "view",
      "type": "function",
      "constant": true
    },
    {
      "inputs": [
        {
          "internalType": "string",
          "name": "name",
          "type": "string"
        },
        {
          "internalType": "uint256",
          "name": "price",
          "type": "uint256"
        },
        {
          "internalType": "uint256",
          "name": "amount",
          "type": "uint256"
        },
        {
          "internalType": "uint256",
          "name": "maxSellPerPerson",
          "type": "uint256"
        },
        {
          "internalType": "string",
          "name": "infoUrl",
          "type": "string"
        },
        {
          "internalType": "bytes",
          "name": "data",
          "type": "bytes"
        }
      ],
      "name": "create",
      "outputs": [],
      "stateMutability": "nonpayable",
      "type": "function"
    },
    {
      "inputs": [
        {
          "internalType": "uint256",
          "name": "id",
          "type": "uint256"
        },
        {
          "internalType": "uint256",
          "name": "amount",
          "type": "uint256"
        },
        {
          "internalType": "bytes",
          "name": "data",
          "type": "bytes"
        }
      ],
      "name": "buy",
      "outputs": [],
      "stateMutability": "payable",
      "type": "function",
      "payable": true
    },
    {
      "inputs": [
        {
          "internalType": "address",
          "name": "account",
          "type": "address"
        },
        {
          "internalType": "uint256",
          "name": "id",
          "type": "uint256"
        },
        {
          "internalType": "uint256",
          "name": "amount",
          "type": "uint256"
        }
      ],
      "name": "burn",
      "outputs": [],
      "stateMutability": "nonpayable",
      "type": "function"
    },
    {
      "inputs": [],
      "name": "pause",
      "outputs": [],
      "stateMutability": "nonpayable",
      "type": "function"
    },
    {
      "inputs": [],
      "name": "unpause",
      "outputs": [],
      "stateMutability": "nonpayable",
      "type": "function"
    }
  ],
  "bytecode": "0x60806040523480156200001157600080fd5b506040518060200160405280600081525062000033816200007d60201b60201c565b5062000054620000486200009260201b60201c565b6200009a60201b60201c565b6000600360146101000a81548160ff0219169083151502179055506000600481905550620004c1565b80600290816200008e9190620003da565b5050565b600033905090565b6000600360009054906101000a900473ffffffffffffffffffffffffffffffffffffffff16905081600360006101000a81548173ffffffffffffffffffffffffffffffffffffffff021916908373ffffffffffffffffffffffffffffffffffffffff1602179055508173ffffffffffffffffffffffffffffffffffffffff168173ffffffffffffffffffffffffffffffffffffffff167f8be0079c531659141344cd1fd0a4f28419497f9722a3daafe3b4186f6b6457e060405160405180910390a35050565b600081519050919050565b7f4e487b7100000000000000000000000000000000000000000000000000000000600052604160045260246000fd5b7f4e487b7100000000000000000000000000000000000000000000000000000000600052602260045260246000fd5b60006002820490506001821680620001e257607f821691505b602082108103620001f857620001f76200019a565b5b50919050565b60008190508160005260206000209050919050565b60006020601f8301049050919050565b600082821b905092915050565b600060088302620002627fffffffffffffffffffffffffffffffffffffffffffffffffffffffffffffffff8262000223565b6200026e868362000223565b95508019841693508086168417925050509392505050565b6000819050919050565b6000819050919050565b6000620002bb620002b5620002af8462000286565b62000290565b62000286565b9050919050565b6000819050919050565b620002d7836200029a565b620002ef620002e682620002c2565b84845462000230565b825550505050565b600090565b62000306620002f7565b62000313818484620002cc565b505050565b5b818110156200033b576200032f600082620002fc565b60018101905062000319565b5050565b601f8211156200038a576200035481620001fe565b6200035f8462000213565b810160208510156200036f578190505b620003876200037e8562000213565b83018262000318565b50505b505050565b600082821c905092915050565b6000620003af600019846008026200038f565b1980831691505092915050565b6000620003ca83836200039c565b9150826002028217905092915050565b620003e58262000160565b67ffffffffffffffff8111156200040157620004006200016b565b5b6200040d8254620001c9565b6200041a8282856200033f565b600060209050601f8311600181146200045257600084156200043d578287015190505b620004498582620003bc565b865550620004b9565b601f1984166200046286620001fe565b60005b828110156200048c5784890151825560018201915060208501945060208101905062000465565b86831015620004ac5784890151620004a8601f8916826200039c565b8355505b6001600288020188555050505b505050505050565b6148e580620004d16000396000f3fe6080604052600436106101345760003560e01c8063715018a6116100ab578063d58778d61161006f578063d58778d6146103f4578063e6b7ad7914610431578063e985e9c51461045c578063f242432a14610499578063f2fde38b146104c2578063f5298aca146104eb57610134565b8063715018a6146103475780638456cb591461035e5780638da5cb5b14610375578063a22cb465146103a0578063affed0e0146103c957610134565b80632eb2c2d6116100fd5780632eb2c2d6146102355780633f4ba83a1461025e5780634e1273f41461027557806350b44712146102b25780635c975abb146102f35780636b20c4541461031e57610134565b8062fdd58e1461013957806301ffc9a714610176578063046e2b09146101b35780630e89341c146101dc5780631efd73a514610219575b600080fd5b34801561014557600080fd5b50610160600480360381019061015b9190612941565b610514565b60405161016d9190612990565b60405180910390f35b34801561018257600080fd5b5061019d60048036038101906101989190612a03565b6105dc565b6040516101aa9190612a4b565b60405180910390f35b3480156101bf57600080fd5b506101da60048036038101906101d59190612c4d565b6106be565b005b3480156101e857600080fd5b5061020360048036038101906101fe9190612d2e565b6108fa565b6040516102109190612de3565b60405180910390f35b610233600480360381019061022e9190612e05565b61098e565b005b34801561024157600080fd5b5061025c60048036038101906102579190612f3c565b610ca3565b005b34801561026a57600080fd5b50610273610d44565b005b34801561028157600080fd5b5061029c600480360381019061029791906130ce565b610d56565b6040516102a99190613204565b60405180910390f35b3480156102be57600080fd5b506102d960048036038101906102d49190612d2e565b610e6f565b6040516102ea959493929190613226565b60405180910390f35b3480156102ff57600080fd5b50610308610fb5565b6040516103159190612a4b565b60405180910390f35b34801561032a57600080fd5b5061034560048036038101906103409190613287565b610fcc565b005b34801561035357600080fd5b5061035c611069565b005b34801561036a57600080fd5b5061037361107d565b005b34801561038157600080fd5b5061038a61108f565b6040516103979190613321565b60405180910390f35b3480156103ac57600080fd5b506103c760048036038101906103c29190613368565b6110b9565b005b3480156103d557600080fd5b506103de6110cf565b6040516103eb9190612990565b60405180910390f35b34801561040057600080fd5b5061041b60048036038101906104169190612d2e565b6110d5565b6040516104289190612990565b60405180910390f35b34801561043d57600080fd5b506104466110f9565b6040516104539190612990565b60405180910390f35b34801561046857600080fd5b50610483600480360381019061047e91906133a8565b6110ff565b6040516104909190612a4b565b60405180910390f35b3480156104a557600080fd5b506104c060048036038101906104bb91906133e8565b611193565b005b3480156104ce57600080fd5b506104e960048036038101906104e4919061347f565b611234565b005b3480156104f757600080fd5b50610512600480360381019061050d91906134ac565b6112b7565b005b60008073ffffffffffffffffffffffffffffffffffffffff168373ffffffffffffffffffffffffffffffffffffffff1603610584576040517f08c379a000000000000000000000000000000000000000000000000000000000815260040161057b90613571565b60405180910390fd5b60008083815260200190815260200160002060008473ffffffffffffffffffffffffffffffffffffffff1673ffffffffffffffffffffffffffffffffffffffff16815260200190815260200160002054905092915050565b60007fd9b67a26000000000000000000000000000000000000000000000000000000007bffffffffffffffffffffffffffffffffffffffffffffffffffffffff1916827bffffffffffffffffffffffffffffffffffffffffffffffffffffffff191614806106a757507f0e89341c000000000000000000000000000000000000000000000000000000007bffffffffffffffffffffffffffffffffffffffffffffffffffffffff1916827bffffffffffffffffffffffffffffffffffffffffffffffffffffffff1916145b806106b757506106b6826112cf565b5b9050919050565b6106c6611339565b83836000821161070b576040517f08c379a0000000000000000000000000000000000000000000000000000000008152600401610702906135dd565b60405180910390fd5b6000811161074e576040517f08c379a000000000000000000000000000000000000000000000000000000000815260040161074590613649565b60405180910390fd5b80821015610791576040517f08c379a0000000000000000000000000000000000000000000000000000000008152600401610788906135dd565b60405180910390fd5b6107996113b7565b60006004600081546107aa90613698565b9190508190559050600033905060006040518060a001604052808481526020018c81526020018b81526020018981526020018881525090506005839080600181540180825580915050600190039060005260206000200160009091909190915055600580549050600681905550806007600085815260200190815260200160002060008201518160000155602082015181600101908161084a91906138ec565b506040820151816002015560608201518160030155608082015181600401908161087491906138ec565b5090505061088482848b89611401565b8a60405161089291906139fa565b60405180910390208273ffffffffffffffffffffffffffffffffffffffff16847f9d783e202083d1fb37ad562ef4e7776ae35886aa85bb86b72e48e66f58f03f4d8d8d8d6040516108e593929190613a11565b60405180910390a45050505050505050505050565b6060600280546109099061370f565b80601f01602080910402602001604051908101604052809291908181526020018280546109359061370f565b80156109825780601f1061095757610100808354040283529160200191610982565b820191906000526020600020905b81548152906001019060200180831161096557829003601f168201915b50505050509050919050565b8183600082116109d3576040517f08c379a00000000000000000000000000000000000000000000000000000000081526004016109ca90613a94565b60405180910390fd5b816109e56109df61108f565b83610514565b1015610a26576040517f08c379a0000000000000000000000000000000000000000000000000000000008152600401610a1d90613b00565b60405180910390fd5b600082610a333384610514565b610a3d9190613b20565b90506007600083815260200190815260200160002060030154811115610a98576040517f08c379a0000000000000000000000000000000000000000000000000000000008152600401610a8f90613bc2565b60405180910390fd5b84866000600760008381526020019081526020016000206002015483610abe9190613be2565b9050348114610b02576040517f08c379a0000000000000000000000000000000000000000000000000000000008152600401610af9906135dd565b60405180910390fd5b886000600760008381526020019081526020016000206002015403610b5c576040517f08c379a0000000000000000000000000000000000000000000000000000000008152600401610b5390613c88565b60405180910390fd5b610b646113b7565b6000610b6e61108f565b9050600033905060008273ffffffffffffffffffffffffffffffffffffffff1634604051610b9b90613cd9565b60006040518083038185875af1925050503d8060008114610bd8576040519150601f19603f3d011682016040523d82523d6000602084013e610bdd565b606091505b5050905080610c21576040517f08c379a0000000000000000000000000000000000000000000000000000000008152600401610c1890613d3a565b60405180910390fd5b610c2e83838f8f8f6115b1565b8173ffffffffffffffffffffffffffffffffffffffff168373ffffffffffffffffffffffffffffffffffffffff168e7f2bbc64d6afd28a753f6c5e4aaa894f1d684c44a0e080167eae104ac8505cfebd8f604051610c8c9190612990565b60405180910390a450505050505050505050505050565b610cab61184c565b73ffffffffffffffffffffffffffffffffffffffff168573ffffffffffffffffffffffffffffffffffffffff161480610cf15750610cf085610ceb61184c565b6110ff565b5b610d30576040517f08c379a0000000000000000000000000000000000000000000000000000000008152600401610d2790613dcc565b60405180910390fd5b610d3d8585858585611854565b5050505050565b610d4c611339565b610d54611b75565b565b60608151835114610d9c576040517f08c379a0000000000000000000000000000000000000000000000000000000008152600401610d9390613e5e565b60405180910390fd5b6000835167ffffffffffffffff811115610db957610db8612a81565b5b604051908082528060200260200182016040528015610de75781602001602082028036833780820191505090505b50905060005b8451811015610e6457610e34858281518110610e0c57610e0b613e7e565b5b6020026020010151858381518110610e2757610e26613e7e565b5b6020026020010151610514565b828281518110610e4757610e46613e7e565b5b60200260200101818152505080610e5d90613698565b9050610ded565b508091505092915050565b6007602052806000526040600020600091509050806000015490806001018054610e989061370f565b80601f0160208091040260200160405190810160405280929190818152602001828054610ec49061370f565b8015610f115780601f10610ee657610100808354040283529160200191610f11565b820191906000526020600020905b815481529060010190602001808311610ef457829003601f168201915b505050505090806002015490806003015490806004018054610f329061370f565b80601f0160208091040260200160405190810160405280929190818152602001828054610f5e9061370f565b8015610fab5780601f10610f8057610100808354040283529160200191610fab565b820191906000526020600020905b815481529060010190602001808311610f8e57829003601f168201915b5050505050905085565b6000600360149054906101000a900460ff16905090565b610fd461184c565b73ffffffffffffffffffffffffffffffffffffffff168373ffffffffffffffffffffffffffffffffffffffff16148061101a57506110198361101461184c565b6110ff565b5b611059576040517f08c379a000000000000000000000000000000000000000000000000000000000815260040161105090613dcc565b60405180910390fd5b611064838383611bd8565b505050565b611071611339565b61107b6000611ea6565b565b611085611339565b61108d611f6c565b565b6000600360009054906101000a900473ffffffffffffffffffffffffffffffffffffffff16905090565b6110cb6110c461184c565b8383611fcf565b5050565b60045481565b600581815481106110e557600080fd5b906000526020600020016000915090505481565b60065481565b6000600160008473ffffffffffffffffffffffffffffffffffffffff1673ffffffffffffffffffffffffffffffffffffffff16815260200190815260200160002060008373ffffffffffffffffffffffffffffffffffffffff1673ffffffffffffffffffffffffffffffffffffffff16815260200190815260200160002060009054906101000a900460ff16905092915050565b61119b61184c565b73ffffffffffffffffffffffffffffffffffffffff168573ffffffffffffffffffffffffffffffffffffffff1614806111e157506111e0856111db61184c565b6110ff565b5b611220576040517f08c379a000000000000000000000000000000000000000000000000000000000815260040161121790613dcc565b60405180910390fd5b61122d85858585856115b1565b5050505050565b61123c611339565b600073ffffffffffffffffffffffffffffffffffffffff168173ffffffffffffffffffffffffffffffffffffffff16036112ab576040517f08c379a00000000000000000000000000000000000000000000000000000000081526004016112a290613f1f565b60405180910390fd5b6112b481611ea6565b50565b6112bf6113b7565b6112ca83838361213b565b505050565b60007f01ffc9a7000000000000000000000000000000000000000000000000000000007bffffffffffffffffffffffffffffffffffffffffffffffffffffffff1916827bffffffffffffffffffffffffffffffffffffffffffffffffffffffff1916149050919050565b61134161184c565b73ffffffffffffffffffffffffffffffffffffffff1661135f61108f565b73ffffffffffffffffffffffffffffffffffffffff16146113b5576040517f08c379a00000000000000000000000000000000000000000000000000000000081526004016113ac90613f8b565b60405180910390fd5b565b6113bf610fb5565b156113ff576040517f08c379a00000000000000000000000000000000000000000000000000000000081526004016113f690613ff7565b60405180910390fd5b565b600073ffffffffffffffffffffffffffffffffffffffff168473ffffffffffffffffffffffffffffffffffffffff1603611470576040517f08c379a000000000000000000000000000000000000000000000000000000000815260040161146790614089565b60405180910390fd5b600061147a61184c565b9050600061148785612381565b9050600061149485612381565b90506114a5836000898585896123fb565b8460008088815260200190815260200160002060008973ffffffffffffffffffffffffffffffffffffffff1673ffffffffffffffffffffffffffffffffffffffff16815260200190815260200160002060008282546115049190613b20565b925050819055508673ffffffffffffffffffffffffffffffffffffffff16600073ffffffffffffffffffffffffffffffffffffffff168473ffffffffffffffffffffffffffffffffffffffff167fc3d58168c5ae7397731d063d5bbf3d657854427343f4c083240f7aacaa2d0f6289896040516115829291906140a9565b60405180910390a461159983600089858589612411565b6115a883600089898989612419565b50505050505050565b600073ffffffffffffffffffffffffffffffffffffffff168473ffffffffffffffffffffffffffffffffffffffff1603611620576040517f08c379a000000000000000000000000000000000000000000000000000000000815260040161161790614144565b60405180910390fd5b600061162a61184c565b9050600061163785612381565b9050600061164485612381565b90506116548389898585896123fb565b600080600088815260200190815260200160002060008a73ffffffffffffffffffffffffffffffffffffffff1673ffffffffffffffffffffffffffffffffffffffff168152602001908152602001600020549050858110156116eb576040517f08c379a00000000000000000000000000000000000000000000000000000000081526004016116e2906141d6565b60405180910390fd5b85810360008089815260200190815260200160002060008b73ffffffffffffffffffffffffffffffffffffffff1673ffffffffffffffffffffffffffffffffffffffff168152602001908152602001600020819055508560008089815260200190815260200160002060008a73ffffffffffffffffffffffffffffffffffffffff1673ffffffffffffffffffffffffffffffffffffffff16815260200190815260200160002060008282546117a09190613b20565b925050819055508773ffffffffffffffffffffffffffffffffffffffff168973ffffffffffffffffffffffffffffffffffffffff168573ffffffffffffffffffffffffffffffffffffffff167fc3d58168c5ae7397731d063d5bbf3d657854427343f4c083240f7aacaa2d0f628a8a60405161181d9291906140a9565b60405180910390a4611833848a8a86868a612411565b611841848a8a8a8a8a612419565b505050505050505050565b600033905090565b8151835114611898576040517f08c379a000000000000000000000000000000000000000000000000000000000815260040161188f90614268565b60405180910390fd5b600073ffffffffffffffffffffffffffffffffffffffff168473ffffffffffffffffffffffffffffffffffffffff1603611907576040517f08c379a00000000000000000000000000000000000000000000000000000000081526004016118fe90614144565b60405180910390fd5b600061191161184c565b90506119218187878787876123fb565b60005b8451811015611ad257600085828151811061194257611941613e7e565b5b60200260200101519050600085838151811061196157611960613e7e565b5b60200260200101519050600080600084815260200190815260200160002060008b73ffffffffffffffffffffffffffffffffffffffff1673ffffffffffffffffffffffffffffffffffffffff16815260200190815260200160002054905081811015611a02576040517f08c379a00000000000000000000000000000000000000000000000000000000081526004016119f9906141d6565b60405180910390fd5b81810360008085815260200190815260200160002060008c73ffffffffffffffffffffffffffffffffffffffff1673ffffffffffffffffffffffffffffffffffffffff168152602001908152602001600020819055508160008085815260200190815260200160002060008b73ffffffffffffffffffffffffffffffffffffffff1673ffffffffffffffffffffffffffffffffffffffff1681526020019081526020016000206000828254611ab79190613b20565b9250508190555050505080611acb90613698565b9050611924565b508473ffffffffffffffffffffffffffffffffffffffff168673ffffffffffffffffffffffffffffffffffffffff168273ffffffffffffffffffffffffffffffffffffffff167f4a39dc06d4c0dbc64b70af90fd698a233a518aa5d07e595d983b8c0526c8f7fb8787604051611b49929190614288565b60405180910390a4611b5f818787878787612411565b611b6d8187878787876125f0565b505050505050565b611b7d6127c7565b6000600360146101000a81548160ff0219169083151502179055507f5db9ee0a495bf2e6ff9c91a7834c1ba4fdd244a5e8aa4e537bd38aeae4b073aa611bc161184c565b604051611bce9190613321565b60405180910390a1565b600073ffffffffffffffffffffffffffffffffffffffff168373ffffffffffffffffffffffffffffffffffffffff1603611c47576040517f08c379a0000000000000000000000000000000000000000000000000000000008152600401611c3e90614331565b60405180910390fd5b8051825114611c8b576040517f08c379a0000000000000000000000000000000000000000000000000000000008152600401611c8290614268565b60405180910390fd5b6000611c9561184c565b9050611cb5818560008686604051806020016040528060008152506123fb565b60005b8351811015611e02576000848281518110611cd657611cd5613e7e565b5b602002602001015190506000848381518110611cf557611cf4613e7e565b5b60200260200101519050600080600084815260200190815260200160002060008973ffffffffffffffffffffffffffffffffffffffff1673ffffffffffffffffffffffffffffffffffffffff16815260200190815260200160002054905081811015611d96576040517f08c379a0000000000000000000000000000000000000000000000000000000008152600401611d8d906143c3565b60405180910390fd5b81810360008085815260200190815260200160002060008a73ffffffffffffffffffffffffffffffffffffffff1673ffffffffffffffffffffffffffffffffffffffff168152602001908152602001600020819055505050508080611dfa90613698565b915050611cb8565b50600073ffffffffffffffffffffffffffffffffffffffff168473ffffffffffffffffffffffffffffffffffffffff168273ffffffffffffffffffffffffffffffffffffffff167f4a39dc06d4c0dbc64b70af90fd698a233a518aa5d07e595d983b8c0526c8f7fb8686604051611e7a929190614288565b60405180910390a4611ea081856000868660405180602001604052806000815250612411565b50505050565b6000600360009054906101000a900473ffffffffffffffffffffffffffffffffffffffff16905081600360006101000a81548173ffffffffffffffffffffffffffffffffffffffff021916908373ffffffffffffffffffffffffffffffffffffffff1602179055508173ffffffffffffffffffffffffffffffffffffffff168173ffffffffffffffffffffffffffffffffffffffff167f8be0079c531659141344cd1fd0a4f28419497f9722a3daafe3b4186f6b6457e060405160405180910390a35050565b611f746113b7565b6001600360146101000a81548160ff0219169083151502179055507f62e78cea01bee320cd4e420270b5ea74000d11b0c9f74754ebdbfc544b05a258611fb861184c565b604051611fc59190613321565b60405180910390a1565b8173ffffffffffffffffffffffffffffffffffffffff168373ffffffffffffffffffffffffffffffffffffffff160361203d576040517f08c379a000000000000000000000000000000000000000000000000000000000815260040161203490614455565b60405180910390fd5b80600160008573ffffffffffffffffffffffffffffffffffffffff1673ffffffffffffffffffffffffffffffffffffffff16815260200190815260200160002060008473ffffffffffffffffffffffffffffffffffffffff1673ffffffffffffffffffffffffffffffffffffffff16815260200190815260200160002060006101000a81548160ff0219169083151502179055508173ffffffffffffffffffffffffffffffffffffffff168373ffffffffffffffffffffffffffffffffffffffff167f17307eab39ab6107e8899845ad3d59bd9653f200f220920489ca2b5937696c318360405161212e9190612a4b565b60405180910390a3505050565b600073ffffffffffffffffffffffffffffffffffffffff168373ffffffffffffffffffffffffffffffffffffffff16036121aa576040517f08c379a00000000000000000000000000000000000000000000000000000000081526004016121a190614331565b60405180910390fd5b60006121b461184c565b905060006121c184612381565b905060006121ce84612381565b90506121ee838760008585604051806020016040528060008152506123fb565b600080600087815260200190815260200160002060008873ffffffffffffffffffffffffffffffffffffffff1673ffffffffffffffffffffffffffffffffffffffff16815260200190815260200160002054905084811015612285576040517f08c379a000000000000000000000000000000000000000000000000000000000815260040161227c906143c3565b60405180910390fd5b84810360008088815260200190815260200160002060008973ffffffffffffffffffffffffffffffffffffffff1673ffffffffffffffffffffffffffffffffffffffff16815260200190815260200160002081905550600073ffffffffffffffffffffffffffffffffffffffff168773ffffffffffffffffffffffffffffffffffffffff168573ffffffffffffffffffffffffffffffffffffffff167fc3d58168c5ae7397731d063d5bbf3d657854427343f4c083240f7aacaa2d0f6289896040516123529291906140a9565b60405180910390a461237884886000868660405180602001604052806000815250612411565b50505050505050565b60606000600167ffffffffffffffff8111156123a05761239f612a81565b5b6040519080825280602002602001820160405280156123ce5781602001602082028036833780820191505090505b50905082816000815181106123e6576123e5613e7e565b5b60200260200101818152505080915050919050565b612409868686868686612810565b505050505050565b505050505050565b6124388473ffffffffffffffffffffffffffffffffffffffff1661286e565b156125e8578373ffffffffffffffffffffffffffffffffffffffff1663f23a6e6187878686866040518663ffffffff1660e01b815260040161247e9594939291906144ca565b6020604051808303816000875af19250505080156124ba57506040513d601f19601f820116820180604052508101906124b79190614539565b60015b61255f576124c6614573565b806308c379a00361252257506124da614595565b806124e55750612524565b806040517f08c379a00000000000000000000000000000000000000000000000000000000081526004016125199190612de3565b60405180910390fd5b505b6040517f08c379a000000000000000000000000000000000000000000000000000000000815260040161255690614697565b60405180910390fd5b63f23a6e6160e01b7bffffffffffffffffffffffffffffffffffffffffffffffffffffffff1916817bffffffffffffffffffffffffffffffffffffffffffffffffffffffff1916146125e6576040517f08c379a00000000000000000000000000000000000000000000000000000000081526004016125dd90614729565b60405180910390fd5b505b505050505050565b61260f8473ffffffffffffffffffffffffffffffffffffffff1661286e565b156127bf578373ffffffffffffffffffffffffffffffffffffffff1663bc197c8187878686866040518663ffffffff1660e01b8152600401612655959493929190614749565b6020604051808303816000875af192505050801561269157506040513d601f19601f8201168201806040525081019061268e9190614539565b60015b6127365761269d614573565b806308c379a0036126f957506126b1614595565b806126bc57506126fb565b806040517f08c379a00000000000000000000000000000000000000000000000000000000081526004016126f09190612de3565b60405180910390fd5b505b6040517f08c379a000000000000000000000000000000000000000000000000000000000815260040161272d90614697565b60405180910390fd5b63bc197c8160e01b7bffffffffffffffffffffffffffffffffffffffffffffffffffffffff1916817bffffffffffffffffffffffffffffffffffffffffffffffffffffffff1916146127bd576040517f08c379a00000000000000000000000000000000000000000000000000000000081526004016127b490614729565b60405180910390fd5b505b505050505050565b6127cf610fb5565b61280e576040517f08c379a0000000000000000000000000000000000000000000000000000000008152600401612805906147fd565b60405180910390fd5b565b61281e868686868686612891565b612826610fb5565b15612866576040517f08c379a000000000000000000000000000000000000000000000000000000000815260040161285d9061488f565b60405180910390fd5b505050505050565b6000808273ffffffffffffffffffffffffffffffffffffffff163b119050919050565b505050505050565b6000604051905090565b600080fd5b600080fd5b600073ffffffffffffffffffffffffffffffffffffffff82169050919050565b60006128d8826128ad565b9050919050565b6128e8816128cd565b81146128f357600080fd5b50565b600081359050612905816128df565b92915050565b6000819050919050565b61291e8161290b565b811461292957600080fd5b50565b60008135905061293b81612915565b92915050565b60008060408385031215612958576129576128a3565b5b6000612966858286016128f6565b92505060206129778582860161292c565b9150509250929050565b61298a8161290b565b82525050565b60006020820190506129a56000830184612981565b92915050565b60007fffffffff0000000000000000000000000000000000000000000000000000000082169050919050565b6129e0816129ab565b81146129eb57600080fd5b50565b6000813590506129fd816129d7565b92915050565b600060208284031215612a1957612a186128a3565b5b6000612a27848285016129ee565b91505092915050565b60008115159050919050565b612a4581612a30565b82525050565b6000602082019050612a606000830184612a3c565b92915050565b600080fd5b600080fd5b6000601f19601f8301169050919050565b7f4e487b7100000000000000000000000000000000000000000000000000000000600052604160045260246000fd5b612ab982612a70565b810181811067ffffffffffffffff82111715612ad857612ad7612a81565b5b80604052505050565b6000612aeb612899565b9050612af78282612ab0565b919050565b600067ffffffffffffffff821115612b1757612b16612a81565b5b612b2082612a70565b9050602081019050919050565b82818337600083830152505050565b6000612b4f612b4a84612afc565b612ae1565b905082815260208101848484011115612b6b57612b6a612a6b565b5b612b76848285612b2d565b509392505050565b600082601f830112612b9357612b92612a66565b5b8135612ba3848260208601612b3c565b91505092915050565b600067ffffffffffffffff821115612bc757612bc6612a81565b5b612bd082612a70565b9050602081019050919050565b6000612bf0612beb84612bac565b612ae1565b905082815260208101848484011115612c0c57612c0b612a6b565b5b612c17848285612b2d565b509392505050565b600082601f830112612c3457612c33612a66565b5b8135612c44848260208601612bdd565b91505092915050565b60008060008060008060c08789031215612c6a57612c696128a3565b5b600087013567ffffffffffffffff811115612c8857612c876128a8565b5b612c9489828a01612b7e565b9650506020612ca589828a0161292c565b9550506040612cb689828a0161292c565b9450506060612cc789828a0161292c565b935050608087013567ffffffffffffffff811115612ce857612ce76128a8565b5b612cf489828a01612b7e565b92505060a087013567ffffffffffffffff811115612d1557612d146128a8565b5b612d2189828a01612c1f565b9150509295509295509295565b600060208284031215612d4457612d436128a3565b5b6000612d528482850161292c565b91505092915050565b600081519050919050565b600082825260208201905092915050565b60005b83811015612d95578082015181840152602081019050612d7a565b83811115612da4576000848401525b50505050565b6000612db582612d5b565b612dbf8185612d66565b9350612dcf818560208601612d77565b612dd881612a70565b840191505092915050565b60006020820190508181036000830152612dfd8184612daa565b905092915050565b600080600060608486031215612e1e57612e1d6128a3565b5b6000612e2c8682870161292c565b9350506020612e3d8682870161292c565b925050604084013567ffffffffffffffff811115612e5e57612e5d6128a8565b5b612e6a86828701612c1f565b9150509250925092565b600067ffffffffffffffff821115612e8f57612e8e612a81565b5b602082029050602081019050919050565b600080fd5b6000612eb8612eb384612e74565b612ae1565b90508083825260208201905060208402830185811115612edb57612eda612ea0565b5b835b81811015612f045780612ef0888261292c565b845260208401935050602081019050612edd565b5050509392505050565b600082601f830112612f2357612f22612a66565b5b8135612f33848260208601612ea5565b91505092915050565b600080600080600060a08688031215612f5857612f576128a3565b5b6000612f66888289016128f6565b9550506020612f77888289016128f6565b945050604086013567ffffffffffffffff811115612f9857612f976128a8565b5b612fa488828901612f0e565b935050606086013567ffffffffffffffff811115612fc557612fc46128a8565b5b612fd188828901612f0e565b925050608086013567ffffffffffffffff811115612ff257612ff16128a8565b5b612ffe88828901612c1f565b9150509295509295909350565b600067ffffffffffffffff82111561302657613025612a81565b5b602082029050602081019050919050565b600061304a6130458461300b565b612ae1565b9050808382526020820190506020840283018581111561306d5761306c612ea0565b5b835b81811015613096578061308288826128f6565b84526020840193505060208101905061306f565b5050509392505050565b600082601f8301126130b5576130b4612a66565b5b81356130c5848260208601613037565b91505092915050565b600080604083850312156130e5576130e46128a3565b5b600083013567ffffffffffffffff811115613103576131026128a8565b5b61310f858286016130a0565b925050602083013567ffffffffffffffff8111156131305761312f6128a8565b5b61313c85828601612f0e565b9150509250929050565b600081519050919050565b600082825260208201905092915050565b6000819050602082019050919050565b61317b8161290b565b82525050565b600061318d8383613172565b60208301905092915050565b6000602082019050919050565b60006131b182613146565b6131bb8185613151565b93506131c683613162565b8060005b838110156131f75781516131de8882613181565b97506131e983613199565b9250506001810190506131ca565b5085935050505092915050565b6000602082019050818103600083015261321e81846131a6565b905092915050565b600060a08201905061323b6000830188612981565b818103602083015261324d8187612daa565b905061325c6040830186612981565b6132696060830185612981565b818103608083015261327b8184612daa565b90509695505050505050565b6000806000606084860312156132a05761329f6128a3565b5b60006132ae868287016128f6565b935050602084013567ffffffffffffffff8111156132cf576132ce6128a8565b5b6132db86828701612f0e565b925050604084013567ffffffffffffffff8111156132fc576132fb6128a8565b5b61330886828701612f0e565b9150509250925092565b61331b816128cd565b82525050565b60006020820190506133366000830184613312565b92915050565b61334581612a30565b811461335057600080fd5b50565b6000813590506133628161333c565b92915050565b6000806040838503121561337f5761337e6128a3565b5b600061338d858286016128f6565b925050602061339e85828601613353565b9150509250929050565b600080604083850312156133bf576133be6128a3565b5b60006133cd858286016128f6565b92505060206133de858286016128f6565b9150509250929050565b600080600080600060a08688031215613404576134036128a3565b5b6000613412888289016128f6565b9550506020613423888289016128f6565b94505060406134348882890161292c565b93505060606134458882890161292c565b925050608086013567ffffffffffffffff811115613466576134656128a8565b5b61347288828901612c1f565b9150509295509295909350565b600060208284031215613495576134946128a3565b5b60006134a3848285016128f6565b91505092915050565b6000806000606084860312156134c5576134c46128a3565b5b60006134d3868287016128f6565b93505060206134e48682870161292c565b92505060406134f58682870161292c565b9150509250925092565b7f455243313135353a2061646472657373207a65726f206973206e6f742061207660008201527f616c6964206f776e657200000000000000000000000000000000000000000000602082015250565b600061355b602a83612d66565b9150613566826134ff565b604082019050919050565b6000602082019050818103600083015261358a8161354e565b9050919050565b7f496e636f727265637420616d6f756e7400000000000000000000000000000000600082015250565b60006135c7601083612d66565b91506135d282613591565b602082019050919050565b600060208201905081810360008301526135f6816135ba565b9050919050565b7f496e636f7272656374206d617853656c6c506572506572736f6e000000000000600082015250565b6000613633601a83612d66565b915061363e826135fd565b602082019050919050565b6000602082019050818103600083015261366281613626565b9050919050565b7f4e487b7100000000000000000000000000000000000000000000000000000000600052601160045260246000fd5b60006136a38261290b565b91507fffffffffffffffffffffffffffffffffffffffffffffffffffffffffffffffff82036136d5576136d4613669565b5b600182019050919050565b7f4e487b7100000000000000000000000000000000000000000000000000000000600052602260045260246000fd5b6000600282049050600182168061372757607f821691505b60208210810361373a576137396136e0565b5b50919050565b60008190508160005260206000209050919050565b60006020601f8301049050919050565b600082821b905092915050565b6000600883026137a27fffffffffffffffffffffffffffffffffffffffffffffffffffffffffffffffff82613765565b6137ac8683613765565b95508019841693508086168417925050509392505050565b6000819050919050565b60006137e96137e46137df8461290b565b6137c4565b61290b565b9050919050565b6000819050919050565b613803836137ce565b61381761380f826137f0565b848454613772565b825550505050565b600090565b61382c61381f565b6138378184846137fa565b505050565b5b8181101561385b57613850600082613824565b60018101905061383d565b5050565b601f8211156138a05761387181613740565b61387a84613755565b81016020851015613889578190505b61389d61389585613755565b83018261383c565b50505b505050565b600082821c905092915050565b60006138c3600019846008026138a5565b1980831691505092915050565b60006138dc83836138b2565b9150826002028217905092915050565b6138f582612d5b565b67ffffffffffffffff81111561390e5761390d612a81565b5b613918825461370f565b61392382828561385f565b600060209050601f8311600181146139565760008415613944578287015190505b61394e85826138d0565b8655506139b6565b601f19841661396486613740565b60005b8281101561398c57848901518255600182019150602085019450602081019050613967565b868310156139a957848901516139a5601f8916826138b2565b8355505b6001600288020188555050505b505050505050565b600081905092915050565b60006139d482612d5b565b6139de81856139be565b93506139ee818560208601612d77565b80840191505092915050565b6000613a0682846139c9565b915081905092915050565b6000606082019050613a266000830186612981565b613a336020830185612981565b613a406040830184612981565b949350505050565b7f416d6f756e74206d75737420626967676572207468616e203000000000000000600082015250565b6000613a7e601983612d66565b9150613a8982613a48565b602082019050919050565b60006020820190508181036000830152613aad81613a71565b9050919050565b7f4e6f7420656e6f756768207469636b6574730000000000000000000000000000600082015250565b6000613aea601283612d66565b9150613af582613ab4565b602082019050919050565b60006020820190508181036000830152613b1981613add565b9050919050565b6000613b2b8261290b565b9150613b368361290b565b9250827fffffffffffffffffffffffffffffffffffffffffffffffffffffffffffffffff03821115613b6b57613b6a613669565b5b828201905092915050565b7f4d617820616d6d6f756e742070657220706572736f6e20726561636865640000600082015250565b6000613bac601e83612d66565b9150613bb782613b76565b602082019050919050565b60006020820190508181036000830152613bdb81613b9f565b9050919050565b6000613bed8261290b565b9150613bf88361290b565b9250817fffffffffffffffffffffffffffffffffffffffffffffffffffffffffffffffff0483118215151615613c3157613c30613669565b5b828202905092915050565b7f5469636b657420646f6573206e6f742065786973740000000000000000000000600082015250565b6000613c72601583612d66565b9150613c7d82613c3c565b602082019050919050565b60006020820190508181036000830152613ca181613c65565b9050919050565b600081905092915050565b50565b6000613cc3600083613ca8565b9150613cce82613cb3565b600082019050919050565b6000613ce482613cb6565b9150819050919050565b7f4661696c656420746f2073656e64204574686572000000000000000000000000600082015250565b6000613d24601483612d66565b9150613d2f82613cee565b602082019050919050565b60006020820190508181036000830152613d5381613d17565b9050919050565b7f455243313135353a2063616c6c6572206973206e6f7420746f6b656e206f776e60008201527f6572206e6f7220617070726f7665640000000000000000000000000000000000602082015250565b6000613db6602f83612d66565b9150613dc182613d5a565b604082019050919050565b60006020820190508181036000830152613de581613da9565b9050919050565b7f455243313135353a206163636f756e747320616e6420696473206c656e67746860008201527f206d69736d617463680000000000000000000000000000000000000000000000602082015250565b6000613e48602983612d66565b9150613e5382613dec565b604082019050919050565b60006020820190508181036000830152613e7781613e3b565b9050919050565b7f4e487b7100000000000000000000000000000000000000000000000000000000600052603260045260246000fd5b7f4f776e61626c653a206e6577206f776e657220697320746865207a65726f206160008201527f6464726573730000000000000000000000000000000000000000000000000000602082015250565b6000613f09602683612d66565b9150613f1482613ead565b604082019050919050565b60006020820190508181036000830152613f3881613efc565b9050919050565b7f4f776e61626c653a2063616c6c6572206973206e6f7420746865206f776e6572600082015250565b6000613f75602083612d66565b9150613f8082613f3f565b602082019050919050565b60006020820190508181036000830152613fa481613f68565b9050919050565b7f5061757361626c653a2070617573656400000000000000000000000000000000600082015250565b6000613fe1601083612d66565b9150613fec82613fab565b602082019050919050565b6000602082019050818103600083015261401081613fd4565b9050919050565b7f455243313135353a206d696e7420746f20746865207a65726f2061646472657360008201527f7300000000000000000000000000000000000000000000000000000000000000602082015250565b6000614073602183612d66565b915061407e82614017565b604082019050919050565b600060208201905081810360008301526140a281614066565b9050919050565b60006040820190506140be6000830185612981565b6140cb6020830184612981565b9392505050565b7f455243313135353a207472616e7366657220746f20746865207a65726f20616460008201527f6472657373000000000000000000000000000000000000000000000000000000602082015250565b600061412e602583612d66565b9150614139826140d2565b604082019050919050565b6000602082019050818103600083015261415d81614121565b9050919050565b7f455243313135353a20696e73756666696369656e742062616c616e636520666f60008201527f72207472616e7366657200000000000000000000000000000000000000000000602082015250565b60006141c0602a83612d66565b91506141cb82614164565b604082019050919050565b600060208201905081810360008301526141ef816141b3565b9050919050565b7f455243313135353a2069647320616e6420616d6f756e7473206c656e6774682060008201527f6d69736d61746368000000000000000000000000000000000000000000000000602082015250565b6000614252602883612d66565b915061425d826141f6565b604082019050919050565b6000602082019050818103600083015261428181614245565b9050919050565b600060408201905081810360008301526142a281856131a6565b905081810360208301526142b681846131a6565b90509392505050565b7f455243313135353a206275726e2066726f6d20746865207a65726f206164647260008201527f6573730000000000000000000000000000000000000000000000000000000000602082015250565b600061431b602383612d66565b9150614326826142bf565b604082019050919050565b6000602082019050818103600083015261434a8161430e565b9050919050565b7f455243313135353a206275726e20616d6f756e7420657863656564732062616c60008201527f616e636500000000000000000000000000000000000000000000000000000000602082015250565b60006143ad602483612d66565b91506143b882614351565b604082019050919050565b600060208201905081810360008301526143dc816143a0565b9050919050565b7f455243313135353a2073657474696e6720617070726f76616c2073746174757360008201527f20666f722073656c660000000000000000000000000000000000000000000000602082015250565b600061443f602983612d66565b915061444a826143e3565b604082019050919050565b6000602082019050818103600083015261446e81614432565b9050919050565b600081519050919050565b600082825260208201905092915050565b600061449c82614475565b6144a68185614480565b93506144b6818560208601612d77565b6144bf81612a70565b840191505092915050565b600060a0820190506144df6000830188613312565b6144ec6020830187613312565b6144f96040830186612981565b6145066060830185612981565b81810360808301526145188184614491565b90509695505050505050565b600081519050614533816129d7565b92915050565b60006020828403121561454f5761454e6128a3565b5b600061455d84828501614524565b91505092915050565b60008160e01c9050919050565b600060033d11156145925760046000803e61458f600051614566565b90505b90565b600060443d10614622576145a7612899565b60043d036004823e80513d602482011167ffffffffffffffff821117156145cf575050614622565b808201805167ffffffffffffffff8111156145ed5750505050614622565b80602083010160043d03850181111561460a575050505050614622565b61461982602001850186612ab0565b82955050505050505b90565b7f455243313135353a207472616e7366657220746f206e6f6e204552433131353560008201527f526563656976657220696d706c656d656e746572000000000000000000000000602082015250565b6000614681603483612d66565b915061468c82614625565b604082019050919050565b600060208201905081810360008301526146b081614674565b9050919050565b7f455243313135353a204552433131353552656365697665722072656a6563746560008201527f6420746f6b656e73000000000000000000000000000000000000000000000000602082015250565b6000614713602883612d66565b915061471e826146b7565b604082019050919050565b6000602082019050818103600083015261474281614706565b9050919050565b600060a08201905061475e6000830188613312565b61476b6020830187613312565b818103604083015261477d81866131a6565b9050818103606083015261479181856131a6565b905081810360808301526147a58184614491565b90509695505050505050565b7f5061757361626c653a206e6f7420706175736564000000000000000000000000600082015250565b60006147e7601483612d66565b91506147f2826147b1565b602082019050919050565b60006020820190508181036000830152614816816147da565b9050919050565b7f455243313135355061757361626c653a20746f6b656e207472616e736665722060008201527f7768696c65207061757365640000000000000000000000000000000000000000602082015250565b6000614879602c83612d66565b91506148848261481d565b604082019050919050565b600060208201905081810360008301526148a88161486c565b905091905056fea2646970667358221220821f18fb221d84d04a3345e1cfa3804c320bd9c7333a1d7f7b043bd442422da664736f6c634300080f0033",
  "immutableReferences": {},
  "source": "// SPDX-License-Identifier: MIT\npragma solidity 0.8.15;\n\nimport \"@openzeppelin/contracts/token/ERC1155/ERC1155.sol\";\nimport \"@openzeppelin/contracts/access/Ownable.sol\";\nimport \"@openzeppelin/contracts/token/ERC1155/extensions/ERC1155Burnable.sol\";\nimport \"@openzeppelin/contracts/token/ERC1155/extensions/ERC1155Pausable.sol\";\n\n/// @title Contract for modeling ticket sales on ERC1155 tokens\n/// @author Javier Rojo\n/// @notice Allows an organizer to publish events, and other users to buy tickets, more for the future\n/// @custom:security-contact @javierlinked\ncontract TicketContract is ERC1155, Ownable, ERC1155Pausable, ERC1155Burnable {\n\n    /// @dev variariables and counters used by the contract and by the frontend, in order to crate a list\n    uint public nonce;\n    uint[] public tokenIds;\n    uint public tokenIdsLength;\n    \n    struct Ticket {\n        uint id;\n        string name;\n        uint price;     // in gwei\n        uint maxSellPerPerson;  // max number of tickets that can be kept per person\n        string infoUrl; // this is to be removed and kept off-chain\n    }\n\n    mapping(uint => Ticket) public tickets;\n\n    /// @notice This event is emmited when a ticket is created\n    /// @param id the id of the ticket\n    /// @param minter address of the minter\n    /// @param name name of the ticket\n    /// @param price price of the ticket \n    /// @param amount total supply of tickets\n    /// @param maxSellPerPerson the maximum number of tickets that can be hold per person\n    event TicketCreated(\n        uint indexed id,\n        address indexed minter,\n        string indexed name,\n        uint price,\n        uint amount,\n        uint maxSellPerPerson\n    );\n\n    //// @notice this event is emmited when a ticket is sold\n    /// @param id the id of the ticket\n    /// @param seller the address of the seller\n    /// @param buyer the address of the buyer\n    /// @param amount the amount of tickets sold\n    event TicketSold(\n        uint indexed id,\n        address indexed seller,\n        address indexed buyer,\n        uint amount\n    );\n\n    /// @notice verifies if amount is valid\n    modifier validAmount(uint amount, uint maxSellPerPerson) {\n        require(amount > 0, \"Incorrect amount\");\n        require(maxSellPerPerson > 0, \"Incorrect maxSellPerPerson\");\n        require(amount >= maxSellPerPerson, \"Incorrect amount\");\n        _;\n    }\n\n\n    /// @notice this verifies the payment is exact or cancels the transaction\n    modifier paidExactly(uint amount, uint id) {\n        uint total = amount * tickets[id].price;\n        require(total == msg.value, \"Incorrect amount\");\n        _;\n    }\n\n    /// @notice this verifies the minter has enough tickets to sell\n    modifier allowedSell(uint amount, uint id) {\n        require(amount > 0, \"Amount must bigger than 0\");\n        require(balanceOf(owner(), id) >= amount, \"Not enough tickets\");\n        uint buying = balanceOf(msg.sender, id) + amount;\n        require(\n            buying <= tickets[id].maxSellPerPerson,\n            \"Max ammount per person reached\"\n        );\n        _;\n    }\n\n    modifier validate(uint id) {\n        require(tickets[id].price != 0, \"Ticket does not exist\");\n        _;\n    }\n\n    /// @notice constructor is trivial, but can be used to set parameters on deployment\n    constructor() ERC1155(\"\") {\n        nonce = 0;\n    }\n\n    /// @notice Crates a ticket\n    /// @dev After validations and internal variable set, delegates to the ERC1155 contract and emmits the event\n    /// @param name name of the ticket\n    /// @param price price of the ticket \n    /// @param amount total supply of tickets\n    /// @param maxSellPerPerson the maximum number of tickets that can be hold per person\n    /// @param infoUrl extra info about the ticket\n    /// @param data data required by ERC1155\n    function create(\n        string memory name,\n        uint price,\n        uint amount,\n        uint maxSellPerPerson,\n        string memory infoUrl,\n        bytes memory data\n    ) public onlyOwner validAmount(amount, maxSellPerPerson) whenNotPaused {\n        uint newId = ++nonce;\n\n        address owner = msg.sender;\n        Ticket memory newTicket = Ticket(newId, name, price, maxSellPerPerson, infoUrl);\n        tokenIds.push(newId);\n        tokenIdsLength = tokenIds.length;\n        tickets[newId] = newTicket;\n        _mint(owner, newId, amount, data);\n        emit TicketCreated(newId, owner, name, price, amount, maxSellPerPerson);\n    }\n\n    /// @notice sells a ticket\n    /// @dev It makes verifications, then transfers payment, later delegates to the ERC1155 transfer of the token\n    /// and finally emits the event\n    /// @param id token id\n    /// @param amount amount of tickets to sell\n    /// @param data data required by ERC1155\n    function buy(\n        uint id,\n        uint amount,\n        bytes memory data\n    )\n        public\n        payable\n        allowedSell(amount, id)\n        paidExactly(amount, id)\n        validate(id)\n        whenNotPaused\n    {\n        address payable owner = payable(owner());\n        address buyer = msg.sender;\n        (bool sent, ) = owner.call{value: msg.value}(\"\");\n        require(sent, \"Failed to send Ether\");\n        _safeTransferFrom(owner, buyer, id, amount, data);\n        emit TicketSold(id, owner, buyer, amount);\n    }\n\n    /// @notice burns a token. This funtion is used when the ticket is USED.\n    /// @dev after verifications delegates to the ERC1155 burn of the token\n    function burn(\n        address account,\n        uint id,\n        uint amount\n    ) public override\n    whenNotPaused {\n        // NOTE:  to myself, not related to _balances[][] but to existence of tokens in the contract\n        _burn(account, id, amount);\n    }\n\n    /**\n     * @dev Pauses all token transfers.\n     *\n     * See {ERC1155Pausable} and {Pausable-_pause}.\n     *\n     * Requirements:\n     *\n     * - the caller must be owner.\n     */\n    function pause() public virtual onlyOwner {\n        _pause();\n    }\n\n    /**\n     * @dev Unpauses all token transfers.\n     *\n     * See {ERC1155Pausable} and {Pausable-_unpause}.\n     *\n     * Requirements:\n     *\n     * - the caller owner.\n     */\n    function unpause() public virtual onlyOwner {\n        _unpause();\n    }\n\n    function _beforeTokenTransfer(\n        address operator,\n        address from,\n        address to,\n        uint256[] memory ids,\n        uint256[] memory amounts,\n        bytes memory data\n    ) internal virtual override(ERC1155, ERC1155Pausable) {\n        super._beforeTokenTransfer(operator, from, to, ids, amounts, data);\n    }\n}\n",
  "sourcePath": "/Users/javier/dev/ConsenSys/blockchain-developer-bootcamp-final-project/contracts/TicketContract.sol",
  "compiler": {
    "name": "solc",
    "version": "0.8.15+commit.e14f2714.Emscripten.clang"
  },
  "schemaVersion": "3.4.8",
  "updatedAt": "2022-07-26T15:17:54.948Z",
  "networkType": "ethereum",
  "devdoc": {
    "author": "Javier Rojo",
    "custom:security-contact": "@javierlinked",
    "events": {
      "TicketCreated(uint256,address,string,uint256,uint256,uint256)": {
        "params": {
          "amount": "total supply of tickets",
          "id": "the id of the ticket",
          "maxSellPerPerson": "the maximum number of tickets that can be hold per person",
          "minter": "address of the minter",
          "name": "name of the ticket",
          "price": "price of the ticket "
        }
      },
      "TicketSold(uint256,address,address,uint256)": {
        "params": {
          "amount": "the amount of tickets sold",
          "buyer": "the address of the buyer",
          "id": "the id of the ticket",
          "seller": "the address of the seller"
        }
      }
    },
    "kind": "dev",
    "methods": {
      "balanceOf(address,uint256)": {
        "details": "See {IERC1155-balanceOf}. Requirements: - `account` cannot be the zero address."
      },
      "balanceOfBatch(address[],uint256[])": {
        "details": "See {IERC1155-balanceOfBatch}. Requirements: - `accounts` and `ids` must have the same length."
      },
      "burn(address,uint256,uint256)": {
        "details": "after verifications delegates to the ERC1155 burn of the token"
      },
      "buy(uint256,uint256,bytes)": {
        "details": "It makes verifications, then transfers payment, later delegates to the ERC1155 transfer of the token and finally emits the event",
        "params": {
          "amount": "amount of tickets to sell",
          "data": "data required by ERC1155",
          "id": "token id"
        }
      },
      "create(string,uint256,uint256,uint256,string,bytes)": {
        "details": "After validations and internal variable set, delegates to the ERC1155 contract and emmits the event",
        "params": {
          "amount": "total supply of tickets",
          "data": "data required by ERC1155",
          "infoUrl": "extra info about the ticket",
          "maxSellPerPerson": "the maximum number of tickets that can be hold per person",
          "name": "name of the ticket",
          "price": "price of the ticket "
        }
      },
      "isApprovedForAll(address,address)": {
        "details": "See {IERC1155-isApprovedForAll}."
      },
      "owner()": {
        "details": "Returns the address of the current owner."
      },
      "pause()": {
        "details": "Pauses all token transfers. See {ERC1155Pausable} and {Pausable-_pause}. Requirements: - the caller must be owner."
      },
      "paused()": {
        "details": "Returns true if the contract is paused, and false otherwise."
      },
      "renounceOwnership()": {
        "details": "Leaves the contract without owner. It will not be possible to call `onlyOwner` functions anymore. Can only be called by the current owner. NOTE: Renouncing ownership will leave the contract without an owner, thereby removing any functionality that is only available to the owner."
      },
      "safeBatchTransferFrom(address,address,uint256[],uint256[],bytes)": {
        "details": "See {IERC1155-safeBatchTransferFrom}."
      },
      "safeTransferFrom(address,address,uint256,uint256,bytes)": {
        "details": "See {IERC1155-safeTransferFrom}."
      },
      "setApprovalForAll(address,bool)": {
        "details": "See {IERC1155-setApprovalForAll}."
      },
      "supportsInterface(bytes4)": {
        "details": "See {IERC165-supportsInterface}."
      },
      "transferOwnership(address)": {
        "details": "Transfers ownership of the contract to a new account (`newOwner`). Can only be called by the current owner."
      },
      "unpause()": {
        "details": "Unpauses all token transfers. See {ERC1155Pausable} and {Pausable-_unpause}. Requirements: - the caller owner."
      },
      "uri(uint256)": {
        "details": "See {IERC1155MetadataURI-uri}. This implementation returns the same URI for *all* token types. It relies on the token type ID substitution mechanism https://eips.ethereum.org/EIPS/eip-1155#metadata[defined in the EIP]. Clients calling this function must replace the `\\{id\\}` substring with the actual token type ID."
      }
    },
    "stateVariables": {
      "nonce": {
        "details": "variariables and counters used by the contract and by the frontend, in order to crate a list"
      }
    },
    "title": "Contract for modeling ticket sales on ERC1155 tokens",
    "version": 1
  },
  "userdoc": {
    "events": {
      "TicketCreated(uint256,address,string,uint256,uint256,uint256)": {
        "notice": "This event is emmited when a ticket is created"
      }
    },
    "kind": "user",
    "methods": {
      "burn(address,uint256,uint256)": {
        "notice": "burns a token. This funtion is used when the ticket is USED."
      },
      "buy(uint256,uint256,bytes)": {
        "notice": "sells a ticket"
      },
      "constructor": {
        "notice": "constructor is trivial, but can be used to set parameters on deployment"
      },
      "create(string,uint256,uint256,uint256,string,bytes)": {
        "notice": "Crates a ticket"
      }
    },
    "notice": "Allows an organizer to publish events, and other users to buy tickets, more for the future",
    "version": 1
  }
}