{
  "contractName": "TicketContract",
  "abi": [
    {
      "inputs": [],
      "stateMutability": "nonpayable",
      "type": "constructor"
    },
    {
      "anonymous": false,
      "inputs": [
        {
          "indexed": true,
          "internalType": "address",
          "name": "account",
          "type": "address"
        },
        {
          "indexed": true,
          "internalType": "address",
          "name": "operator",
          "type": "address"
        },
        {
          "indexed": false,
          "internalType": "bool",
          "name": "approved",
          "type": "bool"
        }
      ],
      "name": "ApprovalForAll",
      "type": "event"
    },
    {
      "anonymous": false,
      "inputs": [
        {
          "indexed": true,
          "internalType": "address",
          "name": "previousOwner",
          "type": "address"
        },
        {
          "indexed": true,
          "internalType": "address",
          "name": "newOwner",
          "type": "address"
        }
      ],
      "name": "OwnershipTransferred",
      "type": "event"
    },
    {
      "anonymous": false,
      "inputs": [
        {
          "indexed": false,
          "internalType": "address",
          "name": "account",
          "type": "address"
        }
      ],
      "name": "Paused",
      "type": "event"
    },
    {
      "anonymous": false,
      "inputs": [
        {
          "indexed": true,
          "internalType": "uint256",
          "name": "id",
          "type": "uint256"
        },
        {
          "indexed": true,
          "internalType": "address",
          "name": "minter",
          "type": "address"
        },
        {
          "indexed": true,
          "internalType": "string",
          "name": "name",
          "type": "string"
        },
        {
          "indexed": false,
          "internalType": "uint256",
          "name": "price",
          "type": "uint256"
        },
        {
          "indexed": false,
          "internalType": "uint256",
          "name": "amount",
          "type": "uint256"
        },
        {
          "indexed": false,
          "internalType": "uint256",
          "name": "maxSellPerPerson",
          "type": "uint256"
        }
      ],
      "name": "TicketCreated",
      "type": "event"
    },
    {
      "anonymous": false,
      "inputs": [
        {
          "indexed": true,
          "internalType": "uint256",
          "name": "id",
          "type": "uint256"
        },
        {
          "indexed": true,
          "internalType": "address",
          "name": "seller",
          "type": "address"
        },
        {
          "indexed": true,
          "internalType": "address",
          "name": "buyer",
          "type": "address"
        },
        {
          "indexed": false,
          "internalType": "uint256",
          "name": "amount",
          "type": "uint256"
        }
      ],
      "name": "TicketSold",
      "type": "event"
    },
    {
      "anonymous": false,
      "inputs": [
        {
          "indexed": true,
          "internalType": "address",
          "name": "operator",
          "type": "address"
        },
        {
          "indexed": true,
          "internalType": "address",
          "name": "from",
          "type": "address"
        },
        {
          "indexed": true,
          "internalType": "address",
          "name": "to",
          "type": "address"
        },
        {
          "indexed": false,
          "internalType": "uint256[]",
          "name": "ids",
          "type": "uint256[]"
        },
        {
          "indexed": false,
          "internalType": "uint256[]",
          "name": "values",
          "type": "uint256[]"
        }
      ],
      "name": "TransferBatch",
      "type": "event"
    },
    {
      "anonymous": false,
      "inputs": [
        {
          "indexed": true,
          "internalType": "address",
          "name": "operator",
          "type": "address"
        },
        {
          "indexed": true,
          "internalType": "address",
          "name": "from",
          "type": "address"
        },
        {
          "indexed": true,
          "internalType": "address",
          "name": "to",
          "type": "address"
        },
        {
          "indexed": false,
          "internalType": "uint256",
          "name": "id",
          "type": "uint256"
        },
        {
          "indexed": false,
          "internalType": "uint256",
          "name": "value",
          "type": "uint256"
        }
      ],
      "name": "TransferSingle",
      "type": "event"
    },
    {
      "anonymous": false,
      "inputs": [
        {
          "indexed": false,
          "internalType": "string",
          "name": "value",
          "type": "string"
        },
        {
          "indexed": true,
          "internalType": "uint256",
          "name": "id",
          "type": "uint256"
        }
      ],
      "name": "URI",
      "type": "event"
    },
    {
      "anonymous": false,
      "inputs": [
        {
          "indexed": false,
          "internalType": "address",
          "name": "account",
          "type": "address"
        }
      ],
      "name": "Unpaused",
      "type": "event"
    },
    {
      "inputs": [
        {
          "internalType": "address",
          "name": "account",
          "type": "address"
        },
        {
          "internalType": "uint256",
          "name": "id",
          "type": "uint256"
        }
      ],
      "name": "balanceOf",
      "outputs": [
        {
          "internalType": "uint256",
          "name": "",
          "type": "uint256"
        }
      ],
      "stateMutability": "view",
      "type": "function",
      "constant": true
    },
    {
      "inputs": [
        {
          "internalType": "address[]",
          "name": "accounts",
          "type": "address[]"
        },
        {
          "internalType": "uint256[]",
          "name": "ids",
          "type": "uint256[]"
        }
      ],
      "name": "balanceOfBatch",
      "outputs": [
        {
          "internalType": "uint256[]",
          "name": "",
          "type": "uint256[]"
        }
      ],
      "stateMutability": "view",
      "type": "function",
      "constant": true
    },
    {
      "inputs": [
        {
          "internalType": "address",
          "name": "account",
          "type": "address"
        },
        {
          "internalType": "uint256[]",
          "name": "ids",
          "type": "uint256[]"
        },
        {
          "internalType": "uint256[]",
          "name": "values",
          "type": "uint256[]"
        }
      ],
      "name": "burnBatch",
      "outputs": [],
      "stateMutability": "nonpayable",
      "type": "function"
    },
    {
      "inputs": [
        {
          "internalType": "address",
          "name": "account",
          "type": "address"
        },
        {
          "internalType": "address",
          "name": "operator",
          "type": "address"
        }
      ],
      "name": "isApprovedForAll",
      "outputs": [
        {
          "internalType": "bool",
          "name": "",
          "type": "bool"
        }
      ],
      "stateMutability": "view",
      "type": "function",
      "constant": true
    },
    {
      "inputs": [],
      "name": "nonce",
      "outputs": [
        {
          "internalType": "uint256",
          "name": "",
          "type": "uint256"
        }
      ],
      "stateMutability": "view",
      "type": "function",
      "constant": true
    },
    {
      "inputs": [],
      "name": "owner",
      "outputs": [
        {
          "internalType": "address",
          "name": "",
          "type": "address"
        }
      ],
      "stateMutability": "view",
      "type": "function",
      "constant": true
    },
    {
      "inputs": [],
      "name": "paused",
      "outputs": [
        {
          "internalType": "bool",
          "name": "",
          "type": "bool"
        }
      ],
      "stateMutability": "view",
      "type": "function",
      "constant": true
    },
    {
      "inputs": [],
      "name": "renounceOwnership",
      "outputs": [],
      "stateMutability": "nonpayable",
      "type": "function"
    },
    {
      "inputs": [
        {
          "internalType": "address",
          "name": "from",
          "type": "address"
        },
        {
          "internalType": "address",
          "name": "to",
          "type": "address"
        },
        {
          "internalType": "uint256[]",
          "name": "ids",
          "type": "uint256[]"
        },
        {
          "internalType": "uint256[]",
          "name": "amounts",
          "type": "uint256[]"
        },
        {
          "internalType": "bytes",
          "name": "data",
          "type": "bytes"
        }
      ],
      "name": "safeBatchTransferFrom",
      "outputs": [],
      "stateMutability": "nonpayable",
      "type": "function"
    },
    {
      "inputs": [
        {
          "internalType": "address",
          "name": "from",
          "type": "address"
        },
        {
          "internalType": "address",
          "name": "to",
          "type": "address"
        },
        {
          "internalType": "uint256",
          "name": "id",
          "type": "uint256"
        },
        {
          "internalType": "uint256",
          "name": "amount",
          "type": "uint256"
        },
        {
          "internalType": "bytes",
          "name": "data",
          "type": "bytes"
        }
      ],
      "name": "safeTransferFrom",
      "outputs": [],
      "stateMutability": "nonpayable",
      "type": "function"
    },
    {
      "inputs": [
        {
          "internalType": "address",
          "name": "operator",
          "type": "address"
        },
        {
          "internalType": "bool",
          "name": "approved",
          "type": "bool"
        }
      ],
      "name": "setApprovalForAll",
      "outputs": [],
      "stateMutability": "nonpayable",
      "type": "function"
    },
    {
      "inputs": [
        {
          "internalType": "bytes4",
          "name": "interfaceId",
          "type": "bytes4"
        }
      ],
      "name": "supportsInterface",
      "outputs": [
        {
          "internalType": "bool",
          "name": "",
          "type": "bool"
        }
      ],
      "stateMutability": "view",
      "type": "function",
      "constant": true
    },
    {
      "inputs": [
        {
          "internalType": "uint256",
          "name": "",
          "type": "uint256"
        }
      ],
      "name": "tickets",
      "outputs": [
        {
          "internalType": "uint256",
          "name": "id",
          "type": "uint256"
        },
        {
          "internalType": "string",
          "name": "name",
          "type": "string"
        },
        {
          "internalType": "uint256",
          "name": "price",
          "type": "uint256"
        },
        {
          "internalType": "uint256",
          "name": "maxSellPerPerson",
          "type": "uint256"
        },
        {
          "internalType": "string",
          "name": "infoUrl",
          "type": "string"
        },
        {
          "internalType": "string",
          "name": "imageUrl",
          "type": "string"
        }
      ],
      "stateMutability": "view",
      "type": "function",
      "constant": true
    },
    {
      "inputs": [
        {
          "internalType": "uint256",
          "name": "",
          "type": "uint256"
        }
      ],
      "name": "tokenIds",
      "outputs": [
        {
          "internalType": "uint256",
          "name": "",
          "type": "uint256"
        }
      ],
      "stateMutability": "view",
      "type": "function",
      "constant": true
    },
    {
      "inputs": [],
      "name": "tokenIdsLength",
      "outputs": [
        {
          "internalType": "uint256",
          "name": "",
          "type": "uint256"
        }
      ],
      "stateMutability": "view",
      "type": "function",
      "constant": true
    },
    {
      "inputs": [
        {
          "internalType": "address",
          "name": "newOwner",
          "type": "address"
        }
      ],
      "name": "transferOwnership",
      "outputs": [],
      "stateMutability": "nonpayable",
      "type": "function"
    },
    {
      "inputs": [
        {
          "internalType": "uint256",
          "name": "",
          "type": "uint256"
        }
      ],
      "name": "uri",
      "outputs": [
        {
          "internalType": "string",
          "name": "",
          "type": "string"
        }
      ],
      "stateMutability": "view",
      "type": "function",
      "constant": true
    },
    {
      "inputs": [
        {
          "internalType": "string",
          "name": "name",
          "type": "string"
        },
        {
          "internalType": "uint256",
          "name": "price",
          "type": "uint256"
        },
        {
          "internalType": "uint256",
          "name": "amount",
          "type": "uint256"
        },
        {
          "internalType": "uint256",
          "name": "maxSellPerPerson",
          "type": "uint256"
        },
        {
          "internalType": "string",
          "name": "infoUrl",
          "type": "string"
        },
        {
          "internalType": "string",
          "name": "imageUrl",
          "type": "string"
        },
        {
          "internalType": "bytes",
          "name": "data",
          "type": "bytes"
        }
      ],
      "name": "create",
      "outputs": [],
      "stateMutability": "nonpayable",
      "type": "function"
    },
    {
      "inputs": [
        {
          "internalType": "uint256",
          "name": "id",
          "type": "uint256"
        },
        {
          "internalType": "uint256",
          "name": "amount",
          "type": "uint256"
        },
        {
          "internalType": "bytes",
          "name": "data",
          "type": "bytes"
        }
      ],
      "name": "buy",
      "outputs": [],
      "stateMutability": "payable",
      "type": "function",
      "payable": true
    },
    {
      "inputs": [
        {
          "internalType": "address",
          "name": "account",
          "type": "address"
        },
        {
          "internalType": "uint256",
          "name": "id",
          "type": "uint256"
        },
        {
          "internalType": "uint256",
          "name": "amount",
          "type": "uint256"
        }
      ],
      "name": "burn",
      "outputs": [],
      "stateMutability": "nonpayable",
      "type": "function"
    },
    {
      "inputs": [],
      "name": "pause",
      "outputs": [],
      "stateMutability": "nonpayable",
      "type": "function"
    },
    {
      "inputs": [],
      "name": "unpause",
      "outputs": [],
      "stateMutability": "nonpayable",
      "type": "function"
    }
  ],
  "bytecode": "0x60806040523480156200001157600080fd5b506040518060200160405280600081525062000033816200007d60201b60201c565b5062000054620000486200009960201b60201c565b620000a160201b60201c565b6000600360146101000a81548160ff02191690831515021790555060006004819055506200027c565b80600290805190602001906200009592919062000167565b5050565b600033905090565b6000600360009054906101000a900473ffffffffffffffffffffffffffffffffffffffff16905081600360006101000a81548173ffffffffffffffffffffffffffffffffffffffff021916908373ffffffffffffffffffffffffffffffffffffffff1602179055508173ffffffffffffffffffffffffffffffffffffffff168173ffffffffffffffffffffffffffffffffffffffff167f8be0079c531659141344cd1fd0a4f28419497f9722a3daafe3b4186f6b6457e060405160405180910390a35050565b828054620001759062000246565b90600052602060002090601f016020900481019282620001995760008555620001e5565b82601f10620001b457805160ff1916838001178555620001e5565b82800160010185558215620001e5579182015b82811115620001e4578251825591602001919060010190620001c7565b5b509050620001f49190620001f8565b5090565b5b8082111562000213576000816000905550600101620001f9565b5090565b7f4e487b7100000000000000000000000000000000000000000000000000000000600052602260045260246000fd5b600060028204905060018216806200025f57607f821691505b6020821081141562000276576200027562000217565b5b50919050565b614932806200028c6000396000f3fe6080604052600436106101345760003560e01c80638456cb59116100ab578063d58778d61161006f578063d58778d6146103f5578063e6b7ad7914610432578063e985e9c51461045d578063f242432a1461049a578063f2fde38b146104c3578063f5298aca146104ec57610134565b80638456cb59146103365780638da5cb5b1461034d578063a0ceaf5514610378578063a22cb465146103a1578063affed0e0146103ca57610134565b80633f4ba83a116100fd5780633f4ba83a146102355780634e1273f41461024c57806350b44712146102895780635c975abb146102cb5780636b20c454146102f6578063715018a61461031f57610134565b8062fdd58e1461013957806301ffc9a7146101765780630e89341c146101b35780631efd73a5146101f05780632eb2c2d61461020c575b600080fd5b34801561014557600080fd5b50610160600480360381019061015b9190612b98565b610515565b60405161016d9190612be7565b60405180910390f35b34801561018257600080fd5b5061019d60048036038101906101989190612c5a565b6105de565b6040516101aa9190612ca2565b60405180910390f35b3480156101bf57600080fd5b506101da60048036038101906101d59190612cbd565b6106c0565b6040516101e79190612d83565b60405180910390f35b61020a60048036038101906102059190612eda565b610754565b005b34801561021857600080fd5b50610233600480360381019061022e9190613011565b610a90565b005b34801561024157600080fd5b5061024a610b31565b005b34801561025857600080fd5b50610273600480360381019061026e91906131a3565b610bb7565b60405161028091906132d9565b60405180910390f35b34801561029557600080fd5b506102b060048036038101906102ab9190612cbd565b610cd0565b6040516102c2969594939291906132fb565b60405180910390f35b3480156102d757600080fd5b506102e0610ea4565b6040516102ed9190612ca2565b60405180910390f35b34801561030257600080fd5b5061031d60048036038101906103189190613371565b610ebb565b005b34801561032b57600080fd5b50610334610f58565b005b34801561034257600080fd5b5061034b610fe0565b005b34801561035957600080fd5b50610362611066565b60405161036f919061340b565b60405180910390f35b34801561038457600080fd5b5061039f600480360381019061039a91906134c7565b611090565b005b3480156103ad57600080fd5b506103c860048036038101906103c39190613605565b6112e5565b005b3480156103d657600080fd5b506103df6112fb565b6040516103ec9190612be7565b60405180910390f35b34801561040157600080fd5b5061041c60048036038101906104179190612cbd565b611301565b6040516104299190612be7565b60405180910390f35b34801561043e57600080fd5b50610447611325565b6040516104549190612be7565b60405180910390f35b34801561046957600080fd5b50610484600480360381019061047f9190613645565b61132b565b6040516104919190612ca2565b60405180910390f35b3480156104a657600080fd5b506104c160048036038101906104bc9190613685565b6113bf565b005b3480156104cf57600080fd5b506104ea60048036038101906104e5919061371c565b611460565b005b3480156104f857600080fd5b50610513600480360381019061050e9190613749565b611558565b005b60008073ffffffffffffffffffffffffffffffffffffffff168373ffffffffffffffffffffffffffffffffffffffff161415610586576040517f08c379a000000000000000000000000000000000000000000000000000000000815260040161057d9061380e565b60405180910390fd5b60008083815260200190815260200160002060008473ffffffffffffffffffffffffffffffffffffffff1673ffffffffffffffffffffffffffffffffffffffff16815260200190815260200160002054905092915050565b60007fd9b67a26000000000000000000000000000000000000000000000000000000007bffffffffffffffffffffffffffffffffffffffffffffffffffffffff1916827bffffffffffffffffffffffffffffffffffffffffffffffffffffffff191614806106a957507f0e89341c000000000000000000000000000000000000000000000000000000007bffffffffffffffffffffffffffffffffffffffffffffffffffffffff1916827bffffffffffffffffffffffffffffffffffffffffffffffffffffffff1916145b806106b957506106b8826115b0565b5b9050919050565b6060600280546106cf9061385d565b80601f01602080910402602001604051908101604052809291908181526020018280546106fb9061385d565b80156107485780601f1061071d57610100808354040283529160200191610748565b820191906000526020600020905b81548152906001019060200180831161072b57829003601f168201915b50505050509050919050565b818360008211610799576040517f08c379a0000000000000000000000000000000000000000000000000000000008152600401610790906138db565b60405180910390fd5b816107ab6107a5611066565b83610515565b10156107ec576040517f08c379a00000000000000000000000000000000000000000000000000000000081526004016107e390613947565b60405180910390fd5b6007600082815260200190815260200160002060030154821115610845576040517f08c379a000000000000000000000000000000000000000000000000000000000815260040161083c906139b3565b60405180910390fd5b8385600060076000838152602001908152602001600020600201548361086b9190613a02565b90503481146108af576040517f08c379a00000000000000000000000000000000000000000000000000000000081526004016108a690613aa8565b60405180910390fd5b8760006007600083815260200190815260200160002060020154141561090a576040517f08c379a000000000000000000000000000000000000000000000000000000000815260040161090190613b14565b60405180910390fd5b610912610ea4565b15610952576040517f08c379a000000000000000000000000000000000000000000000000000000000815260040161094990613b80565b60405180910390fd5b600061095c611066565b9050600033905060008273ffffffffffffffffffffffffffffffffffffffff163460405161098990613bd1565b60006040518083038185875af1925050503d80600081146109c6576040519150601f19603f3d011682016040523d82523d6000602084013e6109cb565b606091505b5050905080610a0f576040517f08c379a0000000000000000000000000000000000000000000000000000000008152600401610a0690613c32565b60405180910390fd5b610a1c83838e8e8e61161a565b8173ffffffffffffffffffffffffffffffffffffffff168373ffffffffffffffffffffffffffffffffffffffff168d7f2bbc64d6afd28a753f6c5e4aaa894f1d684c44a0e080167eae104ac8505cfebd8e604051610a7a9190612be7565b60405180910390a4505050505050505050505050565b610a9861189c565b73ffffffffffffffffffffffffffffffffffffffff168573ffffffffffffffffffffffffffffffffffffffff161480610ade5750610add85610ad861189c565b61132b565b5b610b1d576040517f08c379a0000000000000000000000000000000000000000000000000000000008152600401610b1490613cc4565b60405180910390fd5b610b2a85858585856118a4565b5050505050565b610b3961189c565b73ffffffffffffffffffffffffffffffffffffffff16610b57611066565b73ffffffffffffffffffffffffffffffffffffffff1614610bad576040517f08c379a0000000000000000000000000000000000000000000000000000000008152600401610ba490613d30565b60405180910390fd5b610bb5611bb8565b565b60608151835114610bfd576040517f08c379a0000000000000000000000000000000000000000000000000000000008152600401610bf490613dc2565b60405180910390fd5b6000835167ffffffffffffffff811115610c1a57610c19612daf565b5b604051908082528060200260200182016040528015610c485781602001602082028036833780820191505090505b50905060005b8451811015610cc557610c95858281518110610c6d57610c6c613de2565b5b6020026020010151858381518110610c8857610c87613de2565b5b6020026020010151610515565b828281518110610ca857610ca7613de2565b5b60200260200101818152505080610cbe90613e11565b9050610c4e565b508091505092915050565b6007602052806000526040600020600091509050806000015490806001018054610cf99061385d565b80601f0160208091040260200160405190810160405280929190818152602001828054610d259061385d565b8015610d725780601f10610d4757610100808354040283529160200191610d72565b820191906000526020600020905b815481529060010190602001808311610d5557829003601f168201915b505050505090806002015490806003015490806004018054610d939061385d565b80601f0160208091040260200160405190810160405280929190818152602001828054610dbf9061385d565b8015610e0c5780601f10610de157610100808354040283529160200191610e0c565b820191906000526020600020905b815481529060010190602001808311610def57829003601f168201915b505050505090806005018054610e219061385d565b80601f0160208091040260200160405190810160405280929190818152602001828054610e4d9061385d565b8015610e9a5780601f10610e6f57610100808354040283529160200191610e9a565b820191906000526020600020905b815481529060010190602001808311610e7d57829003601f168201915b5050505050905086565b6000600360149054906101000a900460ff16905090565b610ec361189c565b73ffffffffffffffffffffffffffffffffffffffff168373ffffffffffffffffffffffffffffffffffffffff161480610f095750610f0883610f0361189c565b61132b565b5b610f48576040517f08c379a0000000000000000000000000000000000000000000000000000000008152600401610f3f90613ecc565b60405180910390fd5b610f53838383611c5a565b505050565b610f6061189c565b73ffffffffffffffffffffffffffffffffffffffff16610f7e611066565b73ffffffffffffffffffffffffffffffffffffffff1614610fd4576040517f08c379a0000000000000000000000000000000000000000000000000000000008152600401610fcb90613d30565b60405180910390fd5b610fde6000611f0b565b565b610fe861189c565b73ffffffffffffffffffffffffffffffffffffffff16611006611066565b73ffffffffffffffffffffffffffffffffffffffff161461105c576040517f08c379a000000000000000000000000000000000000000000000000000000000815260040161105390613d30565b60405180910390fd5b611064611fd1565b565b6000600360009054906101000a900473ffffffffffffffffffffffffffffffffffffffff16905090565b61109861189c565b73ffffffffffffffffffffffffffffffffffffffff166110b6611066565b73ffffffffffffffffffffffffffffffffffffffff161461110c576040517f08c379a000000000000000000000000000000000000000000000000000000000815260040161110390613d30565b60405180910390fd5b611114610ea4565b15611154576040517f08c379a000000000000000000000000000000000000000000000000000000000815260040161114b90613b80565b60405180910390fd5b600060046000815461116590613e11565b9190508190559050600033905060006040518060c001604052808481526020018b81526020018a815260200188815260200187815260200186815250905060058390806001815401808255809150506001900390600052602060002001600090919091909150556005805490506006819055508060076000858152602001908152602001600020600082015181600001556020820151816001019080519060200190611212929190612a4d565b5060408201518160020155606082015181600301556080820151816004019080519060200190611243929190612a4d565b5060a0820151816005019080519060200190611260929190612a4d565b5090505061127082848a87612074565b8960405161127e9190613f28565b60405180910390208273ffffffffffffffffffffffffffffffffffffffff16847f9d783e202083d1fb37ad562ef4e7776ae35886aa85bb86b72e48e66f58f03f4d8c8c8c6040516112d193929190613f3f565b60405180910390a450505050505050505050565b6112f76112f061189c565b838361220a565b5050565b60045481565b6005818154811061131157600080fd5b906000526020600020016000915090505481565b60065481565b6000600160008473ffffffffffffffffffffffffffffffffffffffff1673ffffffffffffffffffffffffffffffffffffffff16815260200190815260200160002060008373ffffffffffffffffffffffffffffffffffffffff1673ffffffffffffffffffffffffffffffffffffffff16815260200190815260200160002060009054906101000a900460ff16905092915050565b6113c761189c565b73ffffffffffffffffffffffffffffffffffffffff168573ffffffffffffffffffffffffffffffffffffffff16148061140d575061140c8561140761189c565b61132b565b5b61144c576040517f08c379a000000000000000000000000000000000000000000000000000000000815260040161144390613ecc565b60405180910390fd5b611459858585858561161a565b5050505050565b61146861189c565b73ffffffffffffffffffffffffffffffffffffffff16611486611066565b73ffffffffffffffffffffffffffffffffffffffff16146114dc576040517f08c379a00000000000000000000000000000000000000000000000000000000081526004016114d390613d30565b60405180910390fd5b600073ffffffffffffffffffffffffffffffffffffffff168173ffffffffffffffffffffffffffffffffffffffff16141561154c576040517f08c379a000000000000000000000000000000000000000000000000000000000815260040161154390613fe8565b60405180910390fd5b61155581611f0b565b50565b611560610ea4565b156115a0576040517f08c379a000000000000000000000000000000000000000000000000000000000815260040161159790613b80565b60405180910390fd5b6115ab838383612377565b505050565b60007f01ffc9a7000000000000000000000000000000000000000000000000000000007bffffffffffffffffffffffffffffffffffffffffffffffffffffffff1916827bffffffffffffffffffffffffffffffffffffffffffffffffffffffff1916149050919050565b600073ffffffffffffffffffffffffffffffffffffffff168473ffffffffffffffffffffffffffffffffffffffff16141561168a576040517f08c379a00000000000000000000000000000000000000000000000000000000081526004016116819061407a565b60405180910390fd5b600061169461189c565b90506116b48187876116a588612594565b6116ae88612594565b8761260e565b600080600086815260200190815260200160002060008873ffffffffffffffffffffffffffffffffffffffff1673ffffffffffffffffffffffffffffffffffffffff1681526020019081526020016000205490508381101561174b576040517f08c379a00000000000000000000000000000000000000000000000000000000081526004016117429061410c565b60405180910390fd5b83810360008087815260200190815260200160002060008973ffffffffffffffffffffffffffffffffffffffff1673ffffffffffffffffffffffffffffffffffffffff168152602001908152602001600020819055508360008087815260200190815260200160002060008873ffffffffffffffffffffffffffffffffffffffff1673ffffffffffffffffffffffffffffffffffffffff1681526020019081526020016000206000828254611800919061412c565b925050819055508573ffffffffffffffffffffffffffffffffffffffff168773ffffffffffffffffffffffffffffffffffffffff168373ffffffffffffffffffffffffffffffffffffffff167fc3d58168c5ae7397731d063d5bbf3d657854427343f4c083240f7aacaa2d0f62888860405161187d929190614182565b60405180910390a4611893828888888888612624565b50505050505050565b600033905090565b81518351146118e8576040517f08c379a00000000000000000000000000000000000000000000000000000000081526004016118df9061421d565b60405180910390fd5b600073ffffffffffffffffffffffffffffffffffffffff168473ffffffffffffffffffffffffffffffffffffffff161415611958576040517f08c379a000000000000000000000000000000000000000000000000000000000815260040161194f9061407a565b60405180910390fd5b600061196261189c565b905061197281878787878761260e565b60005b8451811015611b2357600085828151811061199357611992613de2565b5b6020026020010151905060008583815181106119b2576119b1613de2565b5b60200260200101519050600080600084815260200190815260200160002060008b73ffffffffffffffffffffffffffffffffffffffff1673ffffffffffffffffffffffffffffffffffffffff16815260200190815260200160002054905081811015611a53576040517f08c379a0000000000000000000000000000000000000000000000000000000008152600401611a4a9061410c565b60405180910390fd5b81810360008085815260200190815260200160002060008c73ffffffffffffffffffffffffffffffffffffffff1673ffffffffffffffffffffffffffffffffffffffff168152602001908152602001600020819055508160008085815260200190815260200160002060008b73ffffffffffffffffffffffffffffffffffffffff1673ffffffffffffffffffffffffffffffffffffffff1681526020019081526020016000206000828254611b08919061412c565b9250508190555050505080611b1c90613e11565b9050611975565b508473ffffffffffffffffffffffffffffffffffffffff168673ffffffffffffffffffffffffffffffffffffffff168273ffffffffffffffffffffffffffffffffffffffff167f4a39dc06d4c0dbc64b70af90fd698a233a518aa5d07e595d983b8c0526c8f7fb8787604051611b9a92919061423d565b60405180910390a4611bb08187878787876127fc565b505050505050565b611bc0610ea4565b611bff576040517f08c379a0000000000000000000000000000000000000000000000000000000008152600401611bf6906142c0565b60405180910390fd5b6000600360146101000a81548160ff0219169083151502179055507f5db9ee0a495bf2e6ff9c91a7834c1ba4fdd244a5e8aa4e537bd38aeae4b073aa611c4361189c565b604051611c50919061340b565b60405180910390a1565b600073ffffffffffffffffffffffffffffffffffffffff168373ffffffffffffffffffffffffffffffffffffffff161415611cca576040517f08c379a0000000000000000000000000000000000000000000000000000000008152600401611cc190614352565b60405180910390fd5b8051825114611d0e576040517f08c379a0000000000000000000000000000000000000000000000000000000008152600401611d059061421d565b60405180910390fd5b6000611d1861189c565b9050611d388185600086866040518060200160405280600081525061260e565b60005b8351811015611e85576000848281518110611d5957611d58613de2565b5b602002602001015190506000848381518110611d7857611d77613de2565b5b60200260200101519050600080600084815260200190815260200160002060008973ffffffffffffffffffffffffffffffffffffffff1673ffffffffffffffffffffffffffffffffffffffff16815260200190815260200160002054905081811015611e19576040517f08c379a0000000000000000000000000000000000000000000000000000000008152600401611e10906143e4565b60405180910390fd5b81810360008085815260200190815260200160002060008a73ffffffffffffffffffffffffffffffffffffffff1673ffffffffffffffffffffffffffffffffffffffff168152602001908152602001600020819055505050508080611e7d90613e11565b915050611d3b565b50600073ffffffffffffffffffffffffffffffffffffffff168473ffffffffffffffffffffffffffffffffffffffff168273ffffffffffffffffffffffffffffffffffffffff167f4a39dc06d4c0dbc64b70af90fd698a233a518aa5d07e595d983b8c0526c8f7fb8686604051611efd92919061423d565b60405180910390a450505050565b6000600360009054906101000a900473ffffffffffffffffffffffffffffffffffffffff16905081600360006101000a81548173ffffffffffffffffffffffffffffffffffffffff021916908373ffffffffffffffffffffffffffffffffffffffff1602179055508173ffffffffffffffffffffffffffffffffffffffff168173ffffffffffffffffffffffffffffffffffffffff167f8be0079c531659141344cd1fd0a4f28419497f9722a3daafe3b4186f6b6457e060405160405180910390a35050565b611fd9610ea4565b15612019576040517f08c379a000000000000000000000000000000000000000000000000000000000815260040161201090613b80565b60405180910390fd5b6001600360146101000a81548160ff0219169083151502179055507f62e78cea01bee320cd4e420270b5ea74000d11b0c9f74754ebdbfc544b05a25861205d61189c565b60405161206a919061340b565b60405180910390a1565b600073ffffffffffffffffffffffffffffffffffffffff168473ffffffffffffffffffffffffffffffffffffffff1614156120e4576040517f08c379a00000000000000000000000000000000000000000000000000000000081526004016120db90614476565b60405180910390fd5b60006120ee61189c565b905061210f8160008761210088612594565b61210988612594565b8761260e565b8260008086815260200190815260200160002060008773ffffffffffffffffffffffffffffffffffffffff1673ffffffffffffffffffffffffffffffffffffffff168152602001908152602001600020600082825461216e919061412c565b925050819055508473ffffffffffffffffffffffffffffffffffffffff16600073ffffffffffffffffffffffffffffffffffffffff168273ffffffffffffffffffffffffffffffffffffffff167fc3d58168c5ae7397731d063d5bbf3d657854427343f4c083240f7aacaa2d0f6287876040516121ec929190614182565b60405180910390a461220381600087878787612624565b5050505050565b8173ffffffffffffffffffffffffffffffffffffffff168373ffffffffffffffffffffffffffffffffffffffff161415612279576040517f08c379a000000000000000000000000000000000000000000000000000000000815260040161227090614508565b60405180910390fd5b80600160008573ffffffffffffffffffffffffffffffffffffffff1673ffffffffffffffffffffffffffffffffffffffff16815260200190815260200160002060008473ffffffffffffffffffffffffffffffffffffffff1673ffffffffffffffffffffffffffffffffffffffff16815260200190815260200160002060006101000a81548160ff0219169083151502179055508173ffffffffffffffffffffffffffffffffffffffff168373ffffffffffffffffffffffffffffffffffffffff167f17307eab39ab6107e8899845ad3d59bd9653f200f220920489ca2b5937696c318360405161236a9190612ca2565b60405180910390a3505050565b600073ffffffffffffffffffffffffffffffffffffffff168373ffffffffffffffffffffffffffffffffffffffff1614156123e7576040517f08c379a00000000000000000000000000000000000000000000000000000000081526004016123de90614352565b60405180910390fd5b60006123f161189c565b90506124218185600061240387612594565b61240c87612594565b6040518060200160405280600081525061260e565b600080600085815260200190815260200160002060008673ffffffffffffffffffffffffffffffffffffffff1673ffffffffffffffffffffffffffffffffffffffff168152602001908152602001600020549050828110156124b8576040517f08c379a00000000000000000000000000000000000000000000000000000000081526004016124af906143e4565b60405180910390fd5b82810360008086815260200190815260200160002060008773ffffffffffffffffffffffffffffffffffffffff1673ffffffffffffffffffffffffffffffffffffffff16815260200190815260200160002081905550600073ffffffffffffffffffffffffffffffffffffffff168573ffffffffffffffffffffffffffffffffffffffff168373ffffffffffffffffffffffffffffffffffffffff167fc3d58168c5ae7397731d063d5bbf3d657854427343f4c083240f7aacaa2d0f628787604051612585929190614182565b60405180910390a45050505050565b60606000600167ffffffffffffffff8111156125b3576125b2612daf565b5b6040519080825280602002602001820160405280156125e15781602001602082028036833780820191505090505b50905082816000815181106125f9576125f8613de2565b5b60200260200101818152505080915050919050565b61261c8686868686866129d4565b505050505050565b6126438473ffffffffffffffffffffffffffffffffffffffff16612a32565b156127f4578373ffffffffffffffffffffffffffffffffffffffff1663f23a6e6187878686866040518663ffffffff1660e01b815260040161268995949392919061457d565b6020604051808303816000875af19250505080156126c557506040513d601f19601f820116820180604052508101906126c291906145ec565b60015b61276b576126d1614626565b806308c379a0141561272e57506126e6614648565b806126f15750612730565b806040517f08c379a00000000000000000000000000000000000000000000000000000000081526004016127259190612d83565b60405180910390fd5b505b6040517f08c379a000000000000000000000000000000000000000000000000000000000815260040161276290614750565b60405180910390fd5b63f23a6e6160e01b7bffffffffffffffffffffffffffffffffffffffffffffffffffffffff1916817bffffffffffffffffffffffffffffffffffffffffffffffffffffffff1916146127f2576040517f08c379a00000000000000000000000000000000000000000000000000000000081526004016127e9906147e2565b60405180910390fd5b505b505050505050565b61281b8473ffffffffffffffffffffffffffffffffffffffff16612a32565b156129cc578373ffffffffffffffffffffffffffffffffffffffff1663bc197c8187878686866040518663ffffffff1660e01b8152600401612861959493929190614802565b6020604051808303816000875af192505050801561289d57506040513d601f19601f8201168201806040525081019061289a91906145ec565b60015b612943576128a9614626565b806308c379a0141561290657506128be614648565b806128c95750612908565b806040517f08c379a00000000000000000000000000000000000000000000000000000000081526004016128fd9190612d83565b60405180910390fd5b505b6040517f08c379a000000000000000000000000000000000000000000000000000000000815260040161293a90614750565b60405180910390fd5b63bc197c8160e01b7bffffffffffffffffffffffffffffffffffffffffffffffffffffffff1916817bffffffffffffffffffffffffffffffffffffffffffffffffffffffff1916146129ca576040517f08c379a00000000000000000000000000000000000000000000000000000000081526004016129c1906147e2565b60405180910390fd5b505b505050505050565b6129e2868686868686612a45565b6129ea610ea4565b15612a2a576040517f08c379a0000000000000000000000000000000000000000000000000000000008152600401612a21906148dc565b60405180910390fd5b505050505050565b600080823b905060008111915050919050565b505050505050565b828054612a599061385d565b90600052602060002090601f016020900481019282612a7b5760008555612ac2565b82601f10612a9457805160ff1916838001178555612ac2565b82800160010185558215612ac2579182015b82811115612ac1578251825591602001919060010190612aa6565b5b509050612acf9190612ad3565b5090565b5b80821115612aec576000816000905550600101612ad4565b5090565b6000604051905090565b600080fd5b600080fd5b600073ffffffffffffffffffffffffffffffffffffffff82169050919050565b6000612b2f82612b04565b9050919050565b612b3f81612b24565b8114612b4a57600080fd5b50565b600081359050612b5c81612b36565b92915050565b6000819050919050565b612b7581612b62565b8114612b8057600080fd5b50565b600081359050612b9281612b6c565b92915050565b60008060408385031215612baf57612bae612afa565b5b6000612bbd85828601612b4d565b9250506020612bce85828601612b83565b9150509250929050565b612be181612b62565b82525050565b6000602082019050612bfc6000830184612bd8565b92915050565b60007fffffffff0000000000000000000000000000000000000000000000000000000082169050919050565b612c3781612c02565b8114612c4257600080fd5b50565b600081359050612c5481612c2e565b92915050565b600060208284031215612c7057612c6f612afa565b5b6000612c7e84828501612c45565b91505092915050565b60008115159050919050565b612c9c81612c87565b82525050565b6000602082019050612cb76000830184612c93565b92915050565b600060208284031215612cd357612cd2612afa565b5b6000612ce184828501612b83565b91505092915050565b600081519050919050565b600082825260208201905092915050565b60005b83811015612d24578082015181840152602081019050612d09565b83811115612d33576000848401525b50505050565b6000601f19601f8301169050919050565b6000612d5582612cea565b612d5f8185612cf5565b9350612d6f818560208601612d06565b612d7881612d39565b840191505092915050565b60006020820190508181036000830152612d9d8184612d4a565b905092915050565b600080fd5b600080fd5b7f4e487b7100000000000000000000000000000000000000000000000000000000600052604160045260246000fd5b612de782612d39565b810181811067ffffffffffffffff82111715612e0657612e05612daf565b5b80604052505050565b6000612e19612af0565b9050612e258282612dde565b919050565b600067ffffffffffffffff821115612e4557612e44612daf565b5b612e4e82612d39565b9050602081019050919050565b82818337600083830152505050565b6000612e7d612e7884612e2a565b612e0f565b905082815260208101848484011115612e9957612e98612daa565b5b612ea4848285612e5b565b509392505050565b600082601f830112612ec157612ec0612da5565b5b8135612ed1848260208601612e6a565b91505092915050565b600080600060608486031215612ef357612ef2612afa565b5b6000612f0186828701612b83565b9350506020612f1286828701612b83565b925050604084013567ffffffffffffffff811115612f3357612f32612aff565b5b612f3f86828701612eac565b9150509250925092565b600067ffffffffffffffff821115612f6457612f63612daf565b5b602082029050602081019050919050565b600080fd5b6000612f8d612f8884612f49565b612e0f565b90508083825260208201905060208402830185811115612fb057612faf612f75565b5b835b81811015612fd95780612fc58882612b83565b845260208401935050602081019050612fb2565b5050509392505050565b600082601f830112612ff857612ff7612da5565b5b8135613008848260208601612f7a565b91505092915050565b600080600080600060a0868803121561302d5761302c612afa565b5b600061303b88828901612b4d565b955050602061304c88828901612b4d565b945050604086013567ffffffffffffffff81111561306d5761306c612aff565b5b61307988828901612fe3565b935050606086013567ffffffffffffffff81111561309a57613099612aff565b5b6130a688828901612fe3565b925050608086013567ffffffffffffffff8111156130c7576130c6612aff565b5b6130d388828901612eac565b9150509295509295909350565b600067ffffffffffffffff8211156130fb576130fa612daf565b5b602082029050602081019050919050565b600061311f61311a846130e0565b612e0f565b9050808382526020820190506020840283018581111561314257613141612f75565b5b835b8181101561316b57806131578882612b4d565b845260208401935050602081019050613144565b5050509392505050565b600082601f83011261318a57613189612da5565b5b813561319a84826020860161310c565b91505092915050565b600080604083850312156131ba576131b9612afa565b5b600083013567ffffffffffffffff8111156131d8576131d7612aff565b5b6131e485828601613175565b925050602083013567ffffffffffffffff81111561320557613204612aff565b5b61321185828601612fe3565b9150509250929050565b600081519050919050565b600082825260208201905092915050565b6000819050602082019050919050565b61325081612b62565b82525050565b60006132628383613247565b60208301905092915050565b6000602082019050919050565b60006132868261321b565b6132908185613226565b935061329b83613237565b8060005b838110156132cc5781516132b38882613256565b97506132be8361326e565b92505060018101905061329f565b5085935050505092915050565b600060208201905081810360008301526132f3818461327b565b905092915050565b600060c0820190506133106000830189612bd8565b81810360208301526133228188612d4a565b90506133316040830187612bd8565b61333e6060830186612bd8565b81810360808301526133508185612d4a565b905081810360a08301526133648184612d4a565b9050979650505050505050565b60008060006060848603121561338a57613389612afa565b5b600061339886828701612b4d565b935050602084013567ffffffffffffffff8111156133b9576133b8612aff565b5b6133c586828701612fe3565b925050604084013567ffffffffffffffff8111156133e6576133e5612aff565b5b6133f286828701612fe3565b9150509250925092565b61340581612b24565b82525050565b600060208201905061342060008301846133fc565b92915050565b600067ffffffffffffffff82111561344157613440612daf565b5b61344a82612d39565b9050602081019050919050565b600061346a61346584613426565b612e0f565b90508281526020810184848401111561348657613485612daa565b5b613491848285612e5b565b509392505050565b600082601f8301126134ae576134ad612da5565b5b81356134be848260208601613457565b91505092915050565b600080600080600080600060e0888a0312156134e6576134e5612afa565b5b600088013567ffffffffffffffff81111561350457613503612aff565b5b6135108a828b01613499565b97505060206135218a828b01612b83565b96505060406135328a828b01612b83565b95505060606135438a828b01612b83565b945050608088013567ffffffffffffffff81111561356457613563612aff565b5b6135708a828b01613499565b93505060a088013567ffffffffffffffff81111561359157613590612aff565b5b61359d8a828b01613499565b92505060c088013567ffffffffffffffff8111156135be576135bd612aff565b5b6135ca8a828b01612eac565b91505092959891949750929550565b6135e281612c87565b81146135ed57600080fd5b50565b6000813590506135ff816135d9565b92915050565b6000806040838503121561361c5761361b612afa565b5b600061362a85828601612b4d565b925050602061363b858286016135f0565b9150509250929050565b6000806040838503121561365c5761365b612afa565b5b600061366a85828601612b4d565b925050602061367b85828601612b4d565b9150509250929050565b600080600080600060a086880312156136a1576136a0612afa565b5b60006136af88828901612b4d565b95505060206136c088828901612b4d565b94505060406136d188828901612b83565b93505060606136e288828901612b83565b925050608086013567ffffffffffffffff81111561370357613702612aff565b5b61370f88828901612eac565b9150509295509295909350565b60006020828403121561373257613731612afa565b5b600061374084828501612b4d565b91505092915050565b60008060006060848603121561376257613761612afa565b5b600061377086828701612b4d565b935050602061378186828701612b83565b925050604061379286828701612b83565b9150509250925092565b7f455243313135353a2062616c616e636520717565727920666f7220746865207a60008201527f65726f2061646472657373000000000000000000000000000000000000000000602082015250565b60006137f8602b83612cf5565b91506138038261379c565b604082019050919050565b60006020820190508181036000830152613827816137eb565b9050919050565b7f4e487b7100000000000000000000000000000000000000000000000000000000600052602260045260246000fd5b6000600282049050600182168061387557607f821691505b602082108114156138895761388861382e565b5b50919050565b7f416d6f756e74206d75737420626967676572207468616e203000000000000000600082015250565b60006138c5601983612cf5565b91506138d08261388f565b602082019050919050565b600060208201905081810360008301526138f4816138b8565b9050919050565b7f4e6f7420656e6f756768207469636b6574730000000000000000000000000000600082015250565b6000613931601283612cf5565b915061393c826138fb565b602082019050919050565b6000602082019050818103600083015261396081613924565b9050919050565b7f4d617820616d6d6f756e742070657220706572736f6e20726561636865640000600082015250565b600061399d601e83612cf5565b91506139a882613967565b602082019050919050565b600060208201905081810360008301526139cc81613990565b9050919050565b7f4e487b7100000000000000000000000000000000000000000000000000000000600052601160045260246000fd5b6000613a0d82612b62565b9150613a1883612b62565b9250817fffffffffffffffffffffffffffffffffffffffffffffffffffffffffffffffff0483118215151615613a5157613a506139d3565b5b828202905092915050565b7f496e636f727265637420616d6f756e7400000000000000000000000000000000600082015250565b6000613a92601083612cf5565b9150613a9d82613a5c565b602082019050919050565b60006020820190508181036000830152613ac181613a85565b9050919050565b7f5469636b657420646f6573206e6f742065786973740000000000000000000000600082015250565b6000613afe601583612cf5565b9150613b0982613ac8565b602082019050919050565b60006020820190508181036000830152613b2d81613af1565b9050919050565b7f5061757361626c653a2070617573656400000000000000000000000000000000600082015250565b6000613b6a601083612cf5565b9150613b7582613b34565b602082019050919050565b60006020820190508181036000830152613b9981613b5d565b9050919050565b600081905092915050565b50565b6000613bbb600083613ba0565b9150613bc682613bab565b600082019050919050565b6000613bdc82613bae565b9150819050919050565b7f4661696c656420746f2073656e64204574686572000000000000000000000000600082015250565b6000613c1c601483612cf5565b9150613c2782613be6565b602082019050919050565b60006020820190508181036000830152613c4b81613c0f565b9050919050565b7f455243313135353a207472616e736665722063616c6c6572206973206e6f742060008201527f6f776e6572206e6f7220617070726f7665640000000000000000000000000000602082015250565b6000613cae603283612cf5565b9150613cb982613c52565b604082019050919050565b60006020820190508181036000830152613cdd81613ca1565b9050919050565b7f4f776e61626c653a2063616c6c6572206973206e6f7420746865206f776e6572600082015250565b6000613d1a602083612cf5565b9150613d2582613ce4565b602082019050919050565b60006020820190508181036000830152613d4981613d0d565b9050919050565b7f455243313135353a206163636f756e747320616e6420696473206c656e67746860008201527f206d69736d617463680000000000000000000000000000000000000000000000602082015250565b6000613dac602983612cf5565b9150613db782613d50565b604082019050919050565b60006020820190508181036000830152613ddb81613d9f565b9050919050565b7f4e487b7100000000000000000000000000000000000000000000000000000000600052603260045260246000fd5b6000613e1c82612b62565b91507fffffffffffffffffffffffffffffffffffffffffffffffffffffffffffffffff821415613e4f57613e4e6139d3565b5b600182019050919050565b7f455243313135353a2063616c6c6572206973206e6f74206f776e6572206e6f7260008201527f20617070726f7665640000000000000000000000000000000000000000000000602082015250565b6000613eb6602983612cf5565b9150613ec182613e5a565b604082019050919050565b60006020820190508181036000830152613ee581613ea9565b9050919050565b600081905092915050565b6000613f0282612cea565b613f0c8185613eec565b9350613f1c818560208601612d06565b80840191505092915050565b6000613f348284613ef7565b915081905092915050565b6000606082019050613f546000830186612bd8565b613f616020830185612bd8565b613f6e6040830184612bd8565b949350505050565b7f4f776e61626c653a206e6577206f776e657220697320746865207a65726f206160008201527f6464726573730000000000000000000000000000000000000000000000000000602082015250565b6000613fd2602683612cf5565b9150613fdd82613f76565b604082019050919050565b6000602082019050818103600083015261400181613fc5565b9050919050565b7f455243313135353a207472616e7366657220746f20746865207a65726f20616460008201527f6472657373000000000000000000000000000000000000000000000000000000602082015250565b6000614064602583612cf5565b915061406f82614008565b604082019050919050565b6000602082019050818103600083015261409381614057565b9050919050565b7f455243313135353a20696e73756666696369656e742062616c616e636520666f60008201527f72207472616e7366657200000000000000000000000000000000000000000000602082015250565b60006140f6602a83612cf5565b91506141018261409a565b604082019050919050565b60006020820190508181036000830152614125816140e9565b9050919050565b600061413782612b62565b915061414283612b62565b9250827fffffffffffffffffffffffffffffffffffffffffffffffffffffffffffffffff03821115614177576141766139d3565b5b828201905092915050565b60006040820190506141976000830185612bd8565b6141a46020830184612bd8565b9392505050565b7f455243313135353a2069647320616e6420616d6f756e7473206c656e6774682060008201527f6d69736d61746368000000000000000000000000000000000000000000000000602082015250565b6000614207602883612cf5565b9150614212826141ab565b604082019050919050565b60006020820190508181036000830152614236816141fa565b9050919050565b60006040820190508181036000830152614257818561327b565b9050818103602083015261426b818461327b565b90509392505050565b7f5061757361626c653a206e6f7420706175736564000000000000000000000000600082015250565b60006142aa601483612cf5565b91506142b582614274565b602082019050919050565b600060208201905081810360008301526142d98161429d565b9050919050565b7f455243313135353a206275726e2066726f6d20746865207a65726f206164647260008201527f6573730000000000000000000000000000000000000000000000000000000000602082015250565b600061433c602383612cf5565b9150614347826142e0565b604082019050919050565b6000602082019050818103600083015261436b8161432f565b9050919050565b7f455243313135353a206275726e20616d6f756e7420657863656564732062616c60008201527f616e636500000000000000000000000000000000000000000000000000000000602082015250565b60006143ce602483612cf5565b91506143d982614372565b604082019050919050565b600060208201905081810360008301526143fd816143c1565b9050919050565b7f455243313135353a206d696e7420746f20746865207a65726f2061646472657360008201527f7300000000000000000000000000000000000000000000000000000000000000602082015250565b6000614460602183612cf5565b915061446b82614404565b604082019050919050565b6000602082019050818103600083015261448f81614453565b9050919050565b7f455243313135353a2073657474696e6720617070726f76616c2073746174757360008201527f20666f722073656c660000000000000000000000000000000000000000000000602082015250565b60006144f2602983612cf5565b91506144fd82614496565b604082019050919050565b60006020820190508181036000830152614521816144e5565b9050919050565b600081519050919050565b600082825260208201905092915050565b600061454f82614528565b6145598185614533565b9350614569818560208601612d06565b61457281612d39565b840191505092915050565b600060a08201905061459260008301886133fc565b61459f60208301876133fc565b6145ac6040830186612bd8565b6145b96060830185612bd8565b81810360808301526145cb8184614544565b90509695505050505050565b6000815190506145e681612c2e565b92915050565b60006020828403121561460257614601612afa565b5b6000614610848285016145d7565b91505092915050565b60008160e01c9050919050565b600060033d11156146455760046000803e614642600051614619565b90505b90565b600060443d1015614658576146db565b614660612af0565b60043d036004823e80513d602482011167ffffffffffffffff821117156146885750506146db565b808201805167ffffffffffffffff8111156146a657505050506146db565b80602083010160043d0385018111156146c35750505050506146db565b6146d282602001850186612dde565b82955050505050505b90565b7f455243313135353a207472616e7366657220746f206e6f6e204552433131353560008201527f526563656976657220696d706c656d656e746572000000000000000000000000602082015250565b600061473a603483612cf5565b9150614745826146de565b604082019050919050565b600060208201905081810360008301526147698161472d565b9050919050565b7f455243313135353a204552433131353552656365697665722072656a6563746560008201527f6420746f6b656e73000000000000000000000000000000000000000000000000602082015250565b60006147cc602883612cf5565b91506147d782614770565b604082019050919050565b600060208201905081810360008301526147fb816147bf565b9050919050565b600060a08201905061481760008301886133fc565b61482460208301876133fc565b8181036040830152614836818661327b565b9050818103606083015261484a818561327b565b9050818103608083015261485e8184614544565b90509695505050505050565b7f455243313135355061757361626c653a20746f6b656e207472616e736665722060008201527f7768696c65207061757365640000000000000000000000000000000000000000602082015250565b60006148c6602c83612cf5565b91506148d18261486a565b604082019050919050565b600060208201905081810360008301526148f5816148b9565b905091905056fea2646970667358221220ebfff2ac7ffcea219d6d0ef1c668b07881de1ab61472bfc6ea16b4622a23a65f64736f6c634300080a0033",
  "immutableReferences": {},
  "source": "// SPDX-License-Identifier: MIT\npragma solidity 0.8.10;\n\nimport \"@openzeppelin/contracts/token/ERC1155/ERC1155.sol\";\nimport \"@openzeppelin/contracts/access/Ownable.sol\";\nimport \"@openzeppelin/contracts/token/ERC1155/extensions/ERC1155Burnable.sol\";\nimport \"@openzeppelin/contracts/token/ERC1155/extensions/ERC1155Pausable.sol\";\n\n/// @title Contract for modeling ticket sales on ERC1155 tokens\n/// @author Javier Rojo\n/// @notice Allows an organizer to publish events, and other users to buy tickets, more for the future\n/// @custom:security-contact @javierlinked\ncontract TicketContract is ERC1155, Ownable, ERC1155Pausable, ERC1155Burnable {\n\n    /// @dev variariables and counters used by the contract and by the frontend, in order to crate a list\n    uint public nonce;\n    uint[] public tokenIds;\n    uint public tokenIdsLength;\n    \n    struct Ticket {\n        uint id;\n        string name;\n        uint price;     // in gwei\n        uint maxSellPerPerson;  // max number of tickets that can be kept per person\n        string infoUrl; // this is to be removed and kept off-chain\n        string imageUrl; // this is to be removed and kept off-chain\n    }\n\n    mapping(uint => Ticket) public tickets;\n\n    /// @notice This event is emmited when a ticket is created\n    /// @param id the id of the ticket\n    /// @param minter address of the minter\n    /// @param name name of the ticket\n    /// @param price price of the ticket \n    /// @param amount total supply of tickets\n    /// @param maxSellPerPerson the maximum number of tickets that can be hold per person\n    event TicketCreated(\n        uint indexed id,\n        address indexed minter,\n        string indexed name,\n        uint price,\n        uint amount,\n        uint maxSellPerPerson\n    );\n\n    //// @notice this event is emmited when a ticket is sold\n    /// @param id the id of the ticket\n    /// @param seller the address of the seller\n    /// @param buyer the address of the buyer\n    /// @param amount the amount of tickets sold\n    event TicketSold(\n        uint indexed id,\n        address indexed seller,\n        address indexed buyer,\n        uint amount\n    );\n\n    /// @notice this verifies the payment is exact or cancels the transaction\n    modifier paidExactly(uint amount, uint id) {\n        uint total = amount * tickets[id].price;\n        require(total == msg.value, \"Incorrect amount\");\n        _;\n    }\n\n    /// @notice this verifies the minter has enough tickets to sell\n    modifier allowedSell(uint amount, uint id) {\n        require(amount > 0, \"Amount must bigger than 0\");\n        require(balanceOf(owner(), id) >= amount, \"Not enough tickets\");\n        require(\n            amount <= tickets[id].maxSellPerPerson,\n            \"Max ammount per person reached\"\n        );\n        _;\n    }\n\n    modifier validate(uint id) {\n        require(tickets[id].price != 0, \"Ticket does not exist\");\n        _;\n    }\n\n    /// @notice constructor is trivial, but can be used to set parameters on deployment\n    constructor() ERC1155(\"\") {\n        nonce = 0;\n    }\n\n    /// @notice Crates a ticket\n    /// @dev After validations and internal variable set, delegates to the ERC1155 contract and emmits the event\n    /// @param name name of the ticket\n    /// @param price price of the ticket \n    /// @param amount total supply of tickets\n    /// @param maxSellPerPerson the maximum number of tickets that can be hold per person\n    /// @param infoUrl extra info about the ticket\n    /// @param imageUrl image of the ticket\n    /// @param data data required by ERC1155\n    function create(\n        string memory name,\n        uint price,\n        uint amount,\n        uint maxSellPerPerson,\n        string memory infoUrl,\n        string memory imageUrl,\n        bytes memory data\n    ) public onlyOwner whenNotPaused {\n        uint newId = ++nonce;\n\n        address owner = msg.sender;\n        Ticket memory newTicket = Ticket(newId, name, price, maxSellPerPerson, infoUrl, imageUrl);\n        tokenIds.push(newId);\n        tokenIdsLength = tokenIds.length;\n        tickets[newId] = newTicket;\n        _mint(owner, newId, amount, data);\n        emit TicketCreated(newId, owner, name, price, amount, maxSellPerPerson);\n    }\n\n    /// @notice sells a ticket\n    /// @dev It makes verifications, then transfers payment, later delegates to the ERC1155 transfer of the token\n    /// and finally emits the event\n    /// @param id token id\n    /// @param amount amount of tickets to sell\n    /// @param data data required by ERC1155\n    function buy(\n        uint id,\n        uint amount,\n        bytes memory data\n    )\n        public\n        payable\n        allowedSell(amount, id)\n        paidExactly(amount, id)\n        validate(id)\n        whenNotPaused\n    {\n        address payable owner = payable(owner());\n        address buyer = msg.sender;\n        (bool sent, ) = owner.call{value: msg.value}(\"\");\n        require(sent, \"Failed to send Ether\");\n        _safeTransferFrom(owner, buyer, id, amount, data);\n        emit TicketSold(id, owner, buyer, amount);\n    }\n\n    /// @notice burns a token. This funtion is used when the ticket is USED.\n    /// @dev after verifications delegates to the ERC1155 burn of the token\n    function burn(\n        address account,\n        uint id,\n        uint amount\n    ) public override\n    /**   onlyOwner ???*/ \n    whenNotPaused {\n        // NOTE:  to myself, not related to _balances[][] but to existence of tokens in the contract\n        _burn(account, id, amount);\n    }\n\n    /**\n     * @dev Pauses all token transfers.\n     *\n     * See {ERC1155Pausable} and {Pausable-_pause}.\n     *\n     * Requirements:\n     *\n     * - the caller must be owner.\n     */\n    function pause() public virtual onlyOwner {\n        _pause();\n    }\n\n    /**\n     * @dev Unpauses all token transfers.\n     *\n     * See {ERC1155Pausable} and {Pausable-_unpause}.\n     *\n     * Requirements:\n     *\n     * - the caller owner.\n     */\n    function unpause() public virtual onlyOwner {\n        _unpause();\n    }\n\n    function _beforeTokenTransfer(\n        address operator,\n        address from,\n        address to,\n        uint256[] memory ids,\n        uint256[] memory amounts,\n        bytes memory data\n    ) internal virtual override(ERC1155, ERC1155Pausable) {\n        super._beforeTokenTransfer(operator, from, to, ids, amounts, data);\n    }\n}\n",
  "sourcePath": "/Users/javier/dev/ConsenSys/blockchain-developer-bootcamp-final-project/contracts/TicketContract.sol",
  "compiler": {
    "name": "solc",
    "version": "0.8.10+commit.fc410830.Emscripten.clang"
  },
  "schemaVersion": "3.4.3",
  "updatedAt": "2021-11-27T12:56:28.653Z",
  "networkType": "ethereum",
  "devdoc": {
    "author": "Javier Rojo",
    "custom:security-contact": "@javierlinked",
    "events": {
      "TicketCreated(uint256,address,string,uint256,uint256,uint256)": {
        "params": {
          "amount": "total supply of tickets",
          "id": "the id of the ticket",
          "maxSellPerPerson": "the maximum number of tickets that can be hold per person",
          "minter": "address of the minter",
          "name": "name of the ticket",
          "price": "price of the ticket "
        }
      },
      "TicketSold(uint256,address,address,uint256)": {
        "params": {
          "amount": "the amount of tickets sold",
          "buyer": "the address of the buyer",
          "id": "the id of the ticket",
          "seller": "the address of the seller"
        }
      }
    },
    "kind": "dev",
    "methods": {
      "balanceOf(address,uint256)": {
        "details": "See {IERC1155-balanceOf}. Requirements: - `account` cannot be the zero address."
      },
      "balanceOfBatch(address[],uint256[])": {
        "details": "See {IERC1155-balanceOfBatch}. Requirements: - `accounts` and `ids` must have the same length."
      },
      "burn(address,uint256,uint256)": {
        "details": "after verifications delegates to the ERC1155 burn of the token"
      },
      "buy(uint256,uint256,bytes)": {
        "details": "It makes verifications, then transfers payment, later delegates to the ERC1155 transfer of the token and finally emits the event",
        "params": {
          "amount": "amount of tickets to sell",
          "data": "data required by ERC1155",
          "id": "token id"
        }
      },
      "create(string,uint256,uint256,uint256,string,string,bytes)": {
        "details": "After validations and internal variable set, delegates to the ERC1155 contract and emmits the event",
        "params": {
          "amount": "total supply of tickets",
          "data": "data required by ERC1155",
          "imageUrl": "image of the ticket",
          "infoUrl": "extra info about the ticket",
          "maxSellPerPerson": "the maximum number of tickets that can be hold per person",
          "name": "name of the ticket",
          "price": "price of the ticket "
        }
      },
      "isApprovedForAll(address,address)": {
        "details": "See {IERC1155-isApprovedForAll}."
      },
      "owner()": {
        "details": "Returns the address of the current owner."
      },
      "pause()": {
        "details": "Pauses all token transfers. See {ERC1155Pausable} and {Pausable-_pause}. Requirements: - the caller must be owner."
      },
      "paused()": {
        "details": "Returns true if the contract is paused, and false otherwise."
      },
      "renounceOwnership()": {
        "details": "Leaves the contract without owner. It will not be possible to call `onlyOwner` functions anymore. Can only be called by the current owner. NOTE: Renouncing ownership will leave the contract without an owner, thereby removing any functionality that is only available to the owner."
      },
      "safeBatchTransferFrom(address,address,uint256[],uint256[],bytes)": {
        "details": "See {IERC1155-safeBatchTransferFrom}."
      },
      "safeTransferFrom(address,address,uint256,uint256,bytes)": {
        "details": "See {IERC1155-safeTransferFrom}."
      },
      "setApprovalForAll(address,bool)": {
        "details": "See {IERC1155-setApprovalForAll}."
      },
      "supportsInterface(bytes4)": {
        "details": "See {IERC165-supportsInterface}."
      },
      "transferOwnership(address)": {
        "details": "Transfers ownership of the contract to a new account (`newOwner`). Can only be called by the current owner."
      },
      "unpause()": {
        "details": "Unpauses all token transfers. See {ERC1155Pausable} and {Pausable-_unpause}. Requirements: - the caller owner."
      },
      "uri(uint256)": {
        "details": "See {IERC1155MetadataURI-uri}. This implementation returns the same URI for *all* token types. It relies on the token type ID substitution mechanism https://eips.ethereum.org/EIPS/eip-1155#metadata[defined in the EIP]. Clients calling this function must replace the `\\{id\\}` substring with the actual token type ID."
      }
    },
    "stateVariables": {
      "nonce": {
        "details": "variariables and counters used by the contract and by the frontend, in order to crate a list"
      }
    },
    "title": "Contract for modeling ticket sales on ERC1155 tokens",
    "version": 1
  },
  "userdoc": {
    "events": {
      "TicketCreated(uint256,address,string,uint256,uint256,uint256)": {
        "notice": "This event is emmited when a ticket is created"
      }
    },
    "kind": "user",
    "methods": {
      "burn(address,uint256,uint256)": {
        "notice": "burns a token. This funtion is used when the ticket is USED."
      },
      "buy(uint256,uint256,bytes)": {
        "notice": "sells a ticket"
      },
      "constructor": {
        "notice": "constructor is trivial, but can be used to set parameters on deployment"
      },
      "create(string,uint256,uint256,uint256,string,string,bytes)": {
        "notice": "Crates a ticket"
      }
    },
    "notice": "Allows an organizer to publish events, and other users to buy tickets, more for the future",
    "version": 1
  }
}