{
  "contractName": "TicketContract",
  "abi": [
    {
      "inputs": [],
      "stateMutability": "nonpayable",
      "type": "constructor"
    },
    {
      "anonymous": false,
      "inputs": [
        {
          "indexed": true,
          "internalType": "address",
          "name": "account",
          "type": "address"
        },
        {
          "indexed": true,
          "internalType": "address",
          "name": "operator",
          "type": "address"
        },
        {
          "indexed": false,
          "internalType": "bool",
          "name": "approved",
          "type": "bool"
        }
      ],
      "name": "ApprovalForAll",
      "type": "event"
    },
    {
      "anonymous": false,
      "inputs": [
        {
          "indexed": true,
          "internalType": "address",
          "name": "previousOwner",
          "type": "address"
        },
        {
          "indexed": true,
          "internalType": "address",
          "name": "newOwner",
          "type": "address"
        }
      ],
      "name": "OwnershipTransferred",
      "type": "event"
    },
    {
      "anonymous": false,
      "inputs": [
        {
          "indexed": false,
          "internalType": "address",
          "name": "account",
          "type": "address"
        }
      ],
      "name": "Paused",
      "type": "event"
    },
    {
      "anonymous": false,
      "inputs": [
        {
          "indexed": true,
          "internalType": "uint256",
          "name": "id",
          "type": "uint256"
        },
        {
          "indexed": true,
          "internalType": "address",
          "name": "minter",
          "type": "address"
        },
        {
          "indexed": true,
          "internalType": "string",
          "name": "name",
          "type": "string"
        },
        {
          "indexed": false,
          "internalType": "uint256",
          "name": "price",
          "type": "uint256"
        },
        {
          "indexed": false,
          "internalType": "uint256",
          "name": "amount",
          "type": "uint256"
        },
        {
          "indexed": false,
          "internalType": "uint256",
          "name": "maxSellPerPerson",
          "type": "uint256"
        }
      ],
      "name": "TicketCreated",
      "type": "event"
    },
    {
      "anonymous": false,
      "inputs": [
        {
          "indexed": true,
          "internalType": "uint256",
          "name": "id",
          "type": "uint256"
        },
        {
          "indexed": true,
          "internalType": "address",
          "name": "seller",
          "type": "address"
        },
        {
          "indexed": true,
          "internalType": "address",
          "name": "buyer",
          "type": "address"
        },
        {
          "indexed": false,
          "internalType": "uint256",
          "name": "amount",
          "type": "uint256"
        }
      ],
      "name": "TicketSold",
      "type": "event"
    },
    {
      "anonymous": false,
      "inputs": [
        {
          "indexed": true,
          "internalType": "address",
          "name": "operator",
          "type": "address"
        },
        {
          "indexed": true,
          "internalType": "address",
          "name": "from",
          "type": "address"
        },
        {
          "indexed": true,
          "internalType": "address",
          "name": "to",
          "type": "address"
        },
        {
          "indexed": false,
          "internalType": "uint256[]",
          "name": "ids",
          "type": "uint256[]"
        },
        {
          "indexed": false,
          "internalType": "uint256[]",
          "name": "values",
          "type": "uint256[]"
        }
      ],
      "name": "TransferBatch",
      "type": "event"
    },
    {
      "anonymous": false,
      "inputs": [
        {
          "indexed": true,
          "internalType": "address",
          "name": "operator",
          "type": "address"
        },
        {
          "indexed": true,
          "internalType": "address",
          "name": "from",
          "type": "address"
        },
        {
          "indexed": true,
          "internalType": "address",
          "name": "to",
          "type": "address"
        },
        {
          "indexed": false,
          "internalType": "uint256",
          "name": "id",
          "type": "uint256"
        },
        {
          "indexed": false,
          "internalType": "uint256",
          "name": "value",
          "type": "uint256"
        }
      ],
      "name": "TransferSingle",
      "type": "event"
    },
    {
      "anonymous": false,
      "inputs": [
        {
          "indexed": false,
          "internalType": "string",
          "name": "value",
          "type": "string"
        },
        {
          "indexed": true,
          "internalType": "uint256",
          "name": "id",
          "type": "uint256"
        }
      ],
      "name": "URI",
      "type": "event"
    },
    {
      "anonymous": false,
      "inputs": [
        {
          "indexed": false,
          "internalType": "address",
          "name": "account",
          "type": "address"
        }
      ],
      "name": "Unpaused",
      "type": "event"
    },
    {
      "inputs": [
        {
          "internalType": "address",
          "name": "account",
          "type": "address"
        },
        {
          "internalType": "uint256",
          "name": "id",
          "type": "uint256"
        }
      ],
      "name": "balanceOf",
      "outputs": [
        {
          "internalType": "uint256",
          "name": "",
          "type": "uint256"
        }
      ],
      "stateMutability": "view",
      "type": "function",
      "constant": true
    },
    {
      "inputs": [
        {
          "internalType": "address[]",
          "name": "accounts",
          "type": "address[]"
        },
        {
          "internalType": "uint256[]",
          "name": "ids",
          "type": "uint256[]"
        }
      ],
      "name": "balanceOfBatch",
      "outputs": [
        {
          "internalType": "uint256[]",
          "name": "",
          "type": "uint256[]"
        }
      ],
      "stateMutability": "view",
      "type": "function",
      "constant": true
    },
    {
      "inputs": [
        {
          "internalType": "address",
          "name": "account",
          "type": "address"
        },
        {
          "internalType": "uint256[]",
          "name": "ids",
          "type": "uint256[]"
        },
        {
          "internalType": "uint256[]",
          "name": "values",
          "type": "uint256[]"
        }
      ],
      "name": "burnBatch",
      "outputs": [],
      "stateMutability": "nonpayable",
      "type": "function"
    },
    {
      "inputs": [
        {
          "internalType": "address",
          "name": "account",
          "type": "address"
        },
        {
          "internalType": "address",
          "name": "operator",
          "type": "address"
        }
      ],
      "name": "isApprovedForAll",
      "outputs": [
        {
          "internalType": "bool",
          "name": "",
          "type": "bool"
        }
      ],
      "stateMutability": "view",
      "type": "function",
      "constant": true
    },
    {
      "inputs": [],
      "name": "nonce",
      "outputs": [
        {
          "internalType": "uint256",
          "name": "",
          "type": "uint256"
        }
      ],
      "stateMutability": "view",
      "type": "function",
      "constant": true
    },
    {
      "inputs": [],
      "name": "owner",
      "outputs": [
        {
          "internalType": "address",
          "name": "",
          "type": "address"
        }
      ],
      "stateMutability": "view",
      "type": "function",
      "constant": true
    },
    {
      "inputs": [],
      "name": "paused",
      "outputs": [
        {
          "internalType": "bool",
          "name": "",
          "type": "bool"
        }
      ],
      "stateMutability": "view",
      "type": "function",
      "constant": true
    },
    {
      "inputs": [],
      "name": "renounceOwnership",
      "outputs": [],
      "stateMutability": "nonpayable",
      "type": "function"
    },
    {
      "inputs": [
        {
          "internalType": "address",
          "name": "from",
          "type": "address"
        },
        {
          "internalType": "address",
          "name": "to",
          "type": "address"
        },
        {
          "internalType": "uint256[]",
          "name": "ids",
          "type": "uint256[]"
        },
        {
          "internalType": "uint256[]",
          "name": "amounts",
          "type": "uint256[]"
        },
        {
          "internalType": "bytes",
          "name": "data",
          "type": "bytes"
        }
      ],
      "name": "safeBatchTransferFrom",
      "outputs": [],
      "stateMutability": "nonpayable",
      "type": "function"
    },
    {
      "inputs": [
        {
          "internalType": "address",
          "name": "from",
          "type": "address"
        },
        {
          "internalType": "address",
          "name": "to",
          "type": "address"
        },
        {
          "internalType": "uint256",
          "name": "id",
          "type": "uint256"
        },
        {
          "internalType": "uint256",
          "name": "amount",
          "type": "uint256"
        },
        {
          "internalType": "bytes",
          "name": "data",
          "type": "bytes"
        }
      ],
      "name": "safeTransferFrom",
      "outputs": [],
      "stateMutability": "nonpayable",
      "type": "function"
    },
    {
      "inputs": [
        {
          "internalType": "address",
          "name": "operator",
          "type": "address"
        },
        {
          "internalType": "bool",
          "name": "approved",
          "type": "bool"
        }
      ],
      "name": "setApprovalForAll",
      "outputs": [],
      "stateMutability": "nonpayable",
      "type": "function"
    },
    {
      "inputs": [
        {
          "internalType": "bytes4",
          "name": "interfaceId",
          "type": "bytes4"
        }
      ],
      "name": "supportsInterface",
      "outputs": [
        {
          "internalType": "bool",
          "name": "",
          "type": "bool"
        }
      ],
      "stateMutability": "view",
      "type": "function",
      "constant": true
    },
    {
      "inputs": [
        {
          "internalType": "uint256",
          "name": "",
          "type": "uint256"
        }
      ],
      "name": "tickets",
      "outputs": [
        {
          "internalType": "uint256",
          "name": "id",
          "type": "uint256"
        },
        {
          "internalType": "string",
          "name": "name",
          "type": "string"
        },
        {
          "internalType": "uint256",
          "name": "price",
          "type": "uint256"
        },
        {
          "internalType": "uint256",
          "name": "maxSellPerPerson",
          "type": "uint256"
        },
        {
          "internalType": "string",
          "name": "infoUrl",
          "type": "string"
        }
      ],
      "stateMutability": "view",
      "type": "function",
      "constant": true
    },
    {
      "inputs": [
        {
          "internalType": "uint256",
          "name": "",
          "type": "uint256"
        }
      ],
      "name": "tokenIds",
      "outputs": [
        {
          "internalType": "uint256",
          "name": "",
          "type": "uint256"
        }
      ],
      "stateMutability": "view",
      "type": "function",
      "constant": true
    },
    {
      "inputs": [],
      "name": "tokenIdsLength",
      "outputs": [
        {
          "internalType": "uint256",
          "name": "",
          "type": "uint256"
        }
      ],
      "stateMutability": "view",
      "type": "function",
      "constant": true
    },
    {
      "inputs": [
        {
          "internalType": "address",
          "name": "newOwner",
          "type": "address"
        }
      ],
      "name": "transferOwnership",
      "outputs": [],
      "stateMutability": "nonpayable",
      "type": "function"
    },
    {
      "inputs": [
        {
          "internalType": "uint256",
          "name": "",
          "type": "uint256"
        }
      ],
      "name": "uri",
      "outputs": [
        {
          "internalType": "string",
          "name": "",
          "type": "string"
        }
      ],
      "stateMutability": "view",
      "type": "function",
      "constant": true
    },
    {
      "inputs": [
        {
          "internalType": "string",
          "name": "name",
          "type": "string"
        },
        {
          "internalType": "uint256",
          "name": "price",
          "type": "uint256"
        },
        {
          "internalType": "uint256",
          "name": "amount",
          "type": "uint256"
        },
        {
          "internalType": "uint256",
          "name": "maxSellPerPerson",
          "type": "uint256"
        },
        {
          "internalType": "string",
          "name": "infoUrl",
          "type": "string"
        },
        {
          "internalType": "bytes",
          "name": "data",
          "type": "bytes"
        }
      ],
      "name": "create",
      "outputs": [],
      "stateMutability": "nonpayable",
      "type": "function"
    },
    {
      "inputs": [
        {
          "internalType": "uint256",
          "name": "id",
          "type": "uint256"
        },
        {
          "internalType": "uint256",
          "name": "amount",
          "type": "uint256"
        },
        {
          "internalType": "bytes",
          "name": "data",
          "type": "bytes"
        }
      ],
      "name": "buy",
      "outputs": [],
      "stateMutability": "payable",
      "type": "function",
      "payable": true
    },
    {
      "inputs": [
        {
          "internalType": "address",
          "name": "account",
          "type": "address"
        },
        {
          "internalType": "uint256",
          "name": "id",
          "type": "uint256"
        },
        {
          "internalType": "uint256",
          "name": "amount",
          "type": "uint256"
        }
      ],
      "name": "burn",
      "outputs": [],
      "stateMutability": "nonpayable",
      "type": "function"
    },
    {
      "inputs": [],
      "name": "pause",
      "outputs": [],
      "stateMutability": "nonpayable",
      "type": "function"
    },
    {
      "inputs": [],
      "name": "unpause",
      "outputs": [],
      "stateMutability": "nonpayable",
      "type": "function"
    }
  ],
  "bytecode": "0x60806040523480156200001157600080fd5b506040518060200160405280600081525062000033816200007d60201b60201c565b5062000054620000486200009960201b60201c565b620000a160201b60201c565b6000600360146101000a81548160ff02191690831515021790555060006004819055506200027c565b80600290805190602001906200009592919062000167565b5050565b600033905090565b6000600360009054906101000a900473ffffffffffffffffffffffffffffffffffffffff16905081600360006101000a81548173ffffffffffffffffffffffffffffffffffffffff021916908373ffffffffffffffffffffffffffffffffffffffff1602179055508173ffffffffffffffffffffffffffffffffffffffff168173ffffffffffffffffffffffffffffffffffffffff167f8be0079c531659141344cd1fd0a4f28419497f9722a3daafe3b4186f6b6457e060405160405180910390a35050565b828054620001759062000246565b90600052602060002090601f016020900481019282620001995760008555620001e5565b82601f10620001b457805160ff1916838001178555620001e5565b82800160010185558215620001e5579182015b82811115620001e4578251825591602001919060010190620001c7565b5b509050620001f49190620001f8565b5090565b5b8082111562000213576000816000905550600101620001f9565b5090565b7f4e487b7100000000000000000000000000000000000000000000000000000000600052602260045260246000fd5b600060028204905060018216806200025f57607f821691505b6020821081141562000276576200027562000217565b5b50919050565b61498c806200028c6000396000f3fe6080604052600436106101345760003560e01c8063715018a6116100ab578063d58778d61161006f578063d58778d6146103f4578063e6b7ad7914610431578063e985e9c51461045c578063f242432a14610499578063f2fde38b146104c2578063f5298aca146104eb57610134565b8063715018a6146103475780638456cb591461035e5780638da5cb5b14610375578063a22cb465146103a0578063affed0e0146103c957610134565b80632eb2c2d6116100fd5780632eb2c2d6146102355780633f4ba83a1461025e5780634e1273f41461027557806350b44712146102b25780635c975abb146102f35780636b20c4541461031e57610134565b8062fdd58e1461013957806301ffc9a714610176578063046e2b09146101b35780630e89341c146101dc5780631efd73a514610219575b600080fd5b34801561014557600080fd5b50610160600480360381019061015b9190612bcc565b610514565b60405161016d9190612c1b565b60405180910390f35b34801561018257600080fd5b5061019d60048036038101906101989190612c8e565b6105dd565b6040516101aa9190612cd6565b60405180910390f35b3480156101bf57600080fd5b506101da60048036038101906101d59190612ed8565b6106bf565b005b3480156101e857600080fd5b5061020360048036038101906101fe9190612fb9565b6109bd565b604051610210919061306e565b60405180910390f35b610233600480360381019061022e9190613090565b610a51565b005b34801561024157600080fd5b5061025c600480360381019061025791906131c7565b610da7565b005b34801561026a57600080fd5b50610273610e48565b005b34801561028157600080fd5b5061029c60048036038101906102979190613359565b610ece565b6040516102a9919061348f565b60405180910390f35b3480156102be57600080fd5b506102d960048036038101906102d49190612fb9565b610fe7565b6040516102ea9594939291906134b1565b60405180910390f35b3480156102ff57600080fd5b5061030861112d565b6040516103159190612cd6565b60405180910390f35b34801561032a57600080fd5b5061034560048036038101906103409190613512565b611144565b005b34801561035357600080fd5b5061035c6111e1565b005b34801561036a57600080fd5b50610373611269565b005b34801561038157600080fd5b5061038a6112ef565b60405161039791906135ac565b60405180910390f35b3480156103ac57600080fd5b506103c760048036038101906103c291906135f3565b611319565b005b3480156103d557600080fd5b506103de61132f565b6040516103eb9190612c1b565b60405180910390f35b34801561040057600080fd5b5061041b60048036038101906104169190612fb9565b611335565b6040516104289190612c1b565b60405180910390f35b34801561043d57600080fd5b50610446611359565b6040516104539190612c1b565b60405180910390f35b34801561046857600080fd5b50610483600480360381019061047e9190613633565b61135f565b6040516104909190612cd6565b60405180910390f35b3480156104a557600080fd5b506104c060048036038101906104bb9190613673565b6113f3565b005b3480156104ce57600080fd5b506104e960048036038101906104e4919061370a565b611494565b005b3480156104f757600080fd5b50610512600480360381019061050d9190613737565b61158c565b005b60008073ffffffffffffffffffffffffffffffffffffffff168373ffffffffffffffffffffffffffffffffffffffff161415610585576040517f08c379a000000000000000000000000000000000000000000000000000000000815260040161057c906137fc565b60405180910390fd5b60008083815260200190815260200160002060008473ffffffffffffffffffffffffffffffffffffffff1673ffffffffffffffffffffffffffffffffffffffff16815260200190815260200160002054905092915050565b60007fd9b67a26000000000000000000000000000000000000000000000000000000007bffffffffffffffffffffffffffffffffffffffffffffffffffffffff1916827bffffffffffffffffffffffffffffffffffffffffffffffffffffffff191614806106a857507f0e89341c000000000000000000000000000000000000000000000000000000007bffffffffffffffffffffffffffffffffffffffffffffffffffffffff1916827bffffffffffffffffffffffffffffffffffffffffffffffffffffffff1916145b806106b857506106b7826115e4565b5b9050919050565b6106c761164e565b73ffffffffffffffffffffffffffffffffffffffff166106e56112ef565b73ffffffffffffffffffffffffffffffffffffffff161461073b576040517f08c379a000000000000000000000000000000000000000000000000000000000815260040161073290613868565b60405180910390fd5b838360008211610780576040517f08c379a0000000000000000000000000000000000000000000000000000000008152600401610777906138d4565b60405180910390fd5b600081116107c3576040517f08c379a00000000000000000000000000000000000000000000000000000000081526004016107ba90613940565b60405180910390fd5b80821015610806576040517f08c379a00000000000000000000000000000000000000000000000000000000081526004016107fd906138d4565b60405180910390fd5b61080e61112d565b1561084e576040517f08c379a0000000000000000000000000000000000000000000000000000000008152600401610845906139ac565b60405180910390fd5b600060046000815461085f906139fb565b9190508190559050600033905060006040518060a001604052808481526020018c81526020018b815260200189815260200188815250905060058390806001815401808255809150506001900390600052602060002001600090919091909150556005805490506006819055508060076000858152602001908152602001600020600082015181600001556020820151816001019080519060200190610906929190612a81565b5060408201518160020155606082015181600301556080820151816004019080519060200190610937929190612a81565b5090505061094782848b89611656565b8a6040516109559190613a80565b60405180910390208273ffffffffffffffffffffffffffffffffffffffff16847f9d783e202083d1fb37ad562ef4e7776ae35886aa85bb86b72e48e66f58f03f4d8d8d8d6040516109a893929190613a97565b60405180910390a45050505050505050505050565b6060600280546109cc90613afd565b80601f01602080910402602001604051908101604052809291908181526020018280546109f890613afd565b8015610a455780601f10610a1a57610100808354040283529160200191610a45565b820191906000526020600020905b815481529060010190602001808311610a2857829003601f168201915b50505050509050919050565b818360008211610a96576040517f08c379a0000000000000000000000000000000000000000000000000000000008152600401610a8d90613b7b565b60405180910390fd5b81610aa8610aa26112ef565b83610514565b1015610ae9576040517f08c379a0000000000000000000000000000000000000000000000000000000008152600401610ae090613be7565b60405180910390fd5b600082610af63384610514565b610b009190613c07565b90506007600083815260200190815260200160002060030154811115610b5b576040517f08c379a0000000000000000000000000000000000000000000000000000000008152600401610b5290613ca9565b60405180910390fd5b84866000600760008381526020019081526020016000206002015483610b819190613cc9565b9050348114610bc5576040517f08c379a0000000000000000000000000000000000000000000000000000000008152600401610bbc906138d4565b60405180910390fd5b88600060076000838152602001908152602001600020600201541415610c20576040517f08c379a0000000000000000000000000000000000000000000000000000000008152600401610c1790613d6f565b60405180910390fd5b610c2861112d565b15610c68576040517f08c379a0000000000000000000000000000000000000000000000000000000008152600401610c5f906139ac565b60405180910390fd5b6000610c726112ef565b9050600033905060008273ffffffffffffffffffffffffffffffffffffffff1634604051610c9f90613dc0565b60006040518083038185875af1925050503d8060008114610cdc576040519150601f19603f3d011682016040523d82523d6000602084013e610ce1565b606091505b5050905080610d25576040517f08c379a0000000000000000000000000000000000000000000000000000000008152600401610d1c90613e21565b60405180910390fd5b610d3283838f8f8f6117ec565b8173ffffffffffffffffffffffffffffffffffffffff168373ffffffffffffffffffffffffffffffffffffffff168e7f2bbc64d6afd28a753f6c5e4aaa894f1d684c44a0e080167eae104ac8505cfebd8f604051610d909190612c1b565b60405180910390a450505050505050505050505050565b610daf61164e565b73ffffffffffffffffffffffffffffffffffffffff168573ffffffffffffffffffffffffffffffffffffffff161480610df55750610df485610def61164e565b61135f565b5b610e34576040517f08c379a0000000000000000000000000000000000000000000000000000000008152600401610e2b90613eb3565b60405180910390fd5b610e418585858585611a6e565b5050505050565b610e5061164e565b73ffffffffffffffffffffffffffffffffffffffff16610e6e6112ef565b73ffffffffffffffffffffffffffffffffffffffff1614610ec4576040517f08c379a0000000000000000000000000000000000000000000000000000000008152600401610ebb90613868565b60405180910390fd5b610ecc611d82565b565b60608151835114610f14576040517f08c379a0000000000000000000000000000000000000000000000000000000008152600401610f0b90613f45565b60405180910390fd5b6000835167ffffffffffffffff811115610f3157610f30612d0c565b5b604051908082528060200260200182016040528015610f5f5781602001602082028036833780820191505090505b50905060005b8451811015610fdc57610fac858281518110610f8457610f83613f65565b5b6020026020010151858381518110610f9f57610f9e613f65565b5b6020026020010151610514565b828281518110610fbf57610fbe613f65565b5b60200260200101818152505080610fd5906139fb565b9050610f65565b508091505092915050565b600760205280600052604060002060009150905080600001549080600101805461101090613afd565b80601f016020809104026020016040519081016040528092919081815260200182805461103c90613afd565b80156110895780601f1061105e57610100808354040283529160200191611089565b820191906000526020600020905b81548152906001019060200180831161106c57829003601f168201915b5050505050908060020154908060030154908060040180546110aa90613afd565b80601f01602080910402602001604051908101604052809291908181526020018280546110d690613afd565b80156111235780601f106110f857610100808354040283529160200191611123565b820191906000526020600020905b81548152906001019060200180831161110657829003601f168201915b5050505050905085565b6000600360149054906101000a900460ff16905090565b61114c61164e565b73ffffffffffffffffffffffffffffffffffffffff168373ffffffffffffffffffffffffffffffffffffffff16148061119257506111918361118c61164e565b61135f565b5b6111d1576040517f08c379a00000000000000000000000000000000000000000000000000000000081526004016111c890614006565b60405180910390fd5b6111dc838383611e24565b505050565b6111e961164e565b73ffffffffffffffffffffffffffffffffffffffff166112076112ef565b73ffffffffffffffffffffffffffffffffffffffff161461125d576040517f08c379a000000000000000000000000000000000000000000000000000000000815260040161125490613868565b60405180910390fd5b61126760006120d5565b565b61127161164e565b73ffffffffffffffffffffffffffffffffffffffff1661128f6112ef565b73ffffffffffffffffffffffffffffffffffffffff16146112e5576040517f08c379a00000000000000000000000000000000000000000000000000000000081526004016112dc90613868565b60405180910390fd5b6112ed61219b565b565b6000600360009054906101000a900473ffffffffffffffffffffffffffffffffffffffff16905090565b61132b61132461164e565b838361223e565b5050565b60045481565b6005818154811061134557600080fd5b906000526020600020016000915090505481565b60065481565b6000600160008473ffffffffffffffffffffffffffffffffffffffff1673ffffffffffffffffffffffffffffffffffffffff16815260200190815260200160002060008373ffffffffffffffffffffffffffffffffffffffff1673ffffffffffffffffffffffffffffffffffffffff16815260200190815260200160002060009054906101000a900460ff16905092915050565b6113fb61164e565b73ffffffffffffffffffffffffffffffffffffffff168573ffffffffffffffffffffffffffffffffffffffff16148061144157506114408561143b61164e565b61135f565b5b611480576040517f08c379a000000000000000000000000000000000000000000000000000000000815260040161147790614006565b60405180910390fd5b61148d85858585856117ec565b5050505050565b61149c61164e565b73ffffffffffffffffffffffffffffffffffffffff166114ba6112ef565b73ffffffffffffffffffffffffffffffffffffffff1614611510576040517f08c379a000000000000000000000000000000000000000000000000000000000815260040161150790613868565b60405180910390fd5b600073ffffffffffffffffffffffffffffffffffffffff168173ffffffffffffffffffffffffffffffffffffffff161415611580576040517f08c379a000000000000000000000000000000000000000000000000000000000815260040161157790614098565b60405180910390fd5b611589816120d5565b50565b61159461112d565b156115d4576040517f08c379a00000000000000000000000000000000000000000000000000000000081526004016115cb906139ac565b60405180910390fd5b6115df8383836123ab565b505050565b60007f01ffc9a7000000000000000000000000000000000000000000000000000000007bffffffffffffffffffffffffffffffffffffffffffffffffffffffff1916827bffffffffffffffffffffffffffffffffffffffffffffffffffffffff1916149050919050565b600033905090565b600073ffffffffffffffffffffffffffffffffffffffff168473ffffffffffffffffffffffffffffffffffffffff1614156116c6576040517f08c379a00000000000000000000000000000000000000000000000000000000081526004016116bd9061412a565b60405180910390fd5b60006116d061164e565b90506116f1816000876116e2886125c8565b6116eb886125c8565b87612642565b8260008086815260200190815260200160002060008773ffffffffffffffffffffffffffffffffffffffff1673ffffffffffffffffffffffffffffffffffffffff16815260200190815260200160002060008282546117509190613c07565b925050819055508473ffffffffffffffffffffffffffffffffffffffff16600073ffffffffffffffffffffffffffffffffffffffff168273ffffffffffffffffffffffffffffffffffffffff167fc3d58168c5ae7397731d063d5bbf3d657854427343f4c083240f7aacaa2d0f6287876040516117ce92919061414a565b60405180910390a46117e581600087878787612658565b5050505050565b600073ffffffffffffffffffffffffffffffffffffffff168473ffffffffffffffffffffffffffffffffffffffff16141561185c576040517f08c379a0000000000000000000000000000000000000000000000000000000008152600401611853906141e5565b60405180910390fd5b600061186661164e565b9050611886818787611877886125c8565b611880886125c8565b87612642565b600080600086815260200190815260200160002060008873ffffffffffffffffffffffffffffffffffffffff1673ffffffffffffffffffffffffffffffffffffffff1681526020019081526020016000205490508381101561191d576040517f08c379a000000000000000000000000000000000000000000000000000000000815260040161191490614277565b60405180910390fd5b83810360008087815260200190815260200160002060008973ffffffffffffffffffffffffffffffffffffffff1673ffffffffffffffffffffffffffffffffffffffff168152602001908152602001600020819055508360008087815260200190815260200160002060008873ffffffffffffffffffffffffffffffffffffffff1673ffffffffffffffffffffffffffffffffffffffff16815260200190815260200160002060008282546119d29190613c07565b925050819055508573ffffffffffffffffffffffffffffffffffffffff168773ffffffffffffffffffffffffffffffffffffffff168373ffffffffffffffffffffffffffffffffffffffff167fc3d58168c5ae7397731d063d5bbf3d657854427343f4c083240f7aacaa2d0f628888604051611a4f92919061414a565b60405180910390a4611a65828888888888612658565b50505050505050565b8151835114611ab2576040517f08c379a0000000000000000000000000000000000000000000000000000000008152600401611aa990614309565b60405180910390fd5b600073ffffffffffffffffffffffffffffffffffffffff168473ffffffffffffffffffffffffffffffffffffffff161415611b22576040517f08c379a0000000000000000000000000000000000000000000000000000000008152600401611b19906141e5565b60405180910390fd5b6000611b2c61164e565b9050611b3c818787878787612642565b60005b8451811015611ced576000858281518110611b5d57611b5c613f65565b5b602002602001015190506000858381518110611b7c57611b7b613f65565b5b60200260200101519050600080600084815260200190815260200160002060008b73ffffffffffffffffffffffffffffffffffffffff1673ffffffffffffffffffffffffffffffffffffffff16815260200190815260200160002054905081811015611c1d576040517f08c379a0000000000000000000000000000000000000000000000000000000008152600401611c1490614277565b60405180910390fd5b81810360008085815260200190815260200160002060008c73ffffffffffffffffffffffffffffffffffffffff1673ffffffffffffffffffffffffffffffffffffffff168152602001908152602001600020819055508160008085815260200190815260200160002060008b73ffffffffffffffffffffffffffffffffffffffff1673ffffffffffffffffffffffffffffffffffffffff1681526020019081526020016000206000828254611cd29190613c07565b9250508190555050505080611ce6906139fb565b9050611b3f565b508473ffffffffffffffffffffffffffffffffffffffff168673ffffffffffffffffffffffffffffffffffffffff168273ffffffffffffffffffffffffffffffffffffffff167f4a39dc06d4c0dbc64b70af90fd698a233a518aa5d07e595d983b8c0526c8f7fb8787604051611d64929190614329565b60405180910390a4611d7a818787878787612830565b505050505050565b611d8a61112d565b611dc9576040517f08c379a0000000000000000000000000000000000000000000000000000000008152600401611dc0906143ac565b60405180910390fd5b6000600360146101000a81548160ff0219169083151502179055507f5db9ee0a495bf2e6ff9c91a7834c1ba4fdd244a5e8aa4e537bd38aeae4b073aa611e0d61164e565b604051611e1a91906135ac565b60405180910390a1565b600073ffffffffffffffffffffffffffffffffffffffff168373ffffffffffffffffffffffffffffffffffffffff161415611e94576040517f08c379a0000000000000000000000000000000000000000000000000000000008152600401611e8b9061443e565b60405180910390fd5b8051825114611ed8576040517f08c379a0000000000000000000000000000000000000000000000000000000008152600401611ecf90614309565b60405180910390fd5b6000611ee261164e565b9050611f0281856000868660405180602001604052806000815250612642565b60005b835181101561204f576000848281518110611f2357611f22613f65565b5b602002602001015190506000848381518110611f4257611f41613f65565b5b60200260200101519050600080600084815260200190815260200160002060008973ffffffffffffffffffffffffffffffffffffffff1673ffffffffffffffffffffffffffffffffffffffff16815260200190815260200160002054905081811015611fe3576040517f08c379a0000000000000000000000000000000000000000000000000000000008152600401611fda906144d0565b60405180910390fd5b81810360008085815260200190815260200160002060008a73ffffffffffffffffffffffffffffffffffffffff1673ffffffffffffffffffffffffffffffffffffffff168152602001908152602001600020819055505050508080612047906139fb565b915050611f05565b50600073ffffffffffffffffffffffffffffffffffffffff168473ffffffffffffffffffffffffffffffffffffffff168273ffffffffffffffffffffffffffffffffffffffff167f4a39dc06d4c0dbc64b70af90fd698a233a518aa5d07e595d983b8c0526c8f7fb86866040516120c7929190614329565b60405180910390a450505050565b6000600360009054906101000a900473ffffffffffffffffffffffffffffffffffffffff16905081600360006101000a81548173ffffffffffffffffffffffffffffffffffffffff021916908373ffffffffffffffffffffffffffffffffffffffff1602179055508173ffffffffffffffffffffffffffffffffffffffff168173ffffffffffffffffffffffffffffffffffffffff167f8be0079c531659141344cd1fd0a4f28419497f9722a3daafe3b4186f6b6457e060405160405180910390a35050565b6121a361112d565b156121e3576040517f08c379a00000000000000000000000000000000000000000000000000000000081526004016121da906139ac565b60405180910390fd5b6001600360146101000a81548160ff0219169083151502179055507f62e78cea01bee320cd4e420270b5ea74000d11b0c9f74754ebdbfc544b05a25861222761164e565b60405161223491906135ac565b60405180910390a1565b8173ffffffffffffffffffffffffffffffffffffffff168373ffffffffffffffffffffffffffffffffffffffff1614156122ad576040517f08c379a00000000000000000000000000000000000000000000000000000000081526004016122a490614562565b60405180910390fd5b80600160008573ffffffffffffffffffffffffffffffffffffffff1673ffffffffffffffffffffffffffffffffffffffff16815260200190815260200160002060008473ffffffffffffffffffffffffffffffffffffffff1673ffffffffffffffffffffffffffffffffffffffff16815260200190815260200160002060006101000a81548160ff0219169083151502179055508173ffffffffffffffffffffffffffffffffffffffff168373ffffffffffffffffffffffffffffffffffffffff167f17307eab39ab6107e8899845ad3d59bd9653f200f220920489ca2b5937696c318360405161239e9190612cd6565b60405180910390a3505050565b600073ffffffffffffffffffffffffffffffffffffffff168373ffffffffffffffffffffffffffffffffffffffff16141561241b576040517f08c379a00000000000000000000000000000000000000000000000000000000081526004016124129061443e565b60405180910390fd5b600061242561164e565b905061245581856000612437876125c8565b612440876125c8565b60405180602001604052806000815250612642565b600080600085815260200190815260200160002060008673ffffffffffffffffffffffffffffffffffffffff1673ffffffffffffffffffffffffffffffffffffffff168152602001908152602001600020549050828110156124ec576040517f08c379a00000000000000000000000000000000000000000000000000000000081526004016124e3906144d0565b60405180910390fd5b82810360008086815260200190815260200160002060008773ffffffffffffffffffffffffffffffffffffffff1673ffffffffffffffffffffffffffffffffffffffff16815260200190815260200160002081905550600073ffffffffffffffffffffffffffffffffffffffff168573ffffffffffffffffffffffffffffffffffffffff168373ffffffffffffffffffffffffffffffffffffffff167fc3d58168c5ae7397731d063d5bbf3d657854427343f4c083240f7aacaa2d0f6287876040516125b992919061414a565b60405180910390a45050505050565b60606000600167ffffffffffffffff8111156125e7576125e6612d0c565b5b6040519080825280602002602001820160405280156126155781602001602082028036833780820191505090505b509050828160008151811061262d5761262c613f65565b5b60200260200101818152505080915050919050565b612650868686868686612a08565b505050505050565b6126778473ffffffffffffffffffffffffffffffffffffffff16612a66565b15612828578373ffffffffffffffffffffffffffffffffffffffff1663f23a6e6187878686866040518663ffffffff1660e01b81526004016126bd9594939291906145d7565b6020604051808303816000875af19250505080156126f957506040513d601f19601f820116820180604052508101906126f69190614646565b60015b61279f57612705614680565b806308c379a01415612762575061271a6146a2565b806127255750612764565b806040517f08c379a0000000000000000000000000000000000000000000000000000000008152600401612759919061306e565b60405180910390fd5b505b6040517f08c379a0000000000000000000000000000000000000000000000000000000008152600401612796906147aa565b60405180910390fd5b63f23a6e6160e01b7bffffffffffffffffffffffffffffffffffffffffffffffffffffffff1916817bffffffffffffffffffffffffffffffffffffffffffffffffffffffff191614612826576040517f08c379a000000000000000000000000000000000000000000000000000000000815260040161281d9061483c565b60405180910390fd5b505b505050505050565b61284f8473ffffffffffffffffffffffffffffffffffffffff16612a66565b15612a00578373ffffffffffffffffffffffffffffffffffffffff1663bc197c8187878686866040518663ffffffff1660e01b815260040161289595949392919061485c565b6020604051808303816000875af19250505080156128d157506040513d601f19601f820116820180604052508101906128ce9190614646565b60015b612977576128dd614680565b806308c379a0141561293a57506128f26146a2565b806128fd575061293c565b806040517f08c379a0000000000000000000000000000000000000000000000000000000008152600401612931919061306e565b60405180910390fd5b505b6040517f08c379a000000000000000000000000000000000000000000000000000000000815260040161296e906147aa565b60405180910390fd5b63bc197c8160e01b7bffffffffffffffffffffffffffffffffffffffffffffffffffffffff1916817bffffffffffffffffffffffffffffffffffffffffffffffffffffffff1916146129fe576040517f08c379a00000000000000000000000000000000000000000000000000000000081526004016129f59061483c565b60405180910390fd5b505b505050505050565b612a16868686868686612a79565b612a1e61112d565b15612a5e576040517f08c379a0000000000000000000000000000000000000000000000000000000008152600401612a5590614936565b60405180910390fd5b505050505050565b600080823b905060008111915050919050565b505050505050565b828054612a8d90613afd565b90600052602060002090601f016020900481019282612aaf5760008555612af6565b82601f10612ac857805160ff1916838001178555612af6565b82800160010185558215612af6579182015b82811115612af5578251825591602001919060010190612ada565b5b509050612b039190612b07565b5090565b5b80821115612b20576000816000905550600101612b08565b5090565b6000604051905090565b600080fd5b600080fd5b600073ffffffffffffffffffffffffffffffffffffffff82169050919050565b6000612b6382612b38565b9050919050565b612b7381612b58565b8114612b7e57600080fd5b50565b600081359050612b9081612b6a565b92915050565b6000819050919050565b612ba981612b96565b8114612bb457600080fd5b50565b600081359050612bc681612ba0565b92915050565b60008060408385031215612be357612be2612b2e565b5b6000612bf185828601612b81565b9250506020612c0285828601612bb7565b9150509250929050565b612c1581612b96565b82525050565b6000602082019050612c306000830184612c0c565b92915050565b60007fffffffff0000000000000000000000000000000000000000000000000000000082169050919050565b612c6b81612c36565b8114612c7657600080fd5b50565b600081359050612c8881612c62565b92915050565b600060208284031215612ca457612ca3612b2e565b5b6000612cb284828501612c79565b91505092915050565b60008115159050919050565b612cd081612cbb565b82525050565b6000602082019050612ceb6000830184612cc7565b92915050565b600080fd5b600080fd5b6000601f19601f8301169050919050565b7f4e487b7100000000000000000000000000000000000000000000000000000000600052604160045260246000fd5b612d4482612cfb565b810181811067ffffffffffffffff82111715612d6357612d62612d0c565b5b80604052505050565b6000612d76612b24565b9050612d828282612d3b565b919050565b600067ffffffffffffffff821115612da257612da1612d0c565b5b612dab82612cfb565b9050602081019050919050565b82818337600083830152505050565b6000612dda612dd584612d87565b612d6c565b905082815260208101848484011115612df657612df5612cf6565b5b612e01848285612db8565b509392505050565b600082601f830112612e1e57612e1d612cf1565b5b8135612e2e848260208601612dc7565b91505092915050565b600067ffffffffffffffff821115612e5257612e51612d0c565b5b612e5b82612cfb565b9050602081019050919050565b6000612e7b612e7684612e37565b612d6c565b905082815260208101848484011115612e9757612e96612cf6565b5b612ea2848285612db8565b509392505050565b600082601f830112612ebf57612ebe612cf1565b5b8135612ecf848260208601612e68565b91505092915050565b60008060008060008060c08789031215612ef557612ef4612b2e565b5b600087013567ffffffffffffffff811115612f1357612f12612b33565b5b612f1f89828a01612e09565b9650506020612f3089828a01612bb7565b9550506040612f4189828a01612bb7565b9450506060612f5289828a01612bb7565b935050608087013567ffffffffffffffff811115612f7357612f72612b33565b5b612f7f89828a01612e09565b92505060a087013567ffffffffffffffff811115612fa057612f9f612b33565b5b612fac89828a01612eaa565b9150509295509295509295565b600060208284031215612fcf57612fce612b2e565b5b6000612fdd84828501612bb7565b91505092915050565b600081519050919050565b600082825260208201905092915050565b60005b83811015613020578082015181840152602081019050613005565b8381111561302f576000848401525b50505050565b600061304082612fe6565b61304a8185612ff1565b935061305a818560208601613002565b61306381612cfb565b840191505092915050565b600060208201905081810360008301526130888184613035565b905092915050565b6000806000606084860312156130a9576130a8612b2e565b5b60006130b786828701612bb7565b93505060206130c886828701612bb7565b925050604084013567ffffffffffffffff8111156130e9576130e8612b33565b5b6130f586828701612eaa565b9150509250925092565b600067ffffffffffffffff82111561311a57613119612d0c565b5b602082029050602081019050919050565b600080fd5b600061314361313e846130ff565b612d6c565b905080838252602082019050602084028301858111156131665761316561312b565b5b835b8181101561318f578061317b8882612bb7565b845260208401935050602081019050613168565b5050509392505050565b600082601f8301126131ae576131ad612cf1565b5b81356131be848260208601613130565b91505092915050565b600080600080600060a086880312156131e3576131e2612b2e565b5b60006131f188828901612b81565b955050602061320288828901612b81565b945050604086013567ffffffffffffffff81111561322357613222612b33565b5b61322f88828901613199565b935050606086013567ffffffffffffffff8111156132505761324f612b33565b5b61325c88828901613199565b925050608086013567ffffffffffffffff81111561327d5761327c612b33565b5b61328988828901612eaa565b9150509295509295909350565b600067ffffffffffffffff8211156132b1576132b0612d0c565b5b602082029050602081019050919050565b60006132d56132d084613296565b612d6c565b905080838252602082019050602084028301858111156132f8576132f761312b565b5b835b81811015613321578061330d8882612b81565b8452602084019350506020810190506132fa565b5050509392505050565b600082601f8301126133405761333f612cf1565b5b81356133508482602086016132c2565b91505092915050565b600080604083850312156133705761336f612b2e565b5b600083013567ffffffffffffffff81111561338e5761338d612b33565b5b61339a8582860161332b565b925050602083013567ffffffffffffffff8111156133bb576133ba612b33565b5b6133c785828601613199565b9150509250929050565b600081519050919050565b600082825260208201905092915050565b6000819050602082019050919050565b61340681612b96565b82525050565b600061341883836133fd565b60208301905092915050565b6000602082019050919050565b600061343c826133d1565b61344681856133dc565b9350613451836133ed565b8060005b83811015613482578151613469888261340c565b975061347483613424565b925050600181019050613455565b5085935050505092915050565b600060208201905081810360008301526134a98184613431565b905092915050565b600060a0820190506134c66000830188612c0c565b81810360208301526134d88187613035565b90506134e76040830186612c0c565b6134f46060830185612c0c565b81810360808301526135068184613035565b90509695505050505050565b60008060006060848603121561352b5761352a612b2e565b5b600061353986828701612b81565b935050602084013567ffffffffffffffff81111561355a57613559612b33565b5b61356686828701613199565b925050604084013567ffffffffffffffff81111561358757613586612b33565b5b61359386828701613199565b9150509250925092565b6135a681612b58565b82525050565b60006020820190506135c1600083018461359d565b92915050565b6135d081612cbb565b81146135db57600080fd5b50565b6000813590506135ed816135c7565b92915050565b6000806040838503121561360a57613609612b2e565b5b600061361885828601612b81565b9250506020613629858286016135de565b9150509250929050565b6000806040838503121561364a57613649612b2e565b5b600061365885828601612b81565b925050602061366985828601612b81565b9150509250929050565b600080600080600060a0868803121561368f5761368e612b2e565b5b600061369d88828901612b81565b95505060206136ae88828901612b81565b94505060406136bf88828901612bb7565b93505060606136d088828901612bb7565b925050608086013567ffffffffffffffff8111156136f1576136f0612b33565b5b6136fd88828901612eaa565b9150509295509295909350565b6000602082840312156137205761371f612b2e565b5b600061372e84828501612b81565b91505092915050565b6000806000606084860312156137505761374f612b2e565b5b600061375e86828701612b81565b935050602061376f86828701612bb7565b925050604061378086828701612bb7565b9150509250925092565b7f455243313135353a2062616c616e636520717565727920666f7220746865207a60008201527f65726f2061646472657373000000000000000000000000000000000000000000602082015250565b60006137e6602b83612ff1565b91506137f18261378a565b604082019050919050565b60006020820190508181036000830152613815816137d9565b9050919050565b7f4f776e61626c653a2063616c6c6572206973206e6f7420746865206f776e6572600082015250565b6000613852602083612ff1565b915061385d8261381c565b602082019050919050565b6000602082019050818103600083015261388181613845565b9050919050565b7f496e636f727265637420616d6f756e7400000000000000000000000000000000600082015250565b60006138be601083612ff1565b91506138c982613888565b602082019050919050565b600060208201905081810360008301526138ed816138b1565b9050919050565b7f496e636f7272656374206d617853656c6c506572506572736f6e000000000000600082015250565b600061392a601a83612ff1565b9150613935826138f4565b602082019050919050565b600060208201905081810360008301526139598161391d565b9050919050565b7f5061757361626c653a2070617573656400000000000000000000000000000000600082015250565b6000613996601083612ff1565b91506139a182613960565b602082019050919050565b600060208201905081810360008301526139c581613989565b9050919050565b7f4e487b7100000000000000000000000000000000000000000000000000000000600052601160045260246000fd5b6000613a0682612b96565b91507fffffffffffffffffffffffffffffffffffffffffffffffffffffffffffffffff821415613a3957613a386139cc565b5b600182019050919050565b600081905092915050565b6000613a5a82612fe6565b613a648185613a44565b9350613a74818560208601613002565b80840191505092915050565b6000613a8c8284613a4f565b915081905092915050565b6000606082019050613aac6000830186612c0c565b613ab96020830185612c0c565b613ac66040830184612c0c565b949350505050565b7f4e487b7100000000000000000000000000000000000000000000000000000000600052602260045260246000fd5b60006002820490506001821680613b1557607f821691505b60208210811415613b2957613b28613ace565b5b50919050565b7f416d6f756e74206d75737420626967676572207468616e203000000000000000600082015250565b6000613b65601983612ff1565b9150613b7082613b2f565b602082019050919050565b60006020820190508181036000830152613b9481613b58565b9050919050565b7f4e6f7420656e6f756768207469636b6574730000000000000000000000000000600082015250565b6000613bd1601283612ff1565b9150613bdc82613b9b565b602082019050919050565b60006020820190508181036000830152613c0081613bc4565b9050919050565b6000613c1282612b96565b9150613c1d83612b96565b9250827fffffffffffffffffffffffffffffffffffffffffffffffffffffffffffffffff03821115613c5257613c516139cc565b5b828201905092915050565b7f4d617820616d6d6f756e742070657220706572736f6e20726561636865640000600082015250565b6000613c93601e83612ff1565b9150613c9e82613c5d565b602082019050919050565b60006020820190508181036000830152613cc281613c86565b9050919050565b6000613cd482612b96565b9150613cdf83612b96565b9250817fffffffffffffffffffffffffffffffffffffffffffffffffffffffffffffffff0483118215151615613d1857613d176139cc565b5b828202905092915050565b7f5469636b657420646f6573206e6f742065786973740000000000000000000000600082015250565b6000613d59601583612ff1565b9150613d6482613d23565b602082019050919050565b60006020820190508181036000830152613d8881613d4c565b9050919050565b600081905092915050565b50565b6000613daa600083613d8f565b9150613db582613d9a565b600082019050919050565b6000613dcb82613d9d565b9150819050919050565b7f4661696c656420746f2073656e64204574686572000000000000000000000000600082015250565b6000613e0b601483612ff1565b9150613e1682613dd5565b602082019050919050565b60006020820190508181036000830152613e3a81613dfe565b9050919050565b7f455243313135353a207472616e736665722063616c6c6572206973206e6f742060008201527f6f776e6572206e6f7220617070726f7665640000000000000000000000000000602082015250565b6000613e9d603283612ff1565b9150613ea882613e41565b604082019050919050565b60006020820190508181036000830152613ecc81613e90565b9050919050565b7f455243313135353a206163636f756e747320616e6420696473206c656e67746860008201527f206d69736d617463680000000000000000000000000000000000000000000000602082015250565b6000613f2f602983612ff1565b9150613f3a82613ed3565b604082019050919050565b60006020820190508181036000830152613f5e81613f22565b9050919050565b7f4e487b7100000000000000000000000000000000000000000000000000000000600052603260045260246000fd5b7f455243313135353a2063616c6c6572206973206e6f74206f776e6572206e6f7260008201527f20617070726f7665640000000000000000000000000000000000000000000000602082015250565b6000613ff0602983612ff1565b9150613ffb82613f94565b604082019050919050565b6000602082019050818103600083015261401f81613fe3565b9050919050565b7f4f776e61626c653a206e6577206f776e657220697320746865207a65726f206160008201527f6464726573730000000000000000000000000000000000000000000000000000602082015250565b6000614082602683612ff1565b915061408d82614026565b604082019050919050565b600060208201905081810360008301526140b181614075565b9050919050565b7f455243313135353a206d696e7420746f20746865207a65726f2061646472657360008201527f7300000000000000000000000000000000000000000000000000000000000000602082015250565b6000614114602183612ff1565b915061411f826140b8565b604082019050919050565b6000602082019050818103600083015261414381614107565b9050919050565b600060408201905061415f6000830185612c0c565b61416c6020830184612c0c565b9392505050565b7f455243313135353a207472616e7366657220746f20746865207a65726f20616460008201527f6472657373000000000000000000000000000000000000000000000000000000602082015250565b60006141cf602583612ff1565b91506141da82614173565b604082019050919050565b600060208201905081810360008301526141fe816141c2565b9050919050565b7f455243313135353a20696e73756666696369656e742062616c616e636520666f60008201527f72207472616e7366657200000000000000000000000000000000000000000000602082015250565b6000614261602a83612ff1565b915061426c82614205565b604082019050919050565b6000602082019050818103600083015261429081614254565b9050919050565b7f455243313135353a2069647320616e6420616d6f756e7473206c656e6774682060008201527f6d69736d61746368000000000000000000000000000000000000000000000000602082015250565b60006142f3602883612ff1565b91506142fe82614297565b604082019050919050565b60006020820190508181036000830152614322816142e6565b9050919050565b600060408201905081810360008301526143438185613431565b905081810360208301526143578184613431565b90509392505050565b7f5061757361626c653a206e6f7420706175736564000000000000000000000000600082015250565b6000614396601483612ff1565b91506143a182614360565b602082019050919050565b600060208201905081810360008301526143c581614389565b9050919050565b7f455243313135353a206275726e2066726f6d20746865207a65726f206164647260008201527f6573730000000000000000000000000000000000000000000000000000000000602082015250565b6000614428602383612ff1565b9150614433826143cc565b604082019050919050565b600060208201905081810360008301526144578161441b565b9050919050565b7f455243313135353a206275726e20616d6f756e7420657863656564732062616c60008201527f616e636500000000000000000000000000000000000000000000000000000000602082015250565b60006144ba602483612ff1565b91506144c58261445e565b604082019050919050565b600060208201905081810360008301526144e9816144ad565b9050919050565b7f455243313135353a2073657474696e6720617070726f76616c2073746174757360008201527f20666f722073656c660000000000000000000000000000000000000000000000602082015250565b600061454c602983612ff1565b9150614557826144f0565b604082019050919050565b6000602082019050818103600083015261457b8161453f565b9050919050565b600081519050919050565b600082825260208201905092915050565b60006145a982614582565b6145b3818561458d565b93506145c3818560208601613002565b6145cc81612cfb565b840191505092915050565b600060a0820190506145ec600083018861359d565b6145f9602083018761359d565b6146066040830186612c0c565b6146136060830185612c0c565b8181036080830152614625818461459e565b90509695505050505050565b60008151905061464081612c62565b92915050565b60006020828403121561465c5761465b612b2e565b5b600061466a84828501614631565b91505092915050565b60008160e01c9050919050565b600060033d111561469f5760046000803e61469c600051614673565b90505b90565b600060443d10156146b257614735565b6146ba612b24565b60043d036004823e80513d602482011167ffffffffffffffff821117156146e2575050614735565b808201805167ffffffffffffffff8111156147005750505050614735565b80602083010160043d03850181111561471d575050505050614735565b61472c82602001850186612d3b565b82955050505050505b90565b7f455243313135353a207472616e7366657220746f206e6f6e204552433131353560008201527f526563656976657220696d706c656d656e746572000000000000000000000000602082015250565b6000614794603483612ff1565b915061479f82614738565b604082019050919050565b600060208201905081810360008301526147c381614787565b9050919050565b7f455243313135353a204552433131353552656365697665722072656a6563746560008201527f6420746f6b656e73000000000000000000000000000000000000000000000000602082015250565b6000614826602883612ff1565b9150614831826147ca565b604082019050919050565b6000602082019050818103600083015261485581614819565b9050919050565b600060a082019050614871600083018861359d565b61487e602083018761359d565b81810360408301526148908186613431565b905081810360608301526148a48185613431565b905081810360808301526148b8818461459e565b90509695505050505050565b7f455243313135355061757361626c653a20746f6b656e207472616e736665722060008201527f7768696c65207061757365640000000000000000000000000000000000000000602082015250565b6000614920602c83612ff1565b915061492b826148c4565b604082019050919050565b6000602082019050818103600083015261494f81614913565b905091905056fea2646970667358221220f70ce3639d3e898807d17ae238a5468f824eb6abd141726c25b55639c5b180fe64736f6c634300080a0033",
  "immutableReferences": {},
  "source": "// SPDX-License-Identifier: MIT\npragma solidity 0.8.10;\n\nimport \"@openzeppelin/contracts/token/ERC1155/ERC1155.sol\";\nimport \"@openzeppelin/contracts/access/Ownable.sol\";\nimport \"@openzeppelin/contracts/token/ERC1155/extensions/ERC1155Burnable.sol\";\nimport \"@openzeppelin/contracts/token/ERC1155/extensions/ERC1155Pausable.sol\";\n\n/// @title Contract for modeling ticket sales on ERC1155 tokens\n/// @author Javier Rojo\n/// @notice Allows an organizer to publish events, and other users to buy tickets, more for the future\n/// @custom:security-contact @javierlinked\ncontract TicketContract is ERC1155, Ownable, ERC1155Pausable, ERC1155Burnable {\n\n    /// @dev variariables and counters used by the contract and by the frontend, in order to crate a list\n    uint public nonce;\n    uint[] public tokenIds;\n    uint public tokenIdsLength;\n    \n    struct Ticket {\n        uint id;\n        string name;\n        uint price;     // in gwei\n        uint maxSellPerPerson;  // max number of tickets that can be kept per person\n        string infoUrl; // this is to be removed and kept off-chain\n    }\n\n    mapping(uint => Ticket) public tickets;\n\n    /// @notice This event is emmited when a ticket is created\n    /// @param id the id of the ticket\n    /// @param minter address of the minter\n    /// @param name name of the ticket\n    /// @param price price of the ticket \n    /// @param amount total supply of tickets\n    /// @param maxSellPerPerson the maximum number of tickets that can be hold per person\n    event TicketCreated(\n        uint indexed id,\n        address indexed minter,\n        string indexed name,\n        uint price,\n        uint amount,\n        uint maxSellPerPerson\n    );\n\n    //// @notice this event is emmited when a ticket is sold\n    /// @param id the id of the ticket\n    /// @param seller the address of the seller\n    /// @param buyer the address of the buyer\n    /// @param amount the amount of tickets sold\n    event TicketSold(\n        uint indexed id,\n        address indexed seller,\n        address indexed buyer,\n        uint amount\n    );\n\n    /// @notice verifies if amount is valid\n    modifier validAmount(uint amount, uint maxSellPerPerson) {\n        require(amount > 0, \"Incorrect amount\");\n        require(maxSellPerPerson > 0, \"Incorrect maxSellPerPerson\");\n        require(amount >= maxSellPerPerson, \"Incorrect amount\");\n        _;\n    }\n\n\n    /// @notice this verifies the payment is exact or cancels the transaction\n    modifier paidExactly(uint amount, uint id) {\n        uint total = amount * tickets[id].price;\n        require(total == msg.value, \"Incorrect amount\");\n        _;\n    }\n\n    /// @notice this verifies the minter has enough tickets to sell\n    modifier allowedSell(uint amount, uint id) {\n        require(amount > 0, \"Amount must bigger than 0\");\n        require(balanceOf(owner(), id) >= amount, \"Not enough tickets\");\n        uint buying = balanceOf(msg.sender, id) + amount;\n        require(\n            buying <= tickets[id].maxSellPerPerson,\n            \"Max ammount per person reached\"\n        );\n        _;\n    }\n\n    modifier validate(uint id) {\n        require(tickets[id].price != 0, \"Ticket does not exist\");\n        _;\n    }\n\n    /// @notice constructor is trivial, but can be used to set parameters on deployment\n    constructor() ERC1155(\"\") {\n        nonce = 0;\n    }\n\n    /// @notice Crates a ticket\n    /// @dev After validations and internal variable set, delegates to the ERC1155 contract and emmits the event\n    /// @param name name of the ticket\n    /// @param price price of the ticket \n    /// @param amount total supply of tickets\n    /// @param maxSellPerPerson the maximum number of tickets that can be hold per person\n    /// @param infoUrl extra info about the ticket\n    /// @param data data required by ERC1155\n    function create(\n        string memory name,\n        uint price,\n        uint amount,\n        uint maxSellPerPerson,\n        string memory infoUrl,\n        bytes memory data\n    ) public onlyOwner validAmount(amount, maxSellPerPerson) whenNotPaused {\n        uint newId = ++nonce;\n\n        address owner = msg.sender;\n        Ticket memory newTicket = Ticket(newId, name, price, maxSellPerPerson, infoUrl);\n        tokenIds.push(newId);\n        tokenIdsLength = tokenIds.length;\n        tickets[newId] = newTicket;\n        _mint(owner, newId, amount, data);\n        emit TicketCreated(newId, owner, name, price, amount, maxSellPerPerson);\n    }\n\n    /// @notice sells a ticket\n    /// @dev It makes verifications, then transfers payment, later delegates to the ERC1155 transfer of the token\n    /// and finally emits the event\n    /// @param id token id\n    /// @param amount amount of tickets to sell\n    /// @param data data required by ERC1155\n    function buy(\n        uint id,\n        uint amount,\n        bytes memory data\n    )\n        public\n        payable\n        allowedSell(amount, id)\n        paidExactly(amount, id)\n        validate(id)\n        whenNotPaused\n    {\n        address payable owner = payable(owner());\n        address buyer = msg.sender;\n        (bool sent, ) = owner.call{value: msg.value}(\"\");\n        require(sent, \"Failed to send Ether\");\n        _safeTransferFrom(owner, buyer, id, amount, data);\n        emit TicketSold(id, owner, buyer, amount);\n    }\n\n    /// @notice burns a token. This funtion is used when the ticket is USED.\n    /// @dev after verifications delegates to the ERC1155 burn of the token\n    function burn(\n        address account,\n        uint id,\n        uint amount\n    ) public override\n    whenNotPaused {\n        // NOTE:  to myself, not related to _balances[][] but to existence of tokens in the contract\n        _burn(account, id, amount);\n    }\n\n    /**\n     * @dev Pauses all token transfers.\n     *\n     * See {ERC1155Pausable} and {Pausable-_pause}.\n     *\n     * Requirements:\n     *\n     * - the caller must be owner.\n     */\n    function pause() public virtual onlyOwner {\n        _pause();\n    }\n\n    /**\n     * @dev Unpauses all token transfers.\n     *\n     * See {ERC1155Pausable} and {Pausable-_unpause}.\n     *\n     * Requirements:\n     *\n     * - the caller owner.\n     */\n    function unpause() public virtual onlyOwner {\n        _unpause();\n    }\n\n    function _beforeTokenTransfer(\n        address operator,\n        address from,\n        address to,\n        uint256[] memory ids,\n        uint256[] memory amounts,\n        bytes memory data\n    ) internal virtual override(ERC1155, ERC1155Pausable) {\n        super._beforeTokenTransfer(operator, from, to, ids, amounts, data);\n    }\n}\n",
  "sourcePath": "/Users/javier/dev/ConsenSys/blockchain-developer-bootcamp-final-project/contracts/TicketContract.sol",
  "compiler": {
    "name": "solc",
    "version": "0.8.10+commit.fc410830.Emscripten.clang"
  },
  "schemaVersion": "3.4.3",
  "updatedAt": "2021-11-30T00:47:56.780Z",
  "networkType": "ethereum",
  "devdoc": {
    "author": "Javier Rojo",
    "custom:security-contact": "@javierlinked",
    "events": {
      "TicketCreated(uint256,address,string,uint256,uint256,uint256)": {
        "params": {
          "amount": "total supply of tickets",
          "id": "the id of the ticket",
          "maxSellPerPerson": "the maximum number of tickets that can be hold per person",
          "minter": "address of the minter",
          "name": "name of the ticket",
          "price": "price of the ticket "
        }
      },
      "TicketSold(uint256,address,address,uint256)": {
        "params": {
          "amount": "the amount of tickets sold",
          "buyer": "the address of the buyer",
          "id": "the id of the ticket",
          "seller": "the address of the seller"
        }
      }
    },
    "kind": "dev",
    "methods": {
      "balanceOf(address,uint256)": {
        "details": "See {IERC1155-balanceOf}. Requirements: - `account` cannot be the zero address."
      },
      "balanceOfBatch(address[],uint256[])": {
        "details": "See {IERC1155-balanceOfBatch}. Requirements: - `accounts` and `ids` must have the same length."
      },
      "burn(address,uint256,uint256)": {
        "details": "after verifications delegates to the ERC1155 burn of the token"
      },
      "buy(uint256,uint256,bytes)": {
        "details": "It makes verifications, then transfers payment, later delegates to the ERC1155 transfer of the token and finally emits the event",
        "params": {
          "amount": "amount of tickets to sell",
          "data": "data required by ERC1155",
          "id": "token id"
        }
      },
      "create(string,uint256,uint256,uint256,string,bytes)": {
        "details": "After validations and internal variable set, delegates to the ERC1155 contract and emmits the event",
        "params": {
          "amount": "total supply of tickets",
          "data": "data required by ERC1155",
          "infoUrl": "extra info about the ticket",
          "maxSellPerPerson": "the maximum number of tickets that can be hold per person",
          "name": "name of the ticket",
          "price": "price of the ticket "
        }
      },
      "isApprovedForAll(address,address)": {
        "details": "See {IERC1155-isApprovedForAll}."
      },
      "owner()": {
        "details": "Returns the address of the current owner."
      },
      "pause()": {
        "details": "Pauses all token transfers. See {ERC1155Pausable} and {Pausable-_pause}. Requirements: - the caller must be owner."
      },
      "paused()": {
        "details": "Returns true if the contract is paused, and false otherwise."
      },
      "renounceOwnership()": {
        "details": "Leaves the contract without owner. It will not be possible to call `onlyOwner` functions anymore. Can only be called by the current owner. NOTE: Renouncing ownership will leave the contract without an owner, thereby removing any functionality that is only available to the owner."
      },
      "safeBatchTransferFrom(address,address,uint256[],uint256[],bytes)": {
        "details": "See {IERC1155-safeBatchTransferFrom}."
      },
      "safeTransferFrom(address,address,uint256,uint256,bytes)": {
        "details": "See {IERC1155-safeTransferFrom}."
      },
      "setApprovalForAll(address,bool)": {
        "details": "See {IERC1155-setApprovalForAll}."
      },
      "supportsInterface(bytes4)": {
        "details": "See {IERC165-supportsInterface}."
      },
      "transferOwnership(address)": {
        "details": "Transfers ownership of the contract to a new account (`newOwner`). Can only be called by the current owner."
      },
      "unpause()": {
        "details": "Unpauses all token transfers. See {ERC1155Pausable} and {Pausable-_unpause}. Requirements: - the caller owner."
      },
      "uri(uint256)": {
        "details": "See {IERC1155MetadataURI-uri}. This implementation returns the same URI for *all* token types. It relies on the token type ID substitution mechanism https://eips.ethereum.org/EIPS/eip-1155#metadata[defined in the EIP]. Clients calling this function must replace the `\\{id\\}` substring with the actual token type ID."
      }
    },
    "stateVariables": {
      "nonce": {
        "details": "variariables and counters used by the contract and by the frontend, in order to crate a list"
      }
    },
    "title": "Contract for modeling ticket sales on ERC1155 tokens",
    "version": 1
  },
  "userdoc": {
    "events": {
      "TicketCreated(uint256,address,string,uint256,uint256,uint256)": {
        "notice": "This event is emmited when a ticket is created"
      }
    },
    "kind": "user",
    "methods": {
      "burn(address,uint256,uint256)": {
        "notice": "burns a token. This funtion is used when the ticket is USED."
      },
      "buy(uint256,uint256,bytes)": {
        "notice": "sells a ticket"
      },
      "constructor": {
        "notice": "constructor is trivial, but can be used to set parameters on deployment"
      },
      "create(string,uint256,uint256,uint256,string,bytes)": {
        "notice": "Crates a ticket"
      }
    },
    "notice": "Allows an organizer to publish events, and other users to buy tickets, more for the future",
    "version": 1
  }
}