{
  "contractName": "TicketContract",
  "abi": [
    {
      "inputs": [],
      "stateMutability": "nonpayable",
      "type": "constructor"
    },
    {
      "anonymous": false,
      "inputs": [
        {
          "indexed": true,
          "internalType": "address",
          "name": "account",
          "type": "address"
        },
        {
          "indexed": true,
          "internalType": "address",
          "name": "operator",
          "type": "address"
        },
        {
          "indexed": false,
          "internalType": "bool",
          "name": "approved",
          "type": "bool"
        }
      ],
      "name": "ApprovalForAll",
      "type": "event"
    },
    {
      "anonymous": false,
      "inputs": [
        {
          "indexed": true,
          "internalType": "address",
          "name": "previousOwner",
          "type": "address"
        },
        {
          "indexed": true,
          "internalType": "address",
          "name": "newOwner",
          "type": "address"
        }
      ],
      "name": "OwnershipTransferred",
      "type": "event"
    },
    {
      "anonymous": false,
      "inputs": [
        {
          "indexed": false,
          "internalType": "address",
          "name": "account",
          "type": "address"
        }
      ],
      "name": "Paused",
      "type": "event"
    },
    {
      "anonymous": false,
      "inputs": [
        {
          "indexed": true,
          "internalType": "uint256",
          "name": "id",
          "type": "uint256"
        },
        {
          "indexed": true,
          "internalType": "address",
          "name": "minter",
          "type": "address"
        },
        {
          "indexed": true,
          "internalType": "string",
          "name": "name",
          "type": "string"
        },
        {
          "indexed": false,
          "internalType": "uint256",
          "name": "price",
          "type": "uint256"
        },
        {
          "indexed": false,
          "internalType": "uint256",
          "name": "amount",
          "type": "uint256"
        },
        {
          "indexed": false,
          "internalType": "uint256",
          "name": "maxSellPerPerson",
          "type": "uint256"
        }
      ],
      "name": "TicketCreated",
      "type": "event"
    },
    {
      "anonymous": false,
      "inputs": [
        {
          "indexed": true,
          "internalType": "uint256",
          "name": "id",
          "type": "uint256"
        },
        {
          "indexed": true,
          "internalType": "address",
          "name": "seller",
          "type": "address"
        },
        {
          "indexed": true,
          "internalType": "address",
          "name": "buyer",
          "type": "address"
        },
        {
          "indexed": false,
          "internalType": "uint256",
          "name": "amount",
          "type": "uint256"
        }
      ],
      "name": "TicketSold",
      "type": "event"
    },
    {
      "anonymous": false,
      "inputs": [
        {
          "indexed": true,
          "internalType": "address",
          "name": "operator",
          "type": "address"
        },
        {
          "indexed": true,
          "internalType": "address",
          "name": "from",
          "type": "address"
        },
        {
          "indexed": true,
          "internalType": "address",
          "name": "to",
          "type": "address"
        },
        {
          "indexed": false,
          "internalType": "uint256[]",
          "name": "ids",
          "type": "uint256[]"
        },
        {
          "indexed": false,
          "internalType": "uint256[]",
          "name": "values",
          "type": "uint256[]"
        }
      ],
      "name": "TransferBatch",
      "type": "event"
    },
    {
      "anonymous": false,
      "inputs": [
        {
          "indexed": true,
          "internalType": "address",
          "name": "operator",
          "type": "address"
        },
        {
          "indexed": true,
          "internalType": "address",
          "name": "from",
          "type": "address"
        },
        {
          "indexed": true,
          "internalType": "address",
          "name": "to",
          "type": "address"
        },
        {
          "indexed": false,
          "internalType": "uint256",
          "name": "id",
          "type": "uint256"
        },
        {
          "indexed": false,
          "internalType": "uint256",
          "name": "value",
          "type": "uint256"
        }
      ],
      "name": "TransferSingle",
      "type": "event"
    },
    {
      "anonymous": false,
      "inputs": [
        {
          "indexed": false,
          "internalType": "string",
          "name": "value",
          "type": "string"
        },
        {
          "indexed": true,
          "internalType": "uint256",
          "name": "id",
          "type": "uint256"
        }
      ],
      "name": "URI",
      "type": "event"
    },
    {
      "anonymous": false,
      "inputs": [
        {
          "indexed": false,
          "internalType": "address",
          "name": "account",
          "type": "address"
        }
      ],
      "name": "Unpaused",
      "type": "event"
    },
    {
      "inputs": [
        {
          "internalType": "address",
          "name": "account",
          "type": "address"
        },
        {
          "internalType": "uint256",
          "name": "id",
          "type": "uint256"
        }
      ],
      "name": "balanceOf",
      "outputs": [
        {
          "internalType": "uint256",
          "name": "",
          "type": "uint256"
        }
      ],
      "stateMutability": "view",
      "type": "function",
      "constant": true
    },
    {
      "inputs": [
        {
          "internalType": "address[]",
          "name": "accounts",
          "type": "address[]"
        },
        {
          "internalType": "uint256[]",
          "name": "ids",
          "type": "uint256[]"
        }
      ],
      "name": "balanceOfBatch",
      "outputs": [
        {
          "internalType": "uint256[]",
          "name": "",
          "type": "uint256[]"
        }
      ],
      "stateMutability": "view",
      "type": "function",
      "constant": true
    },
    {
      "inputs": [
        {
          "internalType": "address",
          "name": "account",
          "type": "address"
        },
        {
          "internalType": "uint256[]",
          "name": "ids",
          "type": "uint256[]"
        },
        {
          "internalType": "uint256[]",
          "name": "values",
          "type": "uint256[]"
        }
      ],
      "name": "burnBatch",
      "outputs": [],
      "stateMutability": "nonpayable",
      "type": "function"
    },
    {
      "inputs": [
        {
          "internalType": "address",
          "name": "account",
          "type": "address"
        },
        {
          "internalType": "address",
          "name": "operator",
          "type": "address"
        }
      ],
      "name": "isApprovedForAll",
      "outputs": [
        {
          "internalType": "bool",
          "name": "",
          "type": "bool"
        }
      ],
      "stateMutability": "view",
      "type": "function",
      "constant": true
    },
    {
      "inputs": [],
      "name": "nonce",
      "outputs": [
        {
          "internalType": "uint256",
          "name": "",
          "type": "uint256"
        }
      ],
      "stateMutability": "view",
      "type": "function",
      "constant": true
    },
    {
      "inputs": [],
      "name": "owner",
      "outputs": [
        {
          "internalType": "address",
          "name": "",
          "type": "address"
        }
      ],
      "stateMutability": "view",
      "type": "function",
      "constant": true
    },
    {
      "inputs": [],
      "name": "paused",
      "outputs": [
        {
          "internalType": "bool",
          "name": "",
          "type": "bool"
        }
      ],
      "stateMutability": "view",
      "type": "function",
      "constant": true
    },
    {
      "inputs": [],
      "name": "renounceOwnership",
      "outputs": [],
      "stateMutability": "nonpayable",
      "type": "function"
    },
    {
      "inputs": [
        {
          "internalType": "address",
          "name": "from",
          "type": "address"
        },
        {
          "internalType": "address",
          "name": "to",
          "type": "address"
        },
        {
          "internalType": "uint256[]",
          "name": "ids",
          "type": "uint256[]"
        },
        {
          "internalType": "uint256[]",
          "name": "amounts",
          "type": "uint256[]"
        },
        {
          "internalType": "bytes",
          "name": "data",
          "type": "bytes"
        }
      ],
      "name": "safeBatchTransferFrom",
      "outputs": [],
      "stateMutability": "nonpayable",
      "type": "function"
    },
    {
      "inputs": [
        {
          "internalType": "address",
          "name": "from",
          "type": "address"
        },
        {
          "internalType": "address",
          "name": "to",
          "type": "address"
        },
        {
          "internalType": "uint256",
          "name": "id",
          "type": "uint256"
        },
        {
          "internalType": "uint256",
          "name": "amount",
          "type": "uint256"
        },
        {
          "internalType": "bytes",
          "name": "data",
          "type": "bytes"
        }
      ],
      "name": "safeTransferFrom",
      "outputs": [],
      "stateMutability": "nonpayable",
      "type": "function"
    },
    {
      "inputs": [
        {
          "internalType": "address",
          "name": "operator",
          "type": "address"
        },
        {
          "internalType": "bool",
          "name": "approved",
          "type": "bool"
        }
      ],
      "name": "setApprovalForAll",
      "outputs": [],
      "stateMutability": "nonpayable",
      "type": "function"
    },
    {
      "inputs": [
        {
          "internalType": "bytes4",
          "name": "interfaceId",
          "type": "bytes4"
        }
      ],
      "name": "supportsInterface",
      "outputs": [
        {
          "internalType": "bool",
          "name": "",
          "type": "bool"
        }
      ],
      "stateMutability": "view",
      "type": "function",
      "constant": true
    },
    {
      "inputs": [
        {
          "internalType": "uint256",
          "name": "",
          "type": "uint256"
        }
      ],
      "name": "tickets",
      "outputs": [
        {
          "internalType": "uint256",
          "name": "id",
          "type": "uint256"
        },
        {
          "internalType": "string",
          "name": "name",
          "type": "string"
        },
        {
          "internalType": "uint256",
          "name": "price",
          "type": "uint256"
        },
        {
          "internalType": "string",
          "name": "showTime",
          "type": "string"
        },
        {
          "internalType": "uint256",
          "name": "maxSellPerPerson",
          "type": "uint256"
        }
      ],
      "stateMutability": "view",
      "type": "function",
      "constant": true
    },
    {
      "inputs": [
        {
          "internalType": "uint256",
          "name": "",
          "type": "uint256"
        }
      ],
      "name": "tokenIds",
      "outputs": [
        {
          "internalType": "uint256",
          "name": "",
          "type": "uint256"
        }
      ],
      "stateMutability": "view",
      "type": "function",
      "constant": true
    },
    {
      "inputs": [],
      "name": "tokenIdsLength",
      "outputs": [
        {
          "internalType": "uint256",
          "name": "",
          "type": "uint256"
        }
      ],
      "stateMutability": "view",
      "type": "function",
      "constant": true
    },
    {
      "inputs": [
        {
          "internalType": "address",
          "name": "newOwner",
          "type": "address"
        }
      ],
      "name": "transferOwnership",
      "outputs": [],
      "stateMutability": "nonpayable",
      "type": "function"
    },
    {
      "inputs": [
        {
          "internalType": "uint256",
          "name": "",
          "type": "uint256"
        }
      ],
      "name": "uri",
      "outputs": [
        {
          "internalType": "string",
          "name": "",
          "type": "string"
        }
      ],
      "stateMutability": "view",
      "type": "function",
      "constant": true
    },
    {
      "inputs": [
        {
          "internalType": "string",
          "name": "name",
          "type": "string"
        },
        {
          "internalType": "uint256",
          "name": "price",
          "type": "uint256"
        },
        {
          "internalType": "uint256",
          "name": "amount",
          "type": "uint256"
        },
        {
          "internalType": "string",
          "name": "showTime",
          "type": "string"
        },
        {
          "internalType": "uint256",
          "name": "maxSellPerPerson",
          "type": "uint256"
        },
        {
          "internalType": "bytes",
          "name": "data",
          "type": "bytes"
        }
      ],
      "name": "create",
      "outputs": [],
      "stateMutability": "nonpayable",
      "type": "function"
    },
    {
      "inputs": [
        {
          "internalType": "uint256",
          "name": "id",
          "type": "uint256"
        },
        {
          "internalType": "uint256",
          "name": "amount",
          "type": "uint256"
        },
        {
          "internalType": "bytes",
          "name": "data",
          "type": "bytes"
        }
      ],
      "name": "buy",
      "outputs": [],
      "stateMutability": "payable",
      "type": "function",
      "payable": true
    },
    {
      "inputs": [
        {
          "internalType": "address",
          "name": "account",
          "type": "address"
        },
        {
          "internalType": "uint256",
          "name": "id",
          "type": "uint256"
        },
        {
          "internalType": "uint256",
          "name": "amount",
          "type": "uint256"
        }
      ],
      "name": "burn",
      "outputs": [],
      "stateMutability": "nonpayable",
      "type": "function"
    },
    {
      "inputs": [],
      "name": "pause",
      "outputs": [],
      "stateMutability": "nonpayable",
      "type": "function"
    },
    {
      "inputs": [],
      "name": "unpause",
      "outputs": [],
      "stateMutability": "nonpayable",
      "type": "function"
    }
  ],
  "bytecode": "0x60806040523480156200001157600080fd5b506040518060200160405280600081525062000033816200007d60201b60201c565b5062000054620000486200009960201b60201c565b620000a160201b60201c565b6000600360146101000a81548160ff02191690831515021790555060006004819055506200027c565b80600290805190602001906200009592919062000167565b5050565b600033905090565b6000600360009054906101000a900473ffffffffffffffffffffffffffffffffffffffff16905081600360006101000a81548173ffffffffffffffffffffffffffffffffffffffff021916908373ffffffffffffffffffffffffffffffffffffffff1602179055508173ffffffffffffffffffffffffffffffffffffffff168173ffffffffffffffffffffffffffffffffffffffff167f8be0079c531659141344cd1fd0a4f28419497f9722a3daafe3b4186f6b6457e060405160405180910390a35050565b828054620001759062000246565b90600052602060002090601f016020900481019282620001995760008555620001e5565b82601f10620001b457805160ff1916838001178555620001e5565b82800160010185558215620001e5579182015b82811115620001e4578251825591602001919060010190620001c7565b5b509050620001f49190620001f8565b5090565b5b8082111562000213576000816000905550600101620001f9565b5090565b7f4e487b7100000000000000000000000000000000000000000000000000000000600052602260045260246000fd5b600060028204905060018216806200025f57607f821691505b6020821081141562000276576200027562000217565b5b50919050565b614837806200028c6000396000f3fe6080604052600436106101345760003560e01c8063715018a6116100ab578063d58778d61161006f578063d58778d6146103f4578063e6b7ad7914610431578063e985e9c51461045c578063f242432a14610499578063f2fde38b146104c2578063f5298aca146104eb57610134565b8063715018a6146103475780638456cb591461035e5780638da5cb5b14610375578063a22cb465146103a0578063affed0e0146103c957610134565b80633f4ba83a116100fd5780633f4ba83a146102355780634e1273f41461024c57806350b44712146102895780635c975abb146102ca578063626183ec146102f55780636b20c4541461031e57610134565b8062fdd58e1461013957806301ffc9a7146101765780630e89341c146101b35780631efd73a5146101f05780632eb2c2d61461020c575b600080fd5b34801561014557600080fd5b50610160600480360381019061015b9190612ae3565b610514565b60405161016d9190612b32565b60405180910390f35b34801561018257600080fd5b5061019d60048036038101906101989190612ba5565b6105dd565b6040516101aa9190612bed565b60405180910390f35b3480156101bf57600080fd5b506101da60048036038101906101d59190612c08565b6106bf565b6040516101e79190612cce565b60405180910390f35b61020a60048036038101906102059190612e25565b610753565b005b34801561021857600080fd5b50610233600480360381019061022e9190612f5c565b610a8f565b005b34801561024157600080fd5b5061024a610b30565b005b34801561025857600080fd5b50610273600480360381019061026e91906130ee565b610bb6565b6040516102809190613224565b60405180910390f35b34801561029557600080fd5b506102b060048036038101906102ab9190612c08565b610ccf565b6040516102c1959493929190613246565b60405180910390f35b3480156102d657600080fd5b506102df610e15565b6040516102ec9190612bed565b60405180910390f35b34801561030157600080fd5b5061031c60048036038101906103179190613348565b610e2c565b005b34801561032a57600080fd5b5061034560048036038101906103409190613429565b61105d565b005b34801561035357600080fd5b5061035c6110fa565b005b34801561036a57600080fd5b50610373611182565b005b34801561038157600080fd5b5061038a611208565b60405161039791906134c3565b60405180910390f35b3480156103ac57600080fd5b506103c760048036038101906103c2919061350a565b611232565b005b3480156103d557600080fd5b506103de6113b3565b6040516103eb9190612b32565b60405180910390f35b34801561040057600080fd5b5061041b60048036038101906104169190612c08565b6113b9565b6040516104289190612b32565b60405180910390f35b34801561043d57600080fd5b506104466113dd565b6040516104539190612b32565b60405180910390f35b34801561046857600080fd5b50610483600480360381019061047e919061354a565b6113e3565b6040516104909190612bed565b60405180910390f35b3480156104a557600080fd5b506104c060048036038101906104bb919061358a565b611477565b005b3480156104ce57600080fd5b506104e960048036038101906104e49190613621565b611518565b005b3480156104f757600080fd5b50610512600480360381019061050d919061364e565b611610565b005b60008073ffffffffffffffffffffffffffffffffffffffff168373ffffffffffffffffffffffffffffffffffffffff161415610585576040517f08c379a000000000000000000000000000000000000000000000000000000000815260040161057c90613713565b60405180910390fd5b60008083815260200190815260200160002060008473ffffffffffffffffffffffffffffffffffffffff1673ffffffffffffffffffffffffffffffffffffffff16815260200190815260200160002054905092915050565b60007fd9b67a26000000000000000000000000000000000000000000000000000000007bffffffffffffffffffffffffffffffffffffffffffffffffffffffff1916827bffffffffffffffffffffffffffffffffffffffffffffffffffffffff191614806106a857507f0e89341c000000000000000000000000000000000000000000000000000000007bffffffffffffffffffffffffffffffffffffffffffffffffffffffff1916827bffffffffffffffffffffffffffffffffffffffffffffffffffffffff1916145b806106b857506106b782611668565b5b9050919050565b6060600280546106ce90613762565b80601f01602080910402602001604051908101604052809291908181526020018280546106fa90613762565b80156107475780601f1061071c57610100808354040283529160200191610747565b820191906000526020600020905b81548152906001019060200180831161072a57829003601f168201915b50505050509050919050565b818360008211610798576040517f08c379a000000000000000000000000000000000000000000000000000000000815260040161078f906137e0565b60405180910390fd5b816107aa6107a4611208565b83610514565b10156107eb576040517f08c379a00000000000000000000000000000000000000000000000000000000081526004016107e29061384c565b60405180910390fd5b6007600082815260200190815260200160002060040154821115610844576040517f08c379a000000000000000000000000000000000000000000000000000000000815260040161083b906138b8565b60405180910390fd5b8385600060076000838152602001908152602001600020600201548361086a9190613907565b90503481146108ae576040517f08c379a00000000000000000000000000000000000000000000000000000000081526004016108a5906139ad565b60405180910390fd5b87600060076000838152602001908152602001600020600201541415610909576040517f08c379a000000000000000000000000000000000000000000000000000000000815260040161090090613a19565b60405180910390fd5b610911610e15565b15610951576040517f08c379a000000000000000000000000000000000000000000000000000000000815260040161094890613a85565b60405180910390fd5b600061095b611208565b9050600033905060008273ffffffffffffffffffffffffffffffffffffffff163460405161098890613ad6565b60006040518083038185875af1925050503d80600081146109c5576040519150601f19603f3d011682016040523d82523d6000602084013e6109ca565b606091505b5050905080610a0e576040517f08c379a0000000000000000000000000000000000000000000000000000000008152600401610a0590613b37565b60405180910390fd5b610a1b83838e8e8e6116d2565b8173ffffffffffffffffffffffffffffffffffffffff168373ffffffffffffffffffffffffffffffffffffffff168d7f2bbc64d6afd28a753f6c5e4aaa894f1d684c44a0e080167eae104ac8505cfebd8e604051610a799190612b32565b60405180910390a4505050505050505050505050565b610a97611954565b73ffffffffffffffffffffffffffffffffffffffff168573ffffffffffffffffffffffffffffffffffffffff161480610add5750610adc85610ad7611954565b6113e3565b5b610b1c576040517f08c379a0000000000000000000000000000000000000000000000000000000008152600401610b1390613bc9565b60405180910390fd5b610b29858585858561195c565b5050505050565b610b38611954565b73ffffffffffffffffffffffffffffffffffffffff16610b56611208565b73ffffffffffffffffffffffffffffffffffffffff1614610bac576040517f08c379a0000000000000000000000000000000000000000000000000000000008152600401610ba390613c35565b60405180910390fd5b610bb4611c70565b565b60608151835114610bfc576040517f08c379a0000000000000000000000000000000000000000000000000000000008152600401610bf390613cc7565b60405180910390fd5b6000835167ffffffffffffffff811115610c1957610c18612cfa565b5b604051908082528060200260200182016040528015610c475781602001602082028036833780820191505090505b50905060005b8451811015610cc457610c94858281518110610c6c57610c6b613ce7565b5b6020026020010151858381518110610c8757610c86613ce7565b5b6020026020010151610514565b828281518110610ca757610ca6613ce7565b5b60200260200101818152505080610cbd90613d16565b9050610c4d565b508091505092915050565b6007602052806000526040600020600091509050806000015490806001018054610cf890613762565b80601f0160208091040260200160405190810160405280929190818152602001828054610d2490613762565b8015610d715780601f10610d4657610100808354040283529160200191610d71565b820191906000526020600020905b815481529060010190602001808311610d5457829003601f168201915b505050505090806002015490806003018054610d8c90613762565b80601f0160208091040260200160405190810160405280929190818152602001828054610db890613762565b8015610e055780601f10610dda57610100808354040283529160200191610e05565b820191906000526020600020905b815481529060010190602001808311610de857829003601f168201915b5050505050908060040154905085565b6000600360149054906101000a900460ff16905090565b610e34611954565b73ffffffffffffffffffffffffffffffffffffffff16610e52611208565b73ffffffffffffffffffffffffffffffffffffffff1614610ea8576040517f08c379a0000000000000000000000000000000000000000000000000000000008152600401610e9f90613c35565b60405180910390fd5b610eb0610e15565b15610ef0576040517f08c379a0000000000000000000000000000000000000000000000000000000008152600401610ee790613a85565b60405180910390fd5b6000600460008154610f0190613d16565b9190508190559050600033905060006040518060a001604052808481526020018a815260200189815260200187815260200186815250905060058390806001815401808255809150506001900390600052602060002001600090919091909150556005805490506006819055508060076000858152602001908152602001600020600082015181600001556020820151816001019080519060200190610fa8929190612998565b50604082015181600201556060820151816003019080519060200190610fcf929190612998565b5060808201518160040155905050610fe982848987611d12565b88604051610ff79190613d9b565b60405180910390208273ffffffffffffffffffffffffffffffffffffffff16847f9d783e202083d1fb37ad562ef4e7776ae35886aa85bb86b72e48e66f58f03f4d8b8b8a60405161104a93929190613db2565b60405180910390a4505050505050505050565b611065611954565b73ffffffffffffffffffffffffffffffffffffffff168373ffffffffffffffffffffffffffffffffffffffff1614806110ab57506110aa836110a5611954565b6113e3565b5b6110ea576040517f08c379a00000000000000000000000000000000000000000000000000000000081526004016110e190613e5b565b60405180910390fd5b6110f5838383611ea8565b505050565b611102611954565b73ffffffffffffffffffffffffffffffffffffffff16611120611208565b73ffffffffffffffffffffffffffffffffffffffff1614611176576040517f08c379a000000000000000000000000000000000000000000000000000000000815260040161116d90613c35565b60405180910390fd5b6111806000612159565b565b61118a611954565b73ffffffffffffffffffffffffffffffffffffffff166111a8611208565b73ffffffffffffffffffffffffffffffffffffffff16146111fe576040517f08c379a00000000000000000000000000000000000000000000000000000000081526004016111f590613c35565b60405180910390fd5b61120661221f565b565b6000600360009054906101000a900473ffffffffffffffffffffffffffffffffffffffff16905090565b8173ffffffffffffffffffffffffffffffffffffffff16611251611954565b73ffffffffffffffffffffffffffffffffffffffff1614156112a8576040517f08c379a000000000000000000000000000000000000000000000000000000000815260040161129f90613eed565b60405180910390fd5b80600160006112b5611954565b73ffffffffffffffffffffffffffffffffffffffff1673ffffffffffffffffffffffffffffffffffffffff16815260200190815260200160002060008473ffffffffffffffffffffffffffffffffffffffff1673ffffffffffffffffffffffffffffffffffffffff16815260200190815260200160002060006101000a81548160ff0219169083151502179055508173ffffffffffffffffffffffffffffffffffffffff16611362611954565b73ffffffffffffffffffffffffffffffffffffffff167f17307eab39ab6107e8899845ad3d59bd9653f200f220920489ca2b5937696c31836040516113a79190612bed565b60405180910390a35050565b60045481565b600581815481106113c957600080fd5b906000526020600020016000915090505481565b60065481565b6000600160008473ffffffffffffffffffffffffffffffffffffffff1673ffffffffffffffffffffffffffffffffffffffff16815260200190815260200160002060008373ffffffffffffffffffffffffffffffffffffffff1673ffffffffffffffffffffffffffffffffffffffff16815260200190815260200160002060009054906101000a900460ff16905092915050565b61147f611954565b73ffffffffffffffffffffffffffffffffffffffff168573ffffffffffffffffffffffffffffffffffffffff1614806114c557506114c4856114bf611954565b6113e3565b5b611504576040517f08c379a00000000000000000000000000000000000000000000000000000000081526004016114fb90613e5b565b60405180910390fd5b61151185858585856116d2565b5050505050565b611520611954565b73ffffffffffffffffffffffffffffffffffffffff1661153e611208565b73ffffffffffffffffffffffffffffffffffffffff1614611594576040517f08c379a000000000000000000000000000000000000000000000000000000000815260040161158b90613c35565b60405180910390fd5b600073ffffffffffffffffffffffffffffffffffffffff168173ffffffffffffffffffffffffffffffffffffffff161415611604576040517f08c379a00000000000000000000000000000000000000000000000000000000081526004016115fb90613f7f565b60405180910390fd5b61160d81612159565b50565b611618610e15565b15611658576040517f08c379a000000000000000000000000000000000000000000000000000000000815260040161164f90613a85565b60405180910390fd5b6116638383836122c2565b505050565b60007f01ffc9a7000000000000000000000000000000000000000000000000000000007bffffffffffffffffffffffffffffffffffffffffffffffffffffffff1916827bffffffffffffffffffffffffffffffffffffffffffffffffffffffff1916149050919050565b600073ffffffffffffffffffffffffffffffffffffffff168473ffffffffffffffffffffffffffffffffffffffff161415611742576040517f08c379a000000000000000000000000000000000000000000000000000000000815260040161173990614011565b60405180910390fd5b600061174c611954565b905061176c81878761175d886124df565b611766886124df565b87612559565b600080600086815260200190815260200160002060008873ffffffffffffffffffffffffffffffffffffffff1673ffffffffffffffffffffffffffffffffffffffff16815260200190815260200160002054905083811015611803576040517f08c379a00000000000000000000000000000000000000000000000000000000081526004016117fa906140a3565b60405180910390fd5b83810360008087815260200190815260200160002060008973ffffffffffffffffffffffffffffffffffffffff1673ffffffffffffffffffffffffffffffffffffffff168152602001908152602001600020819055508360008087815260200190815260200160002060008873ffffffffffffffffffffffffffffffffffffffff1673ffffffffffffffffffffffffffffffffffffffff16815260200190815260200160002060008282546118b891906140c3565b925050819055508573ffffffffffffffffffffffffffffffffffffffff168773ffffffffffffffffffffffffffffffffffffffff168373ffffffffffffffffffffffffffffffffffffffff167fc3d58168c5ae7397731d063d5bbf3d657854427343f4c083240f7aacaa2d0f628888604051611935929190614119565b60405180910390a461194b82888888888861256f565b50505050505050565b600033905090565b81518351146119a0576040517f08c379a0000000000000000000000000000000000000000000000000000000008152600401611997906141b4565b60405180910390fd5b600073ffffffffffffffffffffffffffffffffffffffff168473ffffffffffffffffffffffffffffffffffffffff161415611a10576040517f08c379a0000000000000000000000000000000000000000000000000000000008152600401611a0790614011565b60405180910390fd5b6000611a1a611954565b9050611a2a818787878787612559565b60005b8451811015611bdb576000858281518110611a4b57611a4a613ce7565b5b602002602001015190506000858381518110611a6a57611a69613ce7565b5b60200260200101519050600080600084815260200190815260200160002060008b73ffffffffffffffffffffffffffffffffffffffff1673ffffffffffffffffffffffffffffffffffffffff16815260200190815260200160002054905081811015611b0b576040517f08c379a0000000000000000000000000000000000000000000000000000000008152600401611b02906140a3565b60405180910390fd5b81810360008085815260200190815260200160002060008c73ffffffffffffffffffffffffffffffffffffffff1673ffffffffffffffffffffffffffffffffffffffff168152602001908152602001600020819055508160008085815260200190815260200160002060008b73ffffffffffffffffffffffffffffffffffffffff1673ffffffffffffffffffffffffffffffffffffffff1681526020019081526020016000206000828254611bc091906140c3565b9250508190555050505080611bd490613d16565b9050611a2d565b508473ffffffffffffffffffffffffffffffffffffffff168673ffffffffffffffffffffffffffffffffffffffff168273ffffffffffffffffffffffffffffffffffffffff167f4a39dc06d4c0dbc64b70af90fd698a233a518aa5d07e595d983b8c0526c8f7fb8787604051611c529291906141d4565b60405180910390a4611c68818787878787612747565b505050505050565b611c78610e15565b611cb7576040517f08c379a0000000000000000000000000000000000000000000000000000000008152600401611cae90614257565b60405180910390fd5b6000600360146101000a81548160ff0219169083151502179055507f5db9ee0a495bf2e6ff9c91a7834c1ba4fdd244a5e8aa4e537bd38aeae4b073aa611cfb611954565b604051611d0891906134c3565b60405180910390a1565b600073ffffffffffffffffffffffffffffffffffffffff168473ffffffffffffffffffffffffffffffffffffffff161415611d82576040517f08c379a0000000000000000000000000000000000000000000000000000000008152600401611d79906142e9565b60405180910390fd5b6000611d8c611954565b9050611dad81600087611d9e886124df565b611da7886124df565b87612559565b8260008086815260200190815260200160002060008773ffffffffffffffffffffffffffffffffffffffff1673ffffffffffffffffffffffffffffffffffffffff1681526020019081526020016000206000828254611e0c91906140c3565b925050819055508473ffffffffffffffffffffffffffffffffffffffff16600073ffffffffffffffffffffffffffffffffffffffff168273ffffffffffffffffffffffffffffffffffffffff167fc3d58168c5ae7397731d063d5bbf3d657854427343f4c083240f7aacaa2d0f628787604051611e8a929190614119565b60405180910390a4611ea18160008787878761256f565b5050505050565b600073ffffffffffffffffffffffffffffffffffffffff168373ffffffffffffffffffffffffffffffffffffffff161415611f18576040517f08c379a0000000000000000000000000000000000000000000000000000000008152600401611f0f9061437b565b60405180910390fd5b8051825114611f5c576040517f08c379a0000000000000000000000000000000000000000000000000000000008152600401611f53906141b4565b60405180910390fd5b6000611f66611954565b9050611f8681856000868660405180602001604052806000815250612559565b60005b83518110156120d3576000848281518110611fa757611fa6613ce7565b5b602002602001015190506000848381518110611fc657611fc5613ce7565b5b60200260200101519050600080600084815260200190815260200160002060008973ffffffffffffffffffffffffffffffffffffffff1673ffffffffffffffffffffffffffffffffffffffff16815260200190815260200160002054905081811015612067576040517f08c379a000000000000000000000000000000000000000000000000000000000815260040161205e9061440d565b60405180910390fd5b81810360008085815260200190815260200160002060008a73ffffffffffffffffffffffffffffffffffffffff1673ffffffffffffffffffffffffffffffffffffffff1681526020019081526020016000208190555050505080806120cb90613d16565b915050611f89565b50600073ffffffffffffffffffffffffffffffffffffffff168473ffffffffffffffffffffffffffffffffffffffff168273ffffffffffffffffffffffffffffffffffffffff167f4a39dc06d4c0dbc64b70af90fd698a233a518aa5d07e595d983b8c0526c8f7fb868660405161214b9291906141d4565b60405180910390a450505050565b6000600360009054906101000a900473ffffffffffffffffffffffffffffffffffffffff16905081600360006101000a81548173ffffffffffffffffffffffffffffffffffffffff021916908373ffffffffffffffffffffffffffffffffffffffff1602179055508173ffffffffffffffffffffffffffffffffffffffff168173ffffffffffffffffffffffffffffffffffffffff167f8be0079c531659141344cd1fd0a4f28419497f9722a3daafe3b4186f6b6457e060405160405180910390a35050565b612227610e15565b15612267576040517f08c379a000000000000000000000000000000000000000000000000000000000815260040161225e90613a85565b60405180910390fd5b6001600360146101000a81548160ff0219169083151502179055507f62e78cea01bee320cd4e420270b5ea74000d11b0c9f74754ebdbfc544b05a2586122ab611954565b6040516122b891906134c3565b60405180910390a1565b600073ffffffffffffffffffffffffffffffffffffffff168373ffffffffffffffffffffffffffffffffffffffff161415612332576040517f08c379a00000000000000000000000000000000000000000000000000000000081526004016123299061437b565b60405180910390fd5b600061233c611954565b905061236c8185600061234e876124df565b612357876124df565b60405180602001604052806000815250612559565b600080600085815260200190815260200160002060008673ffffffffffffffffffffffffffffffffffffffff1673ffffffffffffffffffffffffffffffffffffffff16815260200190815260200160002054905082811015612403576040517f08c379a00000000000000000000000000000000000000000000000000000000081526004016123fa9061440d565b60405180910390fd5b82810360008086815260200190815260200160002060008773ffffffffffffffffffffffffffffffffffffffff1673ffffffffffffffffffffffffffffffffffffffff16815260200190815260200160002081905550600073ffffffffffffffffffffffffffffffffffffffff168573ffffffffffffffffffffffffffffffffffffffff168373ffffffffffffffffffffffffffffffffffffffff167fc3d58168c5ae7397731d063d5bbf3d657854427343f4c083240f7aacaa2d0f6287876040516124d0929190614119565b60405180910390a45050505050565b60606000600167ffffffffffffffff8111156124fe576124fd612cfa565b5b60405190808252806020026020018201604052801561252c5781602001602082028036833780820191505090505b509050828160008151811061254457612543613ce7565b5b60200260200101818152505080915050919050565b61256786868686868661291f565b505050505050565b61258e8473ffffffffffffffffffffffffffffffffffffffff1661297d565b1561273f578373ffffffffffffffffffffffffffffffffffffffff1663f23a6e6187878686866040518663ffffffff1660e01b81526004016125d4959493929190614482565b6020604051808303816000875af192505050801561261057506040513d601f19601f8201168201806040525081019061260d91906144f1565b60015b6126b65761261c61452b565b806308c379a01415612679575061263161454d565b8061263c575061267b565b806040517f08c379a00000000000000000000000000000000000000000000000000000000081526004016126709190612cce565b60405180910390fd5b505b6040517f08c379a00000000000000000000000000000000000000000000000000000000081526004016126ad90614655565b60405180910390fd5b63f23a6e6160e01b7bffffffffffffffffffffffffffffffffffffffffffffffffffffffff1916817bffffffffffffffffffffffffffffffffffffffffffffffffffffffff19161461273d576040517f08c379a0000000000000000000000000000000000000000000000000000000008152600401612734906146e7565b60405180910390fd5b505b505050505050565b6127668473ffffffffffffffffffffffffffffffffffffffff1661297d565b15612917578373ffffffffffffffffffffffffffffffffffffffff1663bc197c8187878686866040518663ffffffff1660e01b81526004016127ac959493929190614707565b6020604051808303816000875af19250505080156127e857506040513d601f19601f820116820180604052508101906127e591906144f1565b60015b61288e576127f461452b565b806308c379a01415612851575061280961454d565b806128145750612853565b806040517f08c379a00000000000000000000000000000000000000000000000000000000081526004016128489190612cce565b60405180910390fd5b505b6040517f08c379a000000000000000000000000000000000000000000000000000000000815260040161288590614655565b60405180910390fd5b63bc197c8160e01b7bffffffffffffffffffffffffffffffffffffffffffffffffffffffff1916817bffffffffffffffffffffffffffffffffffffffffffffffffffffffff191614612915576040517f08c379a000000000000000000000000000000000000000000000000000000000815260040161290c906146e7565b60405180910390fd5b505b505050505050565b61292d868686868686612990565b612935610e15565b15612975576040517f08c379a000000000000000000000000000000000000000000000000000000000815260040161296c906147e1565b60405180910390fd5b505050505050565b600080823b905060008111915050919050565b505050505050565b8280546129a490613762565b90600052602060002090601f0160209004810192826129c65760008555612a0d565b82601f106129df57805160ff1916838001178555612a0d565b82800160010185558215612a0d579182015b82811115612a0c5782518255916020019190600101906129f1565b5b509050612a1a9190612a1e565b5090565b5b80821115612a37576000816000905550600101612a1f565b5090565b6000604051905090565b600080fd5b600080fd5b600073ffffffffffffffffffffffffffffffffffffffff82169050919050565b6000612a7a82612a4f565b9050919050565b612a8a81612a6f565b8114612a9557600080fd5b50565b600081359050612aa781612a81565b92915050565b6000819050919050565b612ac081612aad565b8114612acb57600080fd5b50565b600081359050612add81612ab7565b92915050565b60008060408385031215612afa57612af9612a45565b5b6000612b0885828601612a98565b9250506020612b1985828601612ace565b9150509250929050565b612b2c81612aad565b82525050565b6000602082019050612b476000830184612b23565b92915050565b60007fffffffff0000000000000000000000000000000000000000000000000000000082169050919050565b612b8281612b4d565b8114612b8d57600080fd5b50565b600081359050612b9f81612b79565b92915050565b600060208284031215612bbb57612bba612a45565b5b6000612bc984828501612b90565b91505092915050565b60008115159050919050565b612be781612bd2565b82525050565b6000602082019050612c026000830184612bde565b92915050565b600060208284031215612c1e57612c1d612a45565b5b6000612c2c84828501612ace565b91505092915050565b600081519050919050565b600082825260208201905092915050565b60005b83811015612c6f578082015181840152602081019050612c54565b83811115612c7e576000848401525b50505050565b6000601f19601f8301169050919050565b6000612ca082612c35565b612caa8185612c40565b9350612cba818560208601612c51565b612cc381612c84565b840191505092915050565b60006020820190508181036000830152612ce88184612c95565b905092915050565b600080fd5b600080fd5b7f4e487b7100000000000000000000000000000000000000000000000000000000600052604160045260246000fd5b612d3282612c84565b810181811067ffffffffffffffff82111715612d5157612d50612cfa565b5b80604052505050565b6000612d64612a3b565b9050612d708282612d29565b919050565b600067ffffffffffffffff821115612d9057612d8f612cfa565b5b612d9982612c84565b9050602081019050919050565b82818337600083830152505050565b6000612dc8612dc384612d75565b612d5a565b905082815260208101848484011115612de457612de3612cf5565b5b612def848285612da6565b509392505050565b600082601f830112612e0c57612e0b612cf0565b5b8135612e1c848260208601612db5565b91505092915050565b600080600060608486031215612e3e57612e3d612a45565b5b6000612e4c86828701612ace565b9350506020612e5d86828701612ace565b925050604084013567ffffffffffffffff811115612e7e57612e7d612a4a565b5b612e8a86828701612df7565b9150509250925092565b600067ffffffffffffffff821115612eaf57612eae612cfa565b5b602082029050602081019050919050565b600080fd5b6000612ed8612ed384612e94565b612d5a565b90508083825260208201905060208402830185811115612efb57612efa612ec0565b5b835b81811015612f245780612f108882612ace565b845260208401935050602081019050612efd565b5050509392505050565b600082601f830112612f4357612f42612cf0565b5b8135612f53848260208601612ec5565b91505092915050565b600080600080600060a08688031215612f7857612f77612a45565b5b6000612f8688828901612a98565b9550506020612f9788828901612a98565b945050604086013567ffffffffffffffff811115612fb857612fb7612a4a565b5b612fc488828901612f2e565b935050606086013567ffffffffffffffff811115612fe557612fe4612a4a565b5b612ff188828901612f2e565b925050608086013567ffffffffffffffff81111561301257613011612a4a565b5b61301e88828901612df7565b9150509295509295909350565b600067ffffffffffffffff82111561304657613045612cfa565b5b602082029050602081019050919050565b600061306a6130658461302b565b612d5a565b9050808382526020820190506020840283018581111561308d5761308c612ec0565b5b835b818110156130b657806130a28882612a98565b84526020840193505060208101905061308f565b5050509392505050565b600082601f8301126130d5576130d4612cf0565b5b81356130e5848260208601613057565b91505092915050565b6000806040838503121561310557613104612a45565b5b600083013567ffffffffffffffff81111561312357613122612a4a565b5b61312f858286016130c0565b925050602083013567ffffffffffffffff8111156131505761314f612a4a565b5b61315c85828601612f2e565b9150509250929050565b600081519050919050565b600082825260208201905092915050565b6000819050602082019050919050565b61319b81612aad565b82525050565b60006131ad8383613192565b60208301905092915050565b6000602082019050919050565b60006131d182613166565b6131db8185613171565b93506131e683613182565b8060005b838110156132175781516131fe88826131a1565b9750613209836131b9565b9250506001810190506131ea565b5085935050505092915050565b6000602082019050818103600083015261323e81846131c6565b905092915050565b600060a08201905061325b6000830188612b23565b818103602083015261326d8187612c95565b905061327c6040830186612b23565b818103606083015261328e8185612c95565b905061329d6080830184612b23565b9695505050505050565b600067ffffffffffffffff8211156132c2576132c1612cfa565b5b6132cb82612c84565b9050602081019050919050565b60006132eb6132e6846132a7565b612d5a565b90508281526020810184848401111561330757613306612cf5565b5b613312848285612da6565b509392505050565b600082601f83011261332f5761332e612cf0565b5b813561333f8482602086016132d8565b91505092915050565b60008060008060008060c0878903121561336557613364612a45565b5b600087013567ffffffffffffffff81111561338357613382612a4a565b5b61338f89828a0161331a565b96505060206133a089828a01612ace565b95505060406133b189828a01612ace565b945050606087013567ffffffffffffffff8111156133d2576133d1612a4a565b5b6133de89828a0161331a565b93505060806133ef89828a01612ace565b92505060a087013567ffffffffffffffff8111156134105761340f612a4a565b5b61341c89828a01612df7565b9150509295509295509295565b60008060006060848603121561344257613441612a45565b5b600061345086828701612a98565b935050602084013567ffffffffffffffff81111561347157613470612a4a565b5b61347d86828701612f2e565b925050604084013567ffffffffffffffff81111561349e5761349d612a4a565b5b6134aa86828701612f2e565b9150509250925092565b6134bd81612a6f565b82525050565b60006020820190506134d860008301846134b4565b92915050565b6134e781612bd2565b81146134f257600080fd5b50565b600081359050613504816134de565b92915050565b6000806040838503121561352157613520612a45565b5b600061352f85828601612a98565b9250506020613540858286016134f5565b9150509250929050565b6000806040838503121561356157613560612a45565b5b600061356f85828601612a98565b925050602061358085828601612a98565b9150509250929050565b600080600080600060a086880312156135a6576135a5612a45565b5b60006135b488828901612a98565b95505060206135c588828901612a98565b94505060406135d688828901612ace565b93505060606135e788828901612ace565b925050608086013567ffffffffffffffff81111561360857613607612a4a565b5b61361488828901612df7565b9150509295509295909350565b60006020828403121561363757613636612a45565b5b600061364584828501612a98565b91505092915050565b60008060006060848603121561366757613666612a45565b5b600061367586828701612a98565b935050602061368686828701612ace565b925050604061369786828701612ace565b9150509250925092565b7f455243313135353a2062616c616e636520717565727920666f7220746865207a60008201527f65726f2061646472657373000000000000000000000000000000000000000000602082015250565b60006136fd602b83612c40565b9150613708826136a1565b604082019050919050565b6000602082019050818103600083015261372c816136f0565b9050919050565b7f4e487b7100000000000000000000000000000000000000000000000000000000600052602260045260246000fd5b6000600282049050600182168061377a57607f821691505b6020821081141561378e5761378d613733565b5b50919050565b7f416d6f756e74206d75737420626967676572207468616e203000000000000000600082015250565b60006137ca601983612c40565b91506137d582613794565b602082019050919050565b600060208201905081810360008301526137f9816137bd565b9050919050565b7f4e6f7420656e6f756768207469636b6574730000000000000000000000000000600082015250565b6000613836601283612c40565b915061384182613800565b602082019050919050565b6000602082019050818103600083015261386581613829565b9050919050565b7f4d617820616d6d6f756e742070657220706572736f6e20726561636865640000600082015250565b60006138a2601e83612c40565b91506138ad8261386c565b602082019050919050565b600060208201905081810360008301526138d181613895565b9050919050565b7f4e487b7100000000000000000000000000000000000000000000000000000000600052601160045260246000fd5b600061391282612aad565b915061391d83612aad565b9250817fffffffffffffffffffffffffffffffffffffffffffffffffffffffffffffffff0483118215151615613956576139556138d8565b5b828202905092915050565b7f496e636f727265637420616d6f756e7400000000000000000000000000000000600082015250565b6000613997601083612c40565b91506139a282613961565b602082019050919050565b600060208201905081810360008301526139c68161398a565b9050919050565b7f5469636b657420646f6573206e6f742065786973740000000000000000000000600082015250565b6000613a03601583612c40565b9150613a0e826139cd565b602082019050919050565b60006020820190508181036000830152613a32816139f6565b9050919050565b7f5061757361626c653a2070617573656400000000000000000000000000000000600082015250565b6000613a6f601083612c40565b9150613a7a82613a39565b602082019050919050565b60006020820190508181036000830152613a9e81613a62565b9050919050565b600081905092915050565b50565b6000613ac0600083613aa5565b9150613acb82613ab0565b600082019050919050565b6000613ae182613ab3565b9150819050919050565b7f4661696c656420746f2073656e64204574686572000000000000000000000000600082015250565b6000613b21601483612c40565b9150613b2c82613aeb565b602082019050919050565b60006020820190508181036000830152613b5081613b14565b9050919050565b7f455243313135353a207472616e736665722063616c6c6572206973206e6f742060008201527f6f776e6572206e6f7220617070726f7665640000000000000000000000000000602082015250565b6000613bb3603283612c40565b9150613bbe82613b57565b604082019050919050565b60006020820190508181036000830152613be281613ba6565b9050919050565b7f4f776e61626c653a2063616c6c6572206973206e6f7420746865206f776e6572600082015250565b6000613c1f602083612c40565b9150613c2a82613be9565b602082019050919050565b60006020820190508181036000830152613c4e81613c12565b9050919050565b7f455243313135353a206163636f756e747320616e6420696473206c656e67746860008201527f206d69736d617463680000000000000000000000000000000000000000000000602082015250565b6000613cb1602983612c40565b9150613cbc82613c55565b604082019050919050565b60006020820190508181036000830152613ce081613ca4565b9050919050565b7f4e487b7100000000000000000000000000000000000000000000000000000000600052603260045260246000fd5b6000613d2182612aad565b91507fffffffffffffffffffffffffffffffffffffffffffffffffffffffffffffffff821415613d5457613d536138d8565b5b600182019050919050565b600081905092915050565b6000613d7582612c35565b613d7f8185613d5f565b9350613d8f818560208601612c51565b80840191505092915050565b6000613da78284613d6a565b915081905092915050565b6000606082019050613dc76000830186612b23565b613dd46020830185612b23565b613de16040830184612b23565b949350505050565b7f455243313135353a2063616c6c6572206973206e6f74206f776e6572206e6f7260008201527f20617070726f7665640000000000000000000000000000000000000000000000602082015250565b6000613e45602983612c40565b9150613e5082613de9565b604082019050919050565b60006020820190508181036000830152613e7481613e38565b9050919050565b7f455243313135353a2073657474696e6720617070726f76616c2073746174757360008201527f20666f722073656c660000000000000000000000000000000000000000000000602082015250565b6000613ed7602983612c40565b9150613ee282613e7b565b604082019050919050565b60006020820190508181036000830152613f0681613eca565b9050919050565b7f4f776e61626c653a206e6577206f776e657220697320746865207a65726f206160008201527f6464726573730000000000000000000000000000000000000000000000000000602082015250565b6000613f69602683612c40565b9150613f7482613f0d565b604082019050919050565b60006020820190508181036000830152613f9881613f5c565b9050919050565b7f455243313135353a207472616e7366657220746f20746865207a65726f20616460008201527f6472657373000000000000000000000000000000000000000000000000000000602082015250565b6000613ffb602583612c40565b915061400682613f9f565b604082019050919050565b6000602082019050818103600083015261402a81613fee565b9050919050565b7f455243313135353a20696e73756666696369656e742062616c616e636520666f60008201527f72207472616e7366657200000000000000000000000000000000000000000000602082015250565b600061408d602a83612c40565b915061409882614031565b604082019050919050565b600060208201905081810360008301526140bc81614080565b9050919050565b60006140ce82612aad565b91506140d983612aad565b9250827fffffffffffffffffffffffffffffffffffffffffffffffffffffffffffffffff0382111561410e5761410d6138d8565b5b828201905092915050565b600060408201905061412e6000830185612b23565b61413b6020830184612b23565b9392505050565b7f455243313135353a2069647320616e6420616d6f756e7473206c656e6774682060008201527f6d69736d61746368000000000000000000000000000000000000000000000000602082015250565b600061419e602883612c40565b91506141a982614142565b604082019050919050565b600060208201905081810360008301526141cd81614191565b9050919050565b600060408201905081810360008301526141ee81856131c6565b9050818103602083015261420281846131c6565b90509392505050565b7f5061757361626c653a206e6f7420706175736564000000000000000000000000600082015250565b6000614241601483612c40565b915061424c8261420b565b602082019050919050565b6000602082019050818103600083015261427081614234565b9050919050565b7f455243313135353a206d696e7420746f20746865207a65726f2061646472657360008201527f7300000000000000000000000000000000000000000000000000000000000000602082015250565b60006142d3602183612c40565b91506142de82614277565b604082019050919050565b60006020820190508181036000830152614302816142c6565b9050919050565b7f455243313135353a206275726e2066726f6d20746865207a65726f206164647260008201527f6573730000000000000000000000000000000000000000000000000000000000602082015250565b6000614365602383612c40565b915061437082614309565b604082019050919050565b6000602082019050818103600083015261439481614358565b9050919050565b7f455243313135353a206275726e20616d6f756e7420657863656564732062616c60008201527f616e636500000000000000000000000000000000000000000000000000000000602082015250565b60006143f7602483612c40565b91506144028261439b565b604082019050919050565b60006020820190508181036000830152614426816143ea565b9050919050565b600081519050919050565b600082825260208201905092915050565b60006144548261442d565b61445e8185614438565b935061446e818560208601612c51565b61447781612c84565b840191505092915050565b600060a08201905061449760008301886134b4565b6144a460208301876134b4565b6144b16040830186612b23565b6144be6060830185612b23565b81810360808301526144d08184614449565b90509695505050505050565b6000815190506144eb81612b79565b92915050565b60006020828403121561450757614506612a45565b5b6000614515848285016144dc565b91505092915050565b60008160e01c9050919050565b600060033d111561454a5760046000803e61454760005161451e565b90505b90565b600060443d101561455d576145e0565b614565612a3b565b60043d036004823e80513d602482011167ffffffffffffffff8211171561458d5750506145e0565b808201805167ffffffffffffffff8111156145ab57505050506145e0565b80602083010160043d0385018111156145c85750505050506145e0565b6145d782602001850186612d29565b82955050505050505b90565b7f455243313135353a207472616e7366657220746f206e6f6e204552433131353560008201527f526563656976657220696d706c656d656e746572000000000000000000000000602082015250565b600061463f603483612c40565b915061464a826145e3565b604082019050919050565b6000602082019050818103600083015261466e81614632565b9050919050565b7f455243313135353a204552433131353552656365697665722072656a6563746560008201527f6420746f6b656e73000000000000000000000000000000000000000000000000602082015250565b60006146d1602883612c40565b91506146dc82614675565b604082019050919050565b60006020820190508181036000830152614700816146c4565b9050919050565b600060a08201905061471c60008301886134b4565b61472960208301876134b4565b818103604083015261473b81866131c6565b9050818103606083015261474f81856131c6565b905081810360808301526147638184614449565b90509695505050505050565b7f455243313135355061757361626c653a20746f6b656e207472616e736665722060008201527f7768696c65207061757365640000000000000000000000000000000000000000602082015250565b60006147cb602c83612c40565b91506147d68261476f565b604082019050919050565b600060208201905081810360008301526147fa816147be565b905091905056fea2646970667358221220d3f690e3c8711a67a5dad889e95abc34c65b1401dec3abdb71fd26bead1024ff64736f6c634300080a0033",
  "immutableReferences": {},
  "source": "// SPDX-License-Identifier: MIT\npragma solidity 0.8.10;\n\nimport \"@openzeppelin/contracts/token/ERC1155/ERC1155.sol\";\nimport \"@openzeppelin/contracts/access/Ownable.sol\";\nimport \"@openzeppelin/contracts/token/ERC1155/extensions/ERC1155Burnable.sol\";\nimport \"@openzeppelin/contracts/token/ERC1155/extensions/ERC1155Pausable.sol\";\n\n\n/// @custom:security-contact @javierlinked\ncontract TicketContract is ERC1155, Ownable, ERC1155Pausable, ERC1155Burnable {\n    uint public nonce;\n    uint[] public tokenIds;\n    uint public tokenIdsLength;\n    \n    struct Ticket {\n        uint id;\n        string name;\n        uint price; // in gwei\n        string showTime;\n        uint maxSellPerPerson;\n    }\n\n    mapping(uint => Ticket) public tickets;\n\n    event TicketCreated(\n        uint indexed id,\n        address indexed minter,\n        string indexed name,\n        uint price,\n        uint amount,\n        uint maxSellPerPerson\n    );\n\n    event TicketSold(\n        uint indexed id,\n        address indexed seller,\n        address indexed buyer,\n        uint amount\n    );\n\n    modifier paidExactly(uint amount, uint id) {\n        uint total = amount * tickets[id].price;\n        require(total == msg.value, \"Incorrect amount\");\n        _;\n    }\n\n    modifier allowedSell(uint amount, uint id) {\n        require(amount > 0, \"Amount must bigger than 0\");\n        require(balanceOf(owner(), id) >= amount, \"Not enough tickets\");\n        require(\n            amount <= tickets[id].maxSellPerPerson,\n            \"Max ammount per person reached\"\n        );\n        _;\n    }\n\n    modifier validate(uint id) {\n        require(tickets[id].price != 0, \"Ticket does not exist\");\n        _;\n    }\n\n    constructor() ERC1155(\"\") {\n        nonce = 0;\n    }\n\n    function create(\n        string memory name,\n        uint price,\n        uint amount,\n        string memory showTime,\n        uint maxSellPerPerson,\n        bytes memory data\n    ) public onlyOwner whenNotPaused {\n        uint newId = ++nonce;\n\n        address owner = msg.sender;\n        Ticket memory newTicket = Ticket(newId, name, price, showTime, maxSellPerPerson);\n        tokenIds.push(newId);\n        tokenIdsLength = tokenIds.length;\n        tickets[newId] = newTicket;\n        _mint(owner, newId, amount, data);\n        emit TicketCreated(newId, owner, name, price, amount, maxSellPerPerson);\n    }\n\n    function buy(\n        uint id,\n        uint amount,\n        bytes memory data\n    )\n        public\n        payable\n        allowedSell(amount, id)\n        paidExactly(amount, id)\n        validate(id)\n        whenNotPaused\n    {\n        address payable owner = payable(owner());\n        address buyer = msg.sender;\n        (bool sent, ) = owner.call{value: msg.value}(\"\");\n        require(sent, \"Failed to send Ether\");\n        _safeTransferFrom(owner, buyer, id, amount, data);\n        emit TicketSold(id, owner, buyer, amount);\n    }\n\n    function burn(\n        address account,\n        uint id,\n        uint amount\n    ) public override\n    /**   onlyOwner ???*/ \n    whenNotPaused {\n        // NOTE:  to myself, not related to _balances[][] but to existence of tokens in the contract\n        _burn(account, id, amount);\n    }\n\n    /**\n     * @dev Pauses all token transfers.\n     *\n     * See {ERC1155Pausable} and {Pausable-_pause}.\n     *\n     * Requirements:\n     *\n     * - the caller must be owner.\n     */\n    function pause() public virtual onlyOwner {\n        _pause();\n    }\n\n    /**\n     * @dev Unpauses all token transfers.\n     *\n     * See {ERC1155Pausable} and {Pausable-_unpause}.\n     *\n     * Requirements:\n     *\n     * - the caller owner.\n     */\n    function unpause() public virtual onlyOwner {\n        _unpause();\n    }\n\n    function _beforeTokenTransfer(\n        address operator,\n        address from,\n        address to,\n        uint256[] memory ids,\n        uint256[] memory amounts,\n        bytes memory data\n    ) internal virtual override(ERC1155, ERC1155Pausable) {\n        super._beforeTokenTransfer(operator, from, to, ids, amounts, data);\n    }\n}\n",
  "sourcePath": "/Users/javier/dev/blockchain-developer-bootcamp-final-project/contracts/TicketContract.sol",
  "compiler": {
    "name": "solc",
    "version": "0.8.10+commit.fc410830.Emscripten.clang"
  },
  "schemaVersion": "3.4.3",
  "updatedAt": "2021-11-22T10:24:24.660Z",
  "networkType": "ethereum",
  "devdoc": {
    "custom:security-contact": "@javierlinked",
    "kind": "dev",
    "methods": {
      "balanceOf(address,uint256)": {
        "details": "See {IERC1155-balanceOf}. Requirements: - `account` cannot be the zero address."
      },
      "balanceOfBatch(address[],uint256[])": {
        "details": "See {IERC1155-balanceOfBatch}. Requirements: - `accounts` and `ids` must have the same length."
      },
      "isApprovedForAll(address,address)": {
        "details": "See {IERC1155-isApprovedForAll}."
      },
      "owner()": {
        "details": "Returns the address of the current owner."
      },
      "pause()": {
        "details": "Pauses all token transfers. See {ERC1155Pausable} and {Pausable-_pause}. Requirements: - the caller must be owner."
      },
      "paused()": {
        "details": "Returns true if the contract is paused, and false otherwise."
      },
      "renounceOwnership()": {
        "details": "Leaves the contract without owner. It will not be possible to call `onlyOwner` functions anymore. Can only be called by the current owner. NOTE: Renouncing ownership will leave the contract without an owner, thereby removing any functionality that is only available to the owner."
      },
      "safeBatchTransferFrom(address,address,uint256[],uint256[],bytes)": {
        "details": "See {IERC1155-safeBatchTransferFrom}."
      },
      "safeTransferFrom(address,address,uint256,uint256,bytes)": {
        "details": "See {IERC1155-safeTransferFrom}."
      },
      "setApprovalForAll(address,bool)": {
        "details": "See {IERC1155-setApprovalForAll}."
      },
      "supportsInterface(bytes4)": {
        "details": "See {IERC165-supportsInterface}."
      },
      "transferOwnership(address)": {
        "details": "Transfers ownership of the contract to a new account (`newOwner`). Can only be called by the current owner."
      },
      "unpause()": {
        "details": "Unpauses all token transfers. See {ERC1155Pausable} and {Pausable-_unpause}. Requirements: - the caller owner."
      },
      "uri(uint256)": {
        "details": "See {IERC1155MetadataURI-uri}. This implementation returns the same URI for *all* token types. It relies on the token type ID substitution mechanism https://eips.ethereum.org/EIPS/eip-1155#metadata[defined in the EIP]. Clients calling this function must replace the `\\{id\\}` substring with the actual token type ID."
      }
    },
    "version": 1
  },
  "userdoc": {
    "kind": "user",
    "methods": {},
    "version": 1
  }
}