{
  "contractName": "TicketContract",
  "abi": [
    {
      "inputs": [],
      "stateMutability": "nonpayable",
      "type": "constructor"
    },
    {
      "anonymous": false,
      "inputs": [
        {
          "indexed": true,
          "internalType": "address",
          "name": "account",
          "type": "address"
        },
        {
          "indexed": true,
          "internalType": "address",
          "name": "operator",
          "type": "address"
        },
        {
          "indexed": false,
          "internalType": "bool",
          "name": "approved",
          "type": "bool"
        }
      ],
      "name": "ApprovalForAll",
      "type": "event"
    },
    {
      "anonymous": false,
      "inputs": [
        {
          "indexed": true,
          "internalType": "address",
          "name": "previousOwner",
          "type": "address"
        },
        {
          "indexed": true,
          "internalType": "address",
          "name": "newOwner",
          "type": "address"
        }
      ],
      "name": "OwnershipTransferred",
      "type": "event"
    },
    {
      "anonymous": false,
      "inputs": [
        {
          "indexed": false,
          "internalType": "address",
          "name": "account",
          "type": "address"
        }
      ],
      "name": "Paused",
      "type": "event"
    },
    {
      "anonymous": false,
      "inputs": [
        {
          "indexed": true,
          "internalType": "uint256",
          "name": "id",
          "type": "uint256"
        },
        {
          "indexed": true,
          "internalType": "address",
          "name": "minter",
          "type": "address"
        },
        {
          "indexed": true,
          "internalType": "string",
          "name": "name",
          "type": "string"
        },
        {
          "indexed": false,
          "internalType": "uint256",
          "name": "price",
          "type": "uint256"
        },
        {
          "indexed": false,
          "internalType": "uint256",
          "name": "amount",
          "type": "uint256"
        },
        {
          "indexed": false,
          "internalType": "uint256",
          "name": "maxSellPerPerson",
          "type": "uint256"
        }
      ],
      "name": "TicketCreated",
      "type": "event"
    },
    {
      "anonymous": false,
      "inputs": [
        {
          "indexed": true,
          "internalType": "uint256",
          "name": "id",
          "type": "uint256"
        },
        {
          "indexed": true,
          "internalType": "address",
          "name": "from",
          "type": "address"
        },
        {
          "indexed": true,
          "internalType": "address",
          "name": "to",
          "type": "address"
        },
        {
          "indexed": false,
          "internalType": "uint256",
          "name": "amount",
          "type": "uint256"
        }
      ],
      "name": "TicketSold",
      "type": "event"
    },
    {
      "anonymous": false,
      "inputs": [
        {
          "indexed": true,
          "internalType": "address",
          "name": "operator",
          "type": "address"
        },
        {
          "indexed": true,
          "internalType": "address",
          "name": "from",
          "type": "address"
        },
        {
          "indexed": true,
          "internalType": "address",
          "name": "to",
          "type": "address"
        },
        {
          "indexed": false,
          "internalType": "uint256[]",
          "name": "ids",
          "type": "uint256[]"
        },
        {
          "indexed": false,
          "internalType": "uint256[]",
          "name": "values",
          "type": "uint256[]"
        }
      ],
      "name": "TransferBatch",
      "type": "event"
    },
    {
      "anonymous": false,
      "inputs": [
        {
          "indexed": true,
          "internalType": "address",
          "name": "operator",
          "type": "address"
        },
        {
          "indexed": true,
          "internalType": "address",
          "name": "from",
          "type": "address"
        },
        {
          "indexed": true,
          "internalType": "address",
          "name": "to",
          "type": "address"
        },
        {
          "indexed": false,
          "internalType": "uint256",
          "name": "id",
          "type": "uint256"
        },
        {
          "indexed": false,
          "internalType": "uint256",
          "name": "value",
          "type": "uint256"
        }
      ],
      "name": "TransferSingle",
      "type": "event"
    },
    {
      "anonymous": false,
      "inputs": [
        {
          "indexed": false,
          "internalType": "string",
          "name": "value",
          "type": "string"
        },
        {
          "indexed": true,
          "internalType": "uint256",
          "name": "id",
          "type": "uint256"
        }
      ],
      "name": "URI",
      "type": "event"
    },
    {
      "anonymous": false,
      "inputs": [
        {
          "indexed": false,
          "internalType": "address",
          "name": "account",
          "type": "address"
        }
      ],
      "name": "Unpaused",
      "type": "event"
    },
    {
      "inputs": [
        {
          "internalType": "address",
          "name": "account",
          "type": "address"
        },
        {
          "internalType": "uint256",
          "name": "id",
          "type": "uint256"
        }
      ],
      "name": "balanceOf",
      "outputs": [
        {
          "internalType": "uint256",
          "name": "",
          "type": "uint256"
        }
      ],
      "stateMutability": "view",
      "type": "function"
    },
    {
      "inputs": [
        {
          "internalType": "address[]",
          "name": "accounts",
          "type": "address[]"
        },
        {
          "internalType": "uint256[]",
          "name": "ids",
          "type": "uint256[]"
        }
      ],
      "name": "balanceOfBatch",
      "outputs": [
        {
          "internalType": "uint256[]",
          "name": "",
          "type": "uint256[]"
        }
      ],
      "stateMutability": "view",
      "type": "function"
    },
    {
      "inputs": [
        {
          "internalType": "address",
          "name": "account",
          "type": "address"
        },
        {
          "internalType": "uint256[]",
          "name": "ids",
          "type": "uint256[]"
        },
        {
          "internalType": "uint256[]",
          "name": "values",
          "type": "uint256[]"
        }
      ],
      "name": "burnBatch",
      "outputs": [],
      "stateMutability": "nonpayable",
      "type": "function"
    },
    {
      "inputs": [
        {
          "internalType": "address",
          "name": "account",
          "type": "address"
        },
        {
          "internalType": "address",
          "name": "operator",
          "type": "address"
        }
      ],
      "name": "isApprovedForAll",
      "outputs": [
        {
          "internalType": "bool",
          "name": "",
          "type": "bool"
        }
      ],
      "stateMutability": "view",
      "type": "function"
    },
    {
      "inputs": [],
      "name": "owner",
      "outputs": [
        {
          "internalType": "address",
          "name": "",
          "type": "address"
        }
      ],
      "stateMutability": "view",
      "type": "function"
    },
    {
      "inputs": [],
      "name": "paused",
      "outputs": [
        {
          "internalType": "bool",
          "name": "",
          "type": "bool"
        }
      ],
      "stateMutability": "view",
      "type": "function"
    },
    {
      "inputs": [],
      "name": "renounceOwnership",
      "outputs": [],
      "stateMutability": "nonpayable",
      "type": "function"
    },
    {
      "inputs": [
        {
          "internalType": "address",
          "name": "from",
          "type": "address"
        },
        {
          "internalType": "address",
          "name": "to",
          "type": "address"
        },
        {
          "internalType": "uint256[]",
          "name": "ids",
          "type": "uint256[]"
        },
        {
          "internalType": "uint256[]",
          "name": "amounts",
          "type": "uint256[]"
        },
        {
          "internalType": "bytes",
          "name": "data",
          "type": "bytes"
        }
      ],
      "name": "safeBatchTransferFrom",
      "outputs": [],
      "stateMutability": "nonpayable",
      "type": "function"
    },
    {
      "inputs": [
        {
          "internalType": "address",
          "name": "from",
          "type": "address"
        },
        {
          "internalType": "address",
          "name": "to",
          "type": "address"
        },
        {
          "internalType": "uint256",
          "name": "id",
          "type": "uint256"
        },
        {
          "internalType": "uint256",
          "name": "amount",
          "type": "uint256"
        },
        {
          "internalType": "bytes",
          "name": "data",
          "type": "bytes"
        }
      ],
      "name": "safeTransferFrom",
      "outputs": [],
      "stateMutability": "nonpayable",
      "type": "function"
    },
    {
      "inputs": [
        {
          "internalType": "address",
          "name": "operator",
          "type": "address"
        },
        {
          "internalType": "bool",
          "name": "approved",
          "type": "bool"
        }
      ],
      "name": "setApprovalForAll",
      "outputs": [],
      "stateMutability": "nonpayable",
      "type": "function"
    },
    {
      "inputs": [
        {
          "internalType": "bytes4",
          "name": "interfaceId",
          "type": "bytes4"
        }
      ],
      "name": "supportsInterface",
      "outputs": [
        {
          "internalType": "bool",
          "name": "",
          "type": "bool"
        }
      ],
      "stateMutability": "view",
      "type": "function"
    },
    {
      "inputs": [
        {
          "internalType": "uint256",
          "name": "",
          "type": "uint256"
        }
      ],
      "name": "tickets",
      "outputs": [
        {
          "internalType": "string",
          "name": "name",
          "type": "string"
        },
        {
          "internalType": "uint256",
          "name": "price",
          "type": "uint256"
        },
        {
          "internalType": "string",
          "name": "showTime",
          "type": "string"
        },
        {
          "internalType": "uint256",
          "name": "maxSellPerPerson",
          "type": "uint256"
        }
      ],
      "stateMutability": "view",
      "type": "function"
    },
    {
      "inputs": [
        {
          "internalType": "address",
          "name": "newOwner",
          "type": "address"
        }
      ],
      "name": "transferOwnership",
      "outputs": [],
      "stateMutability": "nonpayable",
      "type": "function"
    },
    {
      "inputs": [
        {
          "internalType": "uint256",
          "name": "",
          "type": "uint256"
        }
      ],
      "name": "uri",
      "outputs": [
        {
          "internalType": "string",
          "name": "",
          "type": "string"
        }
      ],
      "stateMutability": "view",
      "type": "function"
    },
    {
      "inputs": [
        {
          "internalType": "string",
          "name": "name",
          "type": "string"
        },
        {
          "internalType": "uint256",
          "name": "price",
          "type": "uint256"
        },
        {
          "internalType": "uint256",
          "name": "amount",
          "type": "uint256"
        },
        {
          "internalType": "string",
          "name": "showTime",
          "type": "string"
        },
        {
          "internalType": "uint256",
          "name": "maxSellPerPerson",
          "type": "uint256"
        },
        {
          "internalType": "bytes",
          "name": "data",
          "type": "bytes"
        }
      ],
      "name": "create",
      "outputs": [
        {
          "internalType": "uint256",
          "name": "",
          "type": "uint256"
        }
      ],
      "stateMutability": "nonpayable",
      "type": "function"
    },
    {
      "inputs": [
        {
          "internalType": "uint256",
          "name": "id",
          "type": "uint256"
        },
        {
          "internalType": "uint256",
          "name": "amount",
          "type": "uint256"
        },
        {
          "internalType": "bytes",
          "name": "data",
          "type": "bytes"
        }
      ],
      "name": "buy",
      "outputs": [],
      "stateMutability": "payable",
      "type": "function"
    },
    {
      "inputs": [
        {
          "internalType": "address",
          "name": "account",
          "type": "address"
        },
        {
          "internalType": "uint256",
          "name": "id",
          "type": "uint256"
        },
        {
          "internalType": "uint256",
          "name": "amount",
          "type": "uint256"
        }
      ],
      "name": "burn",
      "outputs": [],
      "stateMutability": "nonpayable",
      "type": "function"
    },
    {
      "inputs": [],
      "name": "pause",
      "outputs": [],
      "stateMutability": "nonpayable",
      "type": "function"
    },
    {
      "inputs": [],
      "name": "unpause",
      "outputs": [],
      "stateMutability": "nonpayable",
      "type": "function"
    }
  ],
  "bytecode": "0x60806040523480156200001157600080fd5b506040518060200160405280600081525062000033816200007560201b60201c565b5062000054620000486200009160201b60201c565b6200009960201b60201c565b6000600360146101000a81548160ff02191690831515021790555062000274565b80600290805190602001906200008d9291906200015f565b5050565b600033905090565b6000600360009054906101000a900473ffffffffffffffffffffffffffffffffffffffff16905081600360006101000a81548173ffffffffffffffffffffffffffffffffffffffff021916908373ffffffffffffffffffffffffffffffffffffffff1602179055508173ffffffffffffffffffffffffffffffffffffffff168173ffffffffffffffffffffffffffffffffffffffff167f8be0079c531659141344cd1fd0a4f28419497f9722a3daafe3b4186f6b6457e060405160405180910390a35050565b8280546200016d906200023e565b90600052602060002090601f016020900481019282620001915760008555620001dd565b82601f10620001ac57805160ff1916838001178555620001dd565b82800160010185558215620001dd579182015b82811115620001dc578251825591602001919060010190620001bf565b5b509050620001ec9190620001f0565b5090565b5b808211156200020b576000816000905550600101620001f1565b5090565b7f4e487b7100000000000000000000000000000000000000000000000000000000600052602260045260246000fd5b600060028204905060018216806200025757607f821691505b602082108114156200026e576200026d6200020f565b5b50919050565b6147b180620002846000396000f3fe6080604052600436106101135760003560e01c8063626183ec116100a0578063a22cb46511610064578063a22cb46514610392578063e985e9c5146103bb578063f242432a146103f8578063f2fde38b14610421578063f5298aca1461044a57610113565b8063626183ec146102d35780636b20c45414610310578063715018a6146103395780638456cb59146103505780638da5cb5b1461036757610113565b80632eb2c2d6116100e75780632eb2c2d6146101eb5780633f4ba83a146102145780634e1273f41461022b57806350b44712146102685780635c975abb146102a857610113565b8062fdd58e1461011857806301ffc9a7146101555780630e89341c146101925780631efd73a5146101cf575b600080fd5b34801561012457600080fd5b5061013f600480360381019061013a9190612a6b565b610473565b60405161014c9190612aba565b60405180910390f35b34801561016157600080fd5b5061017c60048036038101906101779190612b2d565b61053c565b6040516101899190612b75565b60405180910390f35b34801561019e57600080fd5b506101b960048036038101906101b49190612b90565b61061e565b6040516101c69190612c56565b60405180910390f35b6101e960048036038101906101e49190612dad565b6106b2565b005b3480156101f757600080fd5b50610212600480360381019061020d9190612ee4565b6109ef565b005b34801561022057600080fd5b50610229610a90565b005b34801561023757600080fd5b50610252600480360381019061024d9190613076565b610b16565b60405161025f91906131ac565b60405180910390f35b34801561027457600080fd5b5061028f600480360381019061028a9190612b90565b610c2f565b60405161029f94939291906131ce565b60405180910390f35b3480156102b457600080fd5b506102bd610d6f565b6040516102ca9190612b75565b60405180910390f35b3480156102df57600080fd5b506102fa60048036038101906102f591906132c2565b610d86565b6040516103079190612aba565b60405180910390f35b34801561031c57600080fd5b50610337600480360381019061033291906133a3565b610f75565b005b34801561034557600080fd5b5061034e611012565b005b34801561035c57600080fd5b5061036561109a565b005b34801561037357600080fd5b5061037c611120565b604051610389919061343d565b60405180910390f35b34801561039e57600080fd5b506103b960048036038101906103b49190613484565b61114a565b005b3480156103c757600080fd5b506103e260048036038101906103dd91906134c4565b6112cb565b6040516103ef9190612b75565b60405180910390f35b34801561040457600080fd5b5061041f600480360381019061041a9190613504565b61135f565b005b34801561042d57600080fd5b506104486004803603810190610443919061359b565b611400565b005b34801561045657600080fd5b50610471600480360381019061046c91906135c8565b6114f8565b005b60008073ffffffffffffffffffffffffffffffffffffffff168373ffffffffffffffffffffffffffffffffffffffff1614156104e4576040517f08c379a00000000000000000000000000000000000000000000000000000000081526004016104db9061368d565b60405180910390fd5b60008083815260200190815260200160002060008473ffffffffffffffffffffffffffffffffffffffff1673ffffffffffffffffffffffffffffffffffffffff16815260200190815260200160002054905092915050565b60007fd9b67a26000000000000000000000000000000000000000000000000000000007bffffffffffffffffffffffffffffffffffffffffffffffffffffffff1916827bffffffffffffffffffffffffffffffffffffffffffffffffffffffff1916148061060757507f0e89341c000000000000000000000000000000000000000000000000000000007bffffffffffffffffffffffffffffffffffffffffffffffffffffffff1916827bffffffffffffffffffffffffffffffffffffffffffffffffffffffff1916145b806106175750610616826115cc565b5b9050919050565b60606002805461062d906136dc565b80601f0160208091040260200160405190810160405280929190818152602001828054610659906136dc565b80156106a65780601f1061067b576101008083540402835291602001916106a6565b820191906000526020600020905b81548152906001019060200180831161068957829003601f168201915b50505050509050919050565b8183600082116106f7576040517f08c379a00000000000000000000000000000000000000000000000000000000081526004016106ee9061375a565b60405180910390fd5b81610709610703611120565b83610473565b101561074a576040517f08c379a0000000000000000000000000000000000000000000000000000000008152600401610741906137c6565b60405180910390fd5b60056000828152602001908152602001600020600301548211156107a3576040517f08c379a000000000000000000000000000000000000000000000000000000000815260040161079a90613832565b60405180910390fd5b838560006005600083815260200190815260200160002060010154836107c99190613881565b90503481111561080e576040517f08c379a000000000000000000000000000000000000000000000000000000000815260040161080590613927565b60405180910390fd5b87600060056000838152602001908152602001600020600101541415610869576040517f08c379a000000000000000000000000000000000000000000000000000000000815260040161086090613993565b60405180910390fd5b610871610d6f565b156108b1576040517f08c379a00000000000000000000000000000000000000000000000000000000081526004016108a8906139ff565b60405180910390fd5b60006108bb611120565b9050600033905060008273ffffffffffffffffffffffffffffffffffffffff16346040516108e890613a50565b60006040518083038185875af1925050503d8060008114610925576040519150601f19603f3d011682016040523d82523d6000602084013e61092a565b606091505b505090508061096e576040517f08c379a000000000000000000000000000000000000000000000000000000000815260040161096590613ab1565b60405180910390fd5b61097b83838e8e8e611636565b8173ffffffffffffffffffffffffffffffffffffffff168373ffffffffffffffffffffffffffffffffffffffff168d7f2bbc64d6afd28a753f6c5e4aaa894f1d684c44a0e080167eae104ac8505cfebd8e6040516109d99190612aba565b60405180910390a4505050505050505050505050565b6109f76118b8565b73ffffffffffffffffffffffffffffffffffffffff168573ffffffffffffffffffffffffffffffffffffffff161480610a3d5750610a3c85610a376118b8565b6112cb565b5b610a7c576040517f08c379a0000000000000000000000000000000000000000000000000000000008152600401610a7390613b43565b60405180910390fd5b610a8985858585856118c0565b5050505050565b610a986118b8565b73ffffffffffffffffffffffffffffffffffffffff16610ab6611120565b73ffffffffffffffffffffffffffffffffffffffff1614610b0c576040517f08c379a0000000000000000000000000000000000000000000000000000000008152600401610b0390613baf565b60405180910390fd5b610b14611bd4565b565b60608151835114610b5c576040517f08c379a0000000000000000000000000000000000000000000000000000000008152600401610b5390613c41565b60405180910390fd5b6000835167ffffffffffffffff811115610b7957610b78612c82565b5b604051908082528060200260200182016040528015610ba75781602001602082028036833780820191505090505b50905060005b8451811015610c2457610bf4858281518110610bcc57610bcb613c61565b5b6020026020010151858381518110610be757610be6613c61565b5b6020026020010151610473565b828281518110610c0757610c06613c61565b5b60200260200101818152505080610c1d90613c90565b9050610bad565b508091505092915050565b6005602052806000526040600020600091509050806000018054610c52906136dc565b80601f0160208091040260200160405190810160405280929190818152602001828054610c7e906136dc565b8015610ccb5780601f10610ca057610100808354040283529160200191610ccb565b820191906000526020600020905b815481529060010190602001808311610cae57829003601f168201915b505050505090806001015490806002018054610ce6906136dc565b80601f0160208091040260200160405190810160405280929190818152602001828054610d12906136dc565b8015610d5f5780601f10610d3457610100808354040283529160200191610d5f565b820191906000526020600020905b815481529060010190602001808311610d4257829003601f168201915b5050505050908060030154905084565b6000600360149054906101000a900460ff16905090565b6000610d906118b8565b73ffffffffffffffffffffffffffffffffffffffff16610dae611120565b73ffffffffffffffffffffffffffffffffffffffff1614610e04576040517f08c379a0000000000000000000000000000000000000000000000000000000008152600401610dfb90613baf565b60405180910390fd5b610e0c610d6f565b15610e4c576040517f08c379a0000000000000000000000000000000000000000000000000000000008152600401610e43906139ff565b60405180910390fd5b6000339050610e5b6004611c76565b600060405180608001604052808a81526020018981526020018781526020018681525090506000610e8c6004611c8c565b905081600560008381526020019081526020016000206000820151816000019080519060200190610ebe929190612920565b50602082015181600101556040820151816002019080519060200190610ee5929190612920565b5060608201518160030155905050610eff83828a88611c9a565b89604051610f0d9190613d15565b60405180910390208373ffffffffffffffffffffffffffffffffffffffff16827f9d783e202083d1fb37ad562ef4e7776ae35886aa85bb86b72e48e66f58f03f4d8c8c8b604051610f6093929190613d2c565b60405180910390a45050509695505050505050565b610f7d6118b8565b73ffffffffffffffffffffffffffffffffffffffff168373ffffffffffffffffffffffffffffffffffffffff161480610fc35750610fc283610fbd6118b8565b6112cb565b5b611002576040517f08c379a0000000000000000000000000000000000000000000000000000000008152600401610ff990613dd5565b60405180910390fd5b61100d838383611e30565b505050565b61101a6118b8565b73ffffffffffffffffffffffffffffffffffffffff16611038611120565b73ffffffffffffffffffffffffffffffffffffffff161461108e576040517f08c379a000000000000000000000000000000000000000000000000000000000815260040161108590613baf565b60405180910390fd5b61109860006120e1565b565b6110a26118b8565b73ffffffffffffffffffffffffffffffffffffffff166110c0611120565b73ffffffffffffffffffffffffffffffffffffffff1614611116576040517f08c379a000000000000000000000000000000000000000000000000000000000815260040161110d90613baf565b60405180910390fd5b61111e6121a7565b565b6000600360009054906101000a900473ffffffffffffffffffffffffffffffffffffffff16905090565b8173ffffffffffffffffffffffffffffffffffffffff166111696118b8565b73ffffffffffffffffffffffffffffffffffffffff1614156111c0576040517f08c379a00000000000000000000000000000000000000000000000000000000081526004016111b790613e67565b60405180910390fd5b80600160006111cd6118b8565b73ffffffffffffffffffffffffffffffffffffffff1673ffffffffffffffffffffffffffffffffffffffff16815260200190815260200160002060008473ffffffffffffffffffffffffffffffffffffffff1673ffffffffffffffffffffffffffffffffffffffff16815260200190815260200160002060006101000a81548160ff0219169083151502179055508173ffffffffffffffffffffffffffffffffffffffff1661127a6118b8565b73ffffffffffffffffffffffffffffffffffffffff167f17307eab39ab6107e8899845ad3d59bd9653f200f220920489ca2b5937696c31836040516112bf9190612b75565b60405180910390a35050565b6000600160008473ffffffffffffffffffffffffffffffffffffffff1673ffffffffffffffffffffffffffffffffffffffff16815260200190815260200160002060008373ffffffffffffffffffffffffffffffffffffffff1673ffffffffffffffffffffffffffffffffffffffff16815260200190815260200160002060009054906101000a900460ff16905092915050565b6113676118b8565b73ffffffffffffffffffffffffffffffffffffffff168573ffffffffffffffffffffffffffffffffffffffff1614806113ad57506113ac856113a76118b8565b6112cb565b5b6113ec576040517f08c379a00000000000000000000000000000000000000000000000000000000081526004016113e390613dd5565b60405180910390fd5b6113f98585858585611636565b5050505050565b6114086118b8565b73ffffffffffffffffffffffffffffffffffffffff16611426611120565b73ffffffffffffffffffffffffffffffffffffffff161461147c576040517f08c379a000000000000000000000000000000000000000000000000000000000815260040161147390613baf565b60405180910390fd5b600073ffffffffffffffffffffffffffffffffffffffff168173ffffffffffffffffffffffffffffffffffffffff1614156114ec576040517f08c379a00000000000000000000000000000000000000000000000000000000081526004016114e390613ef9565b60405180910390fd5b6114f5816120e1565b50565b6115006118b8565b73ffffffffffffffffffffffffffffffffffffffff1661151e611120565b73ffffffffffffffffffffffffffffffffffffffff1614611574576040517f08c379a000000000000000000000000000000000000000000000000000000000815260040161156b90613baf565b60405180910390fd5b61157c610d6f565b156115bc576040517f08c379a00000000000000000000000000000000000000000000000000000000081526004016115b3906139ff565b60405180910390fd5b6115c783838361224a565b505050565b60007f01ffc9a7000000000000000000000000000000000000000000000000000000007bffffffffffffffffffffffffffffffffffffffffffffffffffffffff1916827bffffffffffffffffffffffffffffffffffffffffffffffffffffffff1916149050919050565b600073ffffffffffffffffffffffffffffffffffffffff168473ffffffffffffffffffffffffffffffffffffffff1614156116a6576040517f08c379a000000000000000000000000000000000000000000000000000000000815260040161169d90613f8b565b60405180910390fd5b60006116b06118b8565b90506116d08187876116c188612467565b6116ca88612467565b876124e1565b600080600086815260200190815260200160002060008873ffffffffffffffffffffffffffffffffffffffff1673ffffffffffffffffffffffffffffffffffffffff16815260200190815260200160002054905083811015611767576040517f08c379a000000000000000000000000000000000000000000000000000000000815260040161175e9061401d565b60405180910390fd5b83810360008087815260200190815260200160002060008973ffffffffffffffffffffffffffffffffffffffff1673ffffffffffffffffffffffffffffffffffffffff168152602001908152602001600020819055508360008087815260200190815260200160002060008873ffffffffffffffffffffffffffffffffffffffff1673ffffffffffffffffffffffffffffffffffffffff168152602001908152602001600020600082825461181c919061403d565b925050819055508573ffffffffffffffffffffffffffffffffffffffff168773ffffffffffffffffffffffffffffffffffffffff168373ffffffffffffffffffffffffffffffffffffffff167fc3d58168c5ae7397731d063d5bbf3d657854427343f4c083240f7aacaa2d0f628888604051611899929190614093565b60405180910390a46118af8288888888886124f7565b50505050505050565b600033905090565b8151835114611904576040517f08c379a00000000000000000000000000000000000000000000000000000000081526004016118fb9061412e565b60405180910390fd5b600073ffffffffffffffffffffffffffffffffffffffff168473ffffffffffffffffffffffffffffffffffffffff161415611974576040517f08c379a000000000000000000000000000000000000000000000000000000000815260040161196b90613f8b565b60405180910390fd5b600061197e6118b8565b905061198e8187878787876124e1565b60005b8451811015611b3f5760008582815181106119af576119ae613c61565b5b6020026020010151905060008583815181106119ce576119cd613c61565b5b60200260200101519050600080600084815260200190815260200160002060008b73ffffffffffffffffffffffffffffffffffffffff1673ffffffffffffffffffffffffffffffffffffffff16815260200190815260200160002054905081811015611a6f576040517f08c379a0000000000000000000000000000000000000000000000000000000008152600401611a669061401d565b60405180910390fd5b81810360008085815260200190815260200160002060008c73ffffffffffffffffffffffffffffffffffffffff1673ffffffffffffffffffffffffffffffffffffffff168152602001908152602001600020819055508160008085815260200190815260200160002060008b73ffffffffffffffffffffffffffffffffffffffff1673ffffffffffffffffffffffffffffffffffffffff1681526020019081526020016000206000828254611b24919061403d565b9250508190555050505080611b3890613c90565b9050611991565b508473ffffffffffffffffffffffffffffffffffffffff168673ffffffffffffffffffffffffffffffffffffffff168273ffffffffffffffffffffffffffffffffffffffff167f4a39dc06d4c0dbc64b70af90fd698a233a518aa5d07e595d983b8c0526c8f7fb8787604051611bb692919061414e565b60405180910390a4611bcc8187878787876126cf565b505050505050565b611bdc610d6f565b611c1b576040517f08c379a0000000000000000000000000000000000000000000000000000000008152600401611c12906141d1565b60405180910390fd5b6000600360146101000a81548160ff0219169083151502179055507f5db9ee0a495bf2e6ff9c91a7834c1ba4fdd244a5e8aa4e537bd38aeae4b073aa611c5f6118b8565b604051611c6c919061343d565b60405180910390a1565b6001816000016000828254019250508190555050565b600081600001549050919050565b600073ffffffffffffffffffffffffffffffffffffffff168473ffffffffffffffffffffffffffffffffffffffff161415611d0a576040517f08c379a0000000000000000000000000000000000000000000000000000000008152600401611d0190614263565b60405180910390fd5b6000611d146118b8565b9050611d3581600087611d2688612467565b611d2f88612467565b876124e1565b8260008086815260200190815260200160002060008773ffffffffffffffffffffffffffffffffffffffff1673ffffffffffffffffffffffffffffffffffffffff1681526020019081526020016000206000828254611d94919061403d565b925050819055508473ffffffffffffffffffffffffffffffffffffffff16600073ffffffffffffffffffffffffffffffffffffffff168273ffffffffffffffffffffffffffffffffffffffff167fc3d58168c5ae7397731d063d5bbf3d657854427343f4c083240f7aacaa2d0f628787604051611e12929190614093565b60405180910390a4611e29816000878787876124f7565b5050505050565b600073ffffffffffffffffffffffffffffffffffffffff168373ffffffffffffffffffffffffffffffffffffffff161415611ea0576040517f08c379a0000000000000000000000000000000000000000000000000000000008152600401611e97906142f5565b60405180910390fd5b8051825114611ee4576040517f08c379a0000000000000000000000000000000000000000000000000000000008152600401611edb9061412e565b60405180910390fd5b6000611eee6118b8565b9050611f0e818560008686604051806020016040528060008152506124e1565b60005b835181101561205b576000848281518110611f2f57611f2e613c61565b5b602002602001015190506000848381518110611f4e57611f4d613c61565b5b60200260200101519050600080600084815260200190815260200160002060008973ffffffffffffffffffffffffffffffffffffffff1673ffffffffffffffffffffffffffffffffffffffff16815260200190815260200160002054905081811015611fef576040517f08c379a0000000000000000000000000000000000000000000000000000000008152600401611fe690614387565b60405180910390fd5b81810360008085815260200190815260200160002060008a73ffffffffffffffffffffffffffffffffffffffff1673ffffffffffffffffffffffffffffffffffffffff16815260200190815260200160002081905550505050808061205390613c90565b915050611f11565b50600073ffffffffffffffffffffffffffffffffffffffff168473ffffffffffffffffffffffffffffffffffffffff168273ffffffffffffffffffffffffffffffffffffffff167f4a39dc06d4c0dbc64b70af90fd698a233a518aa5d07e595d983b8c0526c8f7fb86866040516120d392919061414e565b60405180910390a450505050565b6000600360009054906101000a900473ffffffffffffffffffffffffffffffffffffffff16905081600360006101000a81548173ffffffffffffffffffffffffffffffffffffffff021916908373ffffffffffffffffffffffffffffffffffffffff1602179055508173ffffffffffffffffffffffffffffffffffffffff168173ffffffffffffffffffffffffffffffffffffffff167f8be0079c531659141344cd1fd0a4f28419497f9722a3daafe3b4186f6b6457e060405160405180910390a35050565b6121af610d6f565b156121ef576040517f08c379a00000000000000000000000000000000000000000000000000000000081526004016121e6906139ff565b60405180910390fd5b6001600360146101000a81548160ff0219169083151502179055507f62e78cea01bee320cd4e420270b5ea74000d11b0c9f74754ebdbfc544b05a2586122336118b8565b604051612240919061343d565b60405180910390a1565b600073ffffffffffffffffffffffffffffffffffffffff168373ffffffffffffffffffffffffffffffffffffffff1614156122ba576040517f08c379a00000000000000000000000000000000000000000000000000000000081526004016122b1906142f5565b60405180910390fd5b60006122c46118b8565b90506122f4818560006122d687612467565b6122df87612467565b604051806020016040528060008152506124e1565b600080600085815260200190815260200160002060008673ffffffffffffffffffffffffffffffffffffffff1673ffffffffffffffffffffffffffffffffffffffff1681526020019081526020016000205490508281101561238b576040517f08c379a000000000000000000000000000000000000000000000000000000000815260040161238290614387565b60405180910390fd5b82810360008086815260200190815260200160002060008773ffffffffffffffffffffffffffffffffffffffff1673ffffffffffffffffffffffffffffffffffffffff16815260200190815260200160002081905550600073ffffffffffffffffffffffffffffffffffffffff168573ffffffffffffffffffffffffffffffffffffffff168373ffffffffffffffffffffffffffffffffffffffff167fc3d58168c5ae7397731d063d5bbf3d657854427343f4c083240f7aacaa2d0f628787604051612458929190614093565b60405180910390a45050505050565b60606000600167ffffffffffffffff81111561248657612485612c82565b5b6040519080825280602002602001820160405280156124b45781602001602082028036833780820191505090505b50905082816000815181106124cc576124cb613c61565b5b60200260200101818152505080915050919050565b6124ef8686868686866128a7565b505050505050565b6125168473ffffffffffffffffffffffffffffffffffffffff16612905565b156126c7578373ffffffffffffffffffffffffffffffffffffffff1663f23a6e6187878686866040518663ffffffff1660e01b815260040161255c9594939291906143fc565b6020604051808303816000875af192505050801561259857506040513d601f19601f82011682018060405250810190612595919061446b565b60015b61263e576125a46144a5565b806308c379a0141561260157506125b96144c7565b806125c45750612603565b806040517f08c379a00000000000000000000000000000000000000000000000000000000081526004016125f89190612c56565b60405180910390fd5b505b6040517f08c379a0000000000000000000000000000000000000000000000000000000008152600401612635906145cf565b60405180910390fd5b63f23a6e6160e01b7bffffffffffffffffffffffffffffffffffffffffffffffffffffffff1916817bffffffffffffffffffffffffffffffffffffffffffffffffffffffff1916146126c5576040517f08c379a00000000000000000000000000000000000000000000000000000000081526004016126bc90614661565b60405180910390fd5b505b505050505050565b6126ee8473ffffffffffffffffffffffffffffffffffffffff16612905565b1561289f578373ffffffffffffffffffffffffffffffffffffffff1663bc197c8187878686866040518663ffffffff1660e01b8152600401612734959493929190614681565b6020604051808303816000875af192505050801561277057506040513d601f19601f8201168201806040525081019061276d919061446b565b60015b6128165761277c6144a5565b806308c379a014156127d957506127916144c7565b8061279c57506127db565b806040517f08c379a00000000000000000000000000000000000000000000000000000000081526004016127d09190612c56565b60405180910390fd5b505b6040517f08c379a000000000000000000000000000000000000000000000000000000000815260040161280d906145cf565b60405180910390fd5b63bc197c8160e01b7bffffffffffffffffffffffffffffffffffffffffffffffffffffffff1916817bffffffffffffffffffffffffffffffffffffffffffffffffffffffff19161461289d576040517f08c379a000000000000000000000000000000000000000000000000000000000815260040161289490614661565b60405180910390fd5b505b505050505050565b6128b5868686868686612918565b6128bd610d6f565b156128fd576040517f08c379a00000000000000000000000000000000000000000000000000000000081526004016128f49061475b565b60405180910390fd5b505050505050565b600080823b905060008111915050919050565b505050505050565b82805461292c906136dc565b90600052602060002090601f01602090048101928261294e5760008555612995565b82601f1061296757805160ff1916838001178555612995565b82800160010185558215612995579182015b82811115612994578251825591602001919060010190612979565b5b5090506129a291906129a6565b5090565b5b808211156129bf5760008160009055506001016129a7565b5090565b6000604051905090565b600080fd5b600080fd5b600073ffffffffffffffffffffffffffffffffffffffff82169050919050565b6000612a02826129d7565b9050919050565b612a12816129f7565b8114612a1d57600080fd5b50565b600081359050612a2f81612a09565b92915050565b6000819050919050565b612a4881612a35565b8114612a5357600080fd5b50565b600081359050612a6581612a3f565b92915050565b60008060408385031215612a8257612a816129cd565b5b6000612a9085828601612a20565b9250506020612aa185828601612a56565b9150509250929050565b612ab481612a35565b82525050565b6000602082019050612acf6000830184612aab565b92915050565b60007fffffffff0000000000000000000000000000000000000000000000000000000082169050919050565b612b0a81612ad5565b8114612b1557600080fd5b50565b600081359050612b2781612b01565b92915050565b600060208284031215612b4357612b426129cd565b5b6000612b5184828501612b18565b91505092915050565b60008115159050919050565b612b6f81612b5a565b82525050565b6000602082019050612b8a6000830184612b66565b92915050565b600060208284031215612ba657612ba56129cd565b5b6000612bb484828501612a56565b91505092915050565b600081519050919050565b600082825260208201905092915050565b60005b83811015612bf7578082015181840152602081019050612bdc565b83811115612c06576000848401525b50505050565b6000601f19601f8301169050919050565b6000612c2882612bbd565b612c328185612bc8565b9350612c42818560208601612bd9565b612c4b81612c0c565b840191505092915050565b60006020820190508181036000830152612c708184612c1d565b905092915050565b600080fd5b600080fd5b7f4e487b7100000000000000000000000000000000000000000000000000000000600052604160045260246000fd5b612cba82612c0c565b810181811067ffffffffffffffff82111715612cd957612cd8612c82565b5b80604052505050565b6000612cec6129c3565b9050612cf88282612cb1565b919050565b600067ffffffffffffffff821115612d1857612d17612c82565b5b612d2182612c0c565b9050602081019050919050565b82818337600083830152505050565b6000612d50612d4b84612cfd565b612ce2565b905082815260208101848484011115612d6c57612d6b612c7d565b5b612d77848285612d2e565b509392505050565b600082601f830112612d9457612d93612c78565b5b8135612da4848260208601612d3d565b91505092915050565b600080600060608486031215612dc657612dc56129cd565b5b6000612dd486828701612a56565b9350506020612de586828701612a56565b925050604084013567ffffffffffffffff811115612e0657612e056129d2565b5b612e1286828701612d7f565b9150509250925092565b600067ffffffffffffffff821115612e3757612e36612c82565b5b602082029050602081019050919050565b600080fd5b6000612e60612e5b84612e1c565b612ce2565b90508083825260208201905060208402830185811115612e8357612e82612e48565b5b835b81811015612eac5780612e988882612a56565b845260208401935050602081019050612e85565b5050509392505050565b600082601f830112612ecb57612eca612c78565b5b8135612edb848260208601612e4d565b91505092915050565b600080600080600060a08688031215612f0057612eff6129cd565b5b6000612f0e88828901612a20565b9550506020612f1f88828901612a20565b945050604086013567ffffffffffffffff811115612f4057612f3f6129d2565b5b612f4c88828901612eb6565b935050606086013567ffffffffffffffff811115612f6d57612f6c6129d2565b5b612f7988828901612eb6565b925050608086013567ffffffffffffffff811115612f9a57612f996129d2565b5b612fa688828901612d7f565b9150509295509295909350565b600067ffffffffffffffff821115612fce57612fcd612c82565b5b602082029050602081019050919050565b6000612ff2612fed84612fb3565b612ce2565b9050808382526020820190506020840283018581111561301557613014612e48565b5b835b8181101561303e578061302a8882612a20565b845260208401935050602081019050613017565b5050509392505050565b600082601f83011261305d5761305c612c78565b5b813561306d848260208601612fdf565b91505092915050565b6000806040838503121561308d5761308c6129cd565b5b600083013567ffffffffffffffff8111156130ab576130aa6129d2565b5b6130b785828601613048565b925050602083013567ffffffffffffffff8111156130d8576130d76129d2565b5b6130e485828601612eb6565b9150509250929050565b600081519050919050565b600082825260208201905092915050565b6000819050602082019050919050565b61312381612a35565b82525050565b6000613135838361311a565b60208301905092915050565b6000602082019050919050565b6000613159826130ee565b61316381856130f9565b935061316e8361310a565b8060005b8381101561319f5781516131868882613129565b975061319183613141565b925050600181019050613172565b5085935050505092915050565b600060208201905081810360008301526131c6818461314e565b905092915050565b600060808201905081810360008301526131e88187612c1d565b90506131f76020830186612aab565b81810360408301526132098185612c1d565b90506132186060830184612aab565b95945050505050565b600067ffffffffffffffff82111561323c5761323b612c82565b5b61324582612c0c565b9050602081019050919050565b600061326561326084613221565b612ce2565b90508281526020810184848401111561328157613280612c7d565b5b61328c848285612d2e565b509392505050565b600082601f8301126132a9576132a8612c78565b5b81356132b9848260208601613252565b91505092915050565b60008060008060008060c087890312156132df576132de6129cd565b5b600087013567ffffffffffffffff8111156132fd576132fc6129d2565b5b61330989828a01613294565b965050602061331a89828a01612a56565b955050604061332b89828a01612a56565b945050606087013567ffffffffffffffff81111561334c5761334b6129d2565b5b61335889828a01613294565b935050608061336989828a01612a56565b92505060a087013567ffffffffffffffff81111561338a576133896129d2565b5b61339689828a01612d7f565b9150509295509295509295565b6000806000606084860312156133bc576133bb6129cd565b5b60006133ca86828701612a20565b935050602084013567ffffffffffffffff8111156133eb576133ea6129d2565b5b6133f786828701612eb6565b925050604084013567ffffffffffffffff811115613418576134176129d2565b5b61342486828701612eb6565b9150509250925092565b613437816129f7565b82525050565b6000602082019050613452600083018461342e565b92915050565b61346181612b5a565b811461346c57600080fd5b50565b60008135905061347e81613458565b92915050565b6000806040838503121561349b5761349a6129cd565b5b60006134a985828601612a20565b92505060206134ba8582860161346f565b9150509250929050565b600080604083850312156134db576134da6129cd565b5b60006134e985828601612a20565b92505060206134fa85828601612a20565b9150509250929050565b600080600080600060a086880312156135205761351f6129cd565b5b600061352e88828901612a20565b955050602061353f88828901612a20565b945050604061355088828901612a56565b935050606061356188828901612a56565b925050608086013567ffffffffffffffff811115613582576135816129d2565b5b61358e88828901612d7f565b9150509295509295909350565b6000602082840312156135b1576135b06129cd565b5b60006135bf84828501612a20565b91505092915050565b6000806000606084860312156135e1576135e06129cd565b5b60006135ef86828701612a20565b935050602061360086828701612a56565b925050604061361186828701612a56565b9150509250925092565b7f455243313135353a2062616c616e636520717565727920666f7220746865207a60008201527f65726f2061646472657373000000000000000000000000000000000000000000602082015250565b6000613677602b83612bc8565b91506136828261361b565b604082019050919050565b600060208201905081810360008301526136a68161366a565b9050919050565b7f4e487b7100000000000000000000000000000000000000000000000000000000600052602260045260246000fd5b600060028204905060018216806136f457607f821691505b60208210811415613708576137076136ad565b5b50919050565b7f416d6f756e74206d75737420626967676572207468616e203000000000000000600082015250565b6000613744601983612bc8565b915061374f8261370e565b602082019050919050565b6000602082019050818103600083015261377381613737565b9050919050565b7f4e6f7420656e6f756768207469636b6574730000000000000000000000000000600082015250565b60006137b0601283612bc8565b91506137bb8261377a565b602082019050919050565b600060208201905081810360008301526137df816137a3565b9050919050565b7f4d617820616d6d6f756e742070657220706572736f6e20726561636865640000600082015250565b600061381c601e83612bc8565b9150613827826137e6565b602082019050919050565b6000602082019050818103600083015261384b8161380f565b9050919050565b7f4e487b7100000000000000000000000000000000000000000000000000000000600052601160045260246000fd5b600061388c82612a35565b915061389783612a35565b9250817fffffffffffffffffffffffffffffffffffffffffffffffffffffffffffffffff04831182151516156138d0576138cf613852565b5b828202905092915050565b7f496e636f727265637420616d6f756e7400000000000000000000000000000000600082015250565b6000613911601083612bc8565b915061391c826138db565b602082019050919050565b6000602082019050818103600083015261394081613904565b9050919050565b7f5469636b657420646f6573206e6f742065786973740000000000000000000000600082015250565b600061397d601583612bc8565b915061398882613947565b602082019050919050565b600060208201905081810360008301526139ac81613970565b9050919050565b7f5061757361626c653a2070617573656400000000000000000000000000000000600082015250565b60006139e9601083612bc8565b91506139f4826139b3565b602082019050919050565b60006020820190508181036000830152613a18816139dc565b9050919050565b600081905092915050565b50565b6000613a3a600083613a1f565b9150613a4582613a2a565b600082019050919050565b6000613a5b82613a2d565b9150819050919050565b7f4661696c656420746f2073656e64204574686572000000000000000000000000600082015250565b6000613a9b601483612bc8565b9150613aa682613a65565b602082019050919050565b60006020820190508181036000830152613aca81613a8e565b9050919050565b7f455243313135353a207472616e736665722063616c6c6572206973206e6f742060008201527f6f776e6572206e6f7220617070726f7665640000000000000000000000000000602082015250565b6000613b2d603283612bc8565b9150613b3882613ad1565b604082019050919050565b60006020820190508181036000830152613b5c81613b20565b9050919050565b7f4f776e61626c653a2063616c6c6572206973206e6f7420746865206f776e6572600082015250565b6000613b99602083612bc8565b9150613ba482613b63565b602082019050919050565b60006020820190508181036000830152613bc881613b8c565b9050919050565b7f455243313135353a206163636f756e747320616e6420696473206c656e67746860008201527f206d69736d617463680000000000000000000000000000000000000000000000602082015250565b6000613c2b602983612bc8565b9150613c3682613bcf565b604082019050919050565b60006020820190508181036000830152613c5a81613c1e565b9050919050565b7f4e487b7100000000000000000000000000000000000000000000000000000000600052603260045260246000fd5b6000613c9b82612a35565b91507fffffffffffffffffffffffffffffffffffffffffffffffffffffffffffffffff821415613cce57613ccd613852565b5b600182019050919050565b600081905092915050565b6000613cef82612bbd565b613cf98185613cd9565b9350613d09818560208601612bd9565b80840191505092915050565b6000613d218284613ce4565b915081905092915050565b6000606082019050613d416000830186612aab565b613d4e6020830185612aab565b613d5b6040830184612aab565b949350505050565b7f455243313135353a2063616c6c6572206973206e6f74206f776e6572206e6f7260008201527f20617070726f7665640000000000000000000000000000000000000000000000602082015250565b6000613dbf602983612bc8565b9150613dca82613d63565b604082019050919050565b60006020820190508181036000830152613dee81613db2565b9050919050565b7f455243313135353a2073657474696e6720617070726f76616c2073746174757360008201527f20666f722073656c660000000000000000000000000000000000000000000000602082015250565b6000613e51602983612bc8565b9150613e5c82613df5565b604082019050919050565b60006020820190508181036000830152613e8081613e44565b9050919050565b7f4f776e61626c653a206e6577206f776e657220697320746865207a65726f206160008201527f6464726573730000000000000000000000000000000000000000000000000000602082015250565b6000613ee3602683612bc8565b9150613eee82613e87565b604082019050919050565b60006020820190508181036000830152613f1281613ed6565b9050919050565b7f455243313135353a207472616e7366657220746f20746865207a65726f20616460008201527f6472657373000000000000000000000000000000000000000000000000000000602082015250565b6000613f75602583612bc8565b9150613f8082613f19565b604082019050919050565b60006020820190508181036000830152613fa481613f68565b9050919050565b7f455243313135353a20696e73756666696369656e742062616c616e636520666f60008201527f72207472616e7366657200000000000000000000000000000000000000000000602082015250565b6000614007602a83612bc8565b915061401282613fab565b604082019050919050565b6000602082019050818103600083015261403681613ffa565b9050919050565b600061404882612a35565b915061405383612a35565b9250827fffffffffffffffffffffffffffffffffffffffffffffffffffffffffffffffff0382111561408857614087613852565b5b828201905092915050565b60006040820190506140a86000830185612aab565b6140b56020830184612aab565b9392505050565b7f455243313135353a2069647320616e6420616d6f756e7473206c656e6774682060008201527f6d69736d61746368000000000000000000000000000000000000000000000000602082015250565b6000614118602883612bc8565b9150614123826140bc565b604082019050919050565b600060208201905081810360008301526141478161410b565b9050919050565b60006040820190508181036000830152614168818561314e565b9050818103602083015261417c818461314e565b90509392505050565b7f5061757361626c653a206e6f7420706175736564000000000000000000000000600082015250565b60006141bb601483612bc8565b91506141c682614185565b602082019050919050565b600060208201905081810360008301526141ea816141ae565b9050919050565b7f455243313135353a206d696e7420746f20746865207a65726f2061646472657360008201527f7300000000000000000000000000000000000000000000000000000000000000602082015250565b600061424d602183612bc8565b9150614258826141f1565b604082019050919050565b6000602082019050818103600083015261427c81614240565b9050919050565b7f455243313135353a206275726e2066726f6d20746865207a65726f206164647260008201527f6573730000000000000000000000000000000000000000000000000000000000602082015250565b60006142df602383612bc8565b91506142ea82614283565b604082019050919050565b6000602082019050818103600083015261430e816142d2565b9050919050565b7f455243313135353a206275726e20616d6f756e7420657863656564732062616c60008201527f616e636500000000000000000000000000000000000000000000000000000000602082015250565b6000614371602483612bc8565b915061437c82614315565b604082019050919050565b600060208201905081810360008301526143a081614364565b9050919050565b600081519050919050565b600082825260208201905092915050565b60006143ce826143a7565b6143d881856143b2565b93506143e8818560208601612bd9565b6143f181612c0c565b840191505092915050565b600060a082019050614411600083018861342e565b61441e602083018761342e565b61442b6040830186612aab565b6144386060830185612aab565b818103608083015261444a81846143c3565b90509695505050505050565b60008151905061446581612b01565b92915050565b600060208284031215614481576144806129cd565b5b600061448f84828501614456565b91505092915050565b60008160e01c9050919050565b600060033d11156144c45760046000803e6144c1600051614498565b90505b90565b600060443d10156144d75761455a565b6144df6129c3565b60043d036004823e80513d602482011167ffffffffffffffff8211171561450757505061455a565b808201805167ffffffffffffffff811115614525575050505061455a565b80602083010160043d03850181111561454257505050505061455a565b61455182602001850186612cb1565b82955050505050505b90565b7f455243313135353a207472616e7366657220746f206e6f6e204552433131353560008201527f526563656976657220696d706c656d656e746572000000000000000000000000602082015250565b60006145b9603483612bc8565b91506145c48261455d565b604082019050919050565b600060208201905081810360008301526145e8816145ac565b9050919050565b7f455243313135353a204552433131353552656365697665722072656a6563746560008201527f6420746f6b656e73000000000000000000000000000000000000000000000000602082015250565b600061464b602883612bc8565b9150614656826145ef565b604082019050919050565b6000602082019050818103600083015261467a8161463e565b9050919050565b600060a082019050614696600083018861342e565b6146a3602083018761342e565b81810360408301526146b5818661314e565b905081810360608301526146c9818561314e565b905081810360808301526146dd81846143c3565b90509695505050505050565b7f455243313135355061757361626c653a20746f6b656e207472616e736665722060008201527f7768696c65207061757365640000000000000000000000000000000000000000602082015250565b6000614745602c83612bc8565b9150614750826146e9565b604082019050919050565b6000602082019050818103600083015261477481614738565b905091905056fea26469706673582212206f8d6f4004b3e397fd4063362f36259778adcc15159585af0d946bfc2092105564736f6c634300080a0033",
  "immutableReferences": {},
  "source": "// SPDX-License-Identifier: MIT\npragma solidity 0.8.10;\n\nimport \"@openzeppelin/contracts/token/ERC1155/ERC1155.sol\";\nimport \"@openzeppelin/contracts/access/Ownable.sol\";\nimport \"@openzeppelin/contracts/token/ERC1155/extensions/ERC1155Burnable.sol\";\nimport \"@openzeppelin/contracts/token/ERC1155/extensions/ERC1155Pausable.sol\";\nimport \"@openzeppelin/contracts/utils/Strings.sol\";\nimport \"@openzeppelin/contracts/utils/Counters.sol\";\n\n\n// import \"base64-sol/base64.sol\";\n\n/// @custom:security-contact @javierlinked\ncontract TicketContract is ERC1155, Ownable, ERC1155Pausable, ERC1155Burnable {\n    using Counters for Counters.Counter;\n    Counters.Counter private _tokenIdTracker;\n\n    struct Ticket {\n        string name;\n        uint price; // in gwei\n        string showTime;\n        uint maxSellPerPerson;\n    }\n\n    mapping(uint256 => Ticket) public tickets;\n\n    event TicketCreated(\n        uint256 indexed id,\n        address indexed minter,\n        string indexed name,\n        uint price,\n        uint amount,\n        uint maxSellPerPerson\n    );\n\n    event TicketSold(\n        uint256 indexed id,\n        address indexed from,\n        address indexed to,\n        uint amount\n    );\n\n    modifier paidEnough(uint amount, uint256 id) {\n        uint total = amount * tickets[id].price;\n        require(total <= msg.value, \"Incorrect amount\");\n        _;\n    }\n\n    modifier allowedSell(uint amount, uint256 id) {\n        require(amount > 0, \"Amount must bigger than 0\");\n        require(balanceOf(owner(), id) >= amount, \"Not enough tickets\");\n        require(\n            amount <= tickets[id].maxSellPerPerson,\n            \"Max ammount per person reached\"\n        );\n        _;\n    }\n\n    modifier validate(uint256 id) {\n        require(tickets[id].price != 0, \"Ticket does not exist\");\n        _;\n    }\n\n    constructor() ERC1155(\"\") {}\n\n    function create(\n        string memory name,\n        uint price,\n        uint amount,\n        string memory showTime,\n        uint maxSellPerPerson,\n        bytes memory data\n    ) public onlyOwner whenNotPaused returns (uint256) {\n        address owner = msg.sender;\n        _tokenIdTracker.increment();\n        Ticket memory newTicket = Ticket(name, price, showTime, maxSellPerPerson);\n        uint256 newId = _tokenIdTracker.current();\n        tickets[newId] = newTicket;\n        _mint(owner, newId, amount, data);\n        emit TicketCreated(newId, owner, name, price, amount, maxSellPerPerson);\n        newId;\n    }\n\n    function buy(\n        uint256 id,\n        uint amount,\n        bytes memory data\n    )\n        public\n        payable\n        allowedSell(amount, id)\n        paidEnough(amount, id)\n        validate(id)\n        whenNotPaused\n    {\n        address payable owner = payable(owner());\n        address buyer = msg.sender;\n        (bool sent, ) = owner.call{value: msg.value}(\"\");\n        require(sent, \"Failed to send Ether\");\n        _safeTransferFrom(owner, buyer, id, amount, data);\n        emit TicketSold(id, owner, buyer, amount);\n    }\n\n    function burn(\n        address account,\n        uint256 id,\n        uint amount\n    ) public override onlyOwner whenNotPaused {\n        _burn(account, id, amount);\n    }\n\n    /**\n     * @dev Pauses all token transfers.\n     *\n     * See {ERC1155Pausable} and {Pausable-_pause}.\n     *\n     * Requirements:\n     *\n     * - the caller must be owner.\n     */\n    function pause() public virtual onlyOwner {\n        _pause();\n    }\n\n    /**\n     * @dev Unpauses all token transfers.\n     *\n     * See {ERC1155Pausable} and {Pausable-_unpause}.\n     *\n     * Requirements:\n     *\n     * - the caller owner.\n     */\n    function unpause() public virtual onlyOwner {\n        _unpause();\n    }\n\n    function _beforeTokenTransfer(\n        address operator,\n        address from,\n        address to,\n        uint256[] memory ids,\n        uint256[] memory amounts,\n        bytes memory data\n    ) internal virtual override(ERC1155, ERC1155Pausable) {\n        super._beforeTokenTransfer(operator, from, to, ids, amounts, data);\n    }\n}\n",
  "sourcePath": "/Users/javier/dev/blockchain-developer-bootcamp-final-project/contracts/TicketContract.sol",
  "compiler": {
    "name": "solc",
    "version": "0.8.10+commit.fc410830.Emscripten.clang"
  },
  "schemaVersion": "3.4.3",
  "updatedAt": "2021-11-19T17:51:48.316Z",
  "devdoc": {
    "custom:security-contact": "@javierlinked",
    "kind": "dev",
    "methods": {
      "balanceOf(address,uint256)": {
        "details": "See {IERC1155-balanceOf}. Requirements: - `account` cannot be the zero address."
      },
      "balanceOfBatch(address[],uint256[])": {
        "details": "See {IERC1155-balanceOfBatch}. Requirements: - `accounts` and `ids` must have the same length."
      },
      "isApprovedForAll(address,address)": {
        "details": "See {IERC1155-isApprovedForAll}."
      },
      "owner()": {
        "details": "Returns the address of the current owner."
      },
      "pause()": {
        "details": "Pauses all token transfers. See {ERC1155Pausable} and {Pausable-_pause}. Requirements: - the caller must be owner."
      },
      "paused()": {
        "details": "Returns true if the contract is paused, and false otherwise."
      },
      "renounceOwnership()": {
        "details": "Leaves the contract without owner. It will not be possible to call `onlyOwner` functions anymore. Can only be called by the current owner. NOTE: Renouncing ownership will leave the contract without an owner, thereby removing any functionality that is only available to the owner."
      },
      "safeBatchTransferFrom(address,address,uint256[],uint256[],bytes)": {
        "details": "See {IERC1155-safeBatchTransferFrom}."
      },
      "safeTransferFrom(address,address,uint256,uint256,bytes)": {
        "details": "See {IERC1155-safeTransferFrom}."
      },
      "setApprovalForAll(address,bool)": {
        "details": "See {IERC1155-setApprovalForAll}."
      },
      "supportsInterface(bytes4)": {
        "details": "See {IERC165-supportsInterface}."
      },
      "transferOwnership(address)": {
        "details": "Transfers ownership of the contract to a new account (`newOwner`). Can only be called by the current owner."
      },
      "unpause()": {
        "details": "Unpauses all token transfers. See {ERC1155Pausable} and {Pausable-_unpause}. Requirements: - the caller owner."
      },
      "uri(uint256)": {
        "details": "See {IERC1155MetadataURI-uri}. This implementation returns the same URI for *all* token types. It relies on the token type ID substitution mechanism https://eips.ethereum.org/EIPS/eip-1155#metadata[defined in the EIP]. Clients calling this function must replace the `\\{id\\}` substring with the actual token type ID."
      }
    },
    "version": 1
  },
  "userdoc": {
    "kind": "user",
    "methods": {},
    "version": 1
  }
}