{
  "contractName": "TicketContract",
  "abi": [
    {
      "inputs": [],
      "stateMutability": "nonpayable",
      "type": "constructor"
    },
    {
      "anonymous": false,
      "inputs": [
        {
          "indexed": true,
          "internalType": "address",
          "name": "account",
          "type": "address"
        },
        {
          "indexed": true,
          "internalType": "address",
          "name": "operator",
          "type": "address"
        },
        {
          "indexed": false,
          "internalType": "bool",
          "name": "approved",
          "type": "bool"
        }
      ],
      "name": "ApprovalForAll",
      "type": "event"
    },
    {
      "anonymous": false,
      "inputs": [
        {
          "indexed": true,
          "internalType": "address",
          "name": "previousOwner",
          "type": "address"
        },
        {
          "indexed": true,
          "internalType": "address",
          "name": "newOwner",
          "type": "address"
        }
      ],
      "name": "OwnershipTransferred",
      "type": "event"
    },
    {
      "anonymous": false,
      "inputs": [
        {
          "indexed": false,
          "internalType": "address",
          "name": "account",
          "type": "address"
        }
      ],
      "name": "Paused",
      "type": "event"
    },
    {
      "anonymous": false,
      "inputs": [
        {
          "indexed": true,
          "internalType": "uint256",
          "name": "id",
          "type": "uint256"
        },
        {
          "indexed": true,
          "internalType": "address",
          "name": "minter",
          "type": "address"
        },
        {
          "indexed": true,
          "internalType": "string",
          "name": "name",
          "type": "string"
        },
        {
          "indexed": false,
          "internalType": "uint256",
          "name": "price",
          "type": "uint256"
        },
        {
          "indexed": false,
          "internalType": "uint256",
          "name": "amount",
          "type": "uint256"
        },
        {
          "indexed": false,
          "internalType": "uint256",
          "name": "maxSellPerPerson",
          "type": "uint256"
        }
      ],
      "name": "TicketCreated",
      "type": "event"
    },
    {
      "anonymous": false,
      "inputs": [
        {
          "indexed": true,
          "internalType": "uint256",
          "name": "id",
          "type": "uint256"
        },
        {
          "indexed": true,
          "internalType": "address",
          "name": "seller",
          "type": "address"
        },
        {
          "indexed": true,
          "internalType": "address",
          "name": "buyer",
          "type": "address"
        },
        {
          "indexed": false,
          "internalType": "uint256",
          "name": "amount",
          "type": "uint256"
        }
      ],
      "name": "TicketSold",
      "type": "event"
    },
    {
      "anonymous": false,
      "inputs": [
        {
          "indexed": true,
          "internalType": "address",
          "name": "operator",
          "type": "address"
        },
        {
          "indexed": true,
          "internalType": "address",
          "name": "from",
          "type": "address"
        },
        {
          "indexed": true,
          "internalType": "address",
          "name": "to",
          "type": "address"
        },
        {
          "indexed": false,
          "internalType": "uint256[]",
          "name": "ids",
          "type": "uint256[]"
        },
        {
          "indexed": false,
          "internalType": "uint256[]",
          "name": "values",
          "type": "uint256[]"
        }
      ],
      "name": "TransferBatch",
      "type": "event"
    },
    {
      "anonymous": false,
      "inputs": [
        {
          "indexed": true,
          "internalType": "address",
          "name": "operator",
          "type": "address"
        },
        {
          "indexed": true,
          "internalType": "address",
          "name": "from",
          "type": "address"
        },
        {
          "indexed": true,
          "internalType": "address",
          "name": "to",
          "type": "address"
        },
        {
          "indexed": false,
          "internalType": "uint256",
          "name": "id",
          "type": "uint256"
        },
        {
          "indexed": false,
          "internalType": "uint256",
          "name": "value",
          "type": "uint256"
        }
      ],
      "name": "TransferSingle",
      "type": "event"
    },
    {
      "anonymous": false,
      "inputs": [
        {
          "indexed": false,
          "internalType": "string",
          "name": "value",
          "type": "string"
        },
        {
          "indexed": true,
          "internalType": "uint256",
          "name": "id",
          "type": "uint256"
        }
      ],
      "name": "URI",
      "type": "event"
    },
    {
      "anonymous": false,
      "inputs": [
        {
          "indexed": false,
          "internalType": "address",
          "name": "account",
          "type": "address"
        }
      ],
      "name": "Unpaused",
      "type": "event"
    },
    {
      "inputs": [
        {
          "internalType": "address",
          "name": "account",
          "type": "address"
        },
        {
          "internalType": "uint256",
          "name": "id",
          "type": "uint256"
        }
      ],
      "name": "balanceOf",
      "outputs": [
        {
          "internalType": "uint256",
          "name": "",
          "type": "uint256"
        }
      ],
      "stateMutability": "view",
      "type": "function",
      "constant": true
    },
    {
      "inputs": [
        {
          "internalType": "address[]",
          "name": "accounts",
          "type": "address[]"
        },
        {
          "internalType": "uint256[]",
          "name": "ids",
          "type": "uint256[]"
        }
      ],
      "name": "balanceOfBatch",
      "outputs": [
        {
          "internalType": "uint256[]",
          "name": "",
          "type": "uint256[]"
        }
      ],
      "stateMutability": "view",
      "type": "function",
      "constant": true
    },
    {
      "inputs": [
        {
          "internalType": "address",
          "name": "account",
          "type": "address"
        },
        {
          "internalType": "uint256[]",
          "name": "ids",
          "type": "uint256[]"
        },
        {
          "internalType": "uint256[]",
          "name": "values",
          "type": "uint256[]"
        }
      ],
      "name": "burnBatch",
      "outputs": [],
      "stateMutability": "nonpayable",
      "type": "function"
    },
    {
      "inputs": [
        {
          "internalType": "address",
          "name": "account",
          "type": "address"
        },
        {
          "internalType": "address",
          "name": "operator",
          "type": "address"
        }
      ],
      "name": "isApprovedForAll",
      "outputs": [
        {
          "internalType": "bool",
          "name": "",
          "type": "bool"
        }
      ],
      "stateMutability": "view",
      "type": "function",
      "constant": true
    },
    {
      "inputs": [],
      "name": "nonce",
      "outputs": [
        {
          "internalType": "uint256",
          "name": "",
          "type": "uint256"
        }
      ],
      "stateMutability": "view",
      "type": "function",
      "constant": true
    },
    {
      "inputs": [],
      "name": "owner",
      "outputs": [
        {
          "internalType": "address",
          "name": "",
          "type": "address"
        }
      ],
      "stateMutability": "view",
      "type": "function",
      "constant": true
    },
    {
      "inputs": [],
      "name": "paused",
      "outputs": [
        {
          "internalType": "bool",
          "name": "",
          "type": "bool"
        }
      ],
      "stateMutability": "view",
      "type": "function",
      "constant": true
    },
    {
      "inputs": [],
      "name": "renounceOwnership",
      "outputs": [],
      "stateMutability": "nonpayable",
      "type": "function"
    },
    {
      "inputs": [
        {
          "internalType": "address",
          "name": "from",
          "type": "address"
        },
        {
          "internalType": "address",
          "name": "to",
          "type": "address"
        },
        {
          "internalType": "uint256[]",
          "name": "ids",
          "type": "uint256[]"
        },
        {
          "internalType": "uint256[]",
          "name": "amounts",
          "type": "uint256[]"
        },
        {
          "internalType": "bytes",
          "name": "data",
          "type": "bytes"
        }
      ],
      "name": "safeBatchTransferFrom",
      "outputs": [],
      "stateMutability": "nonpayable",
      "type": "function"
    },
    {
      "inputs": [
        {
          "internalType": "address",
          "name": "from",
          "type": "address"
        },
        {
          "internalType": "address",
          "name": "to",
          "type": "address"
        },
        {
          "internalType": "uint256",
          "name": "id",
          "type": "uint256"
        },
        {
          "internalType": "uint256",
          "name": "amount",
          "type": "uint256"
        },
        {
          "internalType": "bytes",
          "name": "data",
          "type": "bytes"
        }
      ],
      "name": "safeTransferFrom",
      "outputs": [],
      "stateMutability": "nonpayable",
      "type": "function"
    },
    {
      "inputs": [
        {
          "internalType": "address",
          "name": "operator",
          "type": "address"
        },
        {
          "internalType": "bool",
          "name": "approved",
          "type": "bool"
        }
      ],
      "name": "setApprovalForAll",
      "outputs": [],
      "stateMutability": "nonpayable",
      "type": "function"
    },
    {
      "inputs": [
        {
          "internalType": "bytes4",
          "name": "interfaceId",
          "type": "bytes4"
        }
      ],
      "name": "supportsInterface",
      "outputs": [
        {
          "internalType": "bool",
          "name": "",
          "type": "bool"
        }
      ],
      "stateMutability": "view",
      "type": "function",
      "constant": true
    },
    {
      "inputs": [
        {
          "internalType": "uint256",
          "name": "",
          "type": "uint256"
        }
      ],
      "name": "tickets",
      "outputs": [
        {
          "internalType": "uint256",
          "name": "id",
          "type": "uint256"
        },
        {
          "internalType": "string",
          "name": "name",
          "type": "string"
        },
        {
          "internalType": "uint256",
          "name": "price",
          "type": "uint256"
        },
        {
          "internalType": "string",
          "name": "showTime",
          "type": "string"
        },
        {
          "internalType": "uint256",
          "name": "maxSellPerPerson",
          "type": "uint256"
        }
      ],
      "stateMutability": "view",
      "type": "function",
      "constant": true
    },
    {
      "inputs": [
        {
          "internalType": "uint256",
          "name": "",
          "type": "uint256"
        }
      ],
      "name": "tokenIds",
      "outputs": [
        {
          "internalType": "uint256",
          "name": "",
          "type": "uint256"
        }
      ],
      "stateMutability": "view",
      "type": "function",
      "constant": true
    },
    {
      "inputs": [
        {
          "internalType": "address",
          "name": "newOwner",
          "type": "address"
        }
      ],
      "name": "transferOwnership",
      "outputs": [],
      "stateMutability": "nonpayable",
      "type": "function"
    },
    {
      "inputs": [
        {
          "internalType": "uint256",
          "name": "",
          "type": "uint256"
        }
      ],
      "name": "uri",
      "outputs": [
        {
          "internalType": "string",
          "name": "",
          "type": "string"
        }
      ],
      "stateMutability": "view",
      "type": "function",
      "constant": true
    },
    {
      "inputs": [
        {
          "internalType": "string",
          "name": "name",
          "type": "string"
        },
        {
          "internalType": "uint256",
          "name": "price",
          "type": "uint256"
        },
        {
          "internalType": "uint256",
          "name": "amount",
          "type": "uint256"
        },
        {
          "internalType": "string",
          "name": "showTime",
          "type": "string"
        },
        {
          "internalType": "uint256",
          "name": "maxSellPerPerson",
          "type": "uint256"
        },
        {
          "internalType": "bytes",
          "name": "data",
          "type": "bytes"
        }
      ],
      "name": "create",
      "outputs": [],
      "stateMutability": "nonpayable",
      "type": "function"
    },
    {
      "inputs": [
        {
          "internalType": "uint256",
          "name": "id",
          "type": "uint256"
        },
        {
          "internalType": "uint256",
          "name": "amount",
          "type": "uint256"
        },
        {
          "internalType": "bytes",
          "name": "data",
          "type": "bytes"
        }
      ],
      "name": "buy",
      "outputs": [],
      "stateMutability": "payable",
      "type": "function",
      "payable": true
    },
    {
      "inputs": [
        {
          "internalType": "address",
          "name": "account",
          "type": "address"
        },
        {
          "internalType": "uint256",
          "name": "id",
          "type": "uint256"
        },
        {
          "internalType": "uint256",
          "name": "amount",
          "type": "uint256"
        }
      ],
      "name": "burn",
      "outputs": [],
      "stateMutability": "nonpayable",
      "type": "function"
    },
    {
      "inputs": [],
      "name": "pause",
      "outputs": [],
      "stateMutability": "nonpayable",
      "type": "function"
    },
    {
      "inputs": [],
      "name": "unpause",
      "outputs": [],
      "stateMutability": "nonpayable",
      "type": "function"
    }
  ],
  "bytecode": "0x60806040523480156200001157600080fd5b506040518060200160405280600081525062000033816200007d60201b60201c565b5062000054620000486200009960201b60201c565b620000a160201b60201c565b6000600360146101000a81548160ff02191690831515021790555060006004819055506200027c565b80600290805190602001906200009592919062000167565b5050565b600033905090565b6000600360009054906101000a900473ffffffffffffffffffffffffffffffffffffffff16905081600360006101000a81548173ffffffffffffffffffffffffffffffffffffffff021916908373ffffffffffffffffffffffffffffffffffffffff1602179055508173ffffffffffffffffffffffffffffffffffffffff168173ffffffffffffffffffffffffffffffffffffffff167f8be0079c531659141344cd1fd0a4f28419497f9722a3daafe3b4186f6b6457e060405160405180910390a35050565b828054620001759062000246565b90600052602060002090601f016020900481019282620001995760008555620001e5565b82601f10620001b457805160ff1916838001178555620001e5565b82800160010185558215620001e5579182015b82811115620001e4578251825591602001919060010190620001c7565b5b509050620001f49190620001f8565b5090565b5b8082111562000213576000816000905550600101620001f9565b5090565b7f4e487b7100000000000000000000000000000000000000000000000000000000600052602260045260246000fd5b600060028204905060018216806200025f57607f821691505b6020821081141562000276576200027562000217565b5b50919050565b6147ef806200028c6000396000f3fe6080604052600436106101295760003560e01c80636b20c454116100ab578063affed0e01161006f578063affed0e0146103be578063d58778d6146103e9578063e985e9c514610426578063f242432a14610463578063f2fde38b1461048c578063f5298aca146104b557610129565b80636b20c45414610313578063715018a61461033c5780638456cb59146103535780638da5cb5b1461036a578063a22cb4651461039557610129565b80633f4ba83a116100f25780633f4ba83a1461022a5780634e1273f41461024157806350b447121461027e5780635c975abb146102bf578063626183ec146102ea57610129565b8062fdd58e1461012e57806301ffc9a71461016b5780630e89341c146101a85780631efd73a5146101e55780632eb2c2d614610201575b600080fd5b34801561013a57600080fd5b5061015560048036038101906101509190612a9b565b6104de565b6040516101629190612aea565b60405180910390f35b34801561017757600080fd5b50610192600480360381019061018d9190612b5d565b6105a7565b60405161019f9190612ba5565b60405180910390f35b3480156101b457600080fd5b506101cf60048036038101906101ca9190612bc0565b610689565b6040516101dc9190612c86565b60405180910390f35b6101ff60048036038101906101fa9190612ddd565b61071d565b005b34801561020d57600080fd5b5061022860048036038101906102239190612f14565b610a59565b005b34801561023657600080fd5b5061023f610afa565b005b34801561024d57600080fd5b50610268600480360381019061026391906130a6565b610b80565b60405161027591906131dc565b60405180910390f35b34801561028a57600080fd5b506102a560048036038101906102a09190612bc0565b610c99565b6040516102b69594939291906131fe565b60405180910390f35b3480156102cb57600080fd5b506102d4610ddf565b6040516102e19190612ba5565b60405180910390f35b3480156102f657600080fd5b50610311600480360381019061030c9190613300565b610df6565b005b34801561031f57600080fd5b5061033a600480360381019061033591906133e1565b61101b565b005b34801561034857600080fd5b506103516110b8565b005b34801561035f57600080fd5b50610368611140565b005b34801561037657600080fd5b5061037f6111c6565b60405161038c919061347b565b60405180910390f35b3480156103a157600080fd5b506103bc60048036038101906103b791906134c2565b6111f0565b005b3480156103ca57600080fd5b506103d3611371565b6040516103e09190612aea565b60405180910390f35b3480156103f557600080fd5b50610410600480360381019061040b9190612bc0565b611377565b60405161041d9190612aea565b60405180910390f35b34801561043257600080fd5b5061044d60048036038101906104489190613502565b61139b565b60405161045a9190612ba5565b60405180910390f35b34801561046f57600080fd5b5061048a60048036038101906104859190613542565b61142f565b005b34801561049857600080fd5b506104b360048036038101906104ae91906135d9565b6114d0565b005b3480156104c157600080fd5b506104dc60048036038101906104d79190613606565b6115c8565b005b60008073ffffffffffffffffffffffffffffffffffffffff168373ffffffffffffffffffffffffffffffffffffffff16141561054f576040517f08c379a0000000000000000000000000000000000000000000000000000000008152600401610546906136cb565b60405180910390fd5b60008083815260200190815260200160002060008473ffffffffffffffffffffffffffffffffffffffff1673ffffffffffffffffffffffffffffffffffffffff16815260200190815260200160002054905092915050565b60007fd9b67a26000000000000000000000000000000000000000000000000000000007bffffffffffffffffffffffffffffffffffffffffffffffffffffffff1916827bffffffffffffffffffffffffffffffffffffffffffffffffffffffff1916148061067257507f0e89341c000000000000000000000000000000000000000000000000000000007bffffffffffffffffffffffffffffffffffffffffffffffffffffffff1916827bffffffffffffffffffffffffffffffffffffffffffffffffffffffff1916145b80610682575061068182611620565b5b9050919050565b6060600280546106989061371a565b80601f01602080910402602001604051908101604052809291908181526020018280546106c49061371a565b80156107115780601f106106e657610100808354040283529160200191610711565b820191906000526020600020905b8154815290600101906020018083116106f457829003601f168201915b50505050509050919050565b818360008211610762576040517f08c379a000000000000000000000000000000000000000000000000000000000815260040161075990613798565b60405180910390fd5b8161077461076e6111c6565b836104de565b10156107b5576040517f08c379a00000000000000000000000000000000000000000000000000000000081526004016107ac90613804565b60405180910390fd5b600660008281526020019081526020016000206004015482111561080e576040517f08c379a000000000000000000000000000000000000000000000000000000000815260040161080590613870565b60405180910390fd5b8385600060066000838152602001908152602001600020600201548361083491906138bf565b9050348114610878576040517f08c379a000000000000000000000000000000000000000000000000000000000815260040161086f90613965565b60405180910390fd5b876000600660008381526020019081526020016000206002015414156108d3576040517f08c379a00000000000000000000000000000000000000000000000000000000081526004016108ca906139d1565b60405180910390fd5b6108db610ddf565b1561091b576040517f08c379a000000000000000000000000000000000000000000000000000000000815260040161091290613a3d565b60405180910390fd5b60006109256111c6565b9050600033905060008273ffffffffffffffffffffffffffffffffffffffff163460405161095290613a8e565b60006040518083038185875af1925050503d806000811461098f576040519150601f19603f3d011682016040523d82523d6000602084013e610994565b606091505b50509050806109d8576040517f08c379a00000000000000000000000000000000000000000000000000000000081526004016109cf90613aef565b60405180910390fd5b6109e583838e8e8e61168a565b8173ffffffffffffffffffffffffffffffffffffffff168373ffffffffffffffffffffffffffffffffffffffff168d7f2bbc64d6afd28a753f6c5e4aaa894f1d684c44a0e080167eae104ac8505cfebd8e604051610a439190612aea565b60405180910390a4505050505050505050505050565b610a6161190c565b73ffffffffffffffffffffffffffffffffffffffff168573ffffffffffffffffffffffffffffffffffffffff161480610aa75750610aa685610aa161190c565b61139b565b5b610ae6576040517f08c379a0000000000000000000000000000000000000000000000000000000008152600401610add90613b81565b60405180910390fd5b610af38585858585611914565b5050505050565b610b0261190c565b73ffffffffffffffffffffffffffffffffffffffff16610b206111c6565b73ffffffffffffffffffffffffffffffffffffffff1614610b76576040517f08c379a0000000000000000000000000000000000000000000000000000000008152600401610b6d90613bed565b60405180910390fd5b610b7e611c28565b565b60608151835114610bc6576040517f08c379a0000000000000000000000000000000000000000000000000000000008152600401610bbd90613c7f565b60405180910390fd5b6000835167ffffffffffffffff811115610be357610be2612cb2565b5b604051908082528060200260200182016040528015610c115781602001602082028036833780820191505090505b50905060005b8451811015610c8e57610c5e858281518110610c3657610c35613c9f565b5b6020026020010151858381518110610c5157610c50613c9f565b5b60200260200101516104de565b828281518110610c7157610c70613c9f565b5b60200260200101818152505080610c8790613cce565b9050610c17565b508091505092915050565b6006602052806000526040600020600091509050806000015490806001018054610cc29061371a565b80601f0160208091040260200160405190810160405280929190818152602001828054610cee9061371a565b8015610d3b5780601f10610d1057610100808354040283529160200191610d3b565b820191906000526020600020905b815481529060010190602001808311610d1e57829003601f168201915b505050505090806002015490806003018054610d569061371a565b80601f0160208091040260200160405190810160405280929190818152602001828054610d829061371a565b8015610dcf5780601f10610da457610100808354040283529160200191610dcf565b820191906000526020600020905b815481529060010190602001808311610db257829003601f168201915b5050505050908060040154905085565b6000600360149054906101000a900460ff16905090565b610dfe61190c565b73ffffffffffffffffffffffffffffffffffffffff16610e1c6111c6565b73ffffffffffffffffffffffffffffffffffffffff1614610e72576040517f08c379a0000000000000000000000000000000000000000000000000000000008152600401610e6990613bed565b60405180910390fd5b610e7a610ddf565b15610eba576040517f08c379a0000000000000000000000000000000000000000000000000000000008152600401610eb190613a3d565b60405180910390fd5b60003390506000600460008154610ed090613cce565b919050819055905060006040518060a001604052808381526020018a81526020018981526020018781526020018681525090508060066000848152602001908152602001600020600082015181600001556020820151816001019080519060200190610f3d929190612950565b50604082015181600201556060820151816003019080519060200190610f64929190612950565b50608082015181600401559050506005829080600181540180825580915050600190039060005260206000200160009091909190915055610fa783838987611cca565b88604051610fb59190613d53565b60405180910390208373ffffffffffffffffffffffffffffffffffffffff16837f9d783e202083d1fb37ad562ef4e7776ae35886aa85bb86b72e48e66f58f03f4d8b8b8a60405161100893929190613d6a565b60405180910390a4505050505050505050565b61102361190c565b73ffffffffffffffffffffffffffffffffffffffff168373ffffffffffffffffffffffffffffffffffffffff16148061106957506110688361106361190c565b61139b565b5b6110a8576040517f08c379a000000000000000000000000000000000000000000000000000000000815260040161109f90613e13565b60405180910390fd5b6110b3838383611e60565b505050565b6110c061190c565b73ffffffffffffffffffffffffffffffffffffffff166110de6111c6565b73ffffffffffffffffffffffffffffffffffffffff1614611134576040517f08c379a000000000000000000000000000000000000000000000000000000000815260040161112b90613bed565b60405180910390fd5b61113e6000612111565b565b61114861190c565b73ffffffffffffffffffffffffffffffffffffffff166111666111c6565b73ffffffffffffffffffffffffffffffffffffffff16146111bc576040517f08c379a00000000000000000000000000000000000000000000000000000000081526004016111b390613bed565b60405180910390fd5b6111c46121d7565b565b6000600360009054906101000a900473ffffffffffffffffffffffffffffffffffffffff16905090565b8173ffffffffffffffffffffffffffffffffffffffff1661120f61190c565b73ffffffffffffffffffffffffffffffffffffffff161415611266576040517f08c379a000000000000000000000000000000000000000000000000000000000815260040161125d90613ea5565b60405180910390fd5b806001600061127361190c565b73ffffffffffffffffffffffffffffffffffffffff1673ffffffffffffffffffffffffffffffffffffffff16815260200190815260200160002060008473ffffffffffffffffffffffffffffffffffffffff1673ffffffffffffffffffffffffffffffffffffffff16815260200190815260200160002060006101000a81548160ff0219169083151502179055508173ffffffffffffffffffffffffffffffffffffffff1661132061190c565b73ffffffffffffffffffffffffffffffffffffffff167f17307eab39ab6107e8899845ad3d59bd9653f200f220920489ca2b5937696c31836040516113659190612ba5565b60405180910390a35050565b60045481565b6005818154811061138757600080fd5b906000526020600020016000915090505481565b6000600160008473ffffffffffffffffffffffffffffffffffffffff1673ffffffffffffffffffffffffffffffffffffffff16815260200190815260200160002060008373ffffffffffffffffffffffffffffffffffffffff1673ffffffffffffffffffffffffffffffffffffffff16815260200190815260200160002060009054906101000a900460ff16905092915050565b61143761190c565b73ffffffffffffffffffffffffffffffffffffffff168573ffffffffffffffffffffffffffffffffffffffff16148061147d575061147c8561147761190c565b61139b565b5b6114bc576040517f08c379a00000000000000000000000000000000000000000000000000000000081526004016114b390613e13565b60405180910390fd5b6114c9858585858561168a565b5050505050565b6114d861190c565b73ffffffffffffffffffffffffffffffffffffffff166114f66111c6565b73ffffffffffffffffffffffffffffffffffffffff161461154c576040517f08c379a000000000000000000000000000000000000000000000000000000000815260040161154390613bed565b60405180910390fd5b600073ffffffffffffffffffffffffffffffffffffffff168173ffffffffffffffffffffffffffffffffffffffff1614156115bc576040517f08c379a00000000000000000000000000000000000000000000000000000000081526004016115b390613f37565b60405180910390fd5b6115c581612111565b50565b6115d0610ddf565b15611610576040517f08c379a000000000000000000000000000000000000000000000000000000000815260040161160790613a3d565b60405180910390fd5b61161b83838361227a565b505050565b60007f01ffc9a7000000000000000000000000000000000000000000000000000000007bffffffffffffffffffffffffffffffffffffffffffffffffffffffff1916827bffffffffffffffffffffffffffffffffffffffffffffffffffffffff1916149050919050565b600073ffffffffffffffffffffffffffffffffffffffff168473ffffffffffffffffffffffffffffffffffffffff1614156116fa576040517f08c379a00000000000000000000000000000000000000000000000000000000081526004016116f190613fc9565b60405180910390fd5b600061170461190c565b905061172481878761171588612497565b61171e88612497565b87612511565b600080600086815260200190815260200160002060008873ffffffffffffffffffffffffffffffffffffffff1673ffffffffffffffffffffffffffffffffffffffff168152602001908152602001600020549050838110156117bb576040517f08c379a00000000000000000000000000000000000000000000000000000000081526004016117b29061405b565b60405180910390fd5b83810360008087815260200190815260200160002060008973ffffffffffffffffffffffffffffffffffffffff1673ffffffffffffffffffffffffffffffffffffffff168152602001908152602001600020819055508360008087815260200190815260200160002060008873ffffffffffffffffffffffffffffffffffffffff1673ffffffffffffffffffffffffffffffffffffffff1681526020019081526020016000206000828254611870919061407b565b925050819055508573ffffffffffffffffffffffffffffffffffffffff168773ffffffffffffffffffffffffffffffffffffffff168373ffffffffffffffffffffffffffffffffffffffff167fc3d58168c5ae7397731d063d5bbf3d657854427343f4c083240f7aacaa2d0f6288886040516118ed9291906140d1565b60405180910390a4611903828888888888612527565b50505050505050565b600033905090565b8151835114611958576040517f08c379a000000000000000000000000000000000000000000000000000000000815260040161194f9061416c565b60405180910390fd5b600073ffffffffffffffffffffffffffffffffffffffff168473ffffffffffffffffffffffffffffffffffffffff1614156119c8576040517f08c379a00000000000000000000000000000000000000000000000000000000081526004016119bf90613fc9565b60405180910390fd5b60006119d261190c565b90506119e2818787878787612511565b60005b8451811015611b93576000858281518110611a0357611a02613c9f565b5b602002602001015190506000858381518110611a2257611a21613c9f565b5b60200260200101519050600080600084815260200190815260200160002060008b73ffffffffffffffffffffffffffffffffffffffff1673ffffffffffffffffffffffffffffffffffffffff16815260200190815260200160002054905081811015611ac3576040517f08c379a0000000000000000000000000000000000000000000000000000000008152600401611aba9061405b565b60405180910390fd5b81810360008085815260200190815260200160002060008c73ffffffffffffffffffffffffffffffffffffffff1673ffffffffffffffffffffffffffffffffffffffff168152602001908152602001600020819055508160008085815260200190815260200160002060008b73ffffffffffffffffffffffffffffffffffffffff1673ffffffffffffffffffffffffffffffffffffffff1681526020019081526020016000206000828254611b78919061407b565b9250508190555050505080611b8c90613cce565b90506119e5565b508473ffffffffffffffffffffffffffffffffffffffff168673ffffffffffffffffffffffffffffffffffffffff168273ffffffffffffffffffffffffffffffffffffffff167f4a39dc06d4c0dbc64b70af90fd698a233a518aa5d07e595d983b8c0526c8f7fb8787604051611c0a92919061418c565b60405180910390a4611c208187878787876126ff565b505050505050565b611c30610ddf565b611c6f576040517f08c379a0000000000000000000000000000000000000000000000000000000008152600401611c669061420f565b60405180910390fd5b6000600360146101000a81548160ff0219169083151502179055507f5db9ee0a495bf2e6ff9c91a7834c1ba4fdd244a5e8aa4e537bd38aeae4b073aa611cb361190c565b604051611cc0919061347b565b60405180910390a1565b600073ffffffffffffffffffffffffffffffffffffffff168473ffffffffffffffffffffffffffffffffffffffff161415611d3a576040517f08c379a0000000000000000000000000000000000000000000000000000000008152600401611d31906142a1565b60405180910390fd5b6000611d4461190c565b9050611d6581600087611d5688612497565b611d5f88612497565b87612511565b8260008086815260200190815260200160002060008773ffffffffffffffffffffffffffffffffffffffff1673ffffffffffffffffffffffffffffffffffffffff1681526020019081526020016000206000828254611dc4919061407b565b925050819055508473ffffffffffffffffffffffffffffffffffffffff16600073ffffffffffffffffffffffffffffffffffffffff168273ffffffffffffffffffffffffffffffffffffffff167fc3d58168c5ae7397731d063d5bbf3d657854427343f4c083240f7aacaa2d0f628787604051611e429291906140d1565b60405180910390a4611e5981600087878787612527565b5050505050565b600073ffffffffffffffffffffffffffffffffffffffff168373ffffffffffffffffffffffffffffffffffffffff161415611ed0576040517f08c379a0000000000000000000000000000000000000000000000000000000008152600401611ec790614333565b60405180910390fd5b8051825114611f14576040517f08c379a0000000000000000000000000000000000000000000000000000000008152600401611f0b9061416c565b60405180910390fd5b6000611f1e61190c565b9050611f3e81856000868660405180602001604052806000815250612511565b60005b835181101561208b576000848281518110611f5f57611f5e613c9f565b5b602002602001015190506000848381518110611f7e57611f7d613c9f565b5b60200260200101519050600080600084815260200190815260200160002060008973ffffffffffffffffffffffffffffffffffffffff1673ffffffffffffffffffffffffffffffffffffffff1681526020019081526020016000205490508181101561201f576040517f08c379a0000000000000000000000000000000000000000000000000000000008152600401612016906143c5565b60405180910390fd5b81810360008085815260200190815260200160002060008a73ffffffffffffffffffffffffffffffffffffffff1673ffffffffffffffffffffffffffffffffffffffff16815260200190815260200160002081905550505050808061208390613cce565b915050611f41565b50600073ffffffffffffffffffffffffffffffffffffffff168473ffffffffffffffffffffffffffffffffffffffff168273ffffffffffffffffffffffffffffffffffffffff167f4a39dc06d4c0dbc64b70af90fd698a233a518aa5d07e595d983b8c0526c8f7fb868660405161210392919061418c565b60405180910390a450505050565b6000600360009054906101000a900473ffffffffffffffffffffffffffffffffffffffff16905081600360006101000a81548173ffffffffffffffffffffffffffffffffffffffff021916908373ffffffffffffffffffffffffffffffffffffffff1602179055508173ffffffffffffffffffffffffffffffffffffffff168173ffffffffffffffffffffffffffffffffffffffff167f8be0079c531659141344cd1fd0a4f28419497f9722a3daafe3b4186f6b6457e060405160405180910390a35050565b6121df610ddf565b1561221f576040517f08c379a000000000000000000000000000000000000000000000000000000000815260040161221690613a3d565b60405180910390fd5b6001600360146101000a81548160ff0219169083151502179055507f62e78cea01bee320cd4e420270b5ea74000d11b0c9f74754ebdbfc544b05a25861226361190c565b604051612270919061347b565b60405180910390a1565b600073ffffffffffffffffffffffffffffffffffffffff168373ffffffffffffffffffffffffffffffffffffffff1614156122ea576040517f08c379a00000000000000000000000000000000000000000000000000000000081526004016122e190614333565b60405180910390fd5b60006122f461190c565b90506123248185600061230687612497565b61230f87612497565b60405180602001604052806000815250612511565b600080600085815260200190815260200160002060008673ffffffffffffffffffffffffffffffffffffffff1673ffffffffffffffffffffffffffffffffffffffff168152602001908152602001600020549050828110156123bb576040517f08c379a00000000000000000000000000000000000000000000000000000000081526004016123b2906143c5565b60405180910390fd5b82810360008086815260200190815260200160002060008773ffffffffffffffffffffffffffffffffffffffff1673ffffffffffffffffffffffffffffffffffffffff16815260200190815260200160002081905550600073ffffffffffffffffffffffffffffffffffffffff168573ffffffffffffffffffffffffffffffffffffffff168373ffffffffffffffffffffffffffffffffffffffff167fc3d58168c5ae7397731d063d5bbf3d657854427343f4c083240f7aacaa2d0f6287876040516124889291906140d1565b60405180910390a45050505050565b60606000600167ffffffffffffffff8111156124b6576124b5612cb2565b5b6040519080825280602002602001820160405280156124e45781602001602082028036833780820191505090505b50905082816000815181106124fc576124fb613c9f565b5b60200260200101818152505080915050919050565b61251f8686868686866128d7565b505050505050565b6125468473ffffffffffffffffffffffffffffffffffffffff16612935565b156126f7578373ffffffffffffffffffffffffffffffffffffffff1663f23a6e6187878686866040518663ffffffff1660e01b815260040161258c95949392919061443a565b6020604051808303816000875af19250505080156125c857506040513d601f19601f820116820180604052508101906125c591906144a9565b60015b61266e576125d46144e3565b806308c379a0141561263157506125e9614505565b806125f45750612633565b806040517f08c379a00000000000000000000000000000000000000000000000000000000081526004016126289190612c86565b60405180910390fd5b505b6040517f08c379a00000000000000000000000000000000000000000000000000000000081526004016126659061460d565b60405180910390fd5b63f23a6e6160e01b7bffffffffffffffffffffffffffffffffffffffffffffffffffffffff1916817bffffffffffffffffffffffffffffffffffffffffffffffffffffffff1916146126f5576040517f08c379a00000000000000000000000000000000000000000000000000000000081526004016126ec9061469f565b60405180910390fd5b505b505050505050565b61271e8473ffffffffffffffffffffffffffffffffffffffff16612935565b156128cf578373ffffffffffffffffffffffffffffffffffffffff1663bc197c8187878686866040518663ffffffff1660e01b81526004016127649594939291906146bf565b6020604051808303816000875af19250505080156127a057506040513d601f19601f8201168201806040525081019061279d91906144a9565b60015b612846576127ac6144e3565b806308c379a0141561280957506127c1614505565b806127cc575061280b565b806040517f08c379a00000000000000000000000000000000000000000000000000000000081526004016128009190612c86565b60405180910390fd5b505b6040517f08c379a000000000000000000000000000000000000000000000000000000000815260040161283d9061460d565b60405180910390fd5b63bc197c8160e01b7bffffffffffffffffffffffffffffffffffffffffffffffffffffffff1916817bffffffffffffffffffffffffffffffffffffffffffffffffffffffff1916146128cd576040517f08c379a00000000000000000000000000000000000000000000000000000000081526004016128c49061469f565b60405180910390fd5b505b505050505050565b6128e5868686868686612948565b6128ed610ddf565b1561292d576040517f08c379a000000000000000000000000000000000000000000000000000000000815260040161292490614799565b60405180910390fd5b505050505050565b600080823b905060008111915050919050565b505050505050565b82805461295c9061371a565b90600052602060002090601f01602090048101928261297e57600085556129c5565b82601f1061299757805160ff19168380011785556129c5565b828001600101855582156129c5579182015b828111156129c45782518255916020019190600101906129a9565b5b5090506129d291906129d6565b5090565b5b808211156129ef5760008160009055506001016129d7565b5090565b6000604051905090565b600080fd5b600080fd5b600073ffffffffffffffffffffffffffffffffffffffff82169050919050565b6000612a3282612a07565b9050919050565b612a4281612a27565b8114612a4d57600080fd5b50565b600081359050612a5f81612a39565b92915050565b6000819050919050565b612a7881612a65565b8114612a8357600080fd5b50565b600081359050612a9581612a6f565b92915050565b60008060408385031215612ab257612ab16129fd565b5b6000612ac085828601612a50565b9250506020612ad185828601612a86565b9150509250929050565b612ae481612a65565b82525050565b6000602082019050612aff6000830184612adb565b92915050565b60007fffffffff0000000000000000000000000000000000000000000000000000000082169050919050565b612b3a81612b05565b8114612b4557600080fd5b50565b600081359050612b5781612b31565b92915050565b600060208284031215612b7357612b726129fd565b5b6000612b8184828501612b48565b91505092915050565b60008115159050919050565b612b9f81612b8a565b82525050565b6000602082019050612bba6000830184612b96565b92915050565b600060208284031215612bd657612bd56129fd565b5b6000612be484828501612a86565b91505092915050565b600081519050919050565b600082825260208201905092915050565b60005b83811015612c27578082015181840152602081019050612c0c565b83811115612c36576000848401525b50505050565b6000601f19601f8301169050919050565b6000612c5882612bed565b612c628185612bf8565b9350612c72818560208601612c09565b612c7b81612c3c565b840191505092915050565b60006020820190508181036000830152612ca08184612c4d565b905092915050565b600080fd5b600080fd5b7f4e487b7100000000000000000000000000000000000000000000000000000000600052604160045260246000fd5b612cea82612c3c565b810181811067ffffffffffffffff82111715612d0957612d08612cb2565b5b80604052505050565b6000612d1c6129f3565b9050612d288282612ce1565b919050565b600067ffffffffffffffff821115612d4857612d47612cb2565b5b612d5182612c3c565b9050602081019050919050565b82818337600083830152505050565b6000612d80612d7b84612d2d565b612d12565b905082815260208101848484011115612d9c57612d9b612cad565b5b612da7848285612d5e565b509392505050565b600082601f830112612dc457612dc3612ca8565b5b8135612dd4848260208601612d6d565b91505092915050565b600080600060608486031215612df657612df56129fd565b5b6000612e0486828701612a86565b9350506020612e1586828701612a86565b925050604084013567ffffffffffffffff811115612e3657612e35612a02565b5b612e4286828701612daf565b9150509250925092565b600067ffffffffffffffff821115612e6757612e66612cb2565b5b602082029050602081019050919050565b600080fd5b6000612e90612e8b84612e4c565b612d12565b90508083825260208201905060208402830185811115612eb357612eb2612e78565b5b835b81811015612edc5780612ec88882612a86565b845260208401935050602081019050612eb5565b5050509392505050565b600082601f830112612efb57612efa612ca8565b5b8135612f0b848260208601612e7d565b91505092915050565b600080600080600060a08688031215612f3057612f2f6129fd565b5b6000612f3e88828901612a50565b9550506020612f4f88828901612a50565b945050604086013567ffffffffffffffff811115612f7057612f6f612a02565b5b612f7c88828901612ee6565b935050606086013567ffffffffffffffff811115612f9d57612f9c612a02565b5b612fa988828901612ee6565b925050608086013567ffffffffffffffff811115612fca57612fc9612a02565b5b612fd688828901612daf565b9150509295509295909350565b600067ffffffffffffffff821115612ffe57612ffd612cb2565b5b602082029050602081019050919050565b600061302261301d84612fe3565b612d12565b9050808382526020820190506020840283018581111561304557613044612e78565b5b835b8181101561306e578061305a8882612a50565b845260208401935050602081019050613047565b5050509392505050565b600082601f83011261308d5761308c612ca8565b5b813561309d84826020860161300f565b91505092915050565b600080604083850312156130bd576130bc6129fd565b5b600083013567ffffffffffffffff8111156130db576130da612a02565b5b6130e785828601613078565b925050602083013567ffffffffffffffff81111561310857613107612a02565b5b61311485828601612ee6565b9150509250929050565b600081519050919050565b600082825260208201905092915050565b6000819050602082019050919050565b61315381612a65565b82525050565b6000613165838361314a565b60208301905092915050565b6000602082019050919050565b60006131898261311e565b6131938185613129565b935061319e8361313a565b8060005b838110156131cf5781516131b68882613159565b97506131c183613171565b9250506001810190506131a2565b5085935050505092915050565b600060208201905081810360008301526131f6818461317e565b905092915050565b600060a0820190506132136000830188612adb565b81810360208301526132258187612c4d565b90506132346040830186612adb565b81810360608301526132468185612c4d565b90506132556080830184612adb565b9695505050505050565b600067ffffffffffffffff82111561327a57613279612cb2565b5b61328382612c3c565b9050602081019050919050565b60006132a361329e8461325f565b612d12565b9050828152602081018484840111156132bf576132be612cad565b5b6132ca848285612d5e565b509392505050565b600082601f8301126132e7576132e6612ca8565b5b81356132f7848260208601613290565b91505092915050565b60008060008060008060c0878903121561331d5761331c6129fd565b5b600087013567ffffffffffffffff81111561333b5761333a612a02565b5b61334789828a016132d2565b965050602061335889828a01612a86565b955050604061336989828a01612a86565b945050606087013567ffffffffffffffff81111561338a57613389612a02565b5b61339689828a016132d2565b93505060806133a789828a01612a86565b92505060a087013567ffffffffffffffff8111156133c8576133c7612a02565b5b6133d489828a01612daf565b9150509295509295509295565b6000806000606084860312156133fa576133f96129fd565b5b600061340886828701612a50565b935050602084013567ffffffffffffffff81111561342957613428612a02565b5b61343586828701612ee6565b925050604084013567ffffffffffffffff81111561345657613455612a02565b5b61346286828701612ee6565b9150509250925092565b61347581612a27565b82525050565b6000602082019050613490600083018461346c565b92915050565b61349f81612b8a565b81146134aa57600080fd5b50565b6000813590506134bc81613496565b92915050565b600080604083850312156134d9576134d86129fd565b5b60006134e785828601612a50565b92505060206134f8858286016134ad565b9150509250929050565b60008060408385031215613519576135186129fd565b5b600061352785828601612a50565b925050602061353885828601612a50565b9150509250929050565b600080600080600060a0868803121561355e5761355d6129fd565b5b600061356c88828901612a50565b955050602061357d88828901612a50565b945050604061358e88828901612a86565b935050606061359f88828901612a86565b925050608086013567ffffffffffffffff8111156135c0576135bf612a02565b5b6135cc88828901612daf565b9150509295509295909350565b6000602082840312156135ef576135ee6129fd565b5b60006135fd84828501612a50565b91505092915050565b60008060006060848603121561361f5761361e6129fd565b5b600061362d86828701612a50565b935050602061363e86828701612a86565b925050604061364f86828701612a86565b9150509250925092565b7f455243313135353a2062616c616e636520717565727920666f7220746865207a60008201527f65726f2061646472657373000000000000000000000000000000000000000000602082015250565b60006136b5602b83612bf8565b91506136c082613659565b604082019050919050565b600060208201905081810360008301526136e4816136a8565b9050919050565b7f4e487b7100000000000000000000000000000000000000000000000000000000600052602260045260246000fd5b6000600282049050600182168061373257607f821691505b60208210811415613746576137456136eb565b5b50919050565b7f416d6f756e74206d75737420626967676572207468616e203000000000000000600082015250565b6000613782601983612bf8565b915061378d8261374c565b602082019050919050565b600060208201905081810360008301526137b181613775565b9050919050565b7f4e6f7420656e6f756768207469636b6574730000000000000000000000000000600082015250565b60006137ee601283612bf8565b91506137f9826137b8565b602082019050919050565b6000602082019050818103600083015261381d816137e1565b9050919050565b7f4d617820616d6d6f756e742070657220706572736f6e20726561636865640000600082015250565b600061385a601e83612bf8565b915061386582613824565b602082019050919050565b600060208201905081810360008301526138898161384d565b9050919050565b7f4e487b7100000000000000000000000000000000000000000000000000000000600052601160045260246000fd5b60006138ca82612a65565b91506138d583612a65565b9250817fffffffffffffffffffffffffffffffffffffffffffffffffffffffffffffffff048311821515161561390e5761390d613890565b5b828202905092915050565b7f496e636f727265637420616d6f756e7400000000000000000000000000000000600082015250565b600061394f601083612bf8565b915061395a82613919565b602082019050919050565b6000602082019050818103600083015261397e81613942565b9050919050565b7f5469636b657420646f6573206e6f742065786973740000000000000000000000600082015250565b60006139bb601583612bf8565b91506139c682613985565b602082019050919050565b600060208201905081810360008301526139ea816139ae565b9050919050565b7f5061757361626c653a2070617573656400000000000000000000000000000000600082015250565b6000613a27601083612bf8565b9150613a32826139f1565b602082019050919050565b60006020820190508181036000830152613a5681613a1a565b9050919050565b600081905092915050565b50565b6000613a78600083613a5d565b9150613a8382613a68565b600082019050919050565b6000613a9982613a6b565b9150819050919050565b7f4661696c656420746f2073656e64204574686572000000000000000000000000600082015250565b6000613ad9601483612bf8565b9150613ae482613aa3565b602082019050919050565b60006020820190508181036000830152613b0881613acc565b9050919050565b7f455243313135353a207472616e736665722063616c6c6572206973206e6f742060008201527f6f776e6572206e6f7220617070726f7665640000000000000000000000000000602082015250565b6000613b6b603283612bf8565b9150613b7682613b0f565b604082019050919050565b60006020820190508181036000830152613b9a81613b5e565b9050919050565b7f4f776e61626c653a2063616c6c6572206973206e6f7420746865206f776e6572600082015250565b6000613bd7602083612bf8565b9150613be282613ba1565b602082019050919050565b60006020820190508181036000830152613c0681613bca565b9050919050565b7f455243313135353a206163636f756e747320616e6420696473206c656e67746860008201527f206d69736d617463680000000000000000000000000000000000000000000000602082015250565b6000613c69602983612bf8565b9150613c7482613c0d565b604082019050919050565b60006020820190508181036000830152613c9881613c5c565b9050919050565b7f4e487b7100000000000000000000000000000000000000000000000000000000600052603260045260246000fd5b6000613cd982612a65565b91507fffffffffffffffffffffffffffffffffffffffffffffffffffffffffffffffff821415613d0c57613d0b613890565b5b600182019050919050565b600081905092915050565b6000613d2d82612bed565b613d378185613d17565b9350613d47818560208601612c09565b80840191505092915050565b6000613d5f8284613d22565b915081905092915050565b6000606082019050613d7f6000830186612adb565b613d8c6020830185612adb565b613d996040830184612adb565b949350505050565b7f455243313135353a2063616c6c6572206973206e6f74206f776e6572206e6f7260008201527f20617070726f7665640000000000000000000000000000000000000000000000602082015250565b6000613dfd602983612bf8565b9150613e0882613da1565b604082019050919050565b60006020820190508181036000830152613e2c81613df0565b9050919050565b7f455243313135353a2073657474696e6720617070726f76616c2073746174757360008201527f20666f722073656c660000000000000000000000000000000000000000000000602082015250565b6000613e8f602983612bf8565b9150613e9a82613e33565b604082019050919050565b60006020820190508181036000830152613ebe81613e82565b9050919050565b7f4f776e61626c653a206e6577206f776e657220697320746865207a65726f206160008201527f6464726573730000000000000000000000000000000000000000000000000000602082015250565b6000613f21602683612bf8565b9150613f2c82613ec5565b604082019050919050565b60006020820190508181036000830152613f5081613f14565b9050919050565b7f455243313135353a207472616e7366657220746f20746865207a65726f20616460008201527f6472657373000000000000000000000000000000000000000000000000000000602082015250565b6000613fb3602583612bf8565b9150613fbe82613f57565b604082019050919050565b60006020820190508181036000830152613fe281613fa6565b9050919050565b7f455243313135353a20696e73756666696369656e742062616c616e636520666f60008201527f72207472616e7366657200000000000000000000000000000000000000000000602082015250565b6000614045602a83612bf8565b915061405082613fe9565b604082019050919050565b6000602082019050818103600083015261407481614038565b9050919050565b600061408682612a65565b915061409183612a65565b9250827fffffffffffffffffffffffffffffffffffffffffffffffffffffffffffffffff038211156140c6576140c5613890565b5b828201905092915050565b60006040820190506140e66000830185612adb565b6140f36020830184612adb565b9392505050565b7f455243313135353a2069647320616e6420616d6f756e7473206c656e6774682060008201527f6d69736d61746368000000000000000000000000000000000000000000000000602082015250565b6000614156602883612bf8565b9150614161826140fa565b604082019050919050565b6000602082019050818103600083015261418581614149565b9050919050565b600060408201905081810360008301526141a6818561317e565b905081810360208301526141ba818461317e565b90509392505050565b7f5061757361626c653a206e6f7420706175736564000000000000000000000000600082015250565b60006141f9601483612bf8565b9150614204826141c3565b602082019050919050565b60006020820190508181036000830152614228816141ec565b9050919050565b7f455243313135353a206d696e7420746f20746865207a65726f2061646472657360008201527f7300000000000000000000000000000000000000000000000000000000000000602082015250565b600061428b602183612bf8565b91506142968261422f565b604082019050919050565b600060208201905081810360008301526142ba8161427e565b9050919050565b7f455243313135353a206275726e2066726f6d20746865207a65726f206164647260008201527f6573730000000000000000000000000000000000000000000000000000000000602082015250565b600061431d602383612bf8565b9150614328826142c1565b604082019050919050565b6000602082019050818103600083015261434c81614310565b9050919050565b7f455243313135353a206275726e20616d6f756e7420657863656564732062616c60008201527f616e636500000000000000000000000000000000000000000000000000000000602082015250565b60006143af602483612bf8565b91506143ba82614353565b604082019050919050565b600060208201905081810360008301526143de816143a2565b9050919050565b600081519050919050565b600082825260208201905092915050565b600061440c826143e5565b61441681856143f0565b9350614426818560208601612c09565b61442f81612c3c565b840191505092915050565b600060a08201905061444f600083018861346c565b61445c602083018761346c565b6144696040830186612adb565b6144766060830185612adb565b81810360808301526144888184614401565b90509695505050505050565b6000815190506144a381612b31565b92915050565b6000602082840312156144bf576144be6129fd565b5b60006144cd84828501614494565b91505092915050565b60008160e01c9050919050565b600060033d11156145025760046000803e6144ff6000516144d6565b90505b90565b600060443d101561451557614598565b61451d6129f3565b60043d036004823e80513d602482011167ffffffffffffffff82111715614545575050614598565b808201805167ffffffffffffffff8111156145635750505050614598565b80602083010160043d038501811115614580575050505050614598565b61458f82602001850186612ce1565b82955050505050505b90565b7f455243313135353a207472616e7366657220746f206e6f6e204552433131353560008201527f526563656976657220696d706c656d656e746572000000000000000000000000602082015250565b60006145f7603483612bf8565b91506146028261459b565b604082019050919050565b60006020820190508181036000830152614626816145ea565b9050919050565b7f455243313135353a204552433131353552656365697665722072656a6563746560008201527f6420746f6b656e73000000000000000000000000000000000000000000000000602082015250565b6000614689602883612bf8565b91506146948261462d565b604082019050919050565b600060208201905081810360008301526146b88161467c565b9050919050565b600060a0820190506146d4600083018861346c565b6146e1602083018761346c565b81810360408301526146f3818661317e565b90508181036060830152614707818561317e565b9050818103608083015261471b8184614401565b90509695505050505050565b7f455243313135355061757361626c653a20746f6b656e207472616e736665722060008201527f7768696c65207061757365640000000000000000000000000000000000000000602082015250565b6000614783602c83612bf8565b915061478e82614727565b604082019050919050565b600060208201905081810360008301526147b281614776565b905091905056fea264697066735822122025f7d00ab40167c2c05a8531172e152b1b5eaac4fc1a8c1fe55bd882b7e1093964736f6c634300080a0033",
  "immutableReferences": {},
  "source": "// SPDX-License-Identifier: MIT\npragma solidity 0.8.10;\n\nimport \"@openzeppelin/contracts/token/ERC1155/ERC1155.sol\";\nimport \"@openzeppelin/contracts/access/Ownable.sol\";\nimport \"@openzeppelin/contracts/token/ERC1155/extensions/ERC1155Burnable.sol\";\nimport \"@openzeppelin/contracts/token/ERC1155/extensions/ERC1155Pausable.sol\";\n\n\n/// @custom:security-contact @javierlinked\ncontract TicketContract is ERC1155, Ownable, ERC1155Pausable, ERC1155Burnable {\n    uint public nonce;\n    uint[] public tokenIds;\n\n    struct Ticket {\n        uint id;\n        string name;\n        uint price; // in gwei\n        string showTime;\n        uint maxSellPerPerson;\n    }\n\n    mapping(uint => Ticket) public tickets;\n\n    event TicketCreated(\n        uint indexed id,\n        address indexed minter,\n        string indexed name,\n        uint price,\n        uint amount,\n        uint maxSellPerPerson\n    );\n\n    event TicketSold(\n        uint indexed id,\n        address indexed seller,\n        address indexed buyer,\n        uint amount\n    );\n\n    modifier paidExactly(uint amount, uint id) {\n        uint total = amount * tickets[id].price;\n        require(total == msg.value, \"Incorrect amount\");\n        _;\n    }\n\n    modifier allowedSell(uint amount, uint id) {\n        require(amount > 0, \"Amount must bigger than 0\");\n        require(balanceOf(owner(), id) >= amount, \"Not enough tickets\");\n        require(\n            amount <= tickets[id].maxSellPerPerson,\n            \"Max ammount per person reached\"\n        );\n        _;\n    }\n\n    modifier validate(uint id) {\n        require(tickets[id].price != 0, \"Ticket does not exist\");\n        _;\n    }\n\n    constructor() ERC1155(\"\") {\n        nonce = 0;\n    }\n\n    function create(\n        string memory name,\n        uint price,\n        uint amount,\n        string memory showTime,\n        uint maxSellPerPerson,\n        bytes memory data\n    ) public onlyOwner whenNotPaused {\n        address owner = msg.sender;\n        uint newId = ++nonce;\n        Ticket memory newTicket = Ticket(newId, name, price, showTime, maxSellPerPerson);\n        tickets[newId] = newTicket;\n        tokenIds.push(newId);\n        _mint(owner, newId, amount, data);\n        emit TicketCreated(newId, owner, name, price, amount, maxSellPerPerson);\n    }\n\n    function buy(\n        uint id,\n        uint amount,\n        bytes memory data\n    )\n        public\n        payable\n        allowedSell(amount, id)\n        paidExactly(amount, id)\n        validate(id)\n        whenNotPaused\n    {\n        address payable owner = payable(owner());\n        address buyer = msg.sender;\n        (bool sent, ) = owner.call{value: msg.value}(\"\");\n        require(sent, \"Failed to send Ether\");\n        _safeTransferFrom(owner, buyer, id, amount, data);\n        emit TicketSold(id, owner, buyer, amount);\n    }\n\n    function burn(\n        address account,\n        uint id,\n        uint amount\n    ) public override\n    /**   onlyOwner ???*/ \n    whenNotPaused {\n        // NOTE:  to myself, not related to _balances[][] but to existence of tokens in the contract\n        _burn(account, id, amount);\n    }\n\n    /**\n     * @dev Pauses all token transfers.\n     *\n     * See {ERC1155Pausable} and {Pausable-_pause}.\n     *\n     * Requirements:\n     *\n     * - the caller must be owner.\n     */\n    function pause() public virtual onlyOwner {\n        _pause();\n    }\n\n    /**\n     * @dev Unpauses all token transfers.\n     *\n     * See {ERC1155Pausable} and {Pausable-_unpause}.\n     *\n     * Requirements:\n     *\n     * - the caller owner.\n     */\n    function unpause() public virtual onlyOwner {\n        _unpause();\n    }\n\n    function _beforeTokenTransfer(\n        address operator,\n        address from,\n        address to,\n        uint256[] memory ids,\n        uint256[] memory amounts,\n        bytes memory data\n    ) internal virtual override(ERC1155, ERC1155Pausable) {\n        super._beforeTokenTransfer(operator, from, to, ids, amounts, data);\n    }\n}\n",
  "sourcePath": "/Users/javier/dev/blockchain-developer-bootcamp-final-project/contracts/TicketContract.sol",
  "compiler": {
    "name": "solc",
    "version": "0.8.10+commit.fc410830.Emscripten.clang"
  },
  "schemaVersion": "3.4.3",
  "updatedAt": "2021-11-21T16:58:10.010Z",
  "networkType": "ethereum",
  "devdoc": {
    "custom:security-contact": "@javierlinked",
    "kind": "dev",
    "methods": {
      "balanceOf(address,uint256)": {
        "details": "See {IERC1155-balanceOf}. Requirements: - `account` cannot be the zero address."
      },
      "balanceOfBatch(address[],uint256[])": {
        "details": "See {IERC1155-balanceOfBatch}. Requirements: - `accounts` and `ids` must have the same length."
      },
      "isApprovedForAll(address,address)": {
        "details": "See {IERC1155-isApprovedForAll}."
      },
      "owner()": {
        "details": "Returns the address of the current owner."
      },
      "pause()": {
        "details": "Pauses all token transfers. See {ERC1155Pausable} and {Pausable-_pause}. Requirements: - the caller must be owner."
      },
      "paused()": {
        "details": "Returns true if the contract is paused, and false otherwise."
      },
      "renounceOwnership()": {
        "details": "Leaves the contract without owner. It will not be possible to call `onlyOwner` functions anymore. Can only be called by the current owner. NOTE: Renouncing ownership will leave the contract without an owner, thereby removing any functionality that is only available to the owner."
      },
      "safeBatchTransferFrom(address,address,uint256[],uint256[],bytes)": {
        "details": "See {IERC1155-safeBatchTransferFrom}."
      },
      "safeTransferFrom(address,address,uint256,uint256,bytes)": {
        "details": "See {IERC1155-safeTransferFrom}."
      },
      "setApprovalForAll(address,bool)": {
        "details": "See {IERC1155-setApprovalForAll}."
      },
      "supportsInterface(bytes4)": {
        "details": "See {IERC165-supportsInterface}."
      },
      "transferOwnership(address)": {
        "details": "Transfers ownership of the contract to a new account (`newOwner`). Can only be called by the current owner."
      },
      "unpause()": {
        "details": "Unpauses all token transfers. See {ERC1155Pausable} and {Pausable-_unpause}. Requirements: - the caller owner."
      },
      "uri(uint256)": {
        "details": "See {IERC1155MetadataURI-uri}. This implementation returns the same URI for *all* token types. It relies on the token type ID substitution mechanism https://eips.ethereum.org/EIPS/eip-1155#metadata[defined in the EIP]. Clients calling this function must replace the `\\{id\\}` substring with the actual token type ID."
      }
    },
    "version": 1
  },
  "userdoc": {
    "kind": "user",
    "methods": {},
    "version": 1
  }
}