{
  "contractName": "TicketContract",
  "abi": [
    {
      "inputs": [],
      "stateMutability": "nonpayable",
      "type": "constructor"
    },
    {
      "anonymous": false,
      "inputs": [
        {
          "indexed": true,
          "internalType": "address",
          "name": "account",
          "type": "address"
        },
        {
          "indexed": true,
          "internalType": "address",
          "name": "operator",
          "type": "address"
        },
        {
          "indexed": false,
          "internalType": "bool",
          "name": "approved",
          "type": "bool"
        }
      ],
      "name": "ApprovalForAll",
      "type": "event"
    },
    {
      "anonymous": false,
      "inputs": [
        {
          "indexed": true,
          "internalType": "address",
          "name": "previousOwner",
          "type": "address"
        },
        {
          "indexed": true,
          "internalType": "address",
          "name": "newOwner",
          "type": "address"
        }
      ],
      "name": "OwnershipTransferred",
      "type": "event"
    },
    {
      "anonymous": false,
      "inputs": [
        {
          "indexed": false,
          "internalType": "address",
          "name": "account",
          "type": "address"
        }
      ],
      "name": "Paused",
      "type": "event"
    },
    {
      "anonymous": false,
      "inputs": [
        {
          "indexed": true,
          "internalType": "uint256",
          "name": "id",
          "type": "uint256"
        },
        {
          "indexed": true,
          "internalType": "address",
          "name": "minter",
          "type": "address"
        },
        {
          "indexed": true,
          "internalType": "string",
          "name": "name",
          "type": "string"
        },
        {
          "indexed": false,
          "internalType": "uint256",
          "name": "price",
          "type": "uint256"
        },
        {
          "indexed": false,
          "internalType": "uint256",
          "name": "amount",
          "type": "uint256"
        },
        {
          "indexed": false,
          "internalType": "uint256",
          "name": "maxSellPerPerson",
          "type": "uint256"
        }
      ],
      "name": "TicketCreated",
      "type": "event"
    },
    {
      "anonymous": false,
      "inputs": [
        {
          "indexed": true,
          "internalType": "uint256",
          "name": "id",
          "type": "uint256"
        },
        {
          "indexed": true,
          "internalType": "address",
          "name": "from",
          "type": "address"
        },
        {
          "indexed": true,
          "internalType": "address",
          "name": "to",
          "type": "address"
        },
        {
          "indexed": false,
          "internalType": "uint256",
          "name": "amount",
          "type": "uint256"
        }
      ],
      "name": "TicketSold",
      "type": "event"
    },
    {
      "anonymous": false,
      "inputs": [
        {
          "indexed": true,
          "internalType": "address",
          "name": "operator",
          "type": "address"
        },
        {
          "indexed": true,
          "internalType": "address",
          "name": "from",
          "type": "address"
        },
        {
          "indexed": true,
          "internalType": "address",
          "name": "to",
          "type": "address"
        },
        {
          "indexed": false,
          "internalType": "uint256[]",
          "name": "ids",
          "type": "uint256[]"
        },
        {
          "indexed": false,
          "internalType": "uint256[]",
          "name": "values",
          "type": "uint256[]"
        }
      ],
      "name": "TransferBatch",
      "type": "event"
    },
    {
      "anonymous": false,
      "inputs": [
        {
          "indexed": true,
          "internalType": "address",
          "name": "operator",
          "type": "address"
        },
        {
          "indexed": true,
          "internalType": "address",
          "name": "from",
          "type": "address"
        },
        {
          "indexed": true,
          "internalType": "address",
          "name": "to",
          "type": "address"
        },
        {
          "indexed": false,
          "internalType": "uint256",
          "name": "id",
          "type": "uint256"
        },
        {
          "indexed": false,
          "internalType": "uint256",
          "name": "value",
          "type": "uint256"
        }
      ],
      "name": "TransferSingle",
      "type": "event"
    },
    {
      "anonymous": false,
      "inputs": [
        {
          "indexed": false,
          "internalType": "string",
          "name": "value",
          "type": "string"
        },
        {
          "indexed": true,
          "internalType": "uint256",
          "name": "id",
          "type": "uint256"
        }
      ],
      "name": "URI",
      "type": "event"
    },
    {
      "anonymous": false,
      "inputs": [
        {
          "indexed": false,
          "internalType": "address",
          "name": "account",
          "type": "address"
        }
      ],
      "name": "Unpaused",
      "type": "event"
    },
    {
      "inputs": [
        {
          "internalType": "address",
          "name": "account",
          "type": "address"
        },
        {
          "internalType": "uint256",
          "name": "id",
          "type": "uint256"
        }
      ],
      "name": "balanceOf",
      "outputs": [
        {
          "internalType": "uint256",
          "name": "",
          "type": "uint256"
        }
      ],
      "stateMutability": "view",
      "type": "function"
    },
    {
      "inputs": [
        {
          "internalType": "address[]",
          "name": "accounts",
          "type": "address[]"
        },
        {
          "internalType": "uint256[]",
          "name": "ids",
          "type": "uint256[]"
        }
      ],
      "name": "balanceOfBatch",
      "outputs": [
        {
          "internalType": "uint256[]",
          "name": "",
          "type": "uint256[]"
        }
      ],
      "stateMutability": "view",
      "type": "function"
    },
    {
      "inputs": [
        {
          "internalType": "address",
          "name": "account",
          "type": "address"
        },
        {
          "internalType": "uint256[]",
          "name": "ids",
          "type": "uint256[]"
        },
        {
          "internalType": "uint256[]",
          "name": "values",
          "type": "uint256[]"
        }
      ],
      "name": "burnBatch",
      "outputs": [],
      "stateMutability": "nonpayable",
      "type": "function"
    },
    {
      "inputs": [
        {
          "internalType": "address",
          "name": "account",
          "type": "address"
        },
        {
          "internalType": "address",
          "name": "operator",
          "type": "address"
        }
      ],
      "name": "isApprovedForAll",
      "outputs": [
        {
          "internalType": "bool",
          "name": "",
          "type": "bool"
        }
      ],
      "stateMutability": "view",
      "type": "function"
    },
    {
      "inputs": [],
      "name": "nonce",
      "outputs": [
        {
          "internalType": "uint256",
          "name": "",
          "type": "uint256"
        }
      ],
      "stateMutability": "view",
      "type": "function"
    },
    {
      "inputs": [],
      "name": "owner",
      "outputs": [
        {
          "internalType": "address",
          "name": "",
          "type": "address"
        }
      ],
      "stateMutability": "view",
      "type": "function"
    },
    {
      "inputs": [],
      "name": "paused",
      "outputs": [
        {
          "internalType": "bool",
          "name": "",
          "type": "bool"
        }
      ],
      "stateMutability": "view",
      "type": "function"
    },
    {
      "inputs": [],
      "name": "renounceOwnership",
      "outputs": [],
      "stateMutability": "nonpayable",
      "type": "function"
    },
    {
      "inputs": [
        {
          "internalType": "address",
          "name": "from",
          "type": "address"
        },
        {
          "internalType": "address",
          "name": "to",
          "type": "address"
        },
        {
          "internalType": "uint256[]",
          "name": "ids",
          "type": "uint256[]"
        },
        {
          "internalType": "uint256[]",
          "name": "amounts",
          "type": "uint256[]"
        },
        {
          "internalType": "bytes",
          "name": "data",
          "type": "bytes"
        }
      ],
      "name": "safeBatchTransferFrom",
      "outputs": [],
      "stateMutability": "nonpayable",
      "type": "function"
    },
    {
      "inputs": [
        {
          "internalType": "address",
          "name": "from",
          "type": "address"
        },
        {
          "internalType": "address",
          "name": "to",
          "type": "address"
        },
        {
          "internalType": "uint256",
          "name": "id",
          "type": "uint256"
        },
        {
          "internalType": "uint256",
          "name": "amount",
          "type": "uint256"
        },
        {
          "internalType": "bytes",
          "name": "data",
          "type": "bytes"
        }
      ],
      "name": "safeTransferFrom",
      "outputs": [],
      "stateMutability": "nonpayable",
      "type": "function"
    },
    {
      "inputs": [
        {
          "internalType": "address",
          "name": "operator",
          "type": "address"
        },
        {
          "internalType": "bool",
          "name": "approved",
          "type": "bool"
        }
      ],
      "name": "setApprovalForAll",
      "outputs": [],
      "stateMutability": "nonpayable",
      "type": "function"
    },
    {
      "inputs": [
        {
          "internalType": "bytes4",
          "name": "interfaceId",
          "type": "bytes4"
        }
      ],
      "name": "supportsInterface",
      "outputs": [
        {
          "internalType": "bool",
          "name": "",
          "type": "bool"
        }
      ],
      "stateMutability": "view",
      "type": "function"
    },
    {
      "inputs": [
        {
          "internalType": "uint256",
          "name": "",
          "type": "uint256"
        }
      ],
      "name": "tickets",
      "outputs": [
        {
          "internalType": "string",
          "name": "name",
          "type": "string"
        },
        {
          "internalType": "uint256",
          "name": "price",
          "type": "uint256"
        },
        {
          "internalType": "uint256",
          "name": "maxSellPerPerson",
          "type": "uint256"
        }
      ],
      "stateMutability": "view",
      "type": "function"
    },
    {
      "inputs": [
        {
          "internalType": "address",
          "name": "newOwner",
          "type": "address"
        }
      ],
      "name": "transferOwnership",
      "outputs": [],
      "stateMutability": "nonpayable",
      "type": "function"
    },
    {
      "inputs": [
        {
          "internalType": "uint256",
          "name": "",
          "type": "uint256"
        }
      ],
      "name": "uri",
      "outputs": [
        {
          "internalType": "string",
          "name": "",
          "type": "string"
        }
      ],
      "stateMutability": "view",
      "type": "function"
    },
    {
      "inputs": [
        {
          "internalType": "string",
          "name": "name",
          "type": "string"
        },
        {
          "internalType": "uint256",
          "name": "price",
          "type": "uint256"
        },
        {
          "internalType": "uint256",
          "name": "amount",
          "type": "uint256"
        },
        {
          "internalType": "uint256",
          "name": "maxSell",
          "type": "uint256"
        },
        {
          "internalType": "bytes",
          "name": "data",
          "type": "bytes"
        }
      ],
      "name": "create",
      "outputs": [
        {
          "internalType": "uint256",
          "name": "id",
          "type": "uint256"
        }
      ],
      "stateMutability": "nonpayable",
      "type": "function"
    },
    {
      "inputs": [
        {
          "internalType": "uint256",
          "name": "id",
          "type": "uint256"
        },
        {
          "internalType": "uint256",
          "name": "amount",
          "type": "uint256"
        },
        {
          "internalType": "bytes",
          "name": "data",
          "type": "bytes"
        }
      ],
      "name": "buy",
      "outputs": [],
      "stateMutability": "payable",
      "type": "function"
    },
    {
      "inputs": [
        {
          "internalType": "address",
          "name": "account",
          "type": "address"
        },
        {
          "internalType": "uint256",
          "name": "id",
          "type": "uint256"
        },
        {
          "internalType": "uint256",
          "name": "amount",
          "type": "uint256"
        }
      ],
      "name": "burn",
      "outputs": [],
      "stateMutability": "nonpayable",
      "type": "function"
    },
    {
      "inputs": [],
      "name": "pause",
      "outputs": [],
      "stateMutability": "nonpayable",
      "type": "function"
    },
    {
      "inputs": [],
      "name": "unpause",
      "outputs": [],
      "stateMutability": "nonpayable",
      "type": "function"
    }
  ],
  "bytecode": "0x60806040523480156200001157600080fd5b506040518060200160405280600081525062000033816200007560201b60201c565b5062000054620000486200009160201b60201c565b6200009960201b60201c565b6000600360146101000a81548160ff02191690831515021790555062000274565b80600290805190602001906200008d9291906200015f565b5050565b600033905090565b6000600360009054906101000a900473ffffffffffffffffffffffffffffffffffffffff16905081600360006101000a81548173ffffffffffffffffffffffffffffffffffffffff021916908373ffffffffffffffffffffffffffffffffffffffff1602179055508173ffffffffffffffffffffffffffffffffffffffff168173ffffffffffffffffffffffffffffffffffffffff167f8be0079c531659141344cd1fd0a4f28419497f9722a3daafe3b4186f6b6457e060405160405180910390a35050565b8280546200016d906200020f565b90600052602060002090601f016020900481019282620001915760008555620001dd565b82601f10620001ac57805160ff1916838001178555620001dd565b82800160010185558215620001dd579182015b82811115620001dc578251825591602001919060010190620001bf565b5b509050620001ec9190620001f0565b5090565b5b808211156200020b576000816000905550600101620001f1565b5090565b600060028204905060018216806200022857607f821691505b602082108114156200023f576200023e62000245565b5b50919050565b7f4e487b7100000000000000000000000000000000000000000000000000000000600052602260045260246000fd5b6147b380620002846000396000f3fe60806040526004361061011e5760003560e01c8063715018a6116100a0578063affed0e011610064578063affed0e0146103c5578063e985e9c5146103f0578063f242432a1461042d578063f2fde38b14610456578063f5298aca1461047f5761011e565b8063715018a6146103065780638456cb591461031d5780638da5cb5b146103345780639a77b11e1461035f578063a22cb4651461039c5761011e565b80633f4ba83a116100e75780633f4ba83a1461021f5780634e1273f41461023657806350b44712146102735780635c975abb146102b25780636b20c454146102dd5761011e565b8062fdd58e1461012357806301ffc9a7146101605780630e89341c1461019d5780631efd73a5146101da5780632eb2c2d6146101f6575b600080fd5b34801561012f57600080fd5b5061014a60048036038101906101459190612f99565b6104a8565b6040516101579190613bb6565b60405180910390f35b34801561016c57600080fd5b5061018760048036038101906101829190613090565b610571565b604051610194919061383b565b60405180910390f35b3480156101a957600080fd5b506101c460048036038101906101bf9190613189565b610653565b6040516101d19190613856565b60405180910390f35b6101f460048036038101906101ef91906131b2565b6106e7565b005b34801561020257600080fd5b5061021d60048036038101906102189190612d90565b610a24565b005b34801561022b57600080fd5b50610234610ac5565b005b34801561024257600080fd5b5061025d60048036038101906102589190613024565b610b4b565b60405161026a91906137e2565b60405180910390f35b34801561027f57600080fd5b5061029a60048036038101906102959190613189565b610cfc565b6040516102a993929190613878565b60405180910390f35b3480156102be57600080fd5b506102c7610dae565b6040516102d4919061383b565b60405180910390f35b3480156102e957600080fd5b5061030460048036038101906102ff9190612ede565b610dc5565b005b34801561031257600080fd5b5061031b610e62565b005b34801561032957600080fd5b50610332610eea565b005b34801561034057600080fd5b50610349610f70565b6040516103569190613705565b60405180910390f35b34801561036b57600080fd5b50610386600480360381019061038191906130e2565b610f9a565b6040516103939190613bb6565b60405180910390f35b3480156103a857600080fd5b506103c360048036038101906103be9190612f5d565b611169565b005b3480156103d157600080fd5b506103da6112ea565b6040516103e79190613bb6565b60405180910390f35b3480156103fc57600080fd5b5061041760048036038101906104129190612d54565b6112f0565b604051610424919061383b565b60405180910390f35b34801561043957600080fd5b50610454600480360381019061044f9190612e4f565b611384565b005b34801561046257600080fd5b5061047d60048036038101906104789190612d2b565b611425565b005b34801561048b57600080fd5b506104a660048036038101906104a19190612fd5565b61151d565b005b60008073ffffffffffffffffffffffffffffffffffffffff168373ffffffffffffffffffffffffffffffffffffffff161415610519576040517f08c379a000000000000000000000000000000000000000000000000000000000815260040161051090613916565b60405180910390fd5b60008083815260200190815260200160002060008473ffffffffffffffffffffffffffffffffffffffff1673ffffffffffffffffffffffffffffffffffffffff16815260200190815260200160002054905092915050565b60007fd9b67a26000000000000000000000000000000000000000000000000000000007bffffffffffffffffffffffffffffffffffffffffffffffffffffffff1916827bffffffffffffffffffffffffffffffffffffffffffffffffffffffff1916148061063c57507f0e89341c000000000000000000000000000000000000000000000000000000007bffffffffffffffffffffffffffffffffffffffffffffffffffffffff1916827bffffffffffffffffffffffffffffffffffffffffffffffffffffffff1916145b8061064c575061064b826115f1565b5b9050919050565b60606002805461066290613efd565b80601f016020809104026020016040519081016040528092919081815260200182805461068e90613efd565b80156106db5780601f106106b0576101008083540402835291602001916106db565b820191906000526020600020905b8154815290600101906020018083116106be57829003601f168201915b50505050509050919050565b81836000821161072c576040517f08c379a000000000000000000000000000000000000000000000000000000000815260040161072390613b96565b60405180910390fd5b8161073e610738610f70565b836104a8565b101561077f576040517f08c379a0000000000000000000000000000000000000000000000000000000008152600401610776906139d6565b60405180910390fd5b60056000828152602001908152602001600020600201548211156107d8576040517f08c379a00000000000000000000000000000000000000000000000000000000081526004016107cf906139f6565b60405180910390fd5b838560006005600083815260200190815260200160002060010154836107fe9190613ded565b905034811115610843576040517f08c379a000000000000000000000000000000000000000000000000000000000815260040161083a90613b76565b60405180910390fd5b8760006005600083815260200190815260200160002060010154141561089e576040517f08c379a000000000000000000000000000000000000000000000000000000000815260040161089590613a36565b60405180910390fd5b6108a6610dae565b156108e6576040517f08c379a00000000000000000000000000000000000000000000000000000000081526004016108dd90613a16565b60405180910390fd5b60006108f0610f70565b9050600033905060008273ffffffffffffffffffffffffffffffffffffffff163460405161091d906136f0565b60006040518083038185875af1925050503d806000811461095a576040519150601f19603f3d011682016040523d82523d6000602084013e61095f565b606091505b50509050806109a3576040517f08c379a000000000000000000000000000000000000000000000000000000000815260040161099a906139b6565b60405180910390fd5b6109b083838e8e8e61165b565b8173ffffffffffffffffffffffffffffffffffffffff168373ffffffffffffffffffffffffffffffffffffffff168d7f2bbc64d6afd28a753f6c5e4aaa894f1d684c44a0e080167eae104ac8505cfebd8e604051610a0e9190613bb6565b60405180910390a4505050505050505050505050565b610a2c6118dd565b73ffffffffffffffffffffffffffffffffffffffff168573ffffffffffffffffffffffffffffffffffffffff161480610a725750610a7185610a6c6118dd565b6112f0565b5b610ab1576040517f08c379a0000000000000000000000000000000000000000000000000000000008152600401610aa890613a76565b60405180910390fd5b610abe85858585856118e5565b5050505050565b610acd6118dd565b73ffffffffffffffffffffffffffffffffffffffff16610aeb610f70565b73ffffffffffffffffffffffffffffffffffffffff1614610b41576040517f08c379a0000000000000000000000000000000000000000000000000000000008152600401610b3890613ad6565b60405180910390fd5b610b49611c45565b565b60608151835114610b91576040517f08c379a0000000000000000000000000000000000000000000000000000000008152600401610b8890613b16565b60405180910390fd5b6000835167ffffffffffffffff811115610bd4577f4e487b7100000000000000000000000000000000000000000000000000000000600052604160045260246000fd5b604051908082528060200260200182016040528015610c025781602001602082028036833780820191505090505b50905060005b8451811015610cf157610c9b858281518110610c4d577f4e487b7100000000000000000000000000000000000000000000000000000000600052603260045260246000fd5b6020026020010151858381518110610c8e577f4e487b7100000000000000000000000000000000000000000000000000000000600052603260045260246000fd5b60200260200101516104a8565b828281518110610cd4577f4e487b7100000000000000000000000000000000000000000000000000000000600052603260045260246000fd5b60200260200101818152505080610cea90613f60565b9050610c08565b508091505092915050565b6005602052806000526040600020600091509050806000018054610d1f90613efd565b80601f0160208091040260200160405190810160405280929190818152602001828054610d4b90613efd565b8015610d985780601f10610d6d57610100808354040283529160200191610d98565b820191906000526020600020905b815481529060010190602001808311610d7b57829003601f168201915b5050505050908060010154908060020154905083565b6000600360149054906101000a900460ff16905090565b610dcd6118dd565b73ffffffffffffffffffffffffffffffffffffffff168373ffffffffffffffffffffffffffffffffffffffff161480610e135750610e1283610e0d6118dd565b6112f0565b5b610e52576040517f08c379a0000000000000000000000000000000000000000000000000000000008152600401610e4990613996565b60405180910390fd5b610e5d838383611ce7565b505050565b610e6a6118dd565b73ffffffffffffffffffffffffffffffffffffffff16610e88610f70565b73ffffffffffffffffffffffffffffffffffffffff1614610ede576040517f08c379a0000000000000000000000000000000000000000000000000000000008152600401610ed590613ad6565b60405180910390fd5b610ee86000611fe4565b565b610ef26118dd565b73ffffffffffffffffffffffffffffffffffffffff16610f10610f70565b73ffffffffffffffffffffffffffffffffffffffff1614610f66576040517f08c379a0000000000000000000000000000000000000000000000000000000008152600401610f5d90613ad6565b60405180910390fd5b610f6e6120aa565b565b6000600360009054906101000a900473ffffffffffffffffffffffffffffffffffffffff16905090565b6000610fa46118dd565b73ffffffffffffffffffffffffffffffffffffffff16610fc2610f70565b73ffffffffffffffffffffffffffffffffffffffff1614611018576040517f08c379a000000000000000000000000000000000000000000000000000000000815260040161100f90613ad6565b60405180910390fd5b611020610dae565b15611060576040517f08c379a000000000000000000000000000000000000000000000000000000000815260040161105790613a16565b60405180910390fd5b6000339050600060046000815461107690613f60565b9190508190559050600060405180606001604052808a8152602001898152602001878152509050806005600084815260200190815260200160002060008201518160000190805190602001906110cd929190612a23565b5060208201518160010155604082015181600201559050506110f18383898861214d565b886040516110ff91906136d9565b60405180910390208373ffffffffffffffffffffffffffffffffffffffff16837f9d783e202083d1fb37ad562ef4e7776ae35886aa85bb86b72e48e66f58f03f4d8b8b8b60405161115293929190613bfa565b60405180910390a481935050505095945050505050565b8173ffffffffffffffffffffffffffffffffffffffff166111886118dd565b73ffffffffffffffffffffffffffffffffffffffff1614156111df576040517f08c379a00000000000000000000000000000000000000000000000000000000081526004016111d690613af6565b60405180910390fd5b80600160006111ec6118dd565b73ffffffffffffffffffffffffffffffffffffffff1673ffffffffffffffffffffffffffffffffffffffff16815260200190815260200160002060008473ffffffffffffffffffffffffffffffffffffffff1673ffffffffffffffffffffffffffffffffffffffff16815260200190815260200160002060006101000a81548160ff0219169083151502179055508173ffffffffffffffffffffffffffffffffffffffff166112996118dd565b73ffffffffffffffffffffffffffffffffffffffff167f17307eab39ab6107e8899845ad3d59bd9653f200f220920489ca2b5937696c31836040516112de919061383b565b60405180910390a35050565b60045481565b6000600160008473ffffffffffffffffffffffffffffffffffffffff1673ffffffffffffffffffffffffffffffffffffffff16815260200190815260200160002060008373ffffffffffffffffffffffffffffffffffffffff1673ffffffffffffffffffffffffffffffffffffffff16815260200190815260200160002060009054906101000a900460ff16905092915050565b61138c6118dd565b73ffffffffffffffffffffffffffffffffffffffff168573ffffffffffffffffffffffffffffffffffffffff1614806113d257506113d1856113cc6118dd565b6112f0565b5b611411576040517f08c379a000000000000000000000000000000000000000000000000000000000815260040161140890613996565b60405180910390fd5b61141e858585858561165b565b5050505050565b61142d6118dd565b73ffffffffffffffffffffffffffffffffffffffff1661144b610f70565b73ffffffffffffffffffffffffffffffffffffffff16146114a1576040517f08c379a000000000000000000000000000000000000000000000000000000000815260040161149890613ad6565b60405180910390fd5b600073ffffffffffffffffffffffffffffffffffffffff168173ffffffffffffffffffffffffffffffffffffffff161415611511576040517f08c379a000000000000000000000000000000000000000000000000000000000815260040161150890613936565b60405180910390fd5b61151a81611fe4565b50565b6115256118dd565b73ffffffffffffffffffffffffffffffffffffffff16611543610f70565b73ffffffffffffffffffffffffffffffffffffffff1614611599576040517f08c379a000000000000000000000000000000000000000000000000000000000815260040161159090613ad6565b60405180910390fd5b6115a1610dae565b156115e1576040517f08c379a00000000000000000000000000000000000000000000000000000000081526004016115d890613a16565b60405180910390fd5b6115ec8383836122e3565b505050565b60007f01ffc9a7000000000000000000000000000000000000000000000000000000007bffffffffffffffffffffffffffffffffffffffffffffffffffffffff1916827bffffffffffffffffffffffffffffffffffffffffffffffffffffffff1916149050919050565b600073ffffffffffffffffffffffffffffffffffffffff168473ffffffffffffffffffffffffffffffffffffffff1614156116cb576040517f08c379a00000000000000000000000000000000000000000000000000000000081526004016116c290613a56565b60405180910390fd5b60006116d56118dd565b90506116f58187876116e688612500565b6116ef88612500565b876125c6565b600080600086815260200190815260200160002060008873ffffffffffffffffffffffffffffffffffffffff1673ffffffffffffffffffffffffffffffffffffffff1681526020019081526020016000205490508381101561178c576040517f08c379a000000000000000000000000000000000000000000000000000000000815260040161178390613ab6565b60405180910390fd5b83810360008087815260200190815260200160002060008973ffffffffffffffffffffffffffffffffffffffff1673ffffffffffffffffffffffffffffffffffffffff168152602001908152602001600020819055508360008087815260200190815260200160002060008873ffffffffffffffffffffffffffffffffffffffff1673ffffffffffffffffffffffffffffffffffffffff16815260200190815260200160002060008282546118419190613d97565b925050819055508573ffffffffffffffffffffffffffffffffffffffff168773ffffffffffffffffffffffffffffffffffffffff168373ffffffffffffffffffffffffffffffffffffffff167fc3d58168c5ae7397731d063d5bbf3d657854427343f4c083240f7aacaa2d0f6288886040516118be929190613bd1565b60405180910390a46118d48288888888886125dc565b50505050505050565b600033905090565b8151835114611929576040517f08c379a000000000000000000000000000000000000000000000000000000000815260040161192090613b36565b60405180910390fd5b600073ffffffffffffffffffffffffffffffffffffffff168473ffffffffffffffffffffffffffffffffffffffff161415611999576040517f08c379a000000000000000000000000000000000000000000000000000000000815260040161199090613a56565b60405180910390fd5b60006119a36118dd565b90506119b38187878787876125c6565b60005b8451811015611bb05760008582815181106119fa577f4e487b7100000000000000000000000000000000000000000000000000000000600052603260045260246000fd5b602002602001015190506000858381518110611a3f577f4e487b7100000000000000000000000000000000000000000000000000000000600052603260045260246000fd5b60200260200101519050600080600084815260200190815260200160002060008b73ffffffffffffffffffffffffffffffffffffffff1673ffffffffffffffffffffffffffffffffffffffff16815260200190815260200160002054905081811015611ae0576040517f08c379a0000000000000000000000000000000000000000000000000000000008152600401611ad790613ab6565b60405180910390fd5b81810360008085815260200190815260200160002060008c73ffffffffffffffffffffffffffffffffffffffff1673ffffffffffffffffffffffffffffffffffffffff168152602001908152602001600020819055508160008085815260200190815260200160002060008b73ffffffffffffffffffffffffffffffffffffffff1673ffffffffffffffffffffffffffffffffffffffff1681526020019081526020016000206000828254611b959190613d97565b9250508190555050505080611ba990613f60565b90506119b6565b508473ffffffffffffffffffffffffffffffffffffffff168673ffffffffffffffffffffffffffffffffffffffff168273ffffffffffffffffffffffffffffffffffffffff167f4a39dc06d4c0dbc64b70af90fd698a233a518aa5d07e595d983b8c0526c8f7fb8787604051611c27929190613804565b60405180910390a4611c3d8187878787876127c3565b505050505050565b611c4d610dae565b611c8c576040517f08c379a0000000000000000000000000000000000000000000000000000000008152600401611c83906138f6565b60405180910390fd5b6000600360146101000a81548160ff0219169083151502179055507f5db9ee0a495bf2e6ff9c91a7834c1ba4fdd244a5e8aa4e537bd38aeae4b073aa611cd06118dd565b604051611cdd9190613705565b60405180910390a1565b600073ffffffffffffffffffffffffffffffffffffffff168373ffffffffffffffffffffffffffffffffffffffff161415611d57576040517f08c379a0000000000000000000000000000000000000000000000000000000008152600401611d4e90613a96565b60405180910390fd5b8051825114611d9b576040517f08c379a0000000000000000000000000000000000000000000000000000000008152600401611d9290613b36565b60405180910390fd5b6000611da56118dd565b9050611dc5818560008686604051806020016040528060008152506125c6565b60005b8351811015611f5e576000848281518110611e0c577f4e487b7100000000000000000000000000000000000000000000000000000000600052603260045260246000fd5b602002602001015190506000848381518110611e51577f4e487b7100000000000000000000000000000000000000000000000000000000600052603260045260246000fd5b60200260200101519050600080600084815260200190815260200160002060008973ffffffffffffffffffffffffffffffffffffffff1673ffffffffffffffffffffffffffffffffffffffff16815260200190815260200160002054905081811015611ef2576040517f08c379a0000000000000000000000000000000000000000000000000000000008152600401611ee990613956565b60405180910390fd5b81810360008085815260200190815260200160002060008a73ffffffffffffffffffffffffffffffffffffffff1673ffffffffffffffffffffffffffffffffffffffff168152602001908152602001600020819055505050508080611f5690613f60565b915050611dc8565b50600073ffffffffffffffffffffffffffffffffffffffff168473ffffffffffffffffffffffffffffffffffffffff168273ffffffffffffffffffffffffffffffffffffffff167f4a39dc06d4c0dbc64b70af90fd698a233a518aa5d07e595d983b8c0526c8f7fb8686604051611fd6929190613804565b60405180910390a450505050565b6000600360009054906101000a900473ffffffffffffffffffffffffffffffffffffffff16905081600360006101000a81548173ffffffffffffffffffffffffffffffffffffffff021916908373ffffffffffffffffffffffffffffffffffffffff1602179055508173ffffffffffffffffffffffffffffffffffffffff168173ffffffffffffffffffffffffffffffffffffffff167f8be0079c531659141344cd1fd0a4f28419497f9722a3daafe3b4186f6b6457e060405160405180910390a35050565b6120b2610dae565b156120f2576040517f08c379a00000000000000000000000000000000000000000000000000000000081526004016120e990613a16565b60405180910390fd5b6001600360146101000a81548160ff0219169083151502179055507f62e78cea01bee320cd4e420270b5ea74000d11b0c9f74754ebdbfc544b05a2586121366118dd565b6040516121439190613705565b60405180910390a1565b600073ffffffffffffffffffffffffffffffffffffffff168473ffffffffffffffffffffffffffffffffffffffff1614156121bd576040517f08c379a00000000000000000000000000000000000000000000000000000000081526004016121b490613b56565b60405180910390fd5b60006121c76118dd565b90506121e8816000876121d988612500565b6121e288612500565b876125c6565b8260008086815260200190815260200160002060008773ffffffffffffffffffffffffffffffffffffffff1673ffffffffffffffffffffffffffffffffffffffff16815260200190815260200160002060008282546122479190613d97565b925050819055508473ffffffffffffffffffffffffffffffffffffffff16600073ffffffffffffffffffffffffffffffffffffffff168273ffffffffffffffffffffffffffffffffffffffff167fc3d58168c5ae7397731d063d5bbf3d657854427343f4c083240f7aacaa2d0f6287876040516122c5929190613bd1565b60405180910390a46122dc816000878787876125dc565b5050505050565b600073ffffffffffffffffffffffffffffffffffffffff168373ffffffffffffffffffffffffffffffffffffffff161415612353576040517f08c379a000000000000000000000000000000000000000000000000000000000815260040161234a90613a96565b60405180910390fd5b600061235d6118dd565b905061238d8185600061236f87612500565b61237887612500565b604051806020016040528060008152506125c6565b600080600085815260200190815260200160002060008673ffffffffffffffffffffffffffffffffffffffff1673ffffffffffffffffffffffffffffffffffffffff16815260200190815260200160002054905082811015612424576040517f08c379a000000000000000000000000000000000000000000000000000000000815260040161241b90613956565b60405180910390fd5b82810360008086815260200190815260200160002060008773ffffffffffffffffffffffffffffffffffffffff1673ffffffffffffffffffffffffffffffffffffffff16815260200190815260200160002081905550600073ffffffffffffffffffffffffffffffffffffffff168573ffffffffffffffffffffffffffffffffffffffff168373ffffffffffffffffffffffffffffffffffffffff167fc3d58168c5ae7397731d063d5bbf3d657854427343f4c083240f7aacaa2d0f6287876040516124f1929190613bd1565b60405180910390a45050505050565b60606000600167ffffffffffffffff811115612545577f4e487b7100000000000000000000000000000000000000000000000000000000600052604160045260246000fd5b6040519080825280602002602001820160405280156125735781602001602082028036833780820191505090505b50905082816000815181106125b1577f4e487b7100000000000000000000000000000000000000000000000000000000600052603260045260246000fd5b60200260200101818152505080915050919050565b6125d48686868686866129aa565b505050505050565b6125fb8473ffffffffffffffffffffffffffffffffffffffff16612a08565b156127bb578373ffffffffffffffffffffffffffffffffffffffff1663f23a6e6187878686866040518663ffffffff1660e01b8152600401612641959493929190613788565b602060405180830381600087803b15801561265b57600080fd5b505af192505050801561268c57506040513d601f19601f8201168201806040525081019061268991906130b9565b60015b61273257612698614036565b806308c379a014156126f557506126ad61468b565b806126b857506126f7565b806040517f08c379a00000000000000000000000000000000000000000000000000000000081526004016126ec9190613856565b60405180910390fd5b505b6040517f08c379a0000000000000000000000000000000000000000000000000000000008152600401612729906138b6565b60405180910390fd5b63f23a6e6160e01b7bffffffffffffffffffffffffffffffffffffffffffffffffffffffff1916817bffffffffffffffffffffffffffffffffffffffffffffffffffffffff1916146127b9576040517f08c379a00000000000000000000000000000000000000000000000000000000081526004016127b0906138d6565b60405180910390fd5b505b505050505050565b6127e28473ffffffffffffffffffffffffffffffffffffffff16612a08565b156129a2578373ffffffffffffffffffffffffffffffffffffffff1663bc197c8187878686866040518663ffffffff1660e01b8152600401612828959493929190613720565b602060405180830381600087803b15801561284257600080fd5b505af192505050801561287357506040513d601f19601f8201168201806040525081019061287091906130b9565b60015b6129195761287f614036565b806308c379a014156128dc575061289461468b565b8061289f57506128de565b806040517f08c379a00000000000000000000000000000000000000000000000000000000081526004016128d39190613856565b60405180910390fd5b505b6040517f08c379a0000000000000000000000000000000000000000000000000000000008152600401612910906138b6565b60405180910390fd5b63bc197c8160e01b7bffffffffffffffffffffffffffffffffffffffffffffffffffffffff1916817bffffffffffffffffffffffffffffffffffffffffffffffffffffffff1916146129a0576040517f08c379a0000000000000000000000000000000000000000000000000000000008152600401612997906138d6565b60405180910390fd5b505b505050505050565b6129b8868686868686612a1b565b6129c0610dae565b15612a00576040517f08c379a00000000000000000000000000000000000000000000000000000000081526004016129f790613976565b60405180910390fd5b505050505050565b600080823b905060008111915050919050565b505050505050565b828054612a2f90613efd565b90600052602060002090601f016020900481019282612a515760008555612a98565b82601f10612a6a57805160ff1916838001178555612a98565b82800160010185558215612a98579182015b82811115612a97578251825591602001919060010190612a7c565b5b509050612aa59190612aa9565b5090565b5b80821115612ac2576000816000905550600101612aaa565b5090565b6000612ad9612ad484613c56565b613c31565b90508083825260208201905082856020860282011115612af857600080fd5b60005b85811015612b285781612b0e8882612c1a565b845260208401935060208301925050600181019050612afb565b5050509392505050565b6000612b45612b4084613c82565b613c31565b90508083825260208201905082856020860282011115612b6457600080fd5b60005b85811015612b945781612b7a8882612d16565b845260208401935060208301925050600181019050612b67565b5050509392505050565b6000612bb1612bac84613cae565b613c31565b905082815260208101848484011115612bc957600080fd5b612bd4848285613ebb565b509392505050565b6000612bef612bea84613cdf565b613c31565b905082815260208101848484011115612c0757600080fd5b612c12848285613ebb565b509392505050565b600081359050612c2981614721565b92915050565b600082601f830112612c4057600080fd5b8135612c50848260208601612ac6565b91505092915050565b600082601f830112612c6a57600080fd5b8135612c7a848260208601612b32565b91505092915050565b600081359050612c9281614738565b92915050565b600081359050612ca78161474f565b92915050565b600081519050612cbc8161474f565b92915050565b600082601f830112612cd357600080fd5b8135612ce3848260208601612b9e565b91505092915050565b600082601f830112612cfd57600080fd5b8135612d0d848260208601612bdc565b91505092915050565b600081359050612d2581614766565b92915050565b600060208284031215612d3d57600080fd5b6000612d4b84828501612c1a565b91505092915050565b60008060408385031215612d6757600080fd5b6000612d7585828601612c1a565b9250506020612d8685828601612c1a565b9150509250929050565b600080600080600060a08688031215612da857600080fd5b6000612db688828901612c1a565b9550506020612dc788828901612c1a565b945050604086013567ffffffffffffffff811115612de457600080fd5b612df088828901612c59565b935050606086013567ffffffffffffffff811115612e0d57600080fd5b612e1988828901612c59565b925050608086013567ffffffffffffffff811115612e3657600080fd5b612e4288828901612cc2565b9150509295509295909350565b600080600080600060a08688031215612e6757600080fd5b6000612e7588828901612c1a565b9550506020612e8688828901612c1a565b9450506040612e9788828901612d16565b9350506060612ea888828901612d16565b925050608086013567ffffffffffffffff811115612ec557600080fd5b612ed188828901612cc2565b9150509295509295909350565b600080600060608486031215612ef357600080fd5b6000612f0186828701612c1a565b935050602084013567ffffffffffffffff811115612f1e57600080fd5b612f2a86828701612c59565b925050604084013567ffffffffffffffff811115612f4757600080fd5b612f5386828701612c59565b9150509250925092565b60008060408385031215612f7057600080fd5b6000612f7e85828601612c1a565b9250506020612f8f85828601612c83565b9150509250929050565b60008060408385031215612fac57600080fd5b6000612fba85828601612c1a565b9250506020612fcb85828601612d16565b9150509250929050565b600080600060608486031215612fea57600080fd5b6000612ff886828701612c1a565b935050602061300986828701612d16565b925050604061301a86828701612d16565b9150509250925092565b6000806040838503121561303757600080fd5b600083013567ffffffffffffffff81111561305157600080fd5b61305d85828601612c2f565b925050602083013567ffffffffffffffff81111561307a57600080fd5b61308685828601612c59565b9150509250929050565b6000602082840312156130a257600080fd5b60006130b084828501612c98565b91505092915050565b6000602082840312156130cb57600080fd5b60006130d984828501612cad565b91505092915050565b600080600080600060a086880312156130fa57600080fd5b600086013567ffffffffffffffff81111561311457600080fd5b61312088828901612cec565b955050602061313188828901612d16565b945050604061314288828901612d16565b935050606061315388828901612d16565b925050608086013567ffffffffffffffff81111561317057600080fd5b61317c88828901612cc2565b9150509295509295909350565b60006020828403121561319b57600080fd5b60006131a984828501612d16565b91505092915050565b6000806000606084860312156131c757600080fd5b60006131d586828701612d16565b93505060206131e686828701612d16565b925050604084013567ffffffffffffffff81111561320357600080fd5b61320f86828701612cc2565b9150509250925092565b600061322583836136bb565b60208301905092915050565b61323a81613e47565b82525050565b600061324b82613d20565b6132558185613d4e565b935061326083613d10565b8060005b838110156132915781516132788882613219565b975061328383613d41565b925050600181019050613264565b5085935050505092915050565b6132a781613e59565b82525050565b60006132b882613d2b565b6132c28185613d5f565b93506132d2818560208601613eca565b6132db81614058565b840191505092915050565b60006132f182613d36565b6132fb8185613d7b565b935061330b818560208601613eca565b61331481614058565b840191505092915050565b600061332a82613d36565b6133348185613d8c565b9350613344818560208601613eca565b80840191505092915050565b600061335d603483613d7b565b915061336882614076565b604082019050919050565b6000613380602883613d7b565b915061338b826140c5565b604082019050919050565b60006133a3601483613d7b565b91506133ae82614114565b602082019050919050565b60006133c6602b83613d7b565b91506133d18261413d565b604082019050919050565b60006133e9602683613d7b565b91506133f48261418c565b604082019050919050565b600061340c602483613d7b565b9150613417826141db565b604082019050919050565b600061342f602c83613d7b565b915061343a8261422a565b604082019050919050565b6000613452602983613d7b565b915061345d82614279565b604082019050919050565b6000613475601483613d7b565b9150613480826142c8565b602082019050919050565b6000613498601283613d7b565b91506134a3826142f1565b602082019050919050565b60006134bb601e83613d7b565b91506134c68261431a565b602082019050919050565b60006134de601083613d7b565b91506134e982614343565b602082019050919050565b6000613501601583613d7b565b915061350c8261436c565b602082019050919050565b6000613524602583613d7b565b915061352f82614395565b604082019050919050565b6000613547603283613d7b565b9150613552826143e4565b604082019050919050565b600061356a602383613d7b565b915061357582614433565b604082019050919050565b600061358d602a83613d7b565b915061359882614482565b604082019050919050565b60006135b0602083613d7b565b91506135bb826144d1565b602082019050919050565b60006135d3600083613d70565b91506135de826144fa565b600082019050919050565b60006135f6602983613d7b565b9150613601826144fd565b604082019050919050565b6000613619602983613d7b565b91506136248261454c565b604082019050919050565b600061363c602883613d7b565b91506136478261459b565b604082019050919050565b600061365f602183613d7b565b915061366a826145ea565b604082019050919050565b6000613682601083613d7b565b915061368d82614639565b602082019050919050565b60006136a5601983613d7b565b91506136b082614662565b602082019050919050565b6136c481613eb1565b82525050565b6136d381613eb1565b82525050565b60006136e5828461331f565b915081905092915050565b60006136fb826135c6565b9150819050919050565b600060208201905061371a6000830184613231565b92915050565b600060a0820190506137356000830188613231565b6137426020830187613231565b81810360408301526137548186613240565b905081810360608301526137688185613240565b9050818103608083015261377c81846132ad565b90509695505050505050565b600060a08201905061379d6000830188613231565b6137aa6020830187613231565b6137b760408301866136ca565b6137c460608301856136ca565b81810360808301526137d681846132ad565b90509695505050505050565b600060208201905081810360008301526137fc8184613240565b905092915050565b6000604082019050818103600083015261381e8185613240565b905081810360208301526138328184613240565b90509392505050565b6000602082019050613850600083018461329e565b92915050565b6000602082019050818103600083015261387081846132e6565b905092915050565b6000606082019050818103600083015261389281866132e6565b90506138a160208301856136ca565b6138ae60408301846136ca565b949350505050565b600060208201905081810360008301526138cf81613350565b9050919050565b600060208201905081810360008301526138ef81613373565b9050919050565b6000602082019050818103600083015261390f81613396565b9050919050565b6000602082019050818103600083015261392f816133b9565b9050919050565b6000602082019050818103600083015261394f816133dc565b9050919050565b6000602082019050818103600083015261396f816133ff565b9050919050565b6000602082019050818103600083015261398f81613422565b9050919050565b600060208201905081810360008301526139af81613445565b9050919050565b600060208201905081810360008301526139cf81613468565b9050919050565b600060208201905081810360008301526139ef8161348b565b9050919050565b60006020820190508181036000830152613a0f816134ae565b9050919050565b60006020820190508181036000830152613a2f816134d1565b9050919050565b60006020820190508181036000830152613a4f816134f4565b9050919050565b60006020820190508181036000830152613a6f81613517565b9050919050565b60006020820190508181036000830152613a8f8161353a565b9050919050565b60006020820190508181036000830152613aaf8161355d565b9050919050565b60006020820190508181036000830152613acf81613580565b9050919050565b60006020820190508181036000830152613aef816135a3565b9050919050565b60006020820190508181036000830152613b0f816135e9565b9050919050565b60006020820190508181036000830152613b2f8161360c565b9050919050565b60006020820190508181036000830152613b4f8161362f565b9050919050565b60006020820190508181036000830152613b6f81613652565b9050919050565b60006020820190508181036000830152613b8f81613675565b9050919050565b60006020820190508181036000830152613baf81613698565b9050919050565b6000602082019050613bcb60008301846136ca565b92915050565b6000604082019050613be660008301856136ca565b613bf360208301846136ca565b9392505050565b6000606082019050613c0f60008301866136ca565b613c1c60208301856136ca565b613c2960408301846136ca565b949350505050565b6000613c3b613c4c565b9050613c478282613f2f565b919050565b6000604051905090565b600067ffffffffffffffff821115613c7157613c70614007565b5b602082029050602081019050919050565b600067ffffffffffffffff821115613c9d57613c9c614007565b5b602082029050602081019050919050565b600067ffffffffffffffff821115613cc957613cc8614007565b5b613cd282614058565b9050602081019050919050565b600067ffffffffffffffff821115613cfa57613cf9614007565b5b613d0382614058565b9050602081019050919050565b6000819050602082019050919050565b600081519050919050565b600081519050919050565b600081519050919050565b6000602082019050919050565b600082825260208201905092915050565b600082825260208201905092915050565b600081905092915050565b600082825260208201905092915050565b600081905092915050565b6000613da282613eb1565b9150613dad83613eb1565b9250827fffffffffffffffffffffffffffffffffffffffffffffffffffffffffffffffff03821115613de257613de1613fa9565b5b828201905092915050565b6000613df882613eb1565b9150613e0383613eb1565b9250817fffffffffffffffffffffffffffffffffffffffffffffffffffffffffffffffff0483118215151615613e3c57613e3b613fa9565b5b828202905092915050565b6000613e5282613e91565b9050919050565b60008115159050919050565b60007fffffffff0000000000000000000000000000000000000000000000000000000082169050919050565b600073ffffffffffffffffffffffffffffffffffffffff82169050919050565b6000819050919050565b82818337600083830152505050565b60005b83811015613ee8578082015181840152602081019050613ecd565b83811115613ef7576000848401525b50505050565b60006002820490506001821680613f1557607f821691505b60208210811415613f2957613f28613fd8565b5b50919050565b613f3882614058565b810181811067ffffffffffffffff82111715613f5757613f56614007565b5b80604052505050565b6000613f6b82613eb1565b91507fffffffffffffffffffffffffffffffffffffffffffffffffffffffffffffffff821415613f9e57613f9d613fa9565b5b600182019050919050565b7f4e487b7100000000000000000000000000000000000000000000000000000000600052601160045260246000fd5b7f4e487b7100000000000000000000000000000000000000000000000000000000600052602260045260246000fd5b7f4e487b7100000000000000000000000000000000000000000000000000000000600052604160045260246000fd5b600060033d11156140555760046000803e614052600051614069565b90505b90565b6000601f19601f8301169050919050565b60008160e01c9050919050565b7f455243313135353a207472616e7366657220746f206e6f6e204552433131353560008201527f526563656976657220696d706c656d656e746572000000000000000000000000602082015250565b7f455243313135353a204552433131353552656365697665722072656a6563746560008201527f6420746f6b656e73000000000000000000000000000000000000000000000000602082015250565b7f5061757361626c653a206e6f7420706175736564000000000000000000000000600082015250565b7f455243313135353a2062616c616e636520717565727920666f7220746865207a60008201527f65726f2061646472657373000000000000000000000000000000000000000000602082015250565b7f4f776e61626c653a206e6577206f776e657220697320746865207a65726f206160008201527f6464726573730000000000000000000000000000000000000000000000000000602082015250565b7f455243313135353a206275726e20616d6f756e7420657863656564732062616c60008201527f616e636500000000000000000000000000000000000000000000000000000000602082015250565b7f455243313135355061757361626c653a20746f6b656e207472616e736665722060008201527f7768696c65207061757365640000000000000000000000000000000000000000602082015250565b7f455243313135353a2063616c6c6572206973206e6f74206f776e6572206e6f7260008201527f20617070726f7665640000000000000000000000000000000000000000000000602082015250565b7f4661696c656420746f2073656e64204574686572000000000000000000000000600082015250565b7f4e6f7420656e6f756768207469636b6574730000000000000000000000000000600082015250565b7f4d617820616d6d6f756e742070657220706572736f6e20726561636865640000600082015250565b7f5061757361626c653a2070617573656400000000000000000000000000000000600082015250565b7f5469636b657420646f6573206e6f742065786973740000000000000000000000600082015250565b7f455243313135353a207472616e7366657220746f20746865207a65726f20616460008201527f6472657373000000000000000000000000000000000000000000000000000000602082015250565b7f455243313135353a207472616e736665722063616c6c6572206973206e6f742060008201527f6f776e6572206e6f7220617070726f7665640000000000000000000000000000602082015250565b7f455243313135353a206275726e2066726f6d20746865207a65726f206164647260008201527f6573730000000000000000000000000000000000000000000000000000000000602082015250565b7f455243313135353a20696e73756666696369656e742062616c616e636520666f60008201527f72207472616e7366657200000000000000000000000000000000000000000000602082015250565b7f4f776e61626c653a2063616c6c6572206973206e6f7420746865206f776e6572600082015250565b50565b7f455243313135353a2073657474696e6720617070726f76616c2073746174757360008201527f20666f722073656c660000000000000000000000000000000000000000000000602082015250565b7f455243313135353a206163636f756e747320616e6420696473206c656e67746860008201527f206d69736d617463680000000000000000000000000000000000000000000000602082015250565b7f455243313135353a2069647320616e6420616d6f756e7473206c656e6774682060008201527f6d69736d61746368000000000000000000000000000000000000000000000000602082015250565b7f455243313135353a206d696e7420746f20746865207a65726f2061646472657360008201527f7300000000000000000000000000000000000000000000000000000000000000602082015250565b7f496e636f727265637420616d6f756e7400000000000000000000000000000000600082015250565b7f416d6f756e74206d75737420626967676572207468616e203000000000000000600082015250565b600060443d101561469b5761471e565b6146a3613c4c565b60043d036004823e80513d602482011167ffffffffffffffff821117156146cb57505061471e565b808201805167ffffffffffffffff8111156146e9575050505061471e565b80602083010160043d03850181111561470657505050505061471e565b61471582602001850186613f2f565b82955050505050505b90565b61472a81613e47565b811461473557600080fd5b50565b61474181613e59565b811461474c57600080fd5b50565b61475881613e65565b811461476357600080fd5b50565b61476f81613eb1565b811461477a57600080fd5b5056fea2646970667358221220ca4af468778f118dd9c5e814604acc89eff8f72a5cfb707f870f20797b6d969564736f6c63430008020033",
  "immutableReferences": {},
  "source": "// SPDX-License-Identifier: MIT\npragma solidity ^0.8.2;\n\nimport \"@openzeppelin/contracts/token/ERC1155/ERC1155.sol\";\nimport \"@openzeppelin/contracts/access/Ownable.sol\";\nimport \"@openzeppelin/contracts/token/ERC1155/extensions/ERC1155Burnable.sol\";\nimport \"@openzeppelin/contracts/token/ERC1155/extensions/ERC1155Pausable.sol\";\nimport \"@openzeppelin/contracts/utils/Strings.sol\";\n\n// import \"base64-sol/base64.sol\";\n\n/// @custom:security-contact @javierlinked\ncontract TicketContract is ERC1155, Ownable, ERC1155Pausable, ERC1155Burnable {\n    uint256 public nonce;\n\n    struct Ticket {\n        string name;\n        uint256 price; // in Ether\n        uint256 maxSellPerPerson;\n    }\n\n    mapping(uint256 => Ticket) public tickets;\n\n    event TicketCreated(\n        uint256 indexed id,\n        address indexed minter,\n        string indexed name,\n        uint256 price,\n        uint256 amount,\n        uint256 maxSellPerPerson\n    );\n\n    event TicketSold(\n        uint256 indexed id,\n        address indexed from,\n        address indexed to,\n        uint256 amount\n    );\n\n    modifier paidEnough(uint256 amount, uint256 id) {\n        uint256 total = amount * tickets[id].price;\n        require(total <= msg.value, \"Incorrect amount\");\n        _;\n    }\n\n    modifier allowedSell(uint256 amount, uint256 id) {\n        require(amount > 0, \"Amount must bigger than 0\");\n        require(balanceOf(owner(), id) >= amount, \"Not enough tickets\");\n        require(\n            amount <= tickets[id].maxSellPerPerson,\n            \"Max ammount per person reached\"\n        );\n        _;\n    }\n\n    modifier validate(uint256 id) {\n        require(tickets[id].price != 0, \"Ticket does not exist\");\n        _;\n    }\n\n    constructor() ERC1155(\"\") {}\n\n    function create(\n        string memory name,\n        uint256 price,\n        uint256 amount,\n        uint256 maxSell,\n        bytes memory data\n    ) public onlyOwner whenNotPaused returns (uint256 id) {\n        address owner = msg.sender;\n        uint256 newId = ++nonce;\n        Ticket memory newTicket = Ticket(name, price, maxSell);\n        tickets[newId] = newTicket;\n        _mint(owner, newId, amount, data);\n        emit TicketCreated(newId, owner, name, price, amount, maxSell);\n        return newId;\n    }\n\n    function buy(\n        uint256 id,\n        uint256 amount,\n        bytes memory data\n    )\n        public\n        payable\n        allowedSell(amount, id)\n        paidEnough(amount, id)\n        validate(id)\n        whenNotPaused\n    {\n        address payable owner = payable(owner());\n        address buyer = msg.sender;\n        (bool sent, ) = owner.call{value: msg.value}(\"\");\n        require(sent, \"Failed to send Ether\");\n        _safeTransferFrom(owner, buyer, id, amount, data);\n        emit TicketSold(id, owner, buyer, amount);\n    }\n\n    function burn(\n        address account,\n        uint256 id,\n        uint256 amount\n    ) public override onlyOwner whenNotPaused {\n        _burn(account, id, amount);\n    }\n\n    /**\n     * @dev Pauses all token transfers.\n     *\n     * See {ERC1155Pausable} and {Pausable-_pause}.\n     *\n     * Requirements:\n     *\n     * - the caller must be owner.\n     */\n    function pause() public virtual onlyOwner {\n        _pause();\n    }\n\n    /**\n     * @dev Unpauses all token transfers.\n     *\n     * See {ERC1155Pausable} and {Pausable-_unpause}.\n     *\n     * Requirements:\n     *\n     * - the caller owner.\n     */\n    function unpause() public virtual onlyOwner {\n        _unpause();\n    }\n\n    function _beforeTokenTransfer(\n        address operator,\n        address from,\n        address to,\n        uint256[] memory ids,\n        uint256[] memory amounts,\n        bytes memory data\n    ) internal virtual override(ERC1155, ERC1155Pausable) {\n        super._beforeTokenTransfer(operator, from, to, ids, amounts, data);\n    }\n}\n",
  "sourcePath": "/Users/javier/dev/blockchain-developer-bootcamp-final-project/contracts/TicketContract.sol",
  "compiler": {
    "name": "solc",
    "version": "0.8.2+commit.661d1103.Emscripten.clang"
  },
  "schemaVersion": "3.4.3",
  "updatedAt": "2021-11-16T16:29:49.997Z",
  "devdoc": {
    "custom:security-contact": "@javierlinked",
    "kind": "dev",
    "methods": {
      "balanceOf(address,uint256)": {
        "details": "See {IERC1155-balanceOf}. Requirements: - `account` cannot be the zero address."
      },
      "balanceOfBatch(address[],uint256[])": {
        "details": "See {IERC1155-balanceOfBatch}. Requirements: - `accounts` and `ids` must have the same length."
      },
      "isApprovedForAll(address,address)": {
        "details": "See {IERC1155-isApprovedForAll}."
      },
      "owner()": {
        "details": "Returns the address of the current owner."
      },
      "pause()": {
        "details": "Pauses all token transfers. See {ERC1155Pausable} and {Pausable-_pause}. Requirements: - the caller must be owner."
      },
      "paused()": {
        "details": "Returns true if the contract is paused, and false otherwise."
      },
      "renounceOwnership()": {
        "details": "Leaves the contract without owner. It will not be possible to call `onlyOwner` functions anymore. Can only be called by the current owner. NOTE: Renouncing ownership will leave the contract without an owner, thereby removing any functionality that is only available to the owner."
      },
      "safeBatchTransferFrom(address,address,uint256[],uint256[],bytes)": {
        "details": "See {IERC1155-safeBatchTransferFrom}."
      },
      "safeTransferFrom(address,address,uint256,uint256,bytes)": {
        "details": "See {IERC1155-safeTransferFrom}."
      },
      "setApprovalForAll(address,bool)": {
        "details": "See {IERC1155-setApprovalForAll}."
      },
      "supportsInterface(bytes4)": {
        "details": "See {IERC165-supportsInterface}."
      },
      "transferOwnership(address)": {
        "details": "Transfers ownership of the contract to a new account (`newOwner`). Can only be called by the current owner."
      },
      "unpause()": {
        "details": "Unpauses all token transfers. See {ERC1155Pausable} and {Pausable-_unpause}. Requirements: - the caller owner."
      },
      "uri(uint256)": {
        "details": "See {IERC1155MetadataURI-uri}. This implementation returns the same URI for *all* token types. It relies on the token type ID substitution mechanism https://eips.ethereum.org/EIPS/eip-1155#metadata[defined in the EIP]. Clients calling this function must replace the `\\{id\\}` substring with the actual token type ID."
      }
    },
    "version": 1
  },
  "userdoc": {
    "kind": "user",
    "methods": {},
    "version": 1
  }
}