{
  "contractName": "TicketContract",
  "abi": [
    {
      "inputs": [],
      "stateMutability": "nonpayable",
      "type": "constructor"
    },
    {
      "anonymous": false,
      "inputs": [
        {
          "indexed": true,
          "internalType": "address",
          "name": "account",
          "type": "address"
        },
        {
          "indexed": true,
          "internalType": "address",
          "name": "operator",
          "type": "address"
        },
        {
          "indexed": false,
          "internalType": "bool",
          "name": "approved",
          "type": "bool"
        }
      ],
      "name": "ApprovalForAll",
      "type": "event"
    },
    {
      "anonymous": false,
      "inputs": [
        {
          "indexed": true,
          "internalType": "address",
          "name": "previousOwner",
          "type": "address"
        },
        {
          "indexed": true,
          "internalType": "address",
          "name": "newOwner",
          "type": "address"
        }
      ],
      "name": "OwnershipTransferred",
      "type": "event"
    },
    {
      "anonymous": false,
      "inputs": [
        {
          "indexed": false,
          "internalType": "address",
          "name": "account",
          "type": "address"
        }
      ],
      "name": "Paused",
      "type": "event"
    },
    {
      "anonymous": false,
      "inputs": [
        {
          "indexed": true,
          "internalType": "uint256",
          "name": "id",
          "type": "uint256"
        },
        {
          "indexed": true,
          "internalType": "address",
          "name": "minter",
          "type": "address"
        },
        {
          "indexed": true,
          "internalType": "string",
          "name": "name",
          "type": "string"
        },
        {
          "indexed": false,
          "internalType": "uint256",
          "name": "price",
          "type": "uint256"
        },
        {
          "indexed": false,
          "internalType": "uint256",
          "name": "amount",
          "type": "uint256"
        },
        {
          "indexed": false,
          "internalType": "uint256",
          "name": "maxSellPerPerson",
          "type": "uint256"
        }
      ],
      "name": "TicketCreated",
      "type": "event"
    },
    {
      "anonymous": false,
      "inputs": [
        {
          "indexed": true,
          "internalType": "uint256",
          "name": "id",
          "type": "uint256"
        },
        {
          "indexed": true,
          "internalType": "address",
          "name": "seller",
          "type": "address"
        },
        {
          "indexed": true,
          "internalType": "address",
          "name": "buyer",
          "type": "address"
        },
        {
          "indexed": false,
          "internalType": "uint256",
          "name": "amount",
          "type": "uint256"
        }
      ],
      "name": "TicketSold",
      "type": "event"
    },
    {
      "anonymous": false,
      "inputs": [
        {
          "indexed": true,
          "internalType": "address",
          "name": "operator",
          "type": "address"
        },
        {
          "indexed": true,
          "internalType": "address",
          "name": "from",
          "type": "address"
        },
        {
          "indexed": true,
          "internalType": "address",
          "name": "to",
          "type": "address"
        },
        {
          "indexed": false,
          "internalType": "uint256[]",
          "name": "ids",
          "type": "uint256[]"
        },
        {
          "indexed": false,
          "internalType": "uint256[]",
          "name": "values",
          "type": "uint256[]"
        }
      ],
      "name": "TransferBatch",
      "type": "event"
    },
    {
      "anonymous": false,
      "inputs": [
        {
          "indexed": true,
          "internalType": "address",
          "name": "operator",
          "type": "address"
        },
        {
          "indexed": true,
          "internalType": "address",
          "name": "from",
          "type": "address"
        },
        {
          "indexed": true,
          "internalType": "address",
          "name": "to",
          "type": "address"
        },
        {
          "indexed": false,
          "internalType": "uint256",
          "name": "id",
          "type": "uint256"
        },
        {
          "indexed": false,
          "internalType": "uint256",
          "name": "value",
          "type": "uint256"
        }
      ],
      "name": "TransferSingle",
      "type": "event"
    },
    {
      "anonymous": false,
      "inputs": [
        {
          "indexed": false,
          "internalType": "string",
          "name": "value",
          "type": "string"
        },
        {
          "indexed": true,
          "internalType": "uint256",
          "name": "id",
          "type": "uint256"
        }
      ],
      "name": "URI",
      "type": "event"
    },
    {
      "anonymous": false,
      "inputs": [
        {
          "indexed": false,
          "internalType": "address",
          "name": "account",
          "type": "address"
        }
      ],
      "name": "Unpaused",
      "type": "event"
    },
    {
      "inputs": [
        {
          "internalType": "address",
          "name": "account",
          "type": "address"
        },
        {
          "internalType": "uint256",
          "name": "id",
          "type": "uint256"
        }
      ],
      "name": "balanceOf",
      "outputs": [
        {
          "internalType": "uint256",
          "name": "",
          "type": "uint256"
        }
      ],
      "stateMutability": "view",
      "type": "function",
      "constant": true
    },
    {
      "inputs": [
        {
          "internalType": "address[]",
          "name": "accounts",
          "type": "address[]"
        },
        {
          "internalType": "uint256[]",
          "name": "ids",
          "type": "uint256[]"
        }
      ],
      "name": "balanceOfBatch",
      "outputs": [
        {
          "internalType": "uint256[]",
          "name": "",
          "type": "uint256[]"
        }
      ],
      "stateMutability": "view",
      "type": "function",
      "constant": true
    },
    {
      "inputs": [
        {
          "internalType": "address",
          "name": "account",
          "type": "address"
        },
        {
          "internalType": "uint256[]",
          "name": "ids",
          "type": "uint256[]"
        },
        {
          "internalType": "uint256[]",
          "name": "values",
          "type": "uint256[]"
        }
      ],
      "name": "burnBatch",
      "outputs": [],
      "stateMutability": "nonpayable",
      "type": "function"
    },
    {
      "inputs": [
        {
          "internalType": "address",
          "name": "account",
          "type": "address"
        },
        {
          "internalType": "address",
          "name": "operator",
          "type": "address"
        }
      ],
      "name": "isApprovedForAll",
      "outputs": [
        {
          "internalType": "bool",
          "name": "",
          "type": "bool"
        }
      ],
      "stateMutability": "view",
      "type": "function",
      "constant": true
    },
    {
      "inputs": [],
      "name": "nonce",
      "outputs": [
        {
          "internalType": "uint256",
          "name": "",
          "type": "uint256"
        }
      ],
      "stateMutability": "view",
      "type": "function",
      "constant": true
    },
    {
      "inputs": [],
      "name": "owner",
      "outputs": [
        {
          "internalType": "address",
          "name": "",
          "type": "address"
        }
      ],
      "stateMutability": "view",
      "type": "function",
      "constant": true
    },
    {
      "inputs": [],
      "name": "paused",
      "outputs": [
        {
          "internalType": "bool",
          "name": "",
          "type": "bool"
        }
      ],
      "stateMutability": "view",
      "type": "function",
      "constant": true
    },
    {
      "inputs": [],
      "name": "renounceOwnership",
      "outputs": [],
      "stateMutability": "nonpayable",
      "type": "function"
    },
    {
      "inputs": [
        {
          "internalType": "address",
          "name": "from",
          "type": "address"
        },
        {
          "internalType": "address",
          "name": "to",
          "type": "address"
        },
        {
          "internalType": "uint256[]",
          "name": "ids",
          "type": "uint256[]"
        },
        {
          "internalType": "uint256[]",
          "name": "amounts",
          "type": "uint256[]"
        },
        {
          "internalType": "bytes",
          "name": "data",
          "type": "bytes"
        }
      ],
      "name": "safeBatchTransferFrom",
      "outputs": [],
      "stateMutability": "nonpayable",
      "type": "function"
    },
    {
      "inputs": [
        {
          "internalType": "address",
          "name": "from",
          "type": "address"
        },
        {
          "internalType": "address",
          "name": "to",
          "type": "address"
        },
        {
          "internalType": "uint256",
          "name": "id",
          "type": "uint256"
        },
        {
          "internalType": "uint256",
          "name": "amount",
          "type": "uint256"
        },
        {
          "internalType": "bytes",
          "name": "data",
          "type": "bytes"
        }
      ],
      "name": "safeTransferFrom",
      "outputs": [],
      "stateMutability": "nonpayable",
      "type": "function"
    },
    {
      "inputs": [
        {
          "internalType": "address",
          "name": "operator",
          "type": "address"
        },
        {
          "internalType": "bool",
          "name": "approved",
          "type": "bool"
        }
      ],
      "name": "setApprovalForAll",
      "outputs": [],
      "stateMutability": "nonpayable",
      "type": "function"
    },
    {
      "inputs": [
        {
          "internalType": "bytes4",
          "name": "interfaceId",
          "type": "bytes4"
        }
      ],
      "name": "supportsInterface",
      "outputs": [
        {
          "internalType": "bool",
          "name": "",
          "type": "bool"
        }
      ],
      "stateMutability": "view",
      "type": "function",
      "constant": true
    },
    {
      "inputs": [
        {
          "internalType": "uint256",
          "name": "",
          "type": "uint256"
        }
      ],
      "name": "tickets",
      "outputs": [
        {
          "internalType": "uint256",
          "name": "id",
          "type": "uint256"
        },
        {
          "internalType": "string",
          "name": "name",
          "type": "string"
        },
        {
          "internalType": "uint256",
          "name": "price",
          "type": "uint256"
        },
        {
          "internalType": "uint256",
          "name": "maxSellPerPerson",
          "type": "uint256"
        },
        {
          "internalType": "string",
          "name": "infoUrl",
          "type": "string"
        },
        {
          "internalType": "string",
          "name": "imageUrl",
          "type": "string"
        }
      ],
      "stateMutability": "view",
      "type": "function",
      "constant": true
    },
    {
      "inputs": [
        {
          "internalType": "uint256",
          "name": "",
          "type": "uint256"
        }
      ],
      "name": "tokenIds",
      "outputs": [
        {
          "internalType": "uint256",
          "name": "",
          "type": "uint256"
        }
      ],
      "stateMutability": "view",
      "type": "function",
      "constant": true
    },
    {
      "inputs": [],
      "name": "tokenIdsLength",
      "outputs": [
        {
          "internalType": "uint256",
          "name": "",
          "type": "uint256"
        }
      ],
      "stateMutability": "view",
      "type": "function",
      "constant": true
    },
    {
      "inputs": [
        {
          "internalType": "address",
          "name": "newOwner",
          "type": "address"
        }
      ],
      "name": "transferOwnership",
      "outputs": [],
      "stateMutability": "nonpayable",
      "type": "function"
    },
    {
      "inputs": [
        {
          "internalType": "uint256",
          "name": "",
          "type": "uint256"
        }
      ],
      "name": "uri",
      "outputs": [
        {
          "internalType": "string",
          "name": "",
          "type": "string"
        }
      ],
      "stateMutability": "view",
      "type": "function",
      "constant": true
    },
    {
      "inputs": [
        {
          "internalType": "string",
          "name": "name",
          "type": "string"
        },
        {
          "internalType": "uint256",
          "name": "price",
          "type": "uint256"
        },
        {
          "internalType": "uint256",
          "name": "amount",
          "type": "uint256"
        },
        {
          "internalType": "uint256",
          "name": "maxSellPerPerson",
          "type": "uint256"
        },
        {
          "internalType": "string",
          "name": "infoUrl",
          "type": "string"
        },
        {
          "internalType": "string",
          "name": "imageUrl",
          "type": "string"
        },
        {
          "internalType": "bytes",
          "name": "data",
          "type": "bytes"
        }
      ],
      "name": "create",
      "outputs": [],
      "stateMutability": "nonpayable",
      "type": "function"
    },
    {
      "inputs": [
        {
          "internalType": "uint256",
          "name": "id",
          "type": "uint256"
        },
        {
          "internalType": "uint256",
          "name": "amount",
          "type": "uint256"
        },
        {
          "internalType": "bytes",
          "name": "data",
          "type": "bytes"
        }
      ],
      "name": "buy",
      "outputs": [],
      "stateMutability": "payable",
      "type": "function",
      "payable": true
    },
    {
      "inputs": [
        {
          "internalType": "address",
          "name": "account",
          "type": "address"
        },
        {
          "internalType": "uint256",
          "name": "id",
          "type": "uint256"
        },
        {
          "internalType": "uint256",
          "name": "amount",
          "type": "uint256"
        }
      ],
      "name": "burn",
      "outputs": [],
      "stateMutability": "nonpayable",
      "type": "function"
    },
    {
      "inputs": [],
      "name": "pause",
      "outputs": [],
      "stateMutability": "nonpayable",
      "type": "function"
    },
    {
      "inputs": [],
      "name": "unpause",
      "outputs": [],
      "stateMutability": "nonpayable",
      "type": "function"
    }
  ],
  "bytecode": "0x60806040523480156200001157600080fd5b506040518060200160405280600081525062000033816200007d60201b60201c565b5062000054620000486200009960201b60201c565b620000a160201b60201c565b6000600360146101000a81548160ff02191690831515021790555060006004819055506200027c565b80600290805190602001906200009592919062000167565b5050565b600033905090565b6000600360009054906101000a900473ffffffffffffffffffffffffffffffffffffffff16905081600360006101000a81548173ffffffffffffffffffffffffffffffffffffffff021916908373ffffffffffffffffffffffffffffffffffffffff1602179055508173ffffffffffffffffffffffffffffffffffffffff168173ffffffffffffffffffffffffffffffffffffffff167f8be0079c531659141344cd1fd0a4f28419497f9722a3daafe3b4186f6b6457e060405160405180910390a35050565b828054620001759062000246565b90600052602060002090601f016020900481019282620001995760008555620001e5565b82601f10620001b457805160ff1916838001178555620001e5565b82800160010185558215620001e5579182015b82811115620001e4578251825591602001919060010190620001c7565b5b509050620001f49190620001f8565b5090565b5b8082111562000213576000816000905550600101620001f9565b5090565b7f4e487b7100000000000000000000000000000000000000000000000000000000600052602260045260246000fd5b600060028204905060018216806200025f57607f821691505b6020821081141562000276576200027562000217565b5b50919050565b614930806200028c6000396000f3fe6080604052600436106101345760003560e01c80638456cb59116100ab578063d58778d61161006f578063d58778d6146103f5578063e6b7ad7914610432578063e985e9c51461045d578063f242432a1461049a578063f2fde38b146104c3578063f5298aca146104ec57610134565b80638456cb59146103365780638da5cb5b1461034d578063a0ceaf5514610378578063a22cb465146103a1578063affed0e0146103ca57610134565b80633f4ba83a116100fd5780633f4ba83a146102355780634e1273f41461024c57806350b44712146102895780635c975abb146102cb5780636b20c454146102f6578063715018a61461031f57610134565b8062fdd58e1461013957806301ffc9a7146101765780630e89341c146101b35780631efd73a5146101f05780632eb2c2d61461020c575b600080fd5b34801561014557600080fd5b50610160600480360381019061015b9190612b96565b610515565b60405161016d9190612be5565b60405180910390f35b34801561018257600080fd5b5061019d60048036038101906101989190612c58565b6105de565b6040516101aa9190612ca0565b60405180910390f35b3480156101bf57600080fd5b506101da60048036038101906101d59190612cbb565b6106c0565b6040516101e79190612d81565b60405180910390f35b61020a60048036038101906102059190612ed8565b610754565b005b34801561021857600080fd5b50610233600480360381019061022e919061300f565b610a90565b005b34801561024157600080fd5b5061024a610b31565b005b34801561025857600080fd5b50610273600480360381019061026e91906131a1565b610bb7565b60405161028091906132d7565b60405180910390f35b34801561029557600080fd5b506102b060048036038101906102ab9190612cbb565b610cd0565b6040516102c2969594939291906132f9565b60405180910390f35b3480156102d757600080fd5b506102e0610ea4565b6040516102ed9190612ca0565b60405180910390f35b34801561030257600080fd5b5061031d6004803603810190610318919061336f565b610ebb565b005b34801561032b57600080fd5b50610334610f58565b005b34801561034257600080fd5b5061034b610fe0565b005b34801561035957600080fd5b50610362611066565b60405161036f9190613409565b60405180910390f35b34801561038457600080fd5b5061039f600480360381019061039a91906134c5565b611090565b005b3480156103ad57600080fd5b506103c860048036038101906103c39190613603565b6112e5565b005b3480156103d657600080fd5b506103df611466565b6040516103ec9190612be5565b60405180910390f35b34801561040157600080fd5b5061041c60048036038101906104179190612cbb565b61146c565b6040516104299190612be5565b60405180910390f35b34801561043e57600080fd5b50610447611490565b6040516104549190612be5565b60405180910390f35b34801561046957600080fd5b50610484600480360381019061047f9190613643565b611496565b6040516104919190612ca0565b60405180910390f35b3480156104a657600080fd5b506104c160048036038101906104bc9190613683565b61152a565b005b3480156104cf57600080fd5b506104ea60048036038101906104e5919061371a565b6115cb565b005b3480156104f857600080fd5b50610513600480360381019061050e9190613747565b6116c3565b005b60008073ffffffffffffffffffffffffffffffffffffffff168373ffffffffffffffffffffffffffffffffffffffff161415610586576040517f08c379a000000000000000000000000000000000000000000000000000000000815260040161057d9061380c565b60405180910390fd5b60008083815260200190815260200160002060008473ffffffffffffffffffffffffffffffffffffffff1673ffffffffffffffffffffffffffffffffffffffff16815260200190815260200160002054905092915050565b60007fd9b67a26000000000000000000000000000000000000000000000000000000007bffffffffffffffffffffffffffffffffffffffffffffffffffffffff1916827bffffffffffffffffffffffffffffffffffffffffffffffffffffffff191614806106a957507f0e89341c000000000000000000000000000000000000000000000000000000007bffffffffffffffffffffffffffffffffffffffffffffffffffffffff1916827bffffffffffffffffffffffffffffffffffffffffffffffffffffffff1916145b806106b957506106b88261171b565b5b9050919050565b6060600280546106cf9061385b565b80601f01602080910402602001604051908101604052809291908181526020018280546106fb9061385b565b80156107485780601f1061071d57610100808354040283529160200191610748565b820191906000526020600020905b81548152906001019060200180831161072b57829003601f168201915b50505050509050919050565b818360008211610799576040517f08c379a0000000000000000000000000000000000000000000000000000000008152600401610790906138d9565b60405180910390fd5b816107ab6107a5611066565b83610515565b10156107ec576040517f08c379a00000000000000000000000000000000000000000000000000000000081526004016107e390613945565b60405180910390fd5b6007600082815260200190815260200160002060030154821115610845576040517f08c379a000000000000000000000000000000000000000000000000000000000815260040161083c906139b1565b60405180910390fd5b8385600060076000838152602001908152602001600020600201548361086b9190613a00565b90503481146108af576040517f08c379a00000000000000000000000000000000000000000000000000000000081526004016108a690613aa6565b60405180910390fd5b8760006007600083815260200190815260200160002060020154141561090a576040517f08c379a000000000000000000000000000000000000000000000000000000000815260040161090190613b12565b60405180910390fd5b610912610ea4565b15610952576040517f08c379a000000000000000000000000000000000000000000000000000000000815260040161094990613b7e565b60405180910390fd5b600061095c611066565b9050600033905060008273ffffffffffffffffffffffffffffffffffffffff163460405161098990613bcf565b60006040518083038185875af1925050503d80600081146109c6576040519150601f19603f3d011682016040523d82523d6000602084013e6109cb565b606091505b5050905080610a0f576040517f08c379a0000000000000000000000000000000000000000000000000000000008152600401610a0690613c30565b60405180910390fd5b610a1c83838e8e8e611785565b8173ffffffffffffffffffffffffffffffffffffffff168373ffffffffffffffffffffffffffffffffffffffff168d7f2bbc64d6afd28a753f6c5e4aaa894f1d684c44a0e080167eae104ac8505cfebd8e604051610a7a9190612be5565b60405180910390a4505050505050505050505050565b610a98611a07565b73ffffffffffffffffffffffffffffffffffffffff168573ffffffffffffffffffffffffffffffffffffffff161480610ade5750610add85610ad8611a07565b611496565b5b610b1d576040517f08c379a0000000000000000000000000000000000000000000000000000000008152600401610b1490613cc2565b60405180910390fd5b610b2a8585858585611a0f565b5050505050565b610b39611a07565b73ffffffffffffffffffffffffffffffffffffffff16610b57611066565b73ffffffffffffffffffffffffffffffffffffffff1614610bad576040517f08c379a0000000000000000000000000000000000000000000000000000000008152600401610ba490613d2e565b60405180910390fd5b610bb5611d23565b565b60608151835114610bfd576040517f08c379a0000000000000000000000000000000000000000000000000000000008152600401610bf490613dc0565b60405180910390fd5b6000835167ffffffffffffffff811115610c1a57610c19612dad565b5b604051908082528060200260200182016040528015610c485781602001602082028036833780820191505090505b50905060005b8451811015610cc557610c95858281518110610c6d57610c6c613de0565b5b6020026020010151858381518110610c8857610c87613de0565b5b6020026020010151610515565b828281518110610ca857610ca7613de0565b5b60200260200101818152505080610cbe90613e0f565b9050610c4e565b508091505092915050565b6007602052806000526040600020600091509050806000015490806001018054610cf99061385b565b80601f0160208091040260200160405190810160405280929190818152602001828054610d259061385b565b8015610d725780601f10610d4757610100808354040283529160200191610d72565b820191906000526020600020905b815481529060010190602001808311610d5557829003601f168201915b505050505090806002015490806003015490806004018054610d939061385b565b80601f0160208091040260200160405190810160405280929190818152602001828054610dbf9061385b565b8015610e0c5780601f10610de157610100808354040283529160200191610e0c565b820191906000526020600020905b815481529060010190602001808311610def57829003601f168201915b505050505090806005018054610e219061385b565b80601f0160208091040260200160405190810160405280929190818152602001828054610e4d9061385b565b8015610e9a5780601f10610e6f57610100808354040283529160200191610e9a565b820191906000526020600020905b815481529060010190602001808311610e7d57829003601f168201915b5050505050905086565b6000600360149054906101000a900460ff16905090565b610ec3611a07565b73ffffffffffffffffffffffffffffffffffffffff168373ffffffffffffffffffffffffffffffffffffffff161480610f095750610f0883610f03611a07565b611496565b5b610f48576040517f08c379a0000000000000000000000000000000000000000000000000000000008152600401610f3f90613eca565b60405180910390fd5b610f53838383611dc5565b505050565b610f60611a07565b73ffffffffffffffffffffffffffffffffffffffff16610f7e611066565b73ffffffffffffffffffffffffffffffffffffffff1614610fd4576040517f08c379a0000000000000000000000000000000000000000000000000000000008152600401610fcb90613d2e565b60405180910390fd5b610fde6000612076565b565b610fe8611a07565b73ffffffffffffffffffffffffffffffffffffffff16611006611066565b73ffffffffffffffffffffffffffffffffffffffff161461105c576040517f08c379a000000000000000000000000000000000000000000000000000000000815260040161105390613d2e565b60405180910390fd5b61106461213c565b565b6000600360009054906101000a900473ffffffffffffffffffffffffffffffffffffffff16905090565b611098611a07565b73ffffffffffffffffffffffffffffffffffffffff166110b6611066565b73ffffffffffffffffffffffffffffffffffffffff161461110c576040517f08c379a000000000000000000000000000000000000000000000000000000000815260040161110390613d2e565b60405180910390fd5b611114610ea4565b15611154576040517f08c379a000000000000000000000000000000000000000000000000000000000815260040161114b90613b7e565b60405180910390fd5b600060046000815461116590613e0f565b9190508190559050600033905060006040518060c001604052808481526020018b81526020018a815260200188815260200187815260200186815250905060058390806001815401808255809150506001900390600052602060002001600090919091909150556005805490506006819055508060076000858152602001908152602001600020600082015181600001556020820151816001019080519060200190611212929190612a4b565b5060408201518160020155606082015181600301556080820151816004019080519060200190611243929190612a4b565b5060a0820151816005019080519060200190611260929190612a4b565b5090505061127082848a876121df565b8960405161127e9190613f26565b60405180910390208273ffffffffffffffffffffffffffffffffffffffff16847f9d783e202083d1fb37ad562ef4e7776ae35886aa85bb86b72e48e66f58f03f4d8c8c8c6040516112d193929190613f3d565b60405180910390a450505050505050505050565b8173ffffffffffffffffffffffffffffffffffffffff16611304611a07565b73ffffffffffffffffffffffffffffffffffffffff16141561135b576040517f08c379a000000000000000000000000000000000000000000000000000000000815260040161135290613fe6565b60405180910390fd5b8060016000611368611a07565b73ffffffffffffffffffffffffffffffffffffffff1673ffffffffffffffffffffffffffffffffffffffff16815260200190815260200160002060008473ffffffffffffffffffffffffffffffffffffffff1673ffffffffffffffffffffffffffffffffffffffff16815260200190815260200160002060006101000a81548160ff0219169083151502179055508173ffffffffffffffffffffffffffffffffffffffff16611415611a07565b73ffffffffffffffffffffffffffffffffffffffff167f17307eab39ab6107e8899845ad3d59bd9653f200f220920489ca2b5937696c318360405161145a9190612ca0565b60405180910390a35050565b60045481565b6005818154811061147c57600080fd5b906000526020600020016000915090505481565b60065481565b6000600160008473ffffffffffffffffffffffffffffffffffffffff1673ffffffffffffffffffffffffffffffffffffffff16815260200190815260200160002060008373ffffffffffffffffffffffffffffffffffffffff1673ffffffffffffffffffffffffffffffffffffffff16815260200190815260200160002060009054906101000a900460ff16905092915050565b611532611a07565b73ffffffffffffffffffffffffffffffffffffffff168573ffffffffffffffffffffffffffffffffffffffff161480611578575061157785611572611a07565b611496565b5b6115b7576040517f08c379a00000000000000000000000000000000000000000000000000000000081526004016115ae90613eca565b60405180910390fd5b6115c48585858585611785565b5050505050565b6115d3611a07565b73ffffffffffffffffffffffffffffffffffffffff166115f1611066565b73ffffffffffffffffffffffffffffffffffffffff1614611647576040517f08c379a000000000000000000000000000000000000000000000000000000000815260040161163e90613d2e565b60405180910390fd5b600073ffffffffffffffffffffffffffffffffffffffff168173ffffffffffffffffffffffffffffffffffffffff1614156116b7576040517f08c379a00000000000000000000000000000000000000000000000000000000081526004016116ae90614078565b60405180910390fd5b6116c081612076565b50565b6116cb610ea4565b1561170b576040517f08c379a000000000000000000000000000000000000000000000000000000000815260040161170290613b7e565b60405180910390fd5b611716838383612375565b505050565b60007f01ffc9a7000000000000000000000000000000000000000000000000000000007bffffffffffffffffffffffffffffffffffffffffffffffffffffffff1916827bffffffffffffffffffffffffffffffffffffffffffffffffffffffff1916149050919050565b600073ffffffffffffffffffffffffffffffffffffffff168473ffffffffffffffffffffffffffffffffffffffff1614156117f5576040517f08c379a00000000000000000000000000000000000000000000000000000000081526004016117ec9061410a565b60405180910390fd5b60006117ff611a07565b905061181f81878761181088612592565b61181988612592565b8761260c565b600080600086815260200190815260200160002060008873ffffffffffffffffffffffffffffffffffffffff1673ffffffffffffffffffffffffffffffffffffffff168152602001908152602001600020549050838110156118b6576040517f08c379a00000000000000000000000000000000000000000000000000000000081526004016118ad9061419c565b60405180910390fd5b83810360008087815260200190815260200160002060008973ffffffffffffffffffffffffffffffffffffffff1673ffffffffffffffffffffffffffffffffffffffff168152602001908152602001600020819055508360008087815260200190815260200160002060008873ffffffffffffffffffffffffffffffffffffffff1673ffffffffffffffffffffffffffffffffffffffff168152602001908152602001600020600082825461196b91906141bc565b925050819055508573ffffffffffffffffffffffffffffffffffffffff168773ffffffffffffffffffffffffffffffffffffffff168373ffffffffffffffffffffffffffffffffffffffff167fc3d58168c5ae7397731d063d5bbf3d657854427343f4c083240f7aacaa2d0f6288886040516119e8929190614212565b60405180910390a46119fe828888888888612622565b50505050505050565b600033905090565b8151835114611a53576040517f08c379a0000000000000000000000000000000000000000000000000000000008152600401611a4a906142ad565b60405180910390fd5b600073ffffffffffffffffffffffffffffffffffffffff168473ffffffffffffffffffffffffffffffffffffffff161415611ac3576040517f08c379a0000000000000000000000000000000000000000000000000000000008152600401611aba9061410a565b60405180910390fd5b6000611acd611a07565b9050611add81878787878761260c565b60005b8451811015611c8e576000858281518110611afe57611afd613de0565b5b602002602001015190506000858381518110611b1d57611b1c613de0565b5b60200260200101519050600080600084815260200190815260200160002060008b73ffffffffffffffffffffffffffffffffffffffff1673ffffffffffffffffffffffffffffffffffffffff16815260200190815260200160002054905081811015611bbe576040517f08c379a0000000000000000000000000000000000000000000000000000000008152600401611bb59061419c565b60405180910390fd5b81810360008085815260200190815260200160002060008c73ffffffffffffffffffffffffffffffffffffffff1673ffffffffffffffffffffffffffffffffffffffff168152602001908152602001600020819055508160008085815260200190815260200160002060008b73ffffffffffffffffffffffffffffffffffffffff1673ffffffffffffffffffffffffffffffffffffffff1681526020019081526020016000206000828254611c7391906141bc565b9250508190555050505080611c8790613e0f565b9050611ae0565b508473ffffffffffffffffffffffffffffffffffffffff168673ffffffffffffffffffffffffffffffffffffffff168273ffffffffffffffffffffffffffffffffffffffff167f4a39dc06d4c0dbc64b70af90fd698a233a518aa5d07e595d983b8c0526c8f7fb8787604051611d059291906142cd565b60405180910390a4611d1b8187878787876127fa565b505050505050565b611d2b610ea4565b611d6a576040517f08c379a0000000000000000000000000000000000000000000000000000000008152600401611d6190614350565b60405180910390fd5b6000600360146101000a81548160ff0219169083151502179055507f5db9ee0a495bf2e6ff9c91a7834c1ba4fdd244a5e8aa4e537bd38aeae4b073aa611dae611a07565b604051611dbb9190613409565b60405180910390a1565b600073ffffffffffffffffffffffffffffffffffffffff168373ffffffffffffffffffffffffffffffffffffffff161415611e35576040517f08c379a0000000000000000000000000000000000000000000000000000000008152600401611e2c906143e2565b60405180910390fd5b8051825114611e79576040517f08c379a0000000000000000000000000000000000000000000000000000000008152600401611e70906142ad565b60405180910390fd5b6000611e83611a07565b9050611ea38185600086866040518060200160405280600081525061260c565b60005b8351811015611ff0576000848281518110611ec457611ec3613de0565b5b602002602001015190506000848381518110611ee357611ee2613de0565b5b60200260200101519050600080600084815260200190815260200160002060008973ffffffffffffffffffffffffffffffffffffffff1673ffffffffffffffffffffffffffffffffffffffff16815260200190815260200160002054905081811015611f84576040517f08c379a0000000000000000000000000000000000000000000000000000000008152600401611f7b90614474565b60405180910390fd5b81810360008085815260200190815260200160002060008a73ffffffffffffffffffffffffffffffffffffffff1673ffffffffffffffffffffffffffffffffffffffff168152602001908152602001600020819055505050508080611fe890613e0f565b915050611ea6565b50600073ffffffffffffffffffffffffffffffffffffffff168473ffffffffffffffffffffffffffffffffffffffff168273ffffffffffffffffffffffffffffffffffffffff167f4a39dc06d4c0dbc64b70af90fd698a233a518aa5d07e595d983b8c0526c8f7fb86866040516120689291906142cd565b60405180910390a450505050565b6000600360009054906101000a900473ffffffffffffffffffffffffffffffffffffffff16905081600360006101000a81548173ffffffffffffffffffffffffffffffffffffffff021916908373ffffffffffffffffffffffffffffffffffffffff1602179055508173ffffffffffffffffffffffffffffffffffffffff168173ffffffffffffffffffffffffffffffffffffffff167f8be0079c531659141344cd1fd0a4f28419497f9722a3daafe3b4186f6b6457e060405160405180910390a35050565b612144610ea4565b15612184576040517f08c379a000000000000000000000000000000000000000000000000000000000815260040161217b90613b7e565b60405180910390fd5b6001600360146101000a81548160ff0219169083151502179055507f62e78cea01bee320cd4e420270b5ea74000d11b0c9f74754ebdbfc544b05a2586121c8611a07565b6040516121d59190613409565b60405180910390a1565b600073ffffffffffffffffffffffffffffffffffffffff168473ffffffffffffffffffffffffffffffffffffffff16141561224f576040517f08c379a000000000000000000000000000000000000000000000000000000000815260040161224690614506565b60405180910390fd5b6000612259611a07565b905061227a8160008761226b88612592565b61227488612592565b8761260c565b8260008086815260200190815260200160002060008773ffffffffffffffffffffffffffffffffffffffff1673ffffffffffffffffffffffffffffffffffffffff16815260200190815260200160002060008282546122d991906141bc565b925050819055508473ffffffffffffffffffffffffffffffffffffffff16600073ffffffffffffffffffffffffffffffffffffffff168273ffffffffffffffffffffffffffffffffffffffff167fc3d58168c5ae7397731d063d5bbf3d657854427343f4c083240f7aacaa2d0f628787604051612357929190614212565b60405180910390a461236e81600087878787612622565b5050505050565b600073ffffffffffffffffffffffffffffffffffffffff168373ffffffffffffffffffffffffffffffffffffffff1614156123e5576040517f08c379a00000000000000000000000000000000000000000000000000000000081526004016123dc906143e2565b60405180910390fd5b60006123ef611a07565b905061241f8185600061240187612592565b61240a87612592565b6040518060200160405280600081525061260c565b600080600085815260200190815260200160002060008673ffffffffffffffffffffffffffffffffffffffff1673ffffffffffffffffffffffffffffffffffffffff168152602001908152602001600020549050828110156124b6576040517f08c379a00000000000000000000000000000000000000000000000000000000081526004016124ad90614474565b60405180910390fd5b82810360008086815260200190815260200160002060008773ffffffffffffffffffffffffffffffffffffffff1673ffffffffffffffffffffffffffffffffffffffff16815260200190815260200160002081905550600073ffffffffffffffffffffffffffffffffffffffff168573ffffffffffffffffffffffffffffffffffffffff168373ffffffffffffffffffffffffffffffffffffffff167fc3d58168c5ae7397731d063d5bbf3d657854427343f4c083240f7aacaa2d0f628787604051612583929190614212565b60405180910390a45050505050565b60606000600167ffffffffffffffff8111156125b1576125b0612dad565b5b6040519080825280602002602001820160405280156125df5781602001602082028036833780820191505090505b50905082816000815181106125f7576125f6613de0565b5b60200260200101818152505080915050919050565b61261a8686868686866129d2565b505050505050565b6126418473ffffffffffffffffffffffffffffffffffffffff16612a30565b156127f2578373ffffffffffffffffffffffffffffffffffffffff1663f23a6e6187878686866040518663ffffffff1660e01b815260040161268795949392919061457b565b6020604051808303816000875af19250505080156126c357506040513d601f19601f820116820180604052508101906126c091906145ea565b60015b612769576126cf614624565b806308c379a0141561272c57506126e4614646565b806126ef575061272e565b806040517f08c379a00000000000000000000000000000000000000000000000000000000081526004016127239190612d81565b60405180910390fd5b505b6040517f08c379a00000000000000000000000000000000000000000000000000000000081526004016127609061474e565b60405180910390fd5b63f23a6e6160e01b7bffffffffffffffffffffffffffffffffffffffffffffffffffffffff1916817bffffffffffffffffffffffffffffffffffffffffffffffffffffffff1916146127f0576040517f08c379a00000000000000000000000000000000000000000000000000000000081526004016127e7906147e0565b60405180910390fd5b505b505050505050565b6128198473ffffffffffffffffffffffffffffffffffffffff16612a30565b156129ca578373ffffffffffffffffffffffffffffffffffffffff1663bc197c8187878686866040518663ffffffff1660e01b815260040161285f959493929190614800565b6020604051808303816000875af192505050801561289b57506040513d601f19601f8201168201806040525081019061289891906145ea565b60015b612941576128a7614624565b806308c379a0141561290457506128bc614646565b806128c75750612906565b806040517f08c379a00000000000000000000000000000000000000000000000000000000081526004016128fb9190612d81565b60405180910390fd5b505b6040517f08c379a00000000000000000000000000000000000000000000000000000000081526004016129389061474e565b60405180910390fd5b63bc197c8160e01b7bffffffffffffffffffffffffffffffffffffffffffffffffffffffff1916817bffffffffffffffffffffffffffffffffffffffffffffffffffffffff1916146129c8576040517f08c379a00000000000000000000000000000000000000000000000000000000081526004016129bf906147e0565b60405180910390fd5b505b505050505050565b6129e0868686868686612a43565b6129e8610ea4565b15612a28576040517f08c379a0000000000000000000000000000000000000000000000000000000008152600401612a1f906148da565b60405180910390fd5b505050505050565b600080823b905060008111915050919050565b505050505050565b828054612a579061385b565b90600052602060002090601f016020900481019282612a795760008555612ac0565b82601f10612a9257805160ff1916838001178555612ac0565b82800160010185558215612ac0579182015b82811115612abf578251825591602001919060010190612aa4565b5b509050612acd9190612ad1565b5090565b5b80821115612aea576000816000905550600101612ad2565b5090565b6000604051905090565b600080fd5b600080fd5b600073ffffffffffffffffffffffffffffffffffffffff82169050919050565b6000612b2d82612b02565b9050919050565b612b3d81612b22565b8114612b4857600080fd5b50565b600081359050612b5a81612b34565b92915050565b6000819050919050565b612b7381612b60565b8114612b7e57600080fd5b50565b600081359050612b9081612b6a565b92915050565b60008060408385031215612bad57612bac612af8565b5b6000612bbb85828601612b4b565b9250506020612bcc85828601612b81565b9150509250929050565b612bdf81612b60565b82525050565b6000602082019050612bfa6000830184612bd6565b92915050565b60007fffffffff0000000000000000000000000000000000000000000000000000000082169050919050565b612c3581612c00565b8114612c4057600080fd5b50565b600081359050612c5281612c2c565b92915050565b600060208284031215612c6e57612c6d612af8565b5b6000612c7c84828501612c43565b91505092915050565b60008115159050919050565b612c9a81612c85565b82525050565b6000602082019050612cb56000830184612c91565b92915050565b600060208284031215612cd157612cd0612af8565b5b6000612cdf84828501612b81565b91505092915050565b600081519050919050565b600082825260208201905092915050565b60005b83811015612d22578082015181840152602081019050612d07565b83811115612d31576000848401525b50505050565b6000601f19601f8301169050919050565b6000612d5382612ce8565b612d5d8185612cf3565b9350612d6d818560208601612d04565b612d7681612d37565b840191505092915050565b60006020820190508181036000830152612d9b8184612d48565b905092915050565b600080fd5b600080fd5b7f4e487b7100000000000000000000000000000000000000000000000000000000600052604160045260246000fd5b612de582612d37565b810181811067ffffffffffffffff82111715612e0457612e03612dad565b5b80604052505050565b6000612e17612aee565b9050612e238282612ddc565b919050565b600067ffffffffffffffff821115612e4357612e42612dad565b5b612e4c82612d37565b9050602081019050919050565b82818337600083830152505050565b6000612e7b612e7684612e28565b612e0d565b905082815260208101848484011115612e9757612e96612da8565b5b612ea2848285612e59565b509392505050565b600082601f830112612ebf57612ebe612da3565b5b8135612ecf848260208601612e68565b91505092915050565b600080600060608486031215612ef157612ef0612af8565b5b6000612eff86828701612b81565b9350506020612f1086828701612b81565b925050604084013567ffffffffffffffff811115612f3157612f30612afd565b5b612f3d86828701612eaa565b9150509250925092565b600067ffffffffffffffff821115612f6257612f61612dad565b5b602082029050602081019050919050565b600080fd5b6000612f8b612f8684612f47565b612e0d565b90508083825260208201905060208402830185811115612fae57612fad612f73565b5b835b81811015612fd75780612fc38882612b81565b845260208401935050602081019050612fb0565b5050509392505050565b600082601f830112612ff657612ff5612da3565b5b8135613006848260208601612f78565b91505092915050565b600080600080600060a0868803121561302b5761302a612af8565b5b600061303988828901612b4b565b955050602061304a88828901612b4b565b945050604086013567ffffffffffffffff81111561306b5761306a612afd565b5b61307788828901612fe1565b935050606086013567ffffffffffffffff81111561309857613097612afd565b5b6130a488828901612fe1565b925050608086013567ffffffffffffffff8111156130c5576130c4612afd565b5b6130d188828901612eaa565b9150509295509295909350565b600067ffffffffffffffff8211156130f9576130f8612dad565b5b602082029050602081019050919050565b600061311d613118846130de565b612e0d565b905080838252602082019050602084028301858111156131405761313f612f73565b5b835b8181101561316957806131558882612b4b565b845260208401935050602081019050613142565b5050509392505050565b600082601f83011261318857613187612da3565b5b813561319884826020860161310a565b91505092915050565b600080604083850312156131b8576131b7612af8565b5b600083013567ffffffffffffffff8111156131d6576131d5612afd565b5b6131e285828601613173565b925050602083013567ffffffffffffffff81111561320357613202612afd565b5b61320f85828601612fe1565b9150509250929050565b600081519050919050565b600082825260208201905092915050565b6000819050602082019050919050565b61324e81612b60565b82525050565b60006132608383613245565b60208301905092915050565b6000602082019050919050565b600061328482613219565b61328e8185613224565b935061329983613235565b8060005b838110156132ca5781516132b18882613254565b97506132bc8361326c565b92505060018101905061329d565b5085935050505092915050565b600060208201905081810360008301526132f18184613279565b905092915050565b600060c08201905061330e6000830189612bd6565b81810360208301526133208188612d48565b905061332f6040830187612bd6565b61333c6060830186612bd6565b818103608083015261334e8185612d48565b905081810360a08301526133628184612d48565b9050979650505050505050565b60008060006060848603121561338857613387612af8565b5b600061339686828701612b4b565b935050602084013567ffffffffffffffff8111156133b7576133b6612afd565b5b6133c386828701612fe1565b925050604084013567ffffffffffffffff8111156133e4576133e3612afd565b5b6133f086828701612fe1565b9150509250925092565b61340381612b22565b82525050565b600060208201905061341e60008301846133fa565b92915050565b600067ffffffffffffffff82111561343f5761343e612dad565b5b61344882612d37565b9050602081019050919050565b600061346861346384613424565b612e0d565b90508281526020810184848401111561348457613483612da8565b5b61348f848285612e59565b509392505050565b600082601f8301126134ac576134ab612da3565b5b81356134bc848260208601613455565b91505092915050565b600080600080600080600060e0888a0312156134e4576134e3612af8565b5b600088013567ffffffffffffffff81111561350257613501612afd565b5b61350e8a828b01613497565b975050602061351f8a828b01612b81565b96505060406135308a828b01612b81565b95505060606135418a828b01612b81565b945050608088013567ffffffffffffffff81111561356257613561612afd565b5b61356e8a828b01613497565b93505060a088013567ffffffffffffffff81111561358f5761358e612afd565b5b61359b8a828b01613497565b92505060c088013567ffffffffffffffff8111156135bc576135bb612afd565b5b6135c88a828b01612eaa565b91505092959891949750929550565b6135e081612c85565b81146135eb57600080fd5b50565b6000813590506135fd816135d7565b92915050565b6000806040838503121561361a57613619612af8565b5b600061362885828601612b4b565b9250506020613639858286016135ee565b9150509250929050565b6000806040838503121561365a57613659612af8565b5b600061366885828601612b4b565b925050602061367985828601612b4b565b9150509250929050565b600080600080600060a0868803121561369f5761369e612af8565b5b60006136ad88828901612b4b565b95505060206136be88828901612b4b565b94505060406136cf88828901612b81565b93505060606136e088828901612b81565b925050608086013567ffffffffffffffff81111561370157613700612afd565b5b61370d88828901612eaa565b9150509295509295909350565b6000602082840312156137305761372f612af8565b5b600061373e84828501612b4b565b91505092915050565b6000806000606084860312156137605761375f612af8565b5b600061376e86828701612b4b565b935050602061377f86828701612b81565b925050604061379086828701612b81565b9150509250925092565b7f455243313135353a2062616c616e636520717565727920666f7220746865207a60008201527f65726f2061646472657373000000000000000000000000000000000000000000602082015250565b60006137f6602b83612cf3565b91506138018261379a565b604082019050919050565b60006020820190508181036000830152613825816137e9565b9050919050565b7f4e487b7100000000000000000000000000000000000000000000000000000000600052602260045260246000fd5b6000600282049050600182168061387357607f821691505b602082108114156138875761388661382c565b5b50919050565b7f416d6f756e74206d75737420626967676572207468616e203000000000000000600082015250565b60006138c3601983612cf3565b91506138ce8261388d565b602082019050919050565b600060208201905081810360008301526138f2816138b6565b9050919050565b7f4e6f7420656e6f756768207469636b6574730000000000000000000000000000600082015250565b600061392f601283612cf3565b915061393a826138f9565b602082019050919050565b6000602082019050818103600083015261395e81613922565b9050919050565b7f4d617820616d6d6f756e742070657220706572736f6e20726561636865640000600082015250565b600061399b601e83612cf3565b91506139a682613965565b602082019050919050565b600060208201905081810360008301526139ca8161398e565b9050919050565b7f4e487b7100000000000000000000000000000000000000000000000000000000600052601160045260246000fd5b6000613a0b82612b60565b9150613a1683612b60565b9250817fffffffffffffffffffffffffffffffffffffffffffffffffffffffffffffffff0483118215151615613a4f57613a4e6139d1565b5b828202905092915050565b7f496e636f727265637420616d6f756e7400000000000000000000000000000000600082015250565b6000613a90601083612cf3565b9150613a9b82613a5a565b602082019050919050565b60006020820190508181036000830152613abf81613a83565b9050919050565b7f5469636b657420646f6573206e6f742065786973740000000000000000000000600082015250565b6000613afc601583612cf3565b9150613b0782613ac6565b602082019050919050565b60006020820190508181036000830152613b2b81613aef565b9050919050565b7f5061757361626c653a2070617573656400000000000000000000000000000000600082015250565b6000613b68601083612cf3565b9150613b7382613b32565b602082019050919050565b60006020820190508181036000830152613b9781613b5b565b9050919050565b600081905092915050565b50565b6000613bb9600083613b9e565b9150613bc482613ba9565b600082019050919050565b6000613bda82613bac565b9150819050919050565b7f4661696c656420746f2073656e64204574686572000000000000000000000000600082015250565b6000613c1a601483612cf3565b9150613c2582613be4565b602082019050919050565b60006020820190508181036000830152613c4981613c0d565b9050919050565b7f455243313135353a207472616e736665722063616c6c6572206973206e6f742060008201527f6f776e6572206e6f7220617070726f7665640000000000000000000000000000602082015250565b6000613cac603283612cf3565b9150613cb782613c50565b604082019050919050565b60006020820190508181036000830152613cdb81613c9f565b9050919050565b7f4f776e61626c653a2063616c6c6572206973206e6f7420746865206f776e6572600082015250565b6000613d18602083612cf3565b9150613d2382613ce2565b602082019050919050565b60006020820190508181036000830152613d4781613d0b565b9050919050565b7f455243313135353a206163636f756e747320616e6420696473206c656e67746860008201527f206d69736d617463680000000000000000000000000000000000000000000000602082015250565b6000613daa602983612cf3565b9150613db582613d4e565b604082019050919050565b60006020820190508181036000830152613dd981613d9d565b9050919050565b7f4e487b7100000000000000000000000000000000000000000000000000000000600052603260045260246000fd5b6000613e1a82612b60565b91507fffffffffffffffffffffffffffffffffffffffffffffffffffffffffffffffff821415613e4d57613e4c6139d1565b5b600182019050919050565b7f455243313135353a2063616c6c6572206973206e6f74206f776e6572206e6f7260008201527f20617070726f7665640000000000000000000000000000000000000000000000602082015250565b6000613eb4602983612cf3565b9150613ebf82613e58565b604082019050919050565b60006020820190508181036000830152613ee381613ea7565b9050919050565b600081905092915050565b6000613f0082612ce8565b613f0a8185613eea565b9350613f1a818560208601612d04565b80840191505092915050565b6000613f328284613ef5565b915081905092915050565b6000606082019050613f526000830186612bd6565b613f5f6020830185612bd6565b613f6c6040830184612bd6565b949350505050565b7f455243313135353a2073657474696e6720617070726f76616c2073746174757360008201527f20666f722073656c660000000000000000000000000000000000000000000000602082015250565b6000613fd0602983612cf3565b9150613fdb82613f74565b604082019050919050565b60006020820190508181036000830152613fff81613fc3565b9050919050565b7f4f776e61626c653a206e6577206f776e657220697320746865207a65726f206160008201527f6464726573730000000000000000000000000000000000000000000000000000602082015250565b6000614062602683612cf3565b915061406d82614006565b604082019050919050565b6000602082019050818103600083015261409181614055565b9050919050565b7f455243313135353a207472616e7366657220746f20746865207a65726f20616460008201527f6472657373000000000000000000000000000000000000000000000000000000602082015250565b60006140f4602583612cf3565b91506140ff82614098565b604082019050919050565b60006020820190508181036000830152614123816140e7565b9050919050565b7f455243313135353a20696e73756666696369656e742062616c616e636520666f60008201527f72207472616e7366657200000000000000000000000000000000000000000000602082015250565b6000614186602a83612cf3565b91506141918261412a565b604082019050919050565b600060208201905081810360008301526141b581614179565b9050919050565b60006141c782612b60565b91506141d283612b60565b9250827fffffffffffffffffffffffffffffffffffffffffffffffffffffffffffffffff03821115614207576142066139d1565b5b828201905092915050565b60006040820190506142276000830185612bd6565b6142346020830184612bd6565b9392505050565b7f455243313135353a2069647320616e6420616d6f756e7473206c656e6774682060008201527f6d69736d61746368000000000000000000000000000000000000000000000000602082015250565b6000614297602883612cf3565b91506142a28261423b565b604082019050919050565b600060208201905081810360008301526142c68161428a565b9050919050565b600060408201905081810360008301526142e78185613279565b905081810360208301526142fb8184613279565b90509392505050565b7f5061757361626c653a206e6f7420706175736564000000000000000000000000600082015250565b600061433a601483612cf3565b915061434582614304565b602082019050919050565b600060208201905081810360008301526143698161432d565b9050919050565b7f455243313135353a206275726e2066726f6d20746865207a65726f206164647260008201527f6573730000000000000000000000000000000000000000000000000000000000602082015250565b60006143cc602383612cf3565b91506143d782614370565b604082019050919050565b600060208201905081810360008301526143fb816143bf565b9050919050565b7f455243313135353a206275726e20616d6f756e7420657863656564732062616c60008201527f616e636500000000000000000000000000000000000000000000000000000000602082015250565b600061445e602483612cf3565b915061446982614402565b604082019050919050565b6000602082019050818103600083015261448d81614451565b9050919050565b7f455243313135353a206d696e7420746f20746865207a65726f2061646472657360008201527f7300000000000000000000000000000000000000000000000000000000000000602082015250565b60006144f0602183612cf3565b91506144fb82614494565b604082019050919050565b6000602082019050818103600083015261451f816144e3565b9050919050565b600081519050919050565b600082825260208201905092915050565b600061454d82614526565b6145578185614531565b9350614567818560208601612d04565b61457081612d37565b840191505092915050565b600060a08201905061459060008301886133fa565b61459d60208301876133fa565b6145aa6040830186612bd6565b6145b76060830185612bd6565b81810360808301526145c98184614542565b90509695505050505050565b6000815190506145e481612c2c565b92915050565b600060208284031215614600576145ff612af8565b5b600061460e848285016145d5565b91505092915050565b60008160e01c9050919050565b600060033d11156146435760046000803e614640600051614617565b90505b90565b600060443d1015614656576146d9565b61465e612aee565b60043d036004823e80513d602482011167ffffffffffffffff821117156146865750506146d9565b808201805167ffffffffffffffff8111156146a457505050506146d9565b80602083010160043d0385018111156146c15750505050506146d9565b6146d082602001850186612ddc565b82955050505050505b90565b7f455243313135353a207472616e7366657220746f206e6f6e204552433131353560008201527f526563656976657220696d706c656d656e746572000000000000000000000000602082015250565b6000614738603483612cf3565b9150614743826146dc565b604082019050919050565b600060208201905081810360008301526147678161472b565b9050919050565b7f455243313135353a204552433131353552656365697665722072656a6563746560008201527f6420746f6b656e73000000000000000000000000000000000000000000000000602082015250565b60006147ca602883612cf3565b91506147d58261476e565b604082019050919050565b600060208201905081810360008301526147f9816147bd565b9050919050565b600060a08201905061481560008301886133fa565b61482260208301876133fa565b81810360408301526148348186613279565b905081810360608301526148488185613279565b9050818103608083015261485c8184614542565b90509695505050505050565b7f455243313135355061757361626c653a20746f6b656e207472616e736665722060008201527f7768696c65207061757365640000000000000000000000000000000000000000602082015250565b60006148c4602c83612cf3565b91506148cf82614868565b604082019050919050565b600060208201905081810360008301526148f3816148b7565b905091905056fea264697066735822122024fa7ed9c5038572e07ec9cf8748d8b8e44aedbcdbf0f520ea4d93987c9c28b564736f6c634300080a0033",
  "immutableReferences": {},
  "source": "// SPDX-License-Identifier: MIT\npragma solidity 0.8.10;\n\nimport \"@openzeppelin/contracts/token/ERC1155/ERC1155.sol\";\nimport \"@openzeppelin/contracts/access/Ownable.sol\";\nimport \"@openzeppelin/contracts/token/ERC1155/extensions/ERC1155Burnable.sol\";\nimport \"@openzeppelin/contracts/token/ERC1155/extensions/ERC1155Pausable.sol\";\n\n/// @title Contract for modeling ticket sales on ERC1155 tokens\n/// @author Javier Rojo\n/// @notice Allows an organizer to publish events, and other users to buy tickets, more for the future\n/// @custom:security-contact @javierlinked\ncontract TicketContract is ERC1155, Ownable, ERC1155Pausable, ERC1155Burnable {\n\n    /// @dev variariables and counters used by the contract and by the frontend, in order to crate a list\n    uint public nonce;\n    uint[] public tokenIds;\n    uint public tokenIdsLength;\n    \n    struct Ticket {\n        uint id;\n        string name;\n        uint price;     // in gwei\n        uint maxSellPerPerson;  // max number of tickets that can be kept per person\n        string infoUrl; // this is to be removed and kept off-chain\n        string imageUrl; // this is to be removed and kept off-chain\n    }\n\n    mapping(uint => Ticket) public tickets;\n\n    /// @notice This event is emmited when a ticket is created\n    /// @param id the id of the ticket\n    /// @param minter address of the minter\n    /// @param name name of the ticket\n    /// @param price price of the ticket \n    /// @param amount total supply of tickets\n    /// @param maxSellPerPerson the maximum number of tickets that can be hold per person\n    event TicketCreated(\n        uint indexed id,\n        address indexed minter,\n        string indexed name,\n        uint price,\n        uint amount,\n        uint maxSellPerPerson\n    );\n\n    //// @notice this event is emmited when a ticket is sold\n    /// @param id the id of the ticket\n    /// @param seller the address of the seller\n    /// @param buyer the address of the buyer\n    /// @param amount the amount of tickets sold\n    event TicketSold(\n        uint indexed id,\n        address indexed seller,\n        address indexed buyer,\n        uint amount\n    );\n\n    /// @notice this verifies the payment is exact or cancels the transaction\n    modifier paidExactly(uint amount, uint id) {\n        uint total = amount * tickets[id].price;\n        require(total == msg.value, \"Incorrect amount\");\n        _;\n    }\n\n    /// @notice this verifies the minter has enough tickets to sell\n    modifier allowedSell(uint amount, uint id) {\n        require(amount > 0, \"Amount must bigger than 0\");\n        require(balanceOf(owner(), id) >= amount, \"Not enough tickets\");\n        require(\n            amount <= tickets[id].maxSellPerPerson,\n            \"Max ammount per person reached\"\n        );\n        _;\n    }\n\n    modifier validate(uint id) {\n        require(tickets[id].price != 0, \"Ticket does not exist\");\n        _;\n    }\n\n    /// @notice constructor is trivial, but can be used to set parameters on deployment\n    constructor() ERC1155(\"\") {\n        nonce = 0;\n    }\n\n    /// @notice Crates a ticket\n    /// @dev After validations and internal variable set, delegates to the ERC1155 contract and emmits the event\n    /// @param name name of the ticket\n    /// @param price price of the ticket \n    /// @param amount total supply of tickets\n    /// @param maxSellPerPerson the maximum number of tickets that can be hold per person\n    /// @param infoUrl extra info about the ticket\n    /// @param imageUrl image of the ticket\n    /// @param data data required by ERC1155\n    function create(\n        string memory name,\n        uint price,\n        uint amount,\n        uint maxSellPerPerson,\n        string memory infoUrl,\n        string memory imageUrl,\n        bytes memory data\n    ) public onlyOwner whenNotPaused {\n        uint newId = ++nonce;\n\n        address owner = msg.sender;\n        Ticket memory newTicket = Ticket(newId, name, price, maxSellPerPerson, infoUrl, imageUrl);\n        tokenIds.push(newId);\n        tokenIdsLength = tokenIds.length;\n        tickets[newId] = newTicket;\n        _mint(owner, newId, amount, data);\n        emit TicketCreated(newId, owner, name, price, amount, maxSellPerPerson);\n    }\n\n    /// @notice sells a ticket\n    /// @dev It makes verifications, then transfers payment, later delegates to the ERC1155 transfer of the token\n    /// and finally emits the event\n    /// @param id token id\n    /// @param amount amount of tickets to sell\n    /// @param data data required by ERC1155\n    function buy(\n        uint id,\n        uint amount,\n        bytes memory data\n    )\n        public\n        payable\n        allowedSell(amount, id)\n        paidExactly(amount, id)\n        validate(id)\n        whenNotPaused\n    {\n        address payable owner = payable(owner());\n        address buyer = msg.sender;\n        (bool sent, ) = owner.call{value: msg.value}(\"\");\n        require(sent, \"Failed to send Ether\");\n        _safeTransferFrom(owner, buyer, id, amount, data);\n        emit TicketSold(id, owner, buyer, amount);\n    }\n\n    /// @notice burns a token. This funtion is used when the ticket is USED.\n    /// @dev after verifications delegates to the ERC1155 burn of the token\n    function burn(\n        address account,\n        uint id,\n        uint amount\n    ) public override\n    /**   onlyOwner ???*/ \n    whenNotPaused {\n        // NOTE:  to myself, not related to _balances[][] but to existence of tokens in the contract\n        _burn(account, id, amount);\n    }\n\n    /**\n     * @dev Pauses all token transfers.\n     *\n     * See {ERC1155Pausable} and {Pausable-_pause}.\n     *\n     * Requirements:\n     *\n     * - the caller must be owner.\n     */\n    function pause() public virtual onlyOwner {\n        _pause();\n    }\n\n    /**\n     * @dev Unpauses all token transfers.\n     *\n     * See {ERC1155Pausable} and {Pausable-_unpause}.\n     *\n     * Requirements:\n     *\n     * - the caller owner.\n     */\n    function unpause() public virtual onlyOwner {\n        _unpause();\n    }\n\n    function _beforeTokenTransfer(\n        address operator,\n        address from,\n        address to,\n        uint256[] memory ids,\n        uint256[] memory amounts,\n        bytes memory data\n    ) internal virtual override(ERC1155, ERC1155Pausable) {\n        super._beforeTokenTransfer(operator, from, to, ids, amounts, data);\n    }\n}\n",
  "sourcePath": "/Users/javier/dev/ConsenSys/blockchain-developer-bootcamp-final-project/contracts/TicketContract.sol",
  "compiler": {
    "name": "solc",
    "version": "0.8.10+commit.fc410830.Emscripten.clang"
  },
  "schemaVersion": "3.4.3",
  "updatedAt": "2021-11-26T13:28:41.995Z",
  "networkType": "ethereum",
  "devdoc": {
    "author": "Javier Rojo",
    "custom:security-contact": "@javierlinked",
    "events": {
      "TicketCreated(uint256,address,string,uint256,uint256,uint256)": {
        "params": {
          "amount": "total supply of tickets",
          "id": "the id of the ticket",
          "maxSellPerPerson": "the maximum number of tickets that can be hold per person",
          "minter": "address of the minter",
          "name": "name of the ticket",
          "price": "price of the ticket "
        }
      },
      "TicketSold(uint256,address,address,uint256)": {
        "params": {
          "amount": "the amount of tickets sold",
          "buyer": "the address of the buyer",
          "id": "the id of the ticket",
          "seller": "the address of the seller"
        }
      }
    },
    "kind": "dev",
    "methods": {
      "balanceOf(address,uint256)": {
        "details": "See {IERC1155-balanceOf}. Requirements: - `account` cannot be the zero address."
      },
      "balanceOfBatch(address[],uint256[])": {
        "details": "See {IERC1155-balanceOfBatch}. Requirements: - `accounts` and `ids` must have the same length."
      },
      "burn(address,uint256,uint256)": {
        "details": "after verifications delegates to the ERC1155 burn of the token"
      },
      "buy(uint256,uint256,bytes)": {
        "details": "It makes verifications, then transfers payment, later delegates to the ERC1155 transfer of the token and finally emits the event",
        "params": {
          "amount": "amount of tickets to sell",
          "data": "data required by ERC1155",
          "id": "token id"
        }
      },
      "create(string,uint256,uint256,uint256,string,string,bytes)": {
        "details": "After validations and internal variable set, delegates to the ERC1155 contract and emmits the event",
        "params": {
          "amount": "total supply of tickets",
          "data": "data required by ERC1155",
          "imageUrl": "image of the ticket",
          "infoUrl": "extra info about the ticket",
          "maxSellPerPerson": "the maximum number of tickets that can be hold per person",
          "name": "name of the ticket",
          "price": "price of the ticket "
        }
      },
      "isApprovedForAll(address,address)": {
        "details": "See {IERC1155-isApprovedForAll}."
      },
      "owner()": {
        "details": "Returns the address of the current owner."
      },
      "pause()": {
        "details": "Pauses all token transfers. See {ERC1155Pausable} and {Pausable-_pause}. Requirements: - the caller must be owner."
      },
      "paused()": {
        "details": "Returns true if the contract is paused, and false otherwise."
      },
      "renounceOwnership()": {
        "details": "Leaves the contract without owner. It will not be possible to call `onlyOwner` functions anymore. Can only be called by the current owner. NOTE: Renouncing ownership will leave the contract without an owner, thereby removing any functionality that is only available to the owner."
      },
      "safeBatchTransferFrom(address,address,uint256[],uint256[],bytes)": {
        "details": "See {IERC1155-safeBatchTransferFrom}."
      },
      "safeTransferFrom(address,address,uint256,uint256,bytes)": {
        "details": "See {IERC1155-safeTransferFrom}."
      },
      "setApprovalForAll(address,bool)": {
        "details": "See {IERC1155-setApprovalForAll}."
      },
      "supportsInterface(bytes4)": {
        "details": "See {IERC165-supportsInterface}."
      },
      "transferOwnership(address)": {
        "details": "Transfers ownership of the contract to a new account (`newOwner`). Can only be called by the current owner."
      },
      "unpause()": {
        "details": "Unpauses all token transfers. See {ERC1155Pausable} and {Pausable-_unpause}. Requirements: - the caller owner."
      },
      "uri(uint256)": {
        "details": "See {IERC1155MetadataURI-uri}. This implementation returns the same URI for *all* token types. It relies on the token type ID substitution mechanism https://eips.ethereum.org/EIPS/eip-1155#metadata[defined in the EIP]. Clients calling this function must replace the `\\{id\\}` substring with the actual token type ID."
      }
    },
    "stateVariables": {
      "nonce": {
        "details": "variariables and counters used by the contract and by the frontend, in order to crate a list"
      }
    },
    "title": "Contract for modeling ticket sales on ERC1155 tokens",
    "version": 1
  },
  "userdoc": {
    "events": {
      "TicketCreated(uint256,address,string,uint256,uint256,uint256)": {
        "notice": "This event is emmited when a ticket is created"
      }
    },
    "kind": "user",
    "methods": {
      "burn(address,uint256,uint256)": {
        "notice": "burns a token. This funtion is used when the ticket is USED."
      },
      "buy(uint256,uint256,bytes)": {
        "notice": "sells a ticket"
      },
      "constructor": {
        "notice": "constructor is trivial, but can be used to set parameters on deployment"
      },
      "create(string,uint256,uint256,uint256,string,string,bytes)": {
        "notice": "Crates a ticket"
      }
    },
    "notice": "Allows an organizer to publish events, and other users to buy tickets, more for the future",
    "version": 1
  }
}